{
  "_format": "hh-sol-artifact-1",
  "contractName": "Deployer",
  "sourceName": "contracts/Deployer.sol",
  "abi": [
    {
      "inputs": [
        {
          "internalType": "string",
          "name": "_content_type",
          "type": "string"
        },
        {
          "internalType": "string",
          "name": "_content_message",
          "type": "string"
        },
        {
          "internalType": "string",
          "name": "_target",
          "type": "string"
        },
        {
          "internalType": "uint256",
          "name": "_start_date",
          "type": "uint256"
        },
        {
          "internalType": "uint256",
          "name": "_end_date",
          "type": "uint256"
        }
      ],
      "name": "CreateProposal",
      "outputs": [],
      "stateMutability": "nonpayable",
      "type": "function"
    },
    {
      "inputs": [
        {
          "internalType": "uint256",
          "name": "",
          "type": "uint256"
        }
      ],
      "name": "proposals",
      "outputs": [
        {
          "internalType": "address",
          "name": "",
          "type": "address"
        }
      ],
      "stateMutability": "view",
      "type": "function"
    },
    {
      "inputs": [
        {
          "internalType": "uint256",
          "name": "",
          "type": "uint256"
        }
      ],
      "name": "providers",
      "outputs": [
        {
          "internalType": "address",
          "name": "",
          "type": "address"
        }
      ],
      "stateMutability": "view",
      "type": "function"
    }
  ],
  "bytecode": "0x608060405234801561001057600080fd5b506111fc806100206000396000f3fe60806040523480156200001157600080fd5b5060043610620000465760003560e01c8063013cf08b146200004b57806350f3fc811462000081578063d74dc6de14620000b7575b600080fd5b62000069600480360381019062000063919062000264565b620000d7565b604051620000789190620002db565b60405180910390f35b6200009f600480360381019062000099919062000264565b62000117565b604051620000ae9190620002db565b60405180910390f35b620000d56004803603810190620000cf91906200045a565b62000157565b005b60008181548110620000e857600080fd5b906000526020600020016000915054906101000a900473ffffffffffffffffffffffffffffffffffffffff1681565b600181815481106200012857600080fd5b906000526020600020016000915054906101000a900473ffffffffffffffffffffffffffffffffffffffff1681565b600085858585856040516200016c9062000207565b6200017c959493929190620005d9565b604051809103906000f08015801562000199573d6000803e3d6000fd5b5090506000819080600181540180825580915050600190039060005260206000200160009091909190916101000a81548173ffffffffffffffffffffffffffffffffffffffff021916908373ffffffffffffffffffffffffffffffffffffffff160217905550505050505050565b610b7b806200064c83390190565b6000604051905090565b600080fd5b600080fd5b6000819050919050565b6200023e8162000229565b81146200024a57600080fd5b50565b6000813590506200025e8162000233565b92915050565b6000602082840312156200027d576200027c6200021f565b5b60006200028d848285016200024d565b91505092915050565b600073ffffffffffffffffffffffffffffffffffffffff82169050919050565b6000620002c38262000296565b9050919050565b620002d581620002b6565b82525050565b6000602082019050620002f26000830184620002ca565b92915050565b600080fd5b600080fd5b6000601f19601f8301169050919050565b7f4e487b7100000000000000000000000000000000000000000000000000000000600052604160045260246000fd5b6200034d8262000302565b810181811067ffffffffffffffff821117156200036f576200036e62000313565b5b80604052505050565b60006200038462000215565b905062000392828262000342565b919050565b600067ffffffffffffffff821115620003b557620003b462000313565b5b620003c08262000302565b9050602081019050919050565b82818337600083830152505050565b6000620003f3620003ed8462000397565b62000378565b905082815260208101848484011115620004125762000411620002fd565b5b6200041f848285620003cd565b509392505050565b600082601f8301126200043f576200043e620002f8565b5b813562000451848260208601620003dc565b91505092915050565b600080600080600060a086880312156200047957620004786200021f565b5b600086013567ffffffffffffffff8111156200049a576200049962000224565b5b620004a88882890162000427565b955050602086013567ffffffffffffffff811115620004cc57620004cb62000224565b5b620004da8882890162000427565b945050604086013567ffffffffffffffff811115620004fe57620004fd62000224565b5b6200050c8882890162000427565b93505060606200051f888289016200024d565b925050608062000532888289016200024d565b9150509295509295909350565b600081519050919050565b600082825260208201905092915050565b60005b838110156200057b5780820151818401526020810190506200055e565b60008484015250505050565b600062000594826200053f565b620005a081856200054a565b9350620005b28185602086016200055b565b620005bd8162000302565b840191505092915050565b620005d38162000229565b82525050565b600060a0820190508181036000830152620005f5818862000587565b905081810360208301526200060b818762000587565b9050818103604083015262000621818662000587565b9050620006326060830185620005c8565b620006416080830184620005c8565b969550505050505056fe60806040523480156200001157600080fd5b5060405162000b7b38038062000b7b83398181016040528101906200003791906200027a565b60405180604001604052808681526020018581525060046000820151816000019081620000659190620005a0565b5060208201518160010190816200007d9190620005a0565b5090505081600081905550806002819055508260019081620000a09190620005a0565b50505050505062000687565b6000604051905090565b600080fd5b600080fd5b600080fd5b600080fd5b6000601f19601f8301169050919050565b7f4e487b7100000000000000000000000000000000000000000000000000000000600052604160045260246000fd5b6200011582620000ca565b810181811067ffffffffffffffff82111715620001375762000136620000db565b5b80604052505050565b60006200014c620000ac565b90506200015a82826200010a565b919050565b600067ffffffffffffffff8211156200017d576200017c620000db565b5b6200018882620000ca565b9050602081019050919050565b60005b83811015620001b557808201518184015260208101905062000198565b60008484015250505050565b6000620001d8620001d2846200015f565b62000140565b905082815260208101848484011115620001f757620001f6620000c5565b5b6200020484828562000195565b509392505050565b600082601f830112620002245762000223620000c0565b5b815162000236848260208601620001c1565b91505092915050565b6000819050919050565b62000254816200023f565b81146200026057600080fd5b50565b600081519050620002748162000249565b92915050565b600080600080600060a08688031215620002995762000298620000b6565b5b600086015167ffffffffffffffff811115620002ba57620002b9620000bb565b5b620002c8888289016200020c565b955050602086015167ffffffffffffffff811115620002ec57620002eb620000bb565b5b620002fa888289016200020c565b945050604086015167ffffffffffffffff8111156200031e576200031d620000bb565b5b6200032c888289016200020c565b93505060606200033f8882890162000263565b9250506080620003528882890162000263565b9150509295509295909350565b600081519050919050565b7f4e487b7100000000000000000000000000000000000000000000000000000000600052602260045260246000fd5b60006002820490506001821680620003b257607f821691505b602082108103620003c857620003c76200036a565b5b50919050565b60008190508160005260206000209050919050565b60006020601f8301049050919050565b600082821b905092915050565b600060088302620004327fffffffffffffffffffffffffffffffffffffffffffffffffffffffffffffffff82620003f3565b6200043e8683620003f3565b95508019841693508086168417925050509392505050565b6000819050919050565b6000620004816200047b62000475846200023f565b62000456565b6200023f565b9050919050565b6000819050919050565b6200049d8362000460565b620004b5620004ac8262000488565b84845462000400565b825550505050565b600090565b620004cc620004bd565b620004d981848462000492565b505050565b5b818110156200050157620004f5600082620004c2565b600181019050620004df565b5050565b601f82111562000550576200051a81620003ce565b6200052584620003e3565b8101602085101562000535578190505b6200054d6200054485620003e3565b830182620004de565b50505b505050565b600082821c905092915050565b6000620005756000198460080262000555565b1980831691505092915050565b600062000590838362000562565b9150826002028217905092915050565b620005ab826200035f565b67ffffffffffffffff811115620005c757620005c6620000db565b5b620005d3825462000399565b620005e082828562000505565b600060209050601f83116001811462000618576000841562000603578287015190505b6200060f858262000582565b8655506200067f565b601f1984166200062886620003ce565b60005b8281101562000652578489015182556001820191506020850194506020810190506200062b565b868310156200067257848901516200066e601f89168262000562565b8355505b6001600288020188555050505b505050505050565b6104e480620006976000396000f3fe608060405234801561001057600080fd5b50600436106100575760003560e01c806327d795d71461005c57806333bbae931461007a5780638a4d5a6714610098578063a8e4fb90146100b7578063d4b83992146100d5575b600080fd5b6100646100f3565b60405161007191906102ee565b60405180910390f35b6100826100f9565b60405161008f91906102ee565b60405180910390f35b6100a06100ff565b6040516100ae929190610399565b60405180910390f35b6100bf610221565b6040516100cc9190610411565b60405180910390f35b6100dd610247565b6040516100ea919061042c565b60405180910390f35b60005481565b60025481565b60048060000180546101109061047d565b80601f016020809104026020016040519081016040528092919081815260200182805461013c9061047d565b80156101895780601f1061015e57610100808354040283529160200191610189565b820191906000526020600020905b81548152906001019060200180831161016c57829003601f168201915b50505050509080600101805461019e9061047d565b80601f01602080910402602001604051908101604052809291908181526020018280546101ca9061047d565b80156102175780601f106101ec57610100808354040283529160200191610217565b820191906000526020600020905b8154815290600101906020018083116101fa57829003601f168201915b5050505050905082565b600360009054906101000a900473ffffffffffffffffffffffffffffffffffffffff1681565b600180546102549061047d565b80601f01602080910402602001604051908101604052809291908181526020018280546102809061047d565b80156102cd5780601f106102a2576101008083540402835291602001916102cd565b820191906000526020600020905b8154815290600101906020018083116102b057829003601f168201915b505050505081565b6000819050919050565b6102e8816102d5565b82525050565b600060208201905061030360008301846102df565b92915050565b600081519050919050565b600082825260208201905092915050565b60005b83811015610343578082015181840152602081019050610328565b60008484015250505050565b6000601f19601f8301169050919050565b600061036b82610309565b6103758185610314565b9350610385818560208601610325565b61038e8161034f565b840191505092915050565b600060408201905081810360008301526103b38185610360565b905081810360208301526103c78184610360565b90509392505050565b600073ffffffffffffffffffffffffffffffffffffffff82169050919050565b60006103fb826103d0565b9050919050565b61040b816103f0565b82525050565b60006020820190506104266000830184610402565b92915050565b600060208201905081810360008301526104468184610360565b905092915050565b7f4e487b7100000000000000000000000000000000000000000000000000000000600052602260045260246000fd5b6000600282049050600182168061049557607f821691505b6020821081036104a8576104a761044e565b5b5091905056fea264697066735822122085e66a65487a668148721b9d6c957d5a6a06c1e0fd19454056a89479f0b929ad64736f6c63430008180033a2646970667358221220f2e0105b0deb398c88cc2ba09de3a8a425ae955f3e6ba5b2a22ea2ab65d3663364736f6c63430008180033",
  "linkReferences": {},
  "deployedLinkReferences": {}
}