{
  "_format": "hh-sol-artifact-1",
  "contractName": "Deployer",
  "sourceName": "contracts/Deployer.sol",
  "abi": [
    {
      "inputs": [],
      "stateMutability": "nonpayable",
      "type": "constructor"
    },
    {
      "inputs": [
        {
          "internalType": "address",
          "name": "_address",
          "type": "address"
        }
      ],
      "name": "addProvider",
      "outputs": [],
      "stateMutability": "nonpayable",
      "type": "function"
    },
    {
      "inputs": [
        {
          "internalType": "uint256",
          "name": "_startDay",
          "type": "uint256"
        },
        {
          "internalType": "int256",
          "name": "_lat",
          "type": "int256"
        },
        {
          "internalType": "int256",
          "name": "_long",
          "type": "int256"
        },
        {
          "internalType": "string",
          "name": "_target",
          "type": "string"
        },
        {
          "internalType": "uint256",
          "name": "_contentType",
          "type": "uint256"
        },
        {
          "internalType": "string",
          "name": "_contentMessage",
          "type": "string"
        }
      ],
      "name": "createProposal",
      "outputs": [
        {
          "internalType": "contract Proposal",
          "name": "",
          "type": "address"
        }
      ],
      "stateMutability": "nonpayable",
      "type": "function"
    },
    {
      "inputs": [],
      "name": "getProposals",
      "outputs": [
        {
          "internalType": "address[]",
          "name": "",
          "type": "address[]"
        }
      ],
      "stateMutability": "view",
      "type": "function"
    },
    {
      "inputs": [
        {
          "internalType": "address",
          "name": "_address",
          "type": "address"
        }
      ],
      "name": "isProvider",
      "outputs": [
        {
          "internalType": "bool",
          "name": "",
          "type": "bool"
        }
      ],
      "stateMutability": "view",
      "type": "function"
    },
    {
      "inputs": [],
      "name": "owner",
      "outputs": [
        {
          "internalType": "address",
          "name": "",
          "type": "address"
        }
      ],
      "stateMutability": "view",
      "type": "function"
    },
    {
      "inputs": [
        {
          "internalType": "uint256",
          "name": "",
          "type": "uint256"
        }
      ],
      "name": "proposals",
      "outputs": [
        {
          "internalType": "address",
          "name": "",
          "type": "address"
        }
      ],
      "stateMutability": "view",
      "type": "function"
    },
    {
      "inputs": [
        {
          "internalType": "address",
          "name": "",
          "type": "address"
        }
      ],
      "name": "providers",
      "outputs": [
        {
          "internalType": "bool",
          "name": "",
          "type": "bool"
        }
      ],
      "stateMutability": "view",
      "type": "function"
    }
  ],
  "bytecode": "0x608060405234801561001057600080fd5b50336000806101000a81548173ffffffffffffffffffffffffffffffffffffffff021916908373ffffffffffffffffffffffffffffffffffffffff16021790555061599b806100606000396000f3fe60806040523480156200001157600080fd5b5060043610620000885760003560e01c806362564c48116200006357806362564c4814620001195780636b074a07146200013b5780638da5cb5b1462000171578063b226f0cc14620001935762000088565b8063013cf08b146200008d5780630787bc2714620000c357806346e2577a14620000f9575b600080fd5b620000ab6004803603810190620000a5919062000508565b620001c9565b604051620000ba91906200057f565b60405180910390f35b620000e16004803603810190620000db9190620005cd565b62000209565b604051620000f091906200061c565b60405180910390f35b620001176004803603810190620001119190620005cd565b62000229565b005b62000123620002d9565b60405162000132919062000707565b60405180910390f35b620001596004803603810190620001539190620005cd565b62000369565b6040516200016891906200061c565b60405180910390f35b6200017b620003c6565b6040516200018a91906200057f565b60405180910390f35b620001b16004803603810190620001ab9190620008c8565b620003ea565b604051620001c0919062000a0d565b60405180910390f35b60018181548110620001da57600080fd5b906000526020600020016000915054906101000a900473ffffffffffffffffffffffffffffffffffffffff1681565b60026020528060005260406000206000915054906101000a900460ff1681565b60008054906101000a900473ffffffffffffffffffffffffffffffffffffffff1673ffffffffffffffffffffffffffffffffffffffff163373ffffffffffffffffffffffffffffffffffffffff1603620002d6576001600260008373ffffffffffffffffffffffffffffffffffffffff1673ffffffffffffffffffffffffffffffffffffffff16815260200190815260200160002060006101000a81548160ff0219169083151502179055505b50565b606060018054806020026020016040519081016040528092919081815260200182805480156200035f57602002820191906000526020600020905b8160009054906101000a900473ffffffffffffffffffffffffffffffffffffffff1673ffffffffffffffffffffffffffffffffffffffff168152602001906001019080831162000314575b5050505050905090565b600060011515600260008473ffffffffffffffffffffffffffffffffffffffff1673ffffffffffffffffffffffffffffffffffffffff16815260200190815260200160002060009054906101000a900460ff161515149050919050565b60008054906101000a900473ffffffffffffffffffffffffffffffffffffffff1681565b6000803090506000818989898989896040516200040790620004ab565b62000419979695949392919062000ad5565b604051809103906000f08015801562000436573d6000803e3d6000fd5b5090506001819080600181540180825580915050600190039060005260206000200160009091909190916101000a81548173ffffffffffffffffffffffffffffffffffffffff021916908373ffffffffffffffffffffffffffffffffffffffff16021790555080925050509695505050505050565b614e058062000b6183390190565b6000604051905090565b600080fd5b600080fd5b6000819050919050565b620004e281620004cd565b8114620004ee57600080fd5b50565b6000813590506200050281620004d7565b92915050565b600060208284031215620005215762000520620004c3565b5b60006200053184828501620004f1565b91505092915050565b600073ffffffffffffffffffffffffffffffffffffffff82169050919050565b600062000567826200053a565b9050919050565b62000579816200055a565b82525050565b60006020820190506200059660008301846200056e565b92915050565b620005a7816200055a565b8114620005b357600080fd5b50565b600081359050620005c7816200059c565b92915050565b600060208284031215620005e657620005e5620004c3565b5b6000620005f684828501620005b6565b91505092915050565b60008115159050919050565b6200061681620005ff565b82525050565b60006020820190506200063360008301846200060b565b92915050565b600081519050919050565b600082825260208201905092915050565b6000819050602082019050919050565b62000670816200055a565b82525050565b600062000684838362000665565b60208301905092915050565b6000602082019050919050565b6000620006aa8262000639565b620006b6818562000644565b9350620006c38362000655565b8060005b83811015620006fa578151620006de888262000676565b9750620006eb8362000690565b925050600181019050620006c7565b5085935050505092915050565b600060208201905081810360008301526200072381846200069d565b905092915050565b6000819050919050565b62000740816200072b565b81146200074c57600080fd5b50565b600081359050620007608162000735565b92915050565b600080fd5b600080fd5b6000601f19601f8301169050919050565b7f4e487b7100000000000000000000000000000000000000000000000000000000600052604160045260246000fd5b620007bb8262000770565b810181811067ffffffffffffffff82111715620007dd57620007dc62000781565b5b80604052505050565b6000620007f2620004b9565b9050620008008282620007b0565b919050565b600067ffffffffffffffff82111562000823576200082262000781565b5b6200082e8262000770565b9050602081019050919050565b82818337600083830152505050565b6000620008616200085b8462000805565b620007e6565b90508281526020810184848401111562000880576200087f6200076b565b5b6200088d8482856200083b565b509392505050565b600082601f830112620008ad57620008ac62000766565b5b8135620008bf8482602086016200084a565b91505092915050565b60008060008060008060c08789031215620008e857620008e7620004c3565b5b6000620008f889828a01620004f1565b96505060206200090b89828a016200074f565b95505060406200091e89828a016200074f565b945050606087013567ffffffffffffffff811115620009425762000941620004c8565b5b6200095089828a0162000895565b93505060806200096389828a01620004f1565b92505060a087013567ffffffffffffffff811115620009875762000986620004c8565b5b6200099589828a0162000895565b9150509295509295509295565b6000819050919050565b6000620009cd620009c7620009c1846200053a565b620009a2565b6200053a565b9050919050565b6000620009e182620009ac565b9050919050565b6000620009f582620009d4565b9050919050565b62000a0781620009e8565b82525050565b600060208201905062000a246000830184620009fc565b92915050565b62000a3581620004cd565b82525050565b62000a46816200072b565b82525050565b600081519050919050565b600082825260208201905092915050565b60005b8381101562000a8857808201518184015260208101905062000a6b565b60008484015250505050565b600062000aa18262000a4c565b62000aad818562000a57565b935062000abf81856020860162000a68565b62000aca8162000770565b840191505092915050565b600060e08201905062000aec600083018a6200056e565b62000afb602083018962000a2a565b62000b0a604083018862000a3b565b62000b19606083018762000a3b565b818103608083015262000b2d818662000a94565b905062000b3e60a083018562000a2a565b81810360c083015262000b52818462000a94565b90509897505050505050505056fe60806040523480156200001157600080fd5b5060405162004e0538038062004e05833981810160405281019062000037919062000dda565b6040518060200160405280600081525062000058816200023660201b60201c565b5032600460006101000a81548173ffffffffffffffffffffffffffffffffffffffff021916908373ffffffffffffffffffffffffffffffffffffffff16021790555086600360006101000a81548173ffffffffffffffffffffffffffffffffffffffff021916908373ffffffffffffffffffffffffffffffffffffffff16021790555085600581905550846006819055508360078190555082600890816200010191906200110c565b5080600990816200011391906200110c565b5081600a819055506001600a54036200013b576753444835ec580000600c819055506200014b565b670de0b6b3a7640000600c819055505b62278d00603c80601860055462000163919062001222565b6200016f919062001222565b6200017b919062001222565b426200018891906200126d565b620001949190620012a8565b600b81905550620001c730601054670de0b6b3a7640000604051806020016040528060008152506200024b60201b60201c565b60106000815480929190620001dc90620012e3565b919050555062000229600460009054906101000a900473ffffffffffffffffffffffffffffffffffffffff166010546001604051806020016040528060008152506200024b60201b60201c565b50505050505050620016b4565b80600290816200024791906200110c565b5050565b600073ffffffffffffffffffffffffffffffffffffffff168473ffffffffffffffffffffffffffffffffffffffff1603620002c05760006040517f57f447ce000000000000000000000000000000000000000000000000000000008152600401620002b7919062001341565b60405180910390fd5b600080620002d58585620002f760201b60201c565b91509150620002ef6000878484876200032760201b60201c565b505050505050565b60608060405191506001825283602083015260408201905060018152826020820152604081016040529250929050565b6200033b858585856200040060201b60201c565b600073ffffffffffffffffffffffffffffffffffffffff168473ffffffffffffffffffffffffffffffffffffffff1614620003f957600062000382620007ca60201b60201c565b90506001845103620003e0576000620003a6600086620007d260201b90919060201c565b90506000620003c0600086620007d260201b90919060201c565b9050620003d8838989858589620007e660201b60201c565b5050620003f7565b620003f6818787878787620009a960201b60201c565b5b505b5050505050565b80518251146200044d57815181516040517f5b059991000000000000000000000000000000000000000000000000000000008152600401620004449291906200136f565b60405180910390fd5b60006200045f620007ca60201b60201c565b905060005b83518110156200067b576000620004858286620007d260201b90919060201c565b905060006200049e8386620007d260201b90919060201c565b9050600073ffffffffffffffffffffffffffffffffffffffff168873ffffffffffffffffffffffffffffffffffffffff1614620005cf57600080600084815260200190815260200160002060008a73ffffffffffffffffffffffffffffffffffffffff1673ffffffffffffffffffffffffffffffffffffffff168152602001908152602001600020549050818110156200057757888183856040517f03dee4c50000000000000000000000000000000000000000000000000000000081526004016200056e94939291906200139c565b60405180910390fd5b81810360008085815260200190815260200160002060008b73ffffffffffffffffffffffffffffffffffffffff1673ffffffffffffffffffffffffffffffffffffffff16815260200190815260200160002081905550505b600073ffffffffffffffffffffffffffffffffffffffff168773ffffffffffffffffffffffffffffffffffffffff16146200066d578060008084815260200190815260200160002060008973ffffffffffffffffffffffffffffffffffffffff1673ffffffffffffffffffffffffffffffffffffffff16815260200190815260200160002060008282546200066591906200126d565b925050819055505b505080600101905062000464565b506001835103620007425760006200069e600085620007d260201b90919060201c565b90506000620006b8600085620007d260201b90919060201c565b90508573ffffffffffffffffffffffffffffffffffffffff168773ffffffffffffffffffffffffffffffffffffffff168473ffffffffffffffffffffffffffffffffffffffff167fc3d58168c5ae7397731d063d5bbf3d657854427343f4c083240f7aacaa2d0f628585604051620007329291906200136f565b60405180910390a45050620007c3565b8373ffffffffffffffffffffffffffffffffffffffff168573ffffffffffffffffffffffffffffffffffffffff168273ffffffffffffffffffffffffffffffffffffffff167f4a39dc06d4c0dbc64b70af90fd698a233a518aa5d07e595d983b8c0526c8f7fb8686604051620007ba929190620014b7565b60405180910390a45b5050505050565b600033905090565b600060208202602084010151905092915050565b60008473ffffffffffffffffffffffffffffffffffffffff163b1115620009a1578373ffffffffffffffffffffffffffffffffffffffff1663f23a6e6187878686866040518663ffffffff1660e01b81526004016200084a9594939291906200154f565b6020604051808303816000875af19250505080156200088957506040513d601f19601f8201168201806040525081019062000886919062001610565b60015b62000913573d8060008114620008bc576040519150601f19603f3d011682016040523d82523d6000602084013e620008c1565b606091505b5060008151036200090b57846040517f57f447ce00000000000000000000000000000000000000000000000000000000815260040162000902919062001341565b60405180910390fd5b805181602001fd5b63f23a6e6160e01b7bffffffffffffffffffffffffffffffffffffffffffffffffffffffff1916817bffffffffffffffffffffffffffffffffffffffffffffffffffffffff1916146200099f57846040517f57f447ce00000000000000000000000000000000000000000000000000000000815260040162000996919062001341565b60405180910390fd5b505b505050505050565b60008473ffffffffffffffffffffffffffffffffffffffff163b111562000b64578373ffffffffffffffffffffffffffffffffffffffff1663bc197c8187878686866040518663ffffffff1660e01b815260040162000a0d95949392919062001642565b6020604051808303816000875af192505050801562000a4c57506040513d601f19601f8201168201806040525081019062000a49919062001610565b60015b62000ad6573d806000811462000a7f576040519150601f19603f3d011682016040523d82523d6000602084013e62000a84565b606091505b50600081510362000ace57846040517f57f447ce00000000000000000000000000000000000000000000000000000000815260040162000ac5919062001341565b60405180910390fd5b805181602001fd5b63bc197c8160e01b7bffffffffffffffffffffffffffffffffffffffffffffffffffffffff1916817bffffffffffffffffffffffffffffffffffffffffffffffffffffffff19161462000b6257846040517f57f447ce00000000000000000000000000000000000000000000000000000000815260040162000b59919062001341565b60405180910390fd5b505b505050505050565b6000604051905090565b600080fd5b600080fd5b600073ffffffffffffffffffffffffffffffffffffffff82169050919050565b600062000bad8262000b80565b9050919050565b62000bbf8162000ba0565b811462000bcb57600080fd5b50565b60008151905062000bdf8162000bb4565b92915050565b6000819050919050565b62000bfa8162000be5565b811462000c0657600080fd5b50565b60008151905062000c1a8162000bef565b92915050565b6000819050919050565b62000c358162000c20565b811462000c4157600080fd5b50565b60008151905062000c558162000c2a565b92915050565b600080fd5b600080fd5b6000601f19601f8301169050919050565b7f4e487b7100000000000000000000000000000000000000000000000000000000600052604160045260246000fd5b62000cb08262000c65565b810181811067ffffffffffffffff8211171562000cd25762000cd162000c76565b5b80604052505050565b600062000ce762000b6c565b905062000cf5828262000ca5565b919050565b600067ffffffffffffffff82111562000d185762000d1762000c76565b5b62000d238262000c65565b9050602081019050919050565b60005b8381101562000d5057808201518184015260208101905062000d33565b60008484015250505050565b600062000d7362000d6d8462000cfa565b62000cdb565b90508281526020810184848401111562000d925762000d9162000c60565b5b62000d9f84828562000d30565b509392505050565b600082601f83011262000dbf5762000dbe62000c5b565b5b815162000dd184826020860162000d5c565b91505092915050565b600080600080600080600060e0888a03121562000dfc5762000dfb62000b76565b5b600062000e0c8a828b0162000bce565b975050602062000e1f8a828b0162000c09565b965050604062000e328a828b0162000c44565b955050606062000e458a828b0162000c44565b945050608088015167ffffffffffffffff81111562000e695762000e6862000b7b565b5b62000e778a828b0162000da7565b93505060a062000e8a8a828b0162000c09565b92505060c088015167ffffffffffffffff81111562000eae5762000ead62000b7b565b5b62000ebc8a828b0162000da7565b91505092959891949750929550565b600081519050919050565b7f4e487b7100000000000000000000000000000000000000000000000000000000600052602260045260246000fd5b6000600282049050600182168062000f1e57607f821691505b60208210810362000f345762000f3362000ed6565b5b50919050565b60008190508160005260206000209050919050565b60006020601f8301049050919050565b600082821b905092915050565b60006008830262000f9e7fffffffffffffffffffffffffffffffffffffffffffffffffffffffffffffffff8262000f5f565b62000faa868362000f5f565b95508019841693508086168417925050509392505050565b6000819050919050565b600062000fed62000fe762000fe18462000be5565b62000fc2565b62000be5565b9050919050565b6000819050919050565b620010098362000fcc565b62001021620010188262000ff4565b84845462000f6c565b825550505050565b600090565b6200103862001029565b6200104581848462000ffe565b505050565b5b818110156200106d57620010616000826200102e565b6001810190506200104b565b5050565b601f821115620010bc57620010868162000f3a565b620010918462000f4f565b81016020851015620010a1578190505b620010b9620010b08562000f4f565b8301826200104a565b50505b505050565b600082821c905092915050565b6000620010e160001984600802620010c1565b1980831691505092915050565b6000620010fc8383620010ce565b9150826002028217905092915050565b620011178262000ecb565b67ffffffffffffffff81111562001133576200113262000c76565b5b6200113f825462000f05565b6200114c82828562001071565b600060209050601f8311600181146200118457600084156200116f578287015190505b6200117b8582620010ee565b865550620011eb565b601f198416620011948662000f3a565b60005b82811015620011be5784890151825560018201915060208501945060208101905062001197565b86831015620011de5784890151620011da601f891682620010ce565b8355505b6001600288020188555050505b505050505050565b7f4e487b7100000000000000000000000000000000000000000000000000000000600052601160045260246000fd5b60006200122f8262000be5565b91506200123c8362000be5565b92508282026200124c8162000be5565b91508282048414831517620012665762001265620011f3565b5b5092915050565b60006200127a8262000be5565b9150620012878362000be5565b9250828201905080821115620012a257620012a1620011f3565b5b92915050565b6000620012b58262000be5565b9150620012c28362000be5565b9250828203905081811115620012dd57620012dc620011f3565b5b92915050565b6000620012f08262000be5565b91507fffffffffffffffffffffffffffffffffffffffffffffffffffffffffffffffff8203620013255762001324620011f3565b5b600182019050919050565b6200133b8162000ba0565b82525050565b600060208201905062001358600083018462001330565b92915050565b620013698162000be5565b82525050565b60006040820190506200138660008301856200135e565b6200139560208301846200135e565b9392505050565b6000608082019050620013b3600083018762001330565b620013c260208301866200135e565b620013d160408301856200135e565b620013e060608301846200135e565b95945050505050565b600081519050919050565b600082825260208201905092915050565b6000819050602082019050919050565b620014208162000be5565b82525050565b600062001434838362001415565b60208301905092915050565b6000602082019050919050565b60006200145a82620013e9565b620014668185620013f4565b9350620014738362001405565b8060005b83811015620014aa5781516200148e888262001426565b97506200149b8362001440565b92505060018101905062001477565b5085935050505092915050565b60006040820190508181036000830152620014d381856200144d565b90508181036020830152620014e981846200144d565b90509392505050565b600081519050919050565b600082825260208201905092915050565b60006200151b82620014f2565b620015278185620014fd565b93506200153981856020860162000d30565b620015448162000c65565b840191505092915050565b600060a08201905062001566600083018862001330565b62001575602083018762001330565b6200158460408301866200135e565b6200159360608301856200135e565b8181036080830152620015a781846200150e565b90509695505050505050565b60007fffffffff0000000000000000000000000000000000000000000000000000000082169050919050565b620015ea81620015b3565b8114620015f657600080fd5b50565b6000815190506200160a81620015df565b92915050565b60006020828403121562001629576200162862000b76565b5b60006200163984828501620015f9565b91505092915050565b600060a08201905062001659600083018862001330565b62001668602083018762001330565b81810360408301526200167c81866200144d565b905081810360608301526200169281856200144d565b90508181036080830152620016a881846200150e565b90509695505050505050565b61374180620016c46000396000f3fe6080604052600436106101c55760003560e01c8063590e1ae3116100f7578063d411eccb11610095578063e21f37ce11610064578063e21f37ce146105f1578063e985e9c51461061c578063f242432a14610659578063f9c36fde14610682576101d4565b8063d411eccb14610566578063d4b8399214610591578063d5f39488146105bc578063d7bb99ba146105e7576101d4565b8063a8e4fb90116100d1578063a8e4fb90146104d0578063ae08ed5c146104fb578063af3b19e514610526578063b126793b1461053d576101d4565b8063590e1ae314610465578063796b23bb1461047c578063a22cb465146104a7576101d4565b806317d70f7c116101645780634e1273f41161013e5780634e1273f4146103a757806355c7ba14146103e457806355d576cc1461040f5780635600f04f1461043a576101d4565b806317d70f7c146103285780632eb2c2d61461035357806336ebffca1461037c576101d4565b806307bfce37116101a057806307bfce371461027e578063085d4883146102a95780630e89341c146102d45780631249c58b14610311576101d4565b8062fdd58e146101d957806301ffc9a7146102165780630539272a14610253576101d4565b366101d4576101d26106ad565b005b600080fd5b3480156101e557600080fd5b5061020060048036038101906101fb9190612258565b610776565b60405161020d91906122a7565b60405180910390f35b34801561022257600080fd5b5061023d6004803603810190610238919061231a565b6107d0565b60405161024a9190612362565b60405180910390f35b34801561025f57600080fd5b506102686108b2565b60405161027591906122a7565b60405180910390f35b34801561028a57600080fd5b506102936108b8565b6040516102a09190612396565b60405180910390f35b3480156102b557600080fd5b506102be6108be565b6040516102cb91906123c0565b60405180910390f35b3480156102e057600080fd5b506102fb60048036038101906102f691906123db565b6108e4565b6040516103089190612498565b60405180910390f35b34801561031d57600080fd5b50610326610978565b005b34801561033457600080fd5b5061033d610ace565b60405161034a91906122a7565b60405180910390f35b34801561035f57600080fd5b5061037a600480360381019061037591906126b7565b610ad4565b005b34801561038857600080fd5b50610391610b7c565b60405161039e91906122a7565b60405180910390f35b3480156103b357600080fd5b506103ce60048036038101906103c99190612849565b610b82565b6040516103db919061297f565b60405180910390f35b3480156103f057600080fd5b506103f9610c8b565b6040516104069190612362565b60405180910390f35b34801561041b57600080fd5b50610424610c9e565b6040516104319190612396565b60405180910390f35b34801561044657600080fd5b5061044f610ca4565b60405161045c9190612498565b60405180910390f35b34801561047157600080fd5b5061047a610d32565b005b34801561048857600080fd5b50610491610f50565b60405161049e91906122a7565b60405180910390f35b3480156104b357600080fd5b506104ce60048036038101906104c991906129cd565b610f56565b005b3480156104dc57600080fd5b506104e5610f6c565b6040516104f291906123c0565b60405180910390f35b34801561050757600080fd5b50610510610f92565b60405161051d91906122a7565b60405180910390f35b34801561053257600080fd5b5061053b610f99565b005b34801561054957600080fd5b50610564600480360381019061055f9190612aae565b6110fe565b005b34801561057257600080fd5b5061057b61128e565b60405161058891906122a7565b60405180910390f35b34801561059d57600080fd5b506105a6611294565b6040516105b39190612498565b60405180910390f35b3480156105c857600080fd5b506105d1611322565b6040516105de91906123c0565b60405180910390f35b6105ef6106ad565b005b3480156105fd57600080fd5b50610606611348565b6040516106139190612498565b60405180910390f35b34801561062857600080fd5b50610643600480360381019061063e9190612af7565b6113d6565b6040516106509190612362565b60405180910390f35b34801561066557600080fd5b50610680600480360381019061067b9190612b37565b61146a565b005b34801561068e57600080fd5b50610697611512565b6040516106a491906122a7565b60405180910390f35b6000349050600c5481600e546106c39190612bfd565b1115610704576040517f08c379a00000000000000000000000000000000000000000000000000000000081526004016106fb90612ca3565b60405180910390fd5b80600e60008282546107169190612bfd565b9250508190555080601260003373ffffffffffffffffffffffffffffffffffffffff1673ffffffffffffffffffffffffffffffffffffffff168152602001908152602001600020600082825461076c9190612bfd565b9250508190555050565b600080600083815260200190815260200160002060008473ffffffffffffffffffffffffffffffffffffffff1673ffffffffffffffffffffffffffffffffffffffff16815260200190815260200160002054905092915050565b60007fd9b67a26000000000000000000000000000000000000000000000000000000007bffffffffffffffffffffffffffffffffffffffffffffffffffffffff1916827bffffffffffffffffffffffffffffffffffffffffffffffffffffffff1916148061089b57507f0e89341c000000000000000000000000000000000000000000000000000000007bffffffffffffffffffffffffffffffffffffffffffffffffffffffff1916827bffffffffffffffffffffffffffffffffffffffffffffffffffffffff1916145b806108ab57506108aa82611518565b5b9050919050565b60055481565b60075481565b600d60009054906101000a900473ffffffffffffffffffffffffffffffffffffffff1681565b6060600280546108f390612cf2565b80601f016020809104026020016040519081016040528092919081815260200182805461091f90612cf2565b801561096c5780601f106109415761010080835404028352916020019161096c565b820191906000526020600020905b81548152906001019060200180831161094f57829003601f168201915b50505050509050919050565b6000601260003373ffffffffffffffffffffffffffffffffffffffff1673ffffffffffffffffffffffffffffffffffffffff168152602001908152602001600020549050600081116109ff576040517f08c379a00000000000000000000000000000000000000000000000000000000081526004016109f690612d6f565b60405180910390fd5b6000600f8054610a0e90612cf2565b905003610a50576040517f08c379a0000000000000000000000000000000000000000000000000000000008152600401610a4790612ddb565b60405180910390fd5b60106000815480929190610a6390612dfb565b91905055506000601260003373ffffffffffffffffffffffffffffffffffffffff1673ffffffffffffffffffffffffffffffffffffffff16815260200190815260200160002081905550610acb33601054600160405180602001604052806000815250611582565b50565b60105481565b6000610ade61161b565b90508073ffffffffffffffffffffffffffffffffffffffff168673ffffffffffffffffffffffffffffffffffffffff1614158015610b235750610b2186826113d6565b155b15610b675780866040517fe237d922000000000000000000000000000000000000000000000000000000008152600401610b5e929190612e43565b60405180910390fd5b610b748686868686611623565b505050505050565b600a5481565b60608151835114610bce57815183516040517f5b059991000000000000000000000000000000000000000000000000000000008152600401610bc5929190612e6c565b60405180910390fd5b6000835167ffffffffffffffff811115610beb57610bea6124bf565b5b604051908082528060200260200182016040528015610c195781602001602082028036833780820191505090505b50905060005b8451811015610c8057610c56610c3e828761171b90919063ffffffff16565b610c51838761172f90919063ffffffff16565b610776565b828281518110610c6957610c68612e95565b5b602002602001018181525050806001019050610c1f565b508091505092915050565b601160009054906101000a900460ff1681565b60065481565b600f8054610cb190612cf2565b80601f0160208091040260200160405190810160405280929190818152602001828054610cdd90612cf2565b8015610d2a5780601f10610cff57610100808354040283529160200191610d2a565b820191906000526020600020905b815481529060010190602001808311610d0d57829003601f168201915b505050505081565b6000601260003373ffffffffffffffffffffffffffffffffffffffff1673ffffffffffffffffffffffffffffffffffffffff168152602001908152602001600020549050600073ffffffffffffffffffffffffffffffffffffffff16600d60009054906101000a900473ffffffffffffffffffffffffffffffffffffffff1673ffffffffffffffffffffffffffffffffffffffff1614610e07576040517f08c379a0000000000000000000000000000000000000000000000000000000008152600401610dfe90612f36565b60405180910390fd5b60008111610e4a576040517f08c379a0000000000000000000000000000000000000000000000000000000008152600401610e4190612fa2565b60405180910390fd5b600b544211610e8e576040517f08c379a0000000000000000000000000000000000000000000000000000000008152600401610e8590613034565b60405180910390fd5b6000601260003373ffffffffffffffffffffffffffffffffffffffff1673ffffffffffffffffffffffffffffffffffffffff1681526020019081526020016000208190555060003373ffffffffffffffffffffffffffffffffffffffff166108fc839081150290604051600060405180830381858888f19350505050905080610f4c576040517f08c379a0000000000000000000000000000000000000000000000000000000008152600401610f43906130a0565b60405180910390fd5b5050565b600b5481565b610f68610f6161161b565b8383611743565b5050565b600460009054906101000a900473ffffffffffffffffffffffffffffffffffffffff1681565b62278d0081565b600360009054906101000a900473ffffffffffffffffffffffffffffffffffffffff1673ffffffffffffffffffffffffffffffffffffffff16636b074a07336040518263ffffffff1660e01b8152600401610ff491906123c0565b602060405180830381865afa158015611011573d6000803e3d6000fd5b505050506040513d601f19601f8201168201806040525081019061103591906130d5565b611074576040517f08c379a000000000000000000000000000000000000000000000000000000000815260040161106b90613174565b60405180910390fd5b600c54600e5410156110bb576040517f08c379a00000000000000000000000000000000000000000000000000000000081526004016110b290613206565b60405180910390fd5b33600d60006101000a81548173ffffffffffffffffffffffffffffffffffffffff021916908373ffffffffffffffffffffffffffffffffffffffff160217905550565b600d60009054906101000a900473ffffffffffffffffffffffffffffffffffffffff1673ffffffffffffffffffffffffffffffffffffffff163373ffffffffffffffffffffffffffffffffffffffff161461118e576040517f08c379a000000000000000000000000000000000000000000000000000000000815260040161118590613298565b60405180910390fd5b80600f908161119d9190613464565b506000600d60009054906101000a900473ffffffffffffffffffffffffffffffffffffffff1673ffffffffffffffffffffffffffffffffffffffff166108fc479081150290604051600060405180830381858888f19350505050905080611239576040517f08c379a0000000000000000000000000000000000000000000000000000000008152600401611230906130a0565b60405180910390fd5b6001601160006101000a81548160ff0219169083151502179055506010600081548092919061126790612dfb565b919050555061128a33601054600160405180602001604052806000815250611582565b5050565b600c5481565b600880546112a190612cf2565b80601f01602080910402602001604051908101604052809291908181526020018280546112cd90612cf2565b801561131a5780601f106112ef5761010080835404028352916020019161131a565b820191906000526020600020905b8154815290600101906020018083116112fd57829003601f168201915b505050505081565b600360009054906101000a900473ffffffffffffffffffffffffffffffffffffffff1681565b6009805461135590612cf2565b80601f016020809104026020016040519081016040528092919081815260200182805461138190612cf2565b80156113ce5780601f106113a3576101008083540402835291602001916113ce565b820191906000526020600020905b8154815290600101906020018083116113b157829003601f168201915b505050505081565b6000600160008473ffffffffffffffffffffffffffffffffffffffff1673ffffffffffffffffffffffffffffffffffffffff16815260200190815260200160002060008373ffffffffffffffffffffffffffffffffffffffff1673ffffffffffffffffffffffffffffffffffffffff16815260200190815260200160002060009054906101000a900460ff16905092915050565b600061147461161b565b90508073ffffffffffffffffffffffffffffffffffffffff168673ffffffffffffffffffffffffffffffffffffffff16141580156114b957506114b786826113d6565b155b156114fd5780866040517fe237d9220000000000000000000000000000000000000000000000000000000081526004016114f4929190612e43565b60405180910390fd5b61150a86868686866118b3565b505050505050565b600e5481565b60007f01ffc9a7000000000000000000000000000000000000000000000000000000007bffffffffffffffffffffffffffffffffffffffffffffffffffffffff1916827bffffffffffffffffffffffffffffffffffffffffffffffffffffffff1916149050919050565b600073ffffffffffffffffffffffffffffffffffffffff168473ffffffffffffffffffffffffffffffffffffffff16036115f45760006040517f57f447ce0000000000000000000000000000000000000000000000000000000081526004016115eb91906123c0565b60405180910390fd5b60008061160185856119be565b915091506116136000878484876119ee565b505050505050565b600033905090565b600073ffffffffffffffffffffffffffffffffffffffff168473ffffffffffffffffffffffffffffffffffffffff16036116955760006040517f57f447ce00000000000000000000000000000000000000000000000000000000815260040161168c91906123c0565b60405180910390fd5b600073ffffffffffffffffffffffffffffffffffffffff168573ffffffffffffffffffffffffffffffffffffffff16036117075760006040517f01a835140000000000000000000000000000000000000000000000000000000081526004016116fe91906123c0565b60405180910390fd5b61171485858585856119ee565b5050505050565b600060208202602084010151905092915050565b600060208202602084010151905092915050565b600073ffffffffffffffffffffffffffffffffffffffff168273ffffffffffffffffffffffffffffffffffffffff16036117b55760006040517fced3e1000000000000000000000000000000000000000000000000000000000081526004016117ac91906123c0565b60405180910390fd5b80600160008573ffffffffffffffffffffffffffffffffffffffff1673ffffffffffffffffffffffffffffffffffffffff16815260200190815260200160002060008473ffffffffffffffffffffffffffffffffffffffff1673ffffffffffffffffffffffffffffffffffffffff16815260200190815260200160002060006101000a81548160ff0219169083151502179055508173ffffffffffffffffffffffffffffffffffffffff168373ffffffffffffffffffffffffffffffffffffffff167f17307eab39ab6107e8899845ad3d59bd9653f200f220920489ca2b5937696c31836040516118a69190612362565b60405180910390a3505050565b600073ffffffffffffffffffffffffffffffffffffffff168473ffffffffffffffffffffffffffffffffffffffff16036119255760006040517f57f447ce00000000000000000000000000000000000000000000000000000000815260040161191c91906123c0565b60405180910390fd5b600073ffffffffffffffffffffffffffffffffffffffff168573ffffffffffffffffffffffffffffffffffffffff16036119975760006040517f01a8351400000000000000000000000000000000000000000000000000000000815260040161198e91906123c0565b60405180910390fd5b6000806119a485856119be565b915091506119b587878484876119ee565b50505050505050565b60608060405191506001825283602083015260408201905060018152826020820152604081016040529250929050565b6119fa85858585611aa0565b600073ffffffffffffffffffffffffffffffffffffffff168473ffffffffffffffffffffffffffffffffffffffff1614611a99576000611a3861161b565b90506001845103611a88576000611a5960008661172f90919063ffffffff16565b90506000611a7160008661172f90919063ffffffff16565b9050611a81838989858589611e48565b5050611a97565b611a96818787878787611ffc565b5b505b5050505050565b8051825114611aea57815181516040517f5b059991000000000000000000000000000000000000000000000000000000008152600401611ae1929190612e6c565b60405180910390fd5b6000611af461161b565b905060005b8351811015611d03576000611b17828661172f90919063ffffffff16565b90506000611b2e838661172f90919063ffffffff16565b9050600073ffffffffffffffffffffffffffffffffffffffff168873ffffffffffffffffffffffffffffffffffffffff1614611c5b57600080600084815260200190815260200160002060008a73ffffffffffffffffffffffffffffffffffffffff1673ffffffffffffffffffffffffffffffffffffffff16815260200190815260200160002054905081811015611c0357888183856040517f03dee4c5000000000000000000000000000000000000000000000000000000008152600401611bfa9493929190613536565b60405180910390fd5b81810360008085815260200190815260200160002060008b73ffffffffffffffffffffffffffffffffffffffff1673ffffffffffffffffffffffffffffffffffffffff16815260200190815260200160002081905550505b600073ffffffffffffffffffffffffffffffffffffffff168773ffffffffffffffffffffffffffffffffffffffff1614611cf6578060008084815260200190815260200160002060008973ffffffffffffffffffffffffffffffffffffffff1673ffffffffffffffffffffffffffffffffffffffff1681526020019081526020016000206000828254611cee9190612bfd565b925050819055505b5050806001019050611af9565b506001835103611dc2576000611d2360008561172f90919063ffffffff16565b90506000611d3b60008561172f90919063ffffffff16565b90508573ffffffffffffffffffffffffffffffffffffffff168773ffffffffffffffffffffffffffffffffffffffff168473ffffffffffffffffffffffffffffffffffffffff167fc3d58168c5ae7397731d063d5bbf3d657854427343f4c083240f7aacaa2d0f628585604051611db3929190612e6c565b60405180910390a45050611e41565b8373ffffffffffffffffffffffffffffffffffffffff168573ffffffffffffffffffffffffffffffffffffffff168273ffffffffffffffffffffffffffffffffffffffff167f4a39dc06d4c0dbc64b70af90fd698a233a518aa5d07e595d983b8c0526c8f7fb8686604051611e3892919061357b565b60405180910390a45b5050505050565b60008473ffffffffffffffffffffffffffffffffffffffff163b1115611ff4578373ffffffffffffffffffffffffffffffffffffffff1663f23a6e6187878686866040518663ffffffff1660e01b8152600401611ea9959493929190613607565b6020604051808303816000875af1925050508015611ee557506040513d601f19601f82011682018060405250810190611ee29190613676565b60015b611f69573d8060008114611f15576040519150601f19603f3d011682016040523d82523d6000602084013e611f1a565b606091505b506000815103611f6157846040517f57f447ce000000000000000000000000000000000000000000000000000000008152600401611f5891906123c0565b60405180910390fd5b805181602001fd5b63f23a6e6160e01b7bffffffffffffffffffffffffffffffffffffffffffffffffffffffff1916817bffffffffffffffffffffffffffffffffffffffffffffffffffffffff191614611ff257846040517f57f447ce000000000000000000000000000000000000000000000000000000008152600401611fe991906123c0565b60405180910390fd5b505b505050505050565b60008473ffffffffffffffffffffffffffffffffffffffff163b11156121a8578373ffffffffffffffffffffffffffffffffffffffff1663bc197c8187878686866040518663ffffffff1660e01b815260040161205d9594939291906136a3565b6020604051808303816000875af192505050801561209957506040513d601f19601f820116820180604052508101906120969190613676565b60015b61211d573d80600081146120c9576040519150601f19603f3d011682016040523d82523d6000602084013e6120ce565b606091505b50600081510361211557846040517f57f447ce00000000000000000000000000000000000000000000000000000000815260040161210c91906123c0565b60405180910390fd5b805181602001fd5b63bc197c8160e01b7bffffffffffffffffffffffffffffffffffffffffffffffffffffffff1916817bffffffffffffffffffffffffffffffffffffffffffffffffffffffff1916146121a657846040517f57f447ce00000000000000000000000000000000000000000000000000000000815260040161219d91906123c0565b60405180910390fd5b505b505050505050565b6000604051905090565b600080fd5b600080fd5b600073ffffffffffffffffffffffffffffffffffffffff82169050919050565b60006121ef826121c4565b9050919050565b6121ff816121e4565b811461220a57600080fd5b50565b60008135905061221c816121f6565b92915050565b6000819050919050565b61223581612222565b811461224057600080fd5b50565b6000813590506122528161222c565b92915050565b6000806040838503121561226f5761226e6121ba565b5b600061227d8582860161220d565b925050602061228e85828601612243565b9150509250929050565b6122a181612222565b82525050565b60006020820190506122bc6000830184612298565b92915050565b60007fffffffff0000000000000000000000000000000000000000000000000000000082169050919050565b6122f7816122c2565b811461230257600080fd5b50565b600081359050612314816122ee565b92915050565b6000602082840312156123305761232f6121ba565b5b600061233e84828501612305565b91505092915050565b60008115159050919050565b61235c81612347565b82525050565b60006020820190506123776000830184612353565b92915050565b6000819050919050565b6123908161237d565b82525050565b60006020820190506123ab6000830184612387565b92915050565b6123ba816121e4565b82525050565b60006020820190506123d560008301846123b1565b92915050565b6000602082840312156123f1576123f06121ba565b5b60006123ff84828501612243565b91505092915050565b600081519050919050565b600082825260208201905092915050565b60005b83811015612442578082015181840152602081019050612427565b60008484015250505050565b6000601f19601f8301169050919050565b600061246a82612408565b6124748185612413565b9350612484818560208601612424565b61248d8161244e565b840191505092915050565b600060208201905081810360008301526124b2818461245f565b905092915050565b600080fd5b7f4e487b7100000000000000000000000000000000000000000000000000000000600052604160045260246000fd5b6124f78261244e565b810181811067ffffffffffffffff82111715612516576125156124bf565b5b80604052505050565b60006125296121b0565b905061253582826124ee565b919050565b600067ffffffffffffffff821115612555576125546124bf565b5b602082029050602081019050919050565b600080fd5b600061257e6125798461253a565b61251f565b905080838252602082019050602084028301858111156125a1576125a0612566565b5b835b818110156125ca57806125b68882612243565b8452602084019350506020810190506125a3565b5050509392505050565b600082601f8301126125e9576125e86124ba565b5b81356125f984826020860161256b565b91505092915050565b600080fd5b600067ffffffffffffffff821115612622576126216124bf565b5b61262b8261244e565b9050602081019050919050565b82818337600083830152505050565b600061265a61265584612607565b61251f565b90508281526020810184848401111561267657612675612602565b5b612681848285612638565b509392505050565b600082601f83011261269e5761269d6124ba565b5b81356126ae848260208601612647565b91505092915050565b600080600080600060a086880312156126d3576126d26121ba565b5b60006126e18882890161220d565b95505060206126f28882890161220d565b945050604086013567ffffffffffffffff811115612713576127126121bf565b5b61271f888289016125d4565b935050606086013567ffffffffffffffff8111156127405761273f6121bf565b5b61274c888289016125d4565b925050608086013567ffffffffffffffff81111561276d5761276c6121bf565b5b61277988828901612689565b9150509295509295909350565b600067ffffffffffffffff8211156127a1576127a06124bf565b5b602082029050602081019050919050565b60006127c56127c084612786565b61251f565b905080838252602082019050602084028301858111156127e8576127e7612566565b5b835b8181101561281157806127fd888261220d565b8452602084019350506020810190506127ea565b5050509392505050565b600082601f8301126128305761282f6124ba565b5b81356128408482602086016127b2565b91505092915050565b600080604083850312156128605761285f6121ba565b5b600083013567ffffffffffffffff81111561287e5761287d6121bf565b5b61288a8582860161281b565b925050602083013567ffffffffffffffff8111156128ab576128aa6121bf565b5b6128b7858286016125d4565b9150509250929050565b600081519050919050565b600082825260208201905092915050565b6000819050602082019050919050565b6128f681612222565b82525050565b600061290883836128ed565b60208301905092915050565b6000602082019050919050565b600061292c826128c1565b61293681856128cc565b9350612941836128dd565b8060005b8381101561297257815161295988826128fc565b975061296483612914565b925050600181019050612945565b5085935050505092915050565b600060208201905081810360008301526129998184612921565b905092915050565b6129aa81612347565b81146129b557600080fd5b50565b6000813590506129c7816129a1565b92915050565b600080604083850312156129e4576129e36121ba565b5b60006129f28582860161220d565b9250506020612a03858286016129b8565b9150509250929050565b600067ffffffffffffffff821115612a2857612a276124bf565b5b612a318261244e565b9050602081019050919050565b6000612a51612a4c84612a0d565b61251f565b905082815260208101848484011115612a6d57612a6c612602565b5b612a78848285612638565b509392505050565b600082601f830112612a9557612a946124ba565b5b8135612aa5848260208601612a3e565b91505092915050565b600060208284031215612ac457612ac36121ba565b5b600082013567ffffffffffffffff811115612ae257612ae16121bf565b5b612aee84828501612a80565b91505092915050565b60008060408385031215612b0e57612b0d6121ba565b5b6000612b1c8582860161220d565b9250506020612b2d8582860161220d565b9150509250929050565b600080600080600060a08688031215612b5357612b526121ba565b5b6000612b618882890161220d565b9550506020612b728882890161220d565b9450506040612b8388828901612243565b9350506060612b9488828901612243565b925050608086013567ffffffffffffffff811115612bb557612bb46121bf565b5b612bc188828901612689565b9150509295509295909350565b7f4e487b7100000000000000000000000000000000000000000000000000000000600052601160045260246000fd5b6000612c0882612222565b9150612c1383612222565b9250828201905080821115612c2b57612c2a612bce565b5b92915050565b7f63616e6e6f7420636f6e74726962757465206d6f7265207468616e207468652060008201527f66756e64696e6720746172676574000000000000000000000000000000000000602082015250565b6000612c8d602e83612413565b9150612c9882612c31565b604082019050919050565b60006020820190508181036000830152612cbc81612c80565b9050919050565b7f4e487b7100000000000000000000000000000000000000000000000000000000600052602260045260246000fd5b60006002820490506001821680612d0a57607f821691505b602082108103612d1d57612d1c612cc3565b5b50919050565b7f5573657220646964206e6f7420636f6e74726962757465000000000000000000600082015250565b6000612d59601783612413565b9150612d6482612d23565b602082019050919050565b60006020820190508181036000830152612d8881612d4c565b9050919050565b7f50726f706f73616c206973206e6f7420636f6d706c6574650000000000000000600082015250565b6000612dc5601883612413565b9150612dd082612d8f565b602082019050919050565b60006020820190508181036000830152612df481612db8565b9050919050565b6000612e0682612222565b91507fffffffffffffffffffffffffffffffffffffffffffffffffffffffffffffffff8203612e3857612e37612bce565b5b600182019050919050565b6000604082019050612e5860008301856123b1565b612e6560208301846123b1565b9392505050565b6000604082019050612e816000830185612298565b612e8e6020830184612298565b9392505050565b7f4e487b7100000000000000000000000000000000000000000000000000000000600052603260045260246000fd5b7f50726f706f73616c2068617320616c7265616479206265656e2061636365707460008201527f6564000000000000000000000000000000000000000000000000000000000000602082015250565b6000612f20602283612413565b9150612f2b82612ec4565b604082019050919050565b60006020820190508181036000830152612f4f81612f13565b9050919050565b7f4e6f2066756e647320746f20726566756e640000000000000000000000000000600082015250565b6000612f8c601283612413565b9150612f9782612f56565b602082019050919050565b60006020820190508181036000830152612fbb81612f7f565b9050919050565b7f66756e64696e6720646561646c696e6520686173206e6f74206265656e20726560008201527f6163686564000000000000000000000000000000000000000000000000000000602082015250565b600061301e602583612413565b915061302982612fc2565b604082019050919050565b6000602082019050818103600083015261304d81613011565b9050919050565b7f4661696c656420746f2073656e64204574686572000000000000000000000000600082015250565b600061308a601483612413565b915061309582613054565b602082019050919050565b600060208201905081810360008301526130b98161307d565b9050919050565b6000815190506130cf816129a1565b92915050565b6000602082840312156130eb576130ea6121ba565b5b60006130f9848285016130c0565b91505092915050565b7f4f6e6c792070726f7669646572732063616e206163636570742070726f706f7360008201527f616c730000000000000000000000000000000000000000000000000000000000602082015250565b600061315e602383612413565b915061316982613102565b604082019050919050565b6000602082019050818103600083015261318d81613151565b9050919050565b7f70726f706f73616c20686173206e6f74206265656e2066756c6c792066756e6460008201527f6564000000000000000000000000000000000000000000000000000000000000602082015250565b60006131f0602283612413565b91506131fb82613194565b604082019050919050565b6000602082019050818103600083015261321f816131e3565b9050919050565b7f4f6e6c79207468652070726f76696465722063616e20636f6d706c657465207060008201527f726f706f73616c00000000000000000000000000000000000000000000000000602082015250565b6000613282602783612413565b915061328d82613226565b604082019050919050565b600060208201905081810360008301526132b181613275565b9050919050565b60008190508160005260206000209050919050565b60006020601f8301049050919050565b600082821b905092915050565b60006008830261331a7fffffffffffffffffffffffffffffffffffffffffffffffffffffffffffffffff826132dd565b61332486836132dd565b95508019841693508086168417925050509392505050565b6000819050919050565b600061336161335c61335784612222565b61333c565b612222565b9050919050565b6000819050919050565b61337b83613346565b61338f61338782613368565b8484546132ea565b825550505050565b600090565b6133a4613397565b6133af818484613372565b505050565b5b818110156133d3576133c860008261339c565b6001810190506133b5565b5050565b601f821115613418576133e9816132b8565b6133f2846132cd565b81016020851015613401578190505b61341561340d856132cd565b8301826133b4565b50505b505050565b600082821c905092915050565b600061343b6000198460080261341d565b1980831691505092915050565b6000613454838361342a565b9150826002028217905092915050565b61346d82612408565b67ffffffffffffffff811115613486576134856124bf565b5b6134908254612cf2565b61349b8282856133d7565b600060209050601f8311600181146134ce57600084156134bc578287015190505b6134c68582613448565b86555061352e565b601f1984166134dc866132b8565b60005b82811015613504578489015182556001820191506020850194506020810190506134df565b86831015613521578489015161351d601f89168261342a565b8355505b6001600288020188555050505b505050505050565b600060808201905061354b60008301876123b1565b6135586020830186612298565b6135656040830185612298565b6135726060830184612298565b95945050505050565b600060408201905081810360008301526135958185612921565b905081810360208301526135a98184612921565b90509392505050565b600081519050919050565b600082825260208201905092915050565b60006135d9826135b2565b6135e381856135bd565b93506135f3818560208601612424565b6135fc8161244e565b840191505092915050565b600060a08201905061361c60008301886123b1565b61362960208301876123b1565b6136366040830186612298565b6136436060830185612298565b818103608083015261365581846135ce565b90509695505050505050565b600081519050613670816122ee565b92915050565b60006020828403121561368c5761368b6121ba565b5b600061369a84828501613661565b91505092915050565b600060a0820190506136b860008301886123b1565b6136c560208301876123b1565b81810360408301526136d78186612921565b905081810360608301526136eb8185612921565b905081810360808301526136ff81846135ce565b9050969550505050505056fea264697066735822122054540f9b32867af5e220899a7a1822fb6c436ae866943a5dd1557f7cf8c509f364736f6c63430008180033a264697066735822122083a7d04dd825ff6089a174e850b32e14161924261ab821dc579bfc2bcd8f747064736f6c63430008180033",
  "linkReferences": {},
  "deployedLinkReferences": {}
}