{
  "_format": "hh-sol-artifact-1",
  "contractName": "Deployer",
  "sourceName": "contracts/Deployer.sol",
  "abi": [
    {
      "inputs": [],
      "stateMutability": "nonpayable",
      "type": "constructor"
    },
    {
      "inputs": [
        {
          "internalType": "address",
          "name": "_address",
          "type": "address"
        }
      ],
      "name": "addProvider",
      "outputs": [],
      "stateMutability": "nonpayable",
      "type": "function"
    },
    {
      "inputs": [
        {
          "internalType": "uint256",
          "name": "_startDay",
          "type": "uint256"
        },
        {
          "internalType": "uint256",
          "name": "_endDay",
          "type": "uint256"
        },
        {
          "internalType": "uint256",
          "name": "_lat",
          "type": "uint256"
        },
        {
          "internalType": "uint256",
          "name": "_long",
          "type": "uint256"
        },
        {
          "internalType": "string",
          "name": "_target",
          "type": "string"
        },
        {
          "internalType": "string",
          "name": "_contentType",
          "type": "string"
        },
        {
          "internalType": "string",
          "name": "_contentMessage",
          "type": "string"
        }
      ],
      "name": "createProposal",
      "outputs": [
        {
          "internalType": "contract Proposal",
          "name": "",
          "type": "address"
        }
      ],
      "stateMutability": "nonpayable",
      "type": "function"
    },
    {
      "inputs": [],
      "name": "getProposals",
      "outputs": [
        {
          "internalType": "address[]",
          "name": "",
          "type": "address[]"
        }
      ],
      "stateMutability": "view",
      "type": "function"
    },
    {
      "inputs": [
        {
          "internalType": "address",
          "name": "_address",
          "type": "address"
        }
      ],
      "name": "isProvider",
      "outputs": [
        {
          "internalType": "bool",
          "name": "",
          "type": "bool"
        }
      ],
      "stateMutability": "view",
      "type": "function"
    },
    {
      "inputs": [],
      "name": "owner",
      "outputs": [
        {
          "internalType": "address",
          "name": "",
          "type": "address"
        }
      ],
      "stateMutability": "view",
      "type": "function"
    },
    {
      "inputs": [
        {
          "internalType": "uint256",
          "name": "",
          "type": "uint256"
        }
      ],
      "name": "proposals",
      "outputs": [
        {
          "internalType": "address",
          "name": "",
          "type": "address"
        }
      ],
      "stateMutability": "view",
      "type": "function"
    },
    {
      "inputs": [
        {
          "internalType": "address",
          "name": "",
          "type": "address"
        }
      ],
      "name": "providers",
      "outputs": [
        {
          "internalType": "bool",
          "name": "",
          "type": "bool"
        }
      ],
      "stateMutability": "view",
      "type": "function"
    }
  ],
  "bytecode": "0x608060405234801561001057600080fd5b50336000806101000a81548173ffffffffffffffffffffffffffffffffffffffff021916908373ffffffffffffffffffffffffffffffffffffffff1602179055506163ec806100606000396000f3fe60806040523480156200001157600080fd5b5060043610620000885760003560e01c806362564c48116200006357806362564c4814620001195780636b074a07146200013b578063812591a214620001715780638da5cb5b14620001a75762000088565b8063013cf08b146200008d5780630787bc2714620000c357806346e2577a14620000f9575b600080fd5b620000ab6004803603810190620000a591906200050b565b620001c9565b604051620000ba919062000582565b60405180910390f35b620000e16004803603810190620000db9190620005d0565b62000209565b604051620000f091906200061f565b60405180910390f35b620001176004803603810190620001119190620005d0565b62000229565b005b62000123620002d9565b6040516200013291906200070a565b60405180910390f35b620001596004803603810190620001539190620005d0565b62000369565b6040516200016891906200061f565b60405180910390f35b6200018f600480360381019062000189919062000890565b620003c6565b6040516200019e919062000a0b565b60405180910390f35b620001b16200048a565b604051620001c0919062000582565b60405180910390f35b60018181548110620001da57600080fd5b906000526020600020016000915054906101000a900473ffffffffffffffffffffffffffffffffffffffff1681565b60026020528060005260406000206000915054906101000a900460ff1681565b60008054906101000a900473ffffffffffffffffffffffffffffffffffffffff1673ffffffffffffffffffffffffffffffffffffffff163373ffffffffffffffffffffffffffffffffffffffff1603620002d6576001600260008373ffffffffffffffffffffffffffffffffffffffff1673ffffffffffffffffffffffffffffffffffffffff16815260200190815260200160002060006101000a81548160ff0219169083151502179055505b50565b606060018054806020026020016040519081016040528092919081815260200182805480156200035f57602002820191906000526020600020905b8160009054906101000a900473ffffffffffffffffffffffffffffffffffffffff1673ffffffffffffffffffffffffffffffffffffffff168152602001906001019080831162000314575b5050505050905090565b600060011515600260008473ffffffffffffffffffffffffffffffffffffffff1673ffffffffffffffffffffffffffffffffffffffff16815260200190815260200160002060009054906101000a900460ff161515149050919050565b6000803090506000818a8a8a8a8a8a8a604051620003e490620004ae565b620003f798979695949392919062000ac2565b604051809103906000f08015801562000414573d6000803e3d6000fd5b5090506001819080600181540180825580915050600190039060005260206000200160009091909190916101000a81548173ffffffffffffffffffffffffffffffffffffffff021916908373ffffffffffffffffffffffffffffffffffffffff1602179055508092505050979650505050505050565b60008054906101000a900473ffffffffffffffffffffffffffffffffffffffff1681565b6158518062000b6683390190565b6000604051905090565b600080fd5b600080fd5b6000819050919050565b620004e581620004d0565b8114620004f157600080fd5b50565b6000813590506200050581620004da565b92915050565b600060208284031215620005245762000523620004c6565b5b60006200053484828501620004f4565b91505092915050565b600073ffffffffffffffffffffffffffffffffffffffff82169050919050565b60006200056a826200053d565b9050919050565b6200057c816200055d565b82525050565b600060208201905062000599600083018462000571565b92915050565b620005aa816200055d565b8114620005b657600080fd5b50565b600081359050620005ca816200059f565b92915050565b600060208284031215620005e957620005e8620004c6565b5b6000620005f984828501620005b9565b91505092915050565b60008115159050919050565b620006198162000602565b82525050565b60006020820190506200063660008301846200060e565b92915050565b600081519050919050565b600082825260208201905092915050565b6000819050602082019050919050565b62000673816200055d565b82525050565b600062000687838362000668565b60208301905092915050565b6000602082019050919050565b6000620006ad826200063c565b620006b9818562000647565b9350620006c68362000658565b8060005b83811015620006fd578151620006e1888262000679565b9750620006ee8362000693565b925050600181019050620006ca565b5085935050505092915050565b60006020820190508181036000830152620007268184620006a0565b905092915050565b600080fd5b600080fd5b6000601f19601f8301169050919050565b7f4e487b7100000000000000000000000000000000000000000000000000000000600052604160045260246000fd5b620007838262000738565b810181811067ffffffffffffffff82111715620007a557620007a462000749565b5b80604052505050565b6000620007ba620004bc565b9050620007c8828262000778565b919050565b600067ffffffffffffffff821115620007eb57620007ea62000749565b5b620007f68262000738565b9050602081019050919050565b82818337600083830152505050565b6000620008296200082384620007cd565b620007ae565b90508281526020810184848401111562000848576200084762000733565b5b6200085584828562000803565b509392505050565b600082601f8301126200087557620008746200072e565b5b81356200088784826020860162000812565b91505092915050565b600080600080600080600060e0888a031215620008b257620008b1620004c6565b5b6000620008c28a828b01620004f4565b9750506020620008d58a828b01620004f4565b9650506040620008e88a828b01620004f4565b9550506060620008fb8a828b01620004f4565b945050608088013567ffffffffffffffff8111156200091f576200091e620004cb565b5b6200092d8a828b016200085d565b93505060a088013567ffffffffffffffff811115620009515762000950620004cb565b5b6200095f8a828b016200085d565b92505060c088013567ffffffffffffffff811115620009835762000982620004cb565b5b620009918a828b016200085d565b91505092959891949750929550565b6000819050919050565b6000620009cb620009c5620009bf846200053d565b620009a0565b6200053d565b9050919050565b6000620009df82620009aa565b9050919050565b6000620009f382620009d2565b9050919050565b62000a0581620009e6565b82525050565b600060208201905062000a226000830184620009fa565b92915050565b62000a3381620004d0565b82525050565b600081519050919050565b600082825260208201905092915050565b60005b8381101562000a7557808201518184015260208101905062000a58565b60008484015250505050565b600062000a8e8262000a39565b62000a9a818562000a44565b935062000aac81856020860162000a55565b62000ab78162000738565b840191505092915050565b60006101008201905062000ada600083018b62000571565b62000ae9602083018a62000a28565b62000af8604083018962000a28565b62000b07606083018862000a28565b62000b16608083018762000a28565b81810360a083015262000b2a818662000a81565b905081810360c083015262000b40818562000a81565b905081810360e083015262000b56818462000a81565b9050999850505050505050505056fe60806040523480156200001157600080fd5b50604051620058513803806200585183398181016040528101906200003791906200094b565b6040518060200160405280600081525062000058816200024860201b60201c565b5087600460006101000a81548173ffffffffffffffffffffffffffffffffffffffff021916908373ffffffffffffffffffffffffffffffffffffffff160217905550866005819055508560068190555084600781905550836008819055508260099081620000c7919062000cb2565b5080600a9081620000d9919062000cb2565b5081600b9081620000eb919062000cb2565b50604051602001620000fd9062000df4565b60405160208183030381529060405280519060200120600b60405160200162000127919062000e9a565b604051602081830303815290604052805190602001200362000158576753444835ec580000600d8190555062000168565b670de0b6b3a7640000600d819055505b62278d00603c80601860055462000180919062000ee2565b6200018c919062000ee2565b62000198919062000ee2565b42620001a5919062000f2d565b620001b1919062000f68565b600c81905550620001f330620001ce60036200025d60201b60201c565b670de0b6b3a7640000604051806020016040528060008152506200026b60201b60201c565b6200020560036200045260201b60201c565b6200023a326200021c60036200025d60201b60201c565b6001604051806020016040528060008152506200026b60201b60201c565b50505050505050506200147c565b806002908162000259919062000cb2565b5050565b600081600001549050919050565b600073ffffffffffffffffffffffffffffffffffffffff168473ffffffffffffffffffffffffffffffffffffffff1603620002dd576040517f08c379a0000000000000000000000000000000000000000000000000000000008152600401620002d4906200102a565b60405180910390fd5b6000620002ef6200046860201b60201c565b9050600062000304856200047060201b60201c565b9050600062000319856200047060201b60201c565b90506200033283600089858589620004f160201b60201c565b8460008088815260200190815260200160002060008973ffffffffffffffffffffffffffffffffffffffff1673ffffffffffffffffffffffffffffffffffffffff168152602001908152602001600020600082825462000393919062000f2d565b925050819055508673ffffffffffffffffffffffffffffffffffffffff16600073ffffffffffffffffffffffffffffffffffffffff168473ffffffffffffffffffffffffffffffffffffffff167fc3d58168c5ae7397731d063d5bbf3d657854427343f4c083240f7aacaa2d0f628989604051620004139291906200105d565b60405180910390a46200043283600089858589620004f960201b60201c565b62000449836000898989896200050160201b60201c565b50505050505050565b6001816000016000828254019250508190555050565b600033905090565b60606000600167ffffffffffffffff811115620004925762000491620007e7565b5b604051908082528060200260200182016040528015620004c15781602001602082028036833780820191505090505b5090508281600081518110620004dc57620004db6200108a565b5b60200260200101818152505080915050919050565b505050505050565b505050505050565b620005288473ffffffffffffffffffffffffffffffffffffffff16620006f560201b60201c565b15620006ed578373ffffffffffffffffffffffffffffffffffffffff1663f23a6e6187878686866040518663ffffffff1660e01b81526004016200057195949392919062001127565b6020604051808303816000875af1925050508015620005b057506040513d601f19601f82011682018060405250810190620005ad9190620011e8565b60015b6200066157620005bf62001227565b806308c379a003620006225750620005d66200124c565b80620005e3575062000624565b806040517f08c379a000000000000000000000000000000000000000000000000000000000815260040162000619919062001328565b60405180910390fd5b505b6040517f08c379a00000000000000000000000000000000000000000000000000000000081526004016200065890620013c2565b60405180910390fd5b63f23a6e6160e01b7bffffffffffffffffffffffffffffffffffffffffffffffffffffffff1916817bffffffffffffffffffffffffffffffffffffffffffffffffffffffff191614620006eb576040517f08c379a0000000000000000000000000000000000000000000000000000000008152600401620006e2906200145a565b60405180910390fd5b505b505050505050565b6000808273ffffffffffffffffffffffffffffffffffffffff163b119050919050565b6000604051905090565b600080fd5b600080fd5b600073ffffffffffffffffffffffffffffffffffffffff82169050919050565b600062000759826200072c565b9050919050565b6200076b816200074c565b81146200077757600080fd5b50565b6000815190506200078b8162000760565b92915050565b6000819050919050565b620007a68162000791565b8114620007b257600080fd5b50565b600081519050620007c6816200079b565b92915050565b600080fd5b600080fd5b6000601f19601f8301169050919050565b7f4e487b7100000000000000000000000000000000000000000000000000000000600052604160045260246000fd5b6200082182620007d6565b810181811067ffffffffffffffff82111715620008435762000842620007e7565b5b80604052505050565b60006200085862000718565b905062000866828262000816565b919050565b600067ffffffffffffffff821115620008895762000888620007e7565b5b6200089482620007d6565b9050602081019050919050565b60005b83811015620008c1578082015181840152602081019050620008a4565b60008484015250505050565b6000620008e4620008de846200086b565b6200084c565b905082815260208101848484011115620009035762000902620007d1565b5b62000910848285620008a1565b509392505050565b600082601f83011262000930576200092f620007cc565b5b815162000942848260208601620008cd565b91505092915050565b600080600080600080600080610100898b0312156200096f576200096e62000722565b5b60006200097f8b828c016200077a565b9850506020620009928b828c01620007b5565b9750506040620009a58b828c01620007b5565b9650506060620009b88b828c01620007b5565b9550506080620009cb8b828c01620007b5565b94505060a089015167ffffffffffffffff811115620009ef57620009ee62000727565b5b620009fd8b828c0162000918565b93505060c089015167ffffffffffffffff81111562000a215762000a2062000727565b5b62000a2f8b828c0162000918565b92505060e089015167ffffffffffffffff81111562000a535762000a5262000727565b5b62000a618b828c0162000918565b9150509295985092959890939650565b600081519050919050565b7f4e487b7100000000000000000000000000000000000000000000000000000000600052602260045260246000fd5b6000600282049050600182168062000ac457607f821691505b60208210810362000ada5762000ad962000a7c565b5b50919050565b60008190508160005260206000209050919050565b60006020601f8301049050919050565b600082821b905092915050565b60006008830262000b447fffffffffffffffffffffffffffffffffffffffffffffffffffffffffffffffff8262000b05565b62000b50868362000b05565b95508019841693508086168417925050509392505050565b6000819050919050565b600062000b9362000b8d62000b878462000791565b62000b68565b62000791565b9050919050565b6000819050919050565b62000baf8362000b72565b62000bc762000bbe8262000b9a565b84845462000b12565b825550505050565b600090565b62000bde62000bcf565b62000beb81848462000ba4565b505050565b5b8181101562000c135762000c0760008262000bd4565b60018101905062000bf1565b5050565b601f82111562000c625762000c2c8162000ae0565b62000c378462000af5565b8101602085101562000c47578190505b62000c5f62000c568562000af5565b83018262000bf0565b50505b505050565b600082821c905092915050565b600062000c876000198460080262000c67565b1980831691505092915050565b600062000ca2838362000c74565b9150826002028217905092915050565b62000cbd8262000a71565b67ffffffffffffffff81111562000cd95762000cd8620007e7565b5b62000ce5825462000aab565b62000cf282828562000c17565b600060209050601f83116001811462000d2a576000841562000d15578287015190505b62000d21858262000c94565b86555062000d91565b601f19841662000d3a8662000ae0565b60005b8281101562000d645784890151825560018201915060208501945060208101905062000d3d565b8683101562000d84578489015162000d80601f89168262000c74565b8355505b6001600288020188555050505b505050505050565b600081905092915050565b7f536b7977726974696e6700000000000000000000000000000000000000000000600082015250565b600062000ddc600a8362000d99565b915062000de98262000da4565b600a82019050919050565b600062000e018262000dcd565b9150819050919050565b6000815462000e1a8162000aab565b62000e26818662000d99565b9450600182166000811462000e44576001811462000e5a5762000e91565b60ff198316865281151582028601935062000e91565b62000e658562000ae0565b60005b8381101562000e895781548189015260018201915060208101905062000e68565b838801955050505b50505092915050565b600062000ea8828462000e0b565b915081905092915050565b7f4e487b7100000000000000000000000000000000000000000000000000000000600052601160045260246000fd5b600062000eef8262000791565b915062000efc8362000791565b925082820262000f0c8162000791565b9150828204841483151762000f265762000f2562000eb3565b5b5092915050565b600062000f3a8262000791565b915062000f478362000791565b925082820190508082111562000f625762000f6162000eb3565b5b92915050565b600062000f758262000791565b915062000f828362000791565b925082820390508181111562000f9d5762000f9c62000eb3565b5b92915050565b600082825260208201905092915050565b7f455243313135353a206d696e7420746f20746865207a65726f2061646472657360008201527f7300000000000000000000000000000000000000000000000000000000000000602082015250565b60006200101260218362000fa3565b91506200101f8262000fb4565b604082019050919050565b60006020820190508181036000830152620010458162001003565b9050919050565b620010578162000791565b82525050565b60006040820190506200107460008301856200104c565b6200108360208301846200104c565b9392505050565b7f4e487b7100000000000000000000000000000000000000000000000000000000600052603260045260246000fd5b620010c4816200074c565b82525050565b600081519050919050565b600082825260208201905092915050565b6000620010f382620010ca565b620010ff8185620010d5565b935062001111818560208601620008a1565b6200111c81620007d6565b840191505092915050565b600060a0820190506200113e6000830188620010b9565b6200114d6020830187620010b9565b6200115c60408301866200104c565b6200116b60608301856200104c565b81810360808301526200117f8184620010e6565b90509695505050505050565b60007fffffffff0000000000000000000000000000000000000000000000000000000082169050919050565b620011c2816200118b565b8114620011ce57600080fd5b50565b600081519050620011e281620011b7565b92915050565b60006020828403121562001201576200120062000722565b5b60006200121184828501620011d1565b91505092915050565b60008160e01c9050919050565b600060033d1115620012495760046000803e620012466000516200121a565b90505b90565b600060443d10620012e4576200126162000718565b60043d036004823e80513d602482011167ffffffffffffffff821117156200128b575050620012e4565b808201805167ffffffffffffffff811115620012ab5750505050620012e4565b80602083010160043d038501811115620012ca575050505050620012e4565b620012db8260200185018662000816565b82955050505050505b90565b6000620012f48262000a71565b62001300818562000fa3565b935062001312818560208601620008a1565b6200131d81620007d6565b840191505092915050565b60006020820190508181036000830152620013448184620012e7565b905092915050565b7f455243313135353a207472616e7366657220746f206e6f6e2d4552433131353560008201527f526563656976657220696d706c656d656e746572000000000000000000000000602082015250565b6000620013aa60348362000fa3565b9150620013b7826200134c565b604082019050919050565b60006020820190508181036000830152620013dd816200139b565b9050919050565b7f455243313135353a204552433131353552656365697665722072656a6563746560008201527f6420746f6b656e73000000000000000000000000000000000000000000000000602082015250565b60006200144260288362000fa3565b91506200144f82620013e4565b604082019050919050565b60006020820190508181036000830152620014758162001433565b9050919050565b6143c5806200148c6000396000f3fe6080604052600436106101c55760003560e01c8063590e1ae3116100f7578063d411eccb11610095578063e21f37ce11610064578063e21f37ce146105f1578063e985e9c51461061c578063f242432a14610659578063f9c36fde14610682576101d4565b8063d411eccb14610566578063d4b8399214610591578063d5f39488146105bc578063d7bb99ba146105e7576101d4565b8063ae08ed5c116100d1578063ae08ed5c146104d0578063af3b19e5146104fb578063b126793b14610512578063b79757091461053b576101d4565b8063590e1ae314610465578063796b23bb1461047c578063a22cb465146104a7576101d4565b8063158626691161016457806336ebffca1161013e57806336ebffca146103a75780634e1273f4146103d257806355d576cc1461040f5780635600f04f1461043a576101d4565b8063158626691461032857806317d70f7c146103535780632eb2c2d61461037e576101d4565b806307bfce37116101a057806307bfce371461027e578063085d4883146102a95780630e89341c146102d45780631249c58b14610311576101d4565b8062fdd58e146101d957806301ffc9a7146102165780630539272a14610253576101d4565b366101d4576101d26106ad565b005b600080fd5b3480156101e557600080fd5b5061020060048036038101906101fb9190612724565b610776565b60405161020d9190612773565b60405180910390f35b34801561022257600080fd5b5061023d600480360381019061023891906127e6565b61083e565b60405161024a919061282e565b60405180910390f35b34801561025f57600080fd5b50610268610920565b6040516102759190612773565b60405180910390f35b34801561028a57600080fd5b50610293610926565b6040516102a09190612773565b60405180910390f35b3480156102b557600080fd5b506102be61092c565b6040516102cb9190612858565b60405180910390f35b3480156102e057600080fd5b506102fb60048036038101906102f69190612873565b610952565b6040516103089190612930565b60405180910390f35b34801561031d57600080fd5b506103266109e6565b005b34801561033457600080fd5b5061033d610b35565b60405161034a9190612773565b60405180910390f35b34801561035f57600080fd5b50610368610b3b565b6040516103759190612773565b60405180910390f35b34801561038a57600080fd5b506103a560048036038101906103a09190612b4f565b610b47565b005b3480156103b357600080fd5b506103bc610be8565b6040516103c99190612930565b60405180910390f35b3480156103de57600080fd5b506103f960048036038101906103f49190612ce1565b610c76565b6040516104069190612e17565b60405180910390f35b34801561041b57600080fd5b50610424610d89565b6040516104319190612773565b60405180910390f35b34801561044657600080fd5b5061044f610d8f565b60405161045c9190612930565b60405180910390f35b34801561047157600080fd5b5061047a610e1d565b005b34801561048857600080fd5b5061049161103b565b60405161049e9190612773565b60405180910390f35b3480156104b357600080fd5b506104ce60048036038101906104c99190612e65565b611041565b005b3480156104dc57600080fd5b506104e5611057565b6040516104f29190612773565b60405180910390f35b34801561050757600080fd5b5061051061105e565b005b34801561051e57600080fd5b5061053960048036038101906105349190612f46565b6111da565b005b34801561054757600080fd5b50610550611328565b60405161055d91906130fa565b60405180910390f35b34801561057257600080fd5b5061057b6115a9565b6040516105889190612773565b60405180910390f35b34801561059d57600080fd5b506105a66115af565b6040516105b39190612930565b60405180910390f35b3480156105c857600080fd5b506105d161163d565b6040516105de9190612858565b60405180910390f35b6105ef6106ad565b005b3480156105fd57600080fd5b50610606611663565b6040516106139190612930565b60405180910390f35b34801561062857600080fd5b50610643600480360381019061063e919061311c565b6116f1565b604051610650919061282e565b60405180910390f35b34801561066557600080fd5b50610680600480360381019061067b919061315c565b611785565b005b34801561068e57600080fd5b50610697611826565b6040516106a49190612773565b60405180910390f35b6000349050600d5481600f546106c39190613222565b1115610704576040517f08c379a00000000000000000000000000000000000000000000000000000000081526004016106fb906132c8565b60405180910390fd5b80600f60008282546107169190613222565b9250508190555080601160003373ffffffffffffffffffffffffffffffffffffffff1673ffffffffffffffffffffffffffffffffffffffff168152602001908152602001600020600082825461076c9190613222565b9250508190555050565b60008073ffffffffffffffffffffffffffffffffffffffff168373ffffffffffffffffffffffffffffffffffffffff16036107e6576040517f08c379a00000000000000000000000000000000000000000000000000000000081526004016107dd9061335a565b60405180910390fd5b60008083815260200190815260200160002060008473ffffffffffffffffffffffffffffffffffffffff1673ffffffffffffffffffffffffffffffffffffffff16815260200190815260200160002054905092915050565b60007fd9b67a26000000000000000000000000000000000000000000000000000000007bffffffffffffffffffffffffffffffffffffffffffffffffffffffff1916827bffffffffffffffffffffffffffffffffffffffffffffffffffffffff1916148061090957507f0e89341c000000000000000000000000000000000000000000000000000000007bffffffffffffffffffffffffffffffffffffffffffffffffffffffff1916827bffffffffffffffffffffffffffffffffffffffffffffffffffffffff1916145b8061091957506109188261182c565b5b9050919050565b60055481565b60085481565b600e60009054906101000a900473ffffffffffffffffffffffffffffffffffffffff1681565b606060028054610961906133a9565b80601f016020809104026020016040519081016040528092919081815260200182805461098d906133a9565b80156109da5780601f106109af576101008083540402835291602001916109da565b820191906000526020600020905b8154815290600101906020018083116109bd57829003601f168201915b50505050509050919050565b6000601160003373ffffffffffffffffffffffffffffffffffffffff1673ffffffffffffffffffffffffffffffffffffffff16815260200190815260200160002054905060008111610a6d576040517f08c379a0000000000000000000000000000000000000000000000000000000008152600401610a6490613426565b60405180910390fd5b600060108054610a7c906133a9565b905003610abe576040517f08c379a0000000000000000000000000000000000000000000000000000000008152600401610ab590613492565b60405180910390fd5b610ac86003611896565b6000601160003373ffffffffffffffffffffffffffffffffffffffff1673ffffffffffffffffffffffffffffffffffffffff16815260200190815260200160002081905550610b3233610b1b60036118ac565b6001604051806020016040528060008152506118ba565b50565b60065481565b60038060000154905081565b610b4f611a6a565b73ffffffffffffffffffffffffffffffffffffffff168573ffffffffffffffffffffffffffffffffffffffff161480610b955750610b9485610b8f611a6a565b6116f1565b5b610bd4576040517f08c379a0000000000000000000000000000000000000000000000000000000008152600401610bcb90613524565b60405180910390fd5b610be18585858585611a72565b5050505050565b600b8054610bf5906133a9565b80601f0160208091040260200160405190810160405280929190818152602001828054610c21906133a9565b8015610c6e5780601f10610c4357610100808354040283529160200191610c6e565b820191906000526020600020905b815481529060010190602001808311610c5157829003601f168201915b505050505081565b60608151835114610cbc576040517f08c379a0000000000000000000000000000000000000000000000000000000008152600401610cb3906135b6565b60405180910390fd5b6000835167ffffffffffffffff811115610cd957610cd8612957565b5b604051908082528060200260200182016040528015610d075781602001602082028036833780820191505090505b50905060005b8451811015610d7e57610d54858281518110610d2c57610d2b6135d6565b5b6020026020010151858381518110610d4757610d466135d6565b5b6020026020010151610776565b828281518110610d6757610d666135d6565b5b602002602001018181525050806001019050610d0d565b508091505092915050565b60075481565b60108054610d9c906133a9565b80601f0160208091040260200160405190810160405280929190818152602001828054610dc8906133a9565b8015610e155780601f10610dea57610100808354040283529160200191610e15565b820191906000526020600020905b815481529060010190602001808311610df857829003601f168201915b505050505081565b6000601160003373ffffffffffffffffffffffffffffffffffffffff1673ffffffffffffffffffffffffffffffffffffffff168152602001908152602001600020549050600073ffffffffffffffffffffffffffffffffffffffff16600e60009054906101000a900473ffffffffffffffffffffffffffffffffffffffff1673ffffffffffffffffffffffffffffffffffffffff1614610ef2576040517f08c379a0000000000000000000000000000000000000000000000000000000008152600401610ee990613677565b60405180910390fd5b60008111610f35576040517f08c379a0000000000000000000000000000000000000000000000000000000008152600401610f2c906136e3565b60405180910390fd5b600c544211610f79576040517f08c379a0000000000000000000000000000000000000000000000000000000008152600401610f7090613775565b60405180910390fd5b6000601160003373ffffffffffffffffffffffffffffffffffffffff1673ffffffffffffffffffffffffffffffffffffffff1681526020019081526020016000208190555060003373ffffffffffffffffffffffffffffffffffffffff166108fc839081150290604051600060405180830381858888f19350505050905080611037576040517f08c379a000000000000000000000000000000000000000000000000000000000815260040161102e906137e1565b60405180910390fd5b5050565b600c5481565b61105361104c611a6a565b8383611d8d565b5050565b62278d0081565b600460009054906101000a900473ffffffffffffffffffffffffffffffffffffffff1673ffffffffffffffffffffffffffffffffffffffff16636b074a07336040518263ffffffff1660e01b81526004016110b99190612858565b602060405180830381865afa1580156110d6573d6000803e3d6000fd5b505050506040513d601f19601f820116820180604052508101906110fa9190613816565b611139576040517f08c379a0000000000000000000000000000000000000000000000000000000008152600401611130906138b5565b60405180910390fd5b60646062600d5461114a91906138d5565b6111549190613946565b600f5411611197576040517f08c379a000000000000000000000000000000000000000000000000000000000815260040161118e906139e9565b60405180910390fd5b33600e60006101000a81548173ffffffffffffffffffffffffffffffffffffffff021916908373ffffffffffffffffffffffffffffffffffffffff160217905550565b600e60009054906101000a900473ffffffffffffffffffffffffffffffffffffffff1673ffffffffffffffffffffffffffffffffffffffff163373ffffffffffffffffffffffffffffffffffffffff161461126a576040517f08c379a000000000000000000000000000000000000000000000000000000000815260040161126190613a7b565b60405180910390fd5b80601090816112799190613c47565b5060003373ffffffffffffffffffffffffffffffffffffffff166108fc600d549081150290604051600060405180830381858888f193505050509050806112f5576040517f08c379a00000000000000000000000000000000000000000000000000000000081526004016112ec906137e1565b60405180910390fd5b6112ff6003611896565b6113243361130d60036118ac565b6001604051806020016040528060008152506118ba565b5050565b6113306125ef565b6000604051806101800160405280600460009054906101000a900473ffffffffffffffffffffffffffffffffffffffff1673ffffffffffffffffffffffffffffffffffffffff1681526020016005548152602001600654815260200160075481526020016008548152602001600980546113a9906133a9565b80601f01602080910402602001604051908101604052809291908181526020018280546113d5906133a9565b80156114225780601f106113f757610100808354040283529160200191611422565b820191906000526020600020905b81548152906001019060200180831161140557829003601f168201915b50505050508152602001600a8054611439906133a9565b80601f0160208091040260200160405190810160405280929190818152602001828054611465906133a9565b80156114b25780601f10611487576101008083540402835291602001916114b2565b820191906000526020600020905b81548152906001019060200180831161149557829003601f168201915b50505050508152602001600b80546114c9906133a9565b80601f01602080910402602001604051908101604052809291908181526020018280546114f5906133a9565b80156115425780601f1061151757610100808354040283529160200191611542565b820191906000526020600020905b81548152906001019060200180831161152557829003601f168201915b50505050508152602001600c548152602001600d548152602001600e60009054906101000a900473ffffffffffffffffffffffffffffffffffffffff1673ffffffffffffffffffffffffffffffffffffffff168152602001600f5481525090508091505090565b600d5481565b600980546115bc906133a9565b80601f01602080910402602001604051908101604052809291908181526020018280546115e8906133a9565b80156116355780601f1061160a57610100808354040283529160200191611635565b820191906000526020600020905b81548152906001019060200180831161161857829003601f168201915b505050505081565b600460009054906101000a900473ffffffffffffffffffffffffffffffffffffffff1681565b600a8054611670906133a9565b80601f016020809104026020016040519081016040528092919081815260200182805461169c906133a9565b80156116e95780601f106116be576101008083540402835291602001916116e9565b820191906000526020600020905b8154815290600101906020018083116116cc57829003601f168201915b505050505081565b6000600160008473ffffffffffffffffffffffffffffffffffffffff1673ffffffffffffffffffffffffffffffffffffffff16815260200190815260200160002060008373ffffffffffffffffffffffffffffffffffffffff1673ffffffffffffffffffffffffffffffffffffffff16815260200190815260200160002060009054906101000a900460ff16905092915050565b61178d611a6a565b73ffffffffffffffffffffffffffffffffffffffff168573ffffffffffffffffffffffffffffffffffffffff1614806117d357506117d2856117cd611a6a565b6116f1565b5b611812576040517f08c379a000000000000000000000000000000000000000000000000000000000815260040161180990613524565b60405180910390fd5b61181f8585858585611ef9565b5050505050565b600f5481565b60007f01ffc9a7000000000000000000000000000000000000000000000000000000007bffffffffffffffffffffffffffffffffffffffffffffffffffffffff1916827bffffffffffffffffffffffffffffffffffffffffffffffffffffffff1916149050919050565b6001816000016000828254019250508190555050565b600081600001549050919050565b600073ffffffffffffffffffffffffffffffffffffffff168473ffffffffffffffffffffffffffffffffffffffff1603611929576040517f08c379a000000000000000000000000000000000000000000000000000000000815260040161192090613d8b565b60405180910390fd5b6000611933611a6a565b9050600061194085612194565b9050600061194d85612194565b905061195e8360008985858961220e565b8460008088815260200190815260200160002060008973ffffffffffffffffffffffffffffffffffffffff1673ffffffffffffffffffffffffffffffffffffffff16815260200190815260200160002060008282546119bd9190613222565b925050819055508673ffffffffffffffffffffffffffffffffffffffff16600073ffffffffffffffffffffffffffffffffffffffff168473ffffffffffffffffffffffffffffffffffffffff167fc3d58168c5ae7397731d063d5bbf3d657854427343f4c083240f7aacaa2d0f628989604051611a3b929190613dab565b60405180910390a4611a5283600089858589612216565b611a618360008989898961221e565b50505050505050565b600033905090565b8151835114611ab6576040517f08c379a0000000000000000000000000000000000000000000000000000000008152600401611aad90613e46565b60405180910390fd5b600073ffffffffffffffffffffffffffffffffffffffff168473ffffffffffffffffffffffffffffffffffffffff1603611b25576040517f08c379a0000000000000000000000000000000000000000000000000000000008152600401611b1c90613ed8565b60405180910390fd5b6000611b2f611a6a565b9050611b3f81878787878761220e565b60005b8451811015611cea576000858281518110611b6057611b5f6135d6565b5b602002602001015190506000858381518110611b7f57611b7e6135d6565b5b60200260200101519050600080600084815260200190815260200160002060008b73ffffffffffffffffffffffffffffffffffffffff1673ffffffffffffffffffffffffffffffffffffffff16815260200190815260200160002054905081811015611c20576040517f08c379a0000000000000000000000000000000000000000000000000000000008152600401611c1790613f6a565b60405180910390fd5b81810360008085815260200190815260200160002060008c73ffffffffffffffffffffffffffffffffffffffff1673ffffffffffffffffffffffffffffffffffffffff168152602001908152602001600020819055508160008085815260200190815260200160002060008b73ffffffffffffffffffffffffffffffffffffffff1673ffffffffffffffffffffffffffffffffffffffff1681526020019081526020016000206000828254611cd59190613222565b92505081905550505050806001019050611b42565b508473ffffffffffffffffffffffffffffffffffffffff168673ffffffffffffffffffffffffffffffffffffffff168273ffffffffffffffffffffffffffffffffffffffff167f4a39dc06d4c0dbc64b70af90fd698a233a518aa5d07e595d983b8c0526c8f7fb8787604051611d61929190613f8a565b60405180910390a4611d77818787878787612216565b611d858187878787876123f5565b505050505050565b8173ffffffffffffffffffffffffffffffffffffffff168373ffffffffffffffffffffffffffffffffffffffff1603611dfb576040517f08c379a0000000000000000000000000000000000000000000000000000000008152600401611df290614033565b60405180910390fd5b80600160008573ffffffffffffffffffffffffffffffffffffffff1673ffffffffffffffffffffffffffffffffffffffff16815260200190815260200160002060008473ffffffffffffffffffffffffffffffffffffffff1673ffffffffffffffffffffffffffffffffffffffff16815260200190815260200160002060006101000a81548160ff0219169083151502179055508173ffffffffffffffffffffffffffffffffffffffff168373ffffffffffffffffffffffffffffffffffffffff167f17307eab39ab6107e8899845ad3d59bd9653f200f220920489ca2b5937696c3183604051611eec919061282e565b60405180910390a3505050565b600073ffffffffffffffffffffffffffffffffffffffff168473ffffffffffffffffffffffffffffffffffffffff1603611f68576040517f08c379a0000000000000000000000000000000000000000000000000000000008152600401611f5f90613ed8565b60405180910390fd5b6000611f72611a6a565b90506000611f7f85612194565b90506000611f8c85612194565b9050611f9c83898985858961220e565b600080600088815260200190815260200160002060008a73ffffffffffffffffffffffffffffffffffffffff1673ffffffffffffffffffffffffffffffffffffffff16815260200190815260200160002054905085811015612033576040517f08c379a000000000000000000000000000000000000000000000000000000000815260040161202a90613f6a565b60405180910390fd5b85810360008089815260200190815260200160002060008b73ffffffffffffffffffffffffffffffffffffffff1673ffffffffffffffffffffffffffffffffffffffff168152602001908152602001600020819055508560008089815260200190815260200160002060008a73ffffffffffffffffffffffffffffffffffffffff1673ffffffffffffffffffffffffffffffffffffffff16815260200190815260200160002060008282546120e89190613222565b925050819055508773ffffffffffffffffffffffffffffffffffffffff168973ffffffffffffffffffffffffffffffffffffffff168573ffffffffffffffffffffffffffffffffffffffff167fc3d58168c5ae7397731d063d5bbf3d657854427343f4c083240f7aacaa2d0f628a8a604051612165929190613dab565b60405180910390a461217b848a8a86868a612216565b612189848a8a8a8a8a61221e565b505050505050505050565b60606000600167ffffffffffffffff8111156121b3576121b2612957565b5b6040519080825280602002602001820160405280156121e15781602001602082028036833780820191505090505b50905082816000815181106121f9576121f86135d6565b5b60200260200101818152505080915050919050565b505050505050565b505050505050565b61223d8473ffffffffffffffffffffffffffffffffffffffff166125cc565b156123ed578373ffffffffffffffffffffffffffffffffffffffff1663f23a6e6187878686866040518663ffffffff1660e01b81526004016122839594939291906140a8565b6020604051808303816000875af19250505080156122bf57506040513d601f19601f820116820180604052508101906122bc9190614117565b60015b612364576122cb614151565b806308c379a00361232757506122df614173565b806122ea5750612329565b806040517f08c379a000000000000000000000000000000000000000000000000000000000815260040161231e9190612930565b60405180910390fd5b505b6040517f08c379a000000000000000000000000000000000000000000000000000000000815260040161235b90614275565b60405180910390fd5b63f23a6e6160e01b7bffffffffffffffffffffffffffffffffffffffffffffffffffffffff1916817bffffffffffffffffffffffffffffffffffffffffffffffffffffffff1916146123eb576040517f08c379a00000000000000000000000000000000000000000000000000000000081526004016123e290614307565b60405180910390fd5b505b505050505050565b6124148473ffffffffffffffffffffffffffffffffffffffff166125cc565b156125c4578373ffffffffffffffffffffffffffffffffffffffff1663bc197c8187878686866040518663ffffffff1660e01b815260040161245a959493929190614327565b6020604051808303816000875af192505050801561249657506040513d601f19601f820116820180604052508101906124939190614117565b60015b61253b576124a2614151565b806308c379a0036124fe57506124b6614173565b806124c15750612500565b806040517f08c379a00000000000000000000000000000000000000000000000000000000081526004016124f59190612930565b60405180910390fd5b505b6040517f08c379a000000000000000000000000000000000000000000000000000000000815260040161253290614275565b60405180910390fd5b63bc197c8160e01b7bffffffffffffffffffffffffffffffffffffffffffffffffffffffff1916817bffffffffffffffffffffffffffffffffffffffffffffffffffffffff1916146125c2576040517f08c379a00000000000000000000000000000000000000000000000000000000081526004016125b990614307565b60405180910390fd5b505b505050505050565b6000808273ffffffffffffffffffffffffffffffffffffffff163b119050919050565b604051806101800160405280600073ffffffffffffffffffffffffffffffffffffffff168152602001600081526020016000815260200160008152602001600081526020016060815260200160608152602001606081526020016000815260200160008152602001600073ffffffffffffffffffffffffffffffffffffffff168152602001600081525090565b6000604051905090565b600080fd5b600080fd5b600073ffffffffffffffffffffffffffffffffffffffff82169050919050565b60006126bb82612690565b9050919050565b6126cb816126b0565b81146126d657600080fd5b50565b6000813590506126e8816126c2565b92915050565b6000819050919050565b612701816126ee565b811461270c57600080fd5b50565b60008135905061271e816126f8565b92915050565b6000806040838503121561273b5761273a612686565b5b6000612749858286016126d9565b925050602061275a8582860161270f565b9150509250929050565b61276d816126ee565b82525050565b60006020820190506127886000830184612764565b92915050565b60007fffffffff0000000000000000000000000000000000000000000000000000000082169050919050565b6127c38161278e565b81146127ce57600080fd5b50565b6000813590506127e0816127ba565b92915050565b6000602082840312156127fc576127fb612686565b5b600061280a848285016127d1565b91505092915050565b60008115159050919050565b61282881612813565b82525050565b6000602082019050612843600083018461281f565b92915050565b612852816126b0565b82525050565b600060208201905061286d6000830184612849565b92915050565b60006020828403121561288957612888612686565b5b60006128978482850161270f565b91505092915050565b600081519050919050565b600082825260208201905092915050565b60005b838110156128da5780820151818401526020810190506128bf565b60008484015250505050565b6000601f19601f8301169050919050565b6000612902826128a0565b61290c81856128ab565b935061291c8185602086016128bc565b612925816128e6565b840191505092915050565b6000602082019050818103600083015261294a81846128f7565b905092915050565b600080fd5b7f4e487b7100000000000000000000000000000000000000000000000000000000600052604160045260246000fd5b61298f826128e6565b810181811067ffffffffffffffff821117156129ae576129ad612957565b5b80604052505050565b60006129c161267c565b90506129cd8282612986565b919050565b600067ffffffffffffffff8211156129ed576129ec612957565b5b602082029050602081019050919050565b600080fd5b6000612a16612a11846129d2565b6129b7565b90508083825260208201905060208402830185811115612a3957612a386129fe565b5b835b81811015612a625780612a4e888261270f565b845260208401935050602081019050612a3b565b5050509392505050565b600082601f830112612a8157612a80612952565b5b8135612a91848260208601612a03565b91505092915050565b600080fd5b600067ffffffffffffffff821115612aba57612ab9612957565b5b612ac3826128e6565b9050602081019050919050565b82818337600083830152505050565b6000612af2612aed84612a9f565b6129b7565b905082815260208101848484011115612b0e57612b0d612a9a565b5b612b19848285612ad0565b509392505050565b600082601f830112612b3657612b35612952565b5b8135612b46848260208601612adf565b91505092915050565b600080600080600060a08688031215612b6b57612b6a612686565b5b6000612b79888289016126d9565b9550506020612b8a888289016126d9565b945050604086013567ffffffffffffffff811115612bab57612baa61268b565b5b612bb788828901612a6c565b935050606086013567ffffffffffffffff811115612bd857612bd761268b565b5b612be488828901612a6c565b925050608086013567ffffffffffffffff811115612c0557612c0461268b565b5b612c1188828901612b21565b9150509295509295909350565b600067ffffffffffffffff821115612c3957612c38612957565b5b602082029050602081019050919050565b6000612c5d612c5884612c1e565b6129b7565b90508083825260208201905060208402830185811115612c8057612c7f6129fe565b5b835b81811015612ca95780612c9588826126d9565b845260208401935050602081019050612c82565b5050509392505050565b600082601f830112612cc857612cc7612952565b5b8135612cd8848260208601612c4a565b91505092915050565b60008060408385031215612cf857612cf7612686565b5b600083013567ffffffffffffffff811115612d1657612d1561268b565b5b612d2285828601612cb3565b925050602083013567ffffffffffffffff811115612d4357612d4261268b565b5b612d4f85828601612a6c565b9150509250929050565b600081519050919050565b600082825260208201905092915050565b6000819050602082019050919050565b612d8e816126ee565b82525050565b6000612da08383612d85565b60208301905092915050565b6000602082019050919050565b6000612dc482612d59565b612dce8185612d64565b9350612dd983612d75565b8060005b83811015612e0a578151612df18882612d94565b9750612dfc83612dac565b925050600181019050612ddd565b5085935050505092915050565b60006020820190508181036000830152612e318184612db9565b905092915050565b612e4281612813565b8114612e4d57600080fd5b50565b600081359050612e5f81612e39565b92915050565b60008060408385031215612e7c57612e7b612686565b5b6000612e8a858286016126d9565b9250506020612e9b85828601612e50565b9150509250929050565b600067ffffffffffffffff821115612ec057612ebf612957565b5b612ec9826128e6565b9050602081019050919050565b6000612ee9612ee484612ea5565b6129b7565b905082815260208101848484011115612f0557612f04612a9a565b5b612f10848285612ad0565b509392505050565b600082601f830112612f2d57612f2c612952565b5b8135612f3d848260208601612ed6565b91505092915050565b600060208284031215612f5c57612f5b612686565b5b600082013567ffffffffffffffff811115612f7a57612f7961268b565b5b612f8684828501612f18565b91505092915050565b612f98816126b0565b82525050565b600082825260208201905092915050565b6000612fba826128a0565b612fc48185612f9e565b9350612fd48185602086016128bc565b612fdd816128e6565b840191505092915050565b6000610180830160008301516130016000860182612f8f565b5060208301516130146020860182612d85565b5060408301516130276040860182612d85565b50606083015161303a6060860182612d85565b50608083015161304d6080860182612d85565b5060a083015184820360a08601526130658282612faf565b91505060c083015184820360c086015261307f8282612faf565b91505060e083015184820360e08601526130998282612faf565b9150506101008301516130b0610100860182612d85565b506101208301516130c5610120860182612d85565b506101408301516130da610140860182612f8f565b506101608301516130ef610160860182612d85565b508091505092915050565b600060208201905081810360008301526131148184612fe8565b905092915050565b6000806040838503121561313357613132612686565b5b6000613141858286016126d9565b9250506020613152858286016126d9565b9150509250929050565b600080600080600060a0868803121561317857613177612686565b5b6000613186888289016126d9565b9550506020613197888289016126d9565b94505060406131a88882890161270f565b93505060606131b98882890161270f565b925050608086013567ffffffffffffffff8111156131da576131d961268b565b5b6131e688828901612b21565b9150509295509295909350565b7f4e487b7100000000000000000000000000000000000000000000000000000000600052601160045260246000fd5b600061322d826126ee565b9150613238836126ee565b92508282019050808211156132505761324f6131f3565b5b92915050565b7f63616e6e6f7420636f6e74726962757465206d6f7265207468616e207468652060008201527f66756e64696e6720746172676574000000000000000000000000000000000000602082015250565b60006132b2602e836128ab565b91506132bd82613256565b604082019050919050565b600060208201905081810360008301526132e1816132a5565b9050919050565b7f455243313135353a2061646472657373207a65726f206973206e6f742061207660008201527f616c6964206f776e657200000000000000000000000000000000000000000000602082015250565b6000613344602a836128ab565b915061334f826132e8565b604082019050919050565b6000602082019050818103600083015261337381613337565b9050919050565b7f4e487b7100000000000000000000000000000000000000000000000000000000600052602260045260246000fd5b600060028204905060018216806133c157607f821691505b6020821081036133d4576133d361337a565b5b50919050565b7f5573657220646964206e6f7420636f6e74726962757465000000000000000000600082015250565b60006134106017836128ab565b915061341b826133da565b602082019050919050565b6000602082019050818103600083015261343f81613403565b9050919050565b7f50726f706f73616c206973206e6f7420636f6d706c6574650000000000000000600082015250565b600061347c6018836128ab565b915061348782613446565b602082019050919050565b600060208201905081810360008301526134ab8161346f565b9050919050565b7f455243313135353a2063616c6c6572206973206e6f7420746f6b656e206f776e60008201527f6572206f7220617070726f766564000000000000000000000000000000000000602082015250565b600061350e602e836128ab565b9150613519826134b2565b604082019050919050565b6000602082019050818103600083015261353d81613501565b9050919050565b7f455243313135353a206163636f756e747320616e6420696473206c656e67746860008201527f206d69736d617463680000000000000000000000000000000000000000000000602082015250565b60006135a06029836128ab565b91506135ab82613544565b604082019050919050565b600060208201905081810360008301526135cf81613593565b9050919050565b7f4e487b7100000000000000000000000000000000000000000000000000000000600052603260045260246000fd5b7f50726f706f73616c2068617320616c7265616479206265656e2061636365707460008201527f6564000000000000000000000000000000000000000000000000000000000000602082015250565b60006136616022836128ab565b915061366c82613605565b604082019050919050565b6000602082019050818103600083015261369081613654565b9050919050565b7f4e6f2066756e647320746f20726566756e640000000000000000000000000000600082015250565b60006136cd6012836128ab565b91506136d882613697565b602082019050919050565b600060208201905081810360008301526136fc816136c0565b9050919050565b7f66756e64696e6720646561646c696e6520686173206e6f74206265656e20726560008201527f6163686564000000000000000000000000000000000000000000000000000000602082015250565b600061375f6025836128ab565b915061376a82613703565b604082019050919050565b6000602082019050818103600083015261378e81613752565b9050919050565b7f4661696c656420746f2073656e64204574686572000000000000000000000000600082015250565b60006137cb6014836128ab565b91506137d682613795565b602082019050919050565b600060208201905081810360008301526137fa816137be565b9050919050565b60008151905061381081612e39565b92915050565b60006020828403121561382c5761382b612686565b5b600061383a84828501613801565b91505092915050565b7f4f6e6c792070726f7669646572732063616e206163636570742070726f706f7360008201527f616c730000000000000000000000000000000000000000000000000000000000602082015250565b600061389f6023836128ab565b91506138aa82613843565b604082019050919050565b600060208201905081810360008301526138ce81613892565b9050919050565b60006138e0826126ee565b91506138eb836126ee565b92508282026138f9816126ee565b915082820484148315176139105761390f6131f3565b5b5092915050565b7f4e487b7100000000000000000000000000000000000000000000000000000000600052601260045260246000fd5b6000613951826126ee565b915061395c836126ee565b92508261396c5761396b613917565b5b828204905092915050565b7f70726f706f73616c20686173206e6f74206265656e2066756c6c792066756e6460008201527f6564000000000000000000000000000000000000000000000000000000000000602082015250565b60006139d36022836128ab565b91506139de82613977565b604082019050919050565b60006020820190508181036000830152613a02816139c6565b9050919050565b7f4f6e6c79207468652070726f76696465722063616e20636f6d706c657465207060008201527f726f706f73616c00000000000000000000000000000000000000000000000000602082015250565b6000613a656027836128ab565b9150613a7082613a09565b604082019050919050565b60006020820190508181036000830152613a9481613a58565b9050919050565b60008190508160005260206000209050919050565b60006020601f8301049050919050565b600082821b905092915050565b600060088302613afd7fffffffffffffffffffffffffffffffffffffffffffffffffffffffffffffffff82613ac0565b613b078683613ac0565b95508019841693508086168417925050509392505050565b6000819050919050565b6000613b44613b3f613b3a846126ee565b613b1f565b6126ee565b9050919050565b6000819050919050565b613b5e83613b29565b613b72613b6a82613b4b565b848454613acd565b825550505050565b600090565b613b87613b7a565b613b92818484613b55565b505050565b5b81811015613bb657613bab600082613b7f565b600181019050613b98565b5050565b601f821115613bfb57613bcc81613a9b565b613bd584613ab0565b81016020851015613be4578190505b613bf8613bf085613ab0565b830182613b97565b50505b505050565b600082821c905092915050565b6000613c1e60001984600802613c00565b1980831691505092915050565b6000613c378383613c0d565b9150826002028217905092915050565b613c50826128a0565b67ffffffffffffffff811115613c6957613c68612957565b5b613c7382546133a9565b613c7e828285613bba565b600060209050601f831160018114613cb15760008415613c9f578287015190505b613ca98582613c2b565b865550613d11565b601f198416613cbf86613a9b565b60005b82811015613ce757848901518255600182019150602085019450602081019050613cc2565b86831015613d045784890151613d00601f891682613c0d565b8355505b6001600288020188555050505b505050505050565b7f455243313135353a206d696e7420746f20746865207a65726f2061646472657360008201527f7300000000000000000000000000000000000000000000000000000000000000602082015250565b6000613d756021836128ab565b9150613d8082613d19565b604082019050919050565b60006020820190508181036000830152613da481613d68565b9050919050565b6000604082019050613dc06000830185612764565b613dcd6020830184612764565b9392505050565b7f455243313135353a2069647320616e6420616d6f756e7473206c656e6774682060008201527f6d69736d61746368000000000000000000000000000000000000000000000000602082015250565b6000613e306028836128ab565b9150613e3b82613dd4565b604082019050919050565b60006020820190508181036000830152613e5f81613e23565b9050919050565b7f455243313135353a207472616e7366657220746f20746865207a65726f20616460008201527f6472657373000000000000000000000000000000000000000000000000000000602082015250565b6000613ec26025836128ab565b9150613ecd82613e66565b604082019050919050565b60006020820190508181036000830152613ef181613eb5565b9050919050565b7f455243313135353a20696e73756666696369656e742062616c616e636520666f60008201527f72207472616e7366657200000000000000000000000000000000000000000000602082015250565b6000613f54602a836128ab565b9150613f5f82613ef8565b604082019050919050565b60006020820190508181036000830152613f8381613f47565b9050919050565b60006040820190508181036000830152613fa48185612db9565b90508181036020830152613fb88184612db9565b90509392505050565b7f455243313135353a2073657474696e6720617070726f76616c2073746174757360008201527f20666f722073656c660000000000000000000000000000000000000000000000602082015250565b600061401d6029836128ab565b915061402882613fc1565b604082019050919050565b6000602082019050818103600083015261404c81614010565b9050919050565b600081519050919050565b600082825260208201905092915050565b600061407a82614053565b614084818561405e565b93506140948185602086016128bc565b61409d816128e6565b840191505092915050565b600060a0820190506140bd6000830188612849565b6140ca6020830187612849565b6140d76040830186612764565b6140e46060830185612764565b81810360808301526140f6818461406f565b90509695505050505050565b600081519050614111816127ba565b92915050565b60006020828403121561412d5761412c612686565b5b600061413b84828501614102565b91505092915050565b60008160e01c9050919050565b600060033d11156141705760046000803e61416d600051614144565b90505b90565b600060443d106142005761418561267c565b60043d036004823e80513d602482011167ffffffffffffffff821117156141ad575050614200565b808201805167ffffffffffffffff8111156141cb5750505050614200565b80602083010160043d0385018111156141e8575050505050614200565b6141f782602001850186612986565b82955050505050505b90565b7f455243313135353a207472616e7366657220746f206e6f6e2d4552433131353560008201527f526563656976657220696d706c656d656e746572000000000000000000000000602082015250565b600061425f6034836128ab565b915061426a82614203565b604082019050919050565b6000602082019050818103600083015261428e81614252565b9050919050565b7f455243313135353a204552433131353552656365697665722072656a6563746560008201527f6420746f6b656e73000000000000000000000000000000000000000000000000602082015250565b60006142f16028836128ab565b91506142fc82614295565b604082019050919050565b60006020820190508181036000830152614320816142e4565b9050919050565b600060a08201905061433c6000830188612849565b6143496020830187612849565b818103604083015261435b8186612db9565b9050818103606083015261436f8185612db9565b90508181036080830152614383818461406f565b9050969550505050505056fea2646970667358221220684067a16de37ec10a0cb8aec2d852b1b1396df387d4349f5250d1ff5d4b502064736f6c63430008180033a2646970667358221220c04e03799ee47abd4cecadf2f4693906ce9f6428d5f6e2ed7889f0f9ddfa994f64736f6c63430008180033",
  "linkReferences": {},
  "deployedLinkReferences": {}
}