{
    "_format": "hh-sol-artifact-1",
    "contractName": "Deployer",
    "sourceName": "contracts/Deployer.sol",
    "abi": [
        {
            "inputs": [],
            "stateMutability": "nonpayable",
            "type": "constructor"
        },
        {
            "inputs": [
                {
                    "internalType": "address",
                    "name": "_address",
                    "type": "address"
                }
            ],
            "name": "AddProvider",
            "outputs": [],
            "stateMutability": "nonpayable",
            "type": "function"
        },
        {
            "inputs": [
                {
                    "internalType": "uint256",
                    "name": "_startDay",
                    "type": "uint256"
                },
                {
                    "internalType": "uint256",
                    "name": "_endDay",
                    "type": "uint256"
                },
                {
                    "internalType": "uint256",
                    "name": "_lat",
                    "type": "uint256"
                },
                {
                    "internalType": "uint256",
                    "name": "_long",
                    "type": "uint256"
                },
                {
                    "internalType": "string",
                    "name": "_target",
                    "type": "string"
                },
                {
                    "internalType": "bool",
                    "name": "_contentType",
                    "type": "bool"
                },
                {
                    "internalType": "string",
                    "name": "_contentMessage",
                    "type": "string"
                }
            ],
            "name": "CreateProposal",
            "outputs": [
                {
                    "internalType": "contract Proposal",
                    "name": "",
                    "type": "address"
                }
            ],
            "stateMutability": "nonpayable",
            "type": "function"
        },
        {
            "inputs": [],
            "name": "GetProposals",
            "outputs": [
                {
                    "internalType": "address[]",
                    "name": "",
                    "type": "address[]"
                }
            ],
            "stateMutability": "view",
            "type": "function"
        },
        {
            "inputs": [
                {
                    "internalType": "address",
                    "name": "_address",
                    "type": "address"
                }
            ],
            "name": "IsProvider",
            "outputs": [
                {
                    "internalType": "bool",
                    "name": "",
                    "type": "bool"
                }
            ],
            "stateMutability": "view",
            "type": "function"
        },
        {
            "inputs": [],
            "name": "owner",
            "outputs": [
                {
                    "internalType": "address",
                    "name": "",
                    "type": "address"
                }
            ],
            "stateMutability": "view",
            "type": "function"
        },
        {
            "inputs": [
                {
                    "internalType": "uint256",
                    "name": "",
                    "type": "uint256"
                }
            ],
            "name": "proposals",
            "outputs": [
                {
                    "internalType": "address",
                    "name": "",
                    "type": "address"
                }
            ],
            "stateMutability": "view",
            "type": "function"
        },
        {
            "inputs": [
                {
                    "internalType": "address",
                    "name": "",
                    "type": "address"
                }
            ],
            "name": "providers",
            "outputs": [
                {
                    "internalType": "bool",
                    "name": "",
                    "type": "bool"
                }
            ],
            "stateMutability": "view",
            "type": "function"
        }
    ],
    "bytecode": "0x608060405234801561001057600080fd5b50336000806101000a81548173ffffffffffffffffffffffffffffffffffffffff021916908373ffffffffffffffffffffffffffffffffffffffff160217905550612b4e806100606000396000f3fe60806040523480156200001157600080fd5b5060043610620000885760003560e01c806385f9c744116200006357806385f9c74414620001195780638da5cb5b146200014f578063ed40f4701462000171578063f7c57ad714620001a75762000088565b8063013cf08b146200008d5780630787bc2714620000c3578063635a554d14620000f9575b600080fd5b620000ab6004803603810190620000a591906200050b565b620001c9565b604051620000ba919062000582565b60405180910390f35b620000e16004803603810190620000db9190620005d0565b62000209565b604051620000f091906200061f565b60405180910390f35b620001176004803603810190620001119190620005d0565b62000229565b005b620001376004803603810190620001319190620005d0565b620002d9565b6040516200014691906200061f565b60405180910390f35b6200015962000336565b60405162000168919062000582565b60405180910390f35b6200018f6004803603810190620001899190620007cf565b6200035a565b6040516200019e91906200092b565b60405180910390f35b620001b16200041e565b604051620001c0919062000a16565b60405180910390f35b60018181548110620001da57600080fd5b906000526020600020016000915054906101000a900473ffffffffffffffffffffffffffffffffffffffff1681565b60026020528060005260406000206000915054906101000a900460ff1681565b60008054906101000a900473ffffffffffffffffffffffffffffffffffffffff1673ffffffffffffffffffffffffffffffffffffffff163373ffffffffffffffffffffffffffffffffffffffff1603620002d6576001600260008373ffffffffffffffffffffffffffffffffffffffff1673ffffffffffffffffffffffffffffffffffffffff16815260200190815260200160002060006101000a81548160ff0219169083151502179055505b50565b600060011515600260008473ffffffffffffffffffffffffffffffffffffffff1673ffffffffffffffffffffffffffffffffffffffff16815260200190815260200160002060009054906101000a900460ff161515149050919050565b60008054906101000a900473ffffffffffffffffffffffffffffffffffffffff1681565b6000803090506000818a8a8a8a8a8a8a6040516200037890620004ae565b6200038b98979695949392919062000ad4565b604051809103906000f080158015620003a8573d6000803e3d6000fd5b5090506001819080600181540180825580915050600190039060005260206000200160009091909190916101000a81548173ffffffffffffffffffffffffffffffffffffffff021916908373ffffffffffffffffffffffffffffffffffffffff1602179055508092505050979650505050505050565b60606001805480602002602001604051908101604052809291908181526020018280548015620004a457602002820191906000526020600020905b8160009054906101000a900473ffffffffffffffffffffffffffffffffffffffff1673ffffffffffffffffffffffffffffffffffffffff168152602001906001019080831162000459575b5050505050905090565b611fa88062000b7183390190565b6000604051905090565b600080fd5b600080fd5b6000819050919050565b620004e581620004d0565b8114620004f157600080fd5b50565b6000813590506200050581620004da565b92915050565b600060208284031215620005245762000523620004c6565b5b60006200053484828501620004f4565b91505092915050565b600073ffffffffffffffffffffffffffffffffffffffff82169050919050565b60006200056a826200053d565b9050919050565b6200057c816200055d565b82525050565b600060208201905062000599600083018462000571565b92915050565b620005aa816200055d565b8114620005b657600080fd5b50565b600081359050620005ca816200059f565b92915050565b600060208284031215620005e957620005e8620004c6565b5b6000620005f984828501620005b9565b91505092915050565b60008115159050919050565b620006198162000602565b82525050565b60006020820190506200063660008301846200060e565b92915050565b600080fd5b600080fd5b6000601f19601f8301169050919050565b7f4e487b7100000000000000000000000000000000000000000000000000000000600052604160045260246000fd5b620006918262000646565b810181811067ffffffffffffffff82111715620006b357620006b262000657565b5b80604052505050565b6000620006c8620004bc565b9050620006d6828262000686565b919050565b600067ffffffffffffffff821115620006f957620006f862000657565b5b620007048262000646565b9050602081019050919050565b82818337600083830152505050565b6000620007376200073184620006db565b620006bc565b90508281526020810184848401111562000756576200075562000641565b5b6200076384828562000711565b509392505050565b600082601f8301126200078357620007826200063c565b5b81356200079584826020860162000720565b91505092915050565b620007a98162000602565b8114620007b557600080fd5b50565b600081359050620007c9816200079e565b92915050565b600080600080600080600060e0888a031215620007f157620007f0620004c6565b5b6000620008018a828b01620004f4565b9750506020620008148a828b01620004f4565b9650506040620008278a828b01620004f4565b95505060606200083a8a828b01620004f4565b945050608088013567ffffffffffffffff8111156200085e576200085d620004cb565b5b6200086c8a828b016200076b565b93505060a06200087f8a828b01620007b8565b92505060c088013567ffffffffffffffff811115620008a357620008a2620004cb565b5b620008b18a828b016200076b565b91505092959891949750929550565b6000819050919050565b6000620008eb620008e5620008df846200053d565b620008c0565b6200053d565b9050919050565b6000620008ff82620008ca565b9050919050565b60006200091382620008f2565b9050919050565b620009258162000906565b82525050565b60006020820190506200094260008301846200091a565b92915050565b600081519050919050565b600082825260208201905092915050565b6000819050602082019050919050565b6200097f816200055d565b82525050565b600062000993838362000974565b60208301905092915050565b6000602082019050919050565b6000620009b98262000948565b620009c5818562000953565b9350620009d28362000964565b8060005b8381101562000a09578151620009ed888262000985565b9750620009fa836200099f565b925050600181019050620009d6565b5085935050505092915050565b6000602082019050818103600083015262000a328184620009ac565b905092915050565b62000a4581620004d0565b82525050565b600081519050919050565b600082825260208201905092915050565b60005b8381101562000a8757808201518184015260208101905062000a6a565b60008484015250505050565b600062000aa08262000a4b565b62000aac818562000a56565b935062000abe81856020860162000a67565b62000ac98162000646565b840191505092915050565b60006101008201905062000aec600083018b62000571565b62000afb602083018a62000a3a565b62000b0a604083018962000a3a565b62000b19606083018862000a3a565b62000b28608083018762000a3a565b81810360a083015262000b3c818662000a93565b905062000b4d60c08301856200060e565b81810360e083015262000b61818462000a93565b9050999850505050505050505056fe60806040523480156200001157600080fd5b5060405162001fa838038062001fa88339818101604052810190620000379190620003df565b876000806101000a81548173ffffffffffffffffffffffffffffffffffffffff021916908373ffffffffffffffffffffffffffffffffffffffff160217905550866001819055508560028190555084600381905550836004819055508260059081620000a4919062000727565b508060069081620000b6919062000727565b5081600760006101000a81548160ff02191690831515021790555060011515600760009054906101000a900460ff1615150362000102576753444835ec58000060098190555062000112565b670de0b6b3a76400006009819055505b62278d00603c8060186001546200012a91906200083d565b6200013691906200083d565b6200014291906200083d565b426200014f919062000888565b6200015b9190620008c3565b6008819055505050505050505050620008fe565b6000604051905090565b600080fd5b600080fd5b600073ffffffffffffffffffffffffffffffffffffffff82169050919050565b6000620001b08262000183565b9050919050565b620001c281620001a3565b8114620001ce57600080fd5b50565b600081519050620001e281620001b7565b92915050565b6000819050919050565b620001fd81620001e8565b81146200020957600080fd5b50565b6000815190506200021d81620001f2565b92915050565b600080fd5b600080fd5b6000601f19601f8301169050919050565b7f4e487b7100000000000000000000000000000000000000000000000000000000600052604160045260246000fd5b62000278826200022d565b810181811067ffffffffffffffff821117156200029a57620002996200023e565b5b80604052505050565b6000620002af6200016f565b9050620002bd82826200026d565b919050565b600067ffffffffffffffff821115620002e057620002df6200023e565b5b620002eb826200022d565b9050602081019050919050565b60005b8381101562000318578082015181840152602081019050620002fb565b60008484015250505050565b60006200033b6200033584620002c2565b620002a3565b9050828152602081018484840111156200035a576200035962000228565b5b62000367848285620002f8565b509392505050565b600082601f83011262000387576200038662000223565b5b81516200039984826020860162000324565b91505092915050565b60008115159050919050565b620003b981620003a2565b8114620003c557600080fd5b50565b600081519050620003d981620003ae565b92915050565b600080600080600080600080610100898b03121562000403576200040262000179565b5b6000620004138b828c01620001d1565b9850506020620004268b828c016200020c565b9750506040620004398b828c016200020c565b96505060606200044c8b828c016200020c565b95505060806200045f8b828c016200020c565b94505060a089015167ffffffffffffffff8111156200048357620004826200017e565b5b620004918b828c016200036f565b93505060c0620004a48b828c01620003c8565b92505060e089015167ffffffffffffffff811115620004c857620004c76200017e565b5b620004d68b828c016200036f565b9150509295985092959890939650565b600081519050919050565b7f4e487b7100000000000000000000000000000000000000000000000000000000600052602260045260246000fd5b600060028204905060018216806200053957607f821691505b6020821081036200054f576200054e620004f1565b5b50919050565b60008190508160005260206000209050919050565b60006020601f8301049050919050565b600082821b905092915050565b600060088302620005b97fffffffffffffffffffffffffffffffffffffffffffffffffffffffffffffffff826200057a565b620005c586836200057a565b95508019841693508086168417925050509392505050565b6000819050919050565b60006200060862000602620005fc84620001e8565b620005dd565b620001e8565b9050919050565b6000819050919050565b6200062483620005e7565b6200063c62000633826200060f565b84845462000587565b825550505050565b600090565b6200065362000644565b6200066081848462000619565b505050565b5b8181101562000688576200067c60008262000649565b60018101905062000666565b5050565b601f821115620006d757620006a18162000555565b620006ac846200056a565b81016020851015620006bc578190505b620006d4620006cb856200056a565b83018262000665565b50505b505050565b600082821c905092915050565b6000620006fc60001984600802620006dc565b1980831691505092915050565b6000620007178383620006e9565b9150826002028217905092915050565b6200073282620004e6565b67ffffffffffffffff8111156200074e576200074d6200023e565b5b6200075a825462000520565b620007678282856200068c565b600060209050601f8311600181146200079f57600084156200078a578287015190505b62000796858262000709565b86555062000806565b601f198416620007af8662000555565b60005b82811015620007d957848901518255600182019150602085019450602081019050620007b2565b86831015620007f95784890151620007f5601f891682620006e9565b8355505b6001600288020188555050505b505050505050565b7f4e487b7100000000000000000000000000000000000000000000000000000000600052601160045260246000fd5b60006200084a82620001e8565b91506200085783620001e8565b92508282026200086781620001e8565b915082820484148315176200088157620008806200080e565b5b5092915050565b60006200089582620001e8565b9150620008a283620001e8565b9250828201905080821115620008bd57620008bc6200080e565b5b92915050565b6000620008d082620001e8565b9150620008dd83620001e8565b9250828203905081811115620008f857620008f76200080e565b5b92915050565b61169a806200090e6000396000f3fe60806040526004361061010d5760003560e01c8063ae08ed5c11610095578063d4b8399211610064578063d4b8399214610326578063d5f3948814610351578063d7bb99ba1461037c578063e21f37ce14610386578063f9c36fde146103b15761011c565b8063ae08ed5c14610290578063af3b19e5146102bb578063b126793b146102d2578063d411eccb146102fb5761011c565b806336ebffca116100dc57806336ebffca146101cd57806355d576cc146101f85780635600f04f14610223578063590e1ae31461024e578063796b23bb146102655761011c565b80630539272a1461012157806307bfce371461014c578063085d48831461017757806315862669146101a25761011c565b3661011c5761011a6103dc565b005b600080fd5b34801561012d57600080fd5b506101366104a5565b6040516101439190610b95565b60405180910390f35b34801561015857600080fd5b506101616104ab565b60405161016e9190610b95565b60405180910390f35b34801561018357600080fd5b5061018c6104b1565b6040516101999190610bf1565b60405180910390f35b3480156101ae57600080fd5b506101b76104d7565b6040516101c49190610b95565b60405180910390f35b3480156101d957600080fd5b506101e26104dd565b6040516101ef9190610c27565b60405180910390f35b34801561020457600080fd5b5061020d6104f0565b60405161021a9190610b95565b60405180910390f35b34801561022f57600080fd5b506102386104f6565b6040516102459190610cd2565b60405180910390f35b34801561025a57600080fd5b50610263610584565b005b34801561027157600080fd5b5061027a6107a2565b6040516102879190610b95565b60405180910390f35b34801561029c57600080fd5b506102a56107a8565b6040516102b29190610b95565b60405180910390f35b3480156102c757600080fd5b506102d06107af565b005b3480156102de57600080fd5b506102f960048036038101906102f49190610e3d565b610911565b005b34801561030757600080fd5b50610310610a30565b60405161031d9190610b95565b60405180910390f35b34801561033257600080fd5b5061033b610a36565b6040516103489190610cd2565b60405180910390f35b34801561035d57600080fd5b50610366610ac4565b6040516103739190610bf1565b60405180910390f35b6103846103dc565b005b34801561039257600080fd5b5061039b610ae8565b6040516103a89190610cd2565b60405180910390f35b3480156103bd57600080fd5b506103c6610b76565b6040516103d39190610b95565b60405180910390f35b600034905060095481600b546103f29190610eb5565b1115610433576040517f08c379a000000000000000000000000000000000000000000000000000000000815260040161042a90610f5b565b60405180910390fd5b80600b60008282546104459190610eb5565b9250508190555080600d60003373ffffffffffffffffffffffffffffffffffffffff1673ffffffffffffffffffffffffffffffffffffffff168152602001908152602001600020600082825461049b9190610eb5565b9250508190555050565b60015481565b60045481565b600a60009054906101000a900473ffffffffffffffffffffffffffffffffffffffff1681565b60025481565b600760009054906101000a900460ff1681565b60035481565b600c805461050390610faa565b80601f016020809104026020016040519081016040528092919081815260200182805461052f90610faa565b801561057c5780601f106105515761010080835404028352916020019161057c565b820191906000526020600020905b81548152906001019060200180831161055f57829003601f168201915b505050505081565b6000600d60003373ffffffffffffffffffffffffffffffffffffffff1673ffffffffffffffffffffffffffffffffffffffff168152602001908152602001600020549050600073ffffffffffffffffffffffffffffffffffffffff16600a60009054906101000a900473ffffffffffffffffffffffffffffffffffffffff1673ffffffffffffffffffffffffffffffffffffffff1614610659576040517f08c379a00000000000000000000000000000000000000000000000000000000081526004016106509061104d565b60405180910390fd5b6000811161069c576040517f08c379a0000000000000000000000000000000000000000000000000000000008152600401610693906110b9565b60405180910390fd5b60085442116106e0576040517f08c379a00000000000000000000000000000000000000000000000000000000081526004016106d79061114b565b60405180910390fd5b6000600d60003373ffffffffffffffffffffffffffffffffffffffff1673ffffffffffffffffffffffffffffffffffffffff1681526020019081526020016000208190555060003373ffffffffffffffffffffffffffffffffffffffff166108fc839081150290604051600060405180830381858888f1935050505090508061079e576040517f08c379a0000000000000000000000000000000000000000000000000000000008152600401610795906111b7565b60405180910390fd5b5050565b60085481565b62278d0081565b60008054906101000a900473ffffffffffffffffffffffffffffffffffffffff1673ffffffffffffffffffffffffffffffffffffffff166385f9c744336040518263ffffffff1660e01b81526004016108089190610bf1565b602060405180830381865afa158015610825573d6000803e3d6000fd5b505050506040513d601f19601f820116820180604052508101906108499190611203565b610888576040517f08c379a000000000000000000000000000000000000000000000000000000000815260040161087f906112a2565b60405180910390fd5b600954600b54146108ce576040517f08c379a00000000000000000000000000000000000000000000000000000000081526004016108c590611334565b60405180910390fd5b33600a60006101000a81548173ffffffffffffffffffffffffffffffffffffffff021916908373ffffffffffffffffffffffffffffffffffffffff160217905550565b600a60009054906101000a900473ffffffffffffffffffffffffffffffffffffffff1673ffffffffffffffffffffffffffffffffffffffff163373ffffffffffffffffffffffffffffffffffffffff16146109a1576040517f08c379a0000000000000000000000000000000000000000000000000000000008152600401610998906113c6565b60405180910390fd5b80600c90816109b09190611592565b5060003373ffffffffffffffffffffffffffffffffffffffff166108fc6009549081150290604051600060405180830381858888f19350505050905080610a2c576040517f08c379a0000000000000000000000000000000000000000000000000000000008152600401610a23906111b7565b60405180910390fd5b5050565b60095481565b60058054610a4390610faa565b80601f0160208091040260200160405190810160405280929190818152602001828054610a6f90610faa565b8015610abc5780601f10610a9157610100808354040283529160200191610abc565b820191906000526020600020905b815481529060010190602001808311610a9f57829003601f168201915b505050505081565b60008054906101000a900473ffffffffffffffffffffffffffffffffffffffff1681565b60068054610af590610faa565b80601f0160208091040260200160405190810160405280929190818152602001828054610b2190610faa565b8015610b6e5780601f10610b4357610100808354040283529160200191610b6e565b820191906000526020600020905b815481529060010190602001808311610b5157829003601f168201915b505050505081565b600b5481565b6000819050919050565b610b8f81610b7c565b82525050565b6000602082019050610baa6000830184610b86565b92915050565b600073ffffffffffffffffffffffffffffffffffffffff82169050919050565b6000610bdb82610bb0565b9050919050565b610beb81610bd0565b82525050565b6000602082019050610c066000830184610be2565b92915050565b60008115159050919050565b610c2181610c0c565b82525050565b6000602082019050610c3c6000830184610c18565b92915050565b600081519050919050565b600082825260208201905092915050565b60005b83811015610c7c578082015181840152602081019050610c61565b60008484015250505050565b6000601f19601f8301169050919050565b6000610ca482610c42565b610cae8185610c4d565b9350610cbe818560208601610c5e565b610cc781610c88565b840191505092915050565b60006020820190508181036000830152610cec8184610c99565b905092915050565b6000604051905090565b600080fd5b600080fd5b600080fd5b600080fd5b7f4e487b7100000000000000000000000000000000000000000000000000000000600052604160045260246000fd5b610d4a82610c88565b810181811067ffffffffffffffff82111715610d6957610d68610d12565b5b80604052505050565b6000610d7c610cf4565b9050610d888282610d41565b919050565b600067ffffffffffffffff821115610da857610da7610d12565b5b610db182610c88565b9050602081019050919050565b82818337600083830152505050565b6000610de0610ddb84610d8d565b610d72565b905082815260208101848484011115610dfc57610dfb610d0d565b5b610e07848285610dbe565b509392505050565b600082601f830112610e2457610e23610d08565b5b8135610e34848260208601610dcd565b91505092915050565b600060208284031215610e5357610e52610cfe565b5b600082013567ffffffffffffffff811115610e7157610e70610d03565b5b610e7d84828501610e0f565b91505092915050565b7f4e487b7100000000000000000000000000000000000000000000000000000000600052601160045260246000fd5b6000610ec082610b7c565b9150610ecb83610b7c565b9250828201905080821115610ee357610ee2610e86565b5b92915050565b7f63616e6e6f7420636f6e74726962757465206d6f7265207468616e207468652060008201527f66756e64696e6720746172676574000000000000000000000000000000000000602082015250565b6000610f45602e83610c4d565b9150610f5082610ee9565b604082019050919050565b60006020820190508181036000830152610f7481610f38565b9050919050565b7f4e487b7100000000000000000000000000000000000000000000000000000000600052602260045260246000fd5b60006002820490506001821680610fc257607f821691505b602082108103610fd557610fd4610f7b565b5b50919050565b7f50726f706f73616c2068617320616c7265616479206265656e2061636365707460008201527f6564000000000000000000000000000000000000000000000000000000000000602082015250565b6000611037602283610c4d565b915061104282610fdb565b604082019050919050565b600060208201905081810360008301526110668161102a565b9050919050565b7f4e6f2066756e647320746f20726566756e640000000000000000000000000000600082015250565b60006110a3601283610c4d565b91506110ae8261106d565b602082019050919050565b600060208201905081810360008301526110d281611096565b9050919050565b7f66756e64696e6720646561646c696e6520686173206e6f74206265656e20726560008201527f6163686564000000000000000000000000000000000000000000000000000000602082015250565b6000611135602583610c4d565b9150611140826110d9565b604082019050919050565b6000602082019050818103600083015261116481611128565b9050919050565b7f4661696c656420746f2073656e64204574686572000000000000000000000000600082015250565b60006111a1601483610c4d565b91506111ac8261116b565b602082019050919050565b600060208201905081810360008301526111d081611194565b9050919050565b6111e081610c0c565b81146111eb57600080fd5b50565b6000815190506111fd816111d7565b92915050565b60006020828403121561121957611218610cfe565b5b6000611227848285016111ee565b91505092915050565b7f4f6e6c792070726f7669646572732063616e206163636570742070726f706f7360008201527f616c730000000000000000000000000000000000000000000000000000000000602082015250565b600061128c602383610c4d565b915061129782611230565b604082019050919050565b600060208201905081810360008301526112bb8161127f565b9050919050565b7f70726f706f73616c20686173206e6f74206265656e2066756c6c792066756e6460008201527f6564000000000000000000000000000000000000000000000000000000000000602082015250565b600061131e602283610c4d565b9150611329826112c2565b604082019050919050565b6000602082019050818103600083015261134d81611311565b9050919050565b7f4f6e6c79207468652070726f76696465722063616e20636f6d706c657465207060008201527f726f706f73616c00000000000000000000000000000000000000000000000000602082015250565b60006113b0602783610c4d565b91506113bb82611354565b604082019050919050565b600060208201905081810360008301526113df816113a3565b9050919050565b60008190508160005260206000209050919050565b60006020601f8301049050919050565b600082821b905092915050565b6000600883026114487fffffffffffffffffffffffffffffffffffffffffffffffffffffffffffffffff8261140b565b611452868361140b565b95508019841693508086168417925050509392505050565b6000819050919050565b600061148f61148a61148584610b7c565b61146a565b610b7c565b9050919050565b6000819050919050565b6114a983611474565b6114bd6114b582611496565b848454611418565b825550505050565b600090565b6114d26114c5565b6114dd8184846114a0565b505050565b5b81811015611501576114f66000826114ca565b6001810190506114e3565b5050565b601f82111561154657611517816113e6565b611520846113fb565b8101602085101561152f578190505b61154361153b856113fb565b8301826114e2565b50505b505050565b600082821c905092915050565b60006115696000198460080261154b565b1980831691505092915050565b60006115828383611558565b9150826002028217905092915050565b61159b82610c42565b67ffffffffffffffff8111156115b4576115b3610d12565b5b6115be8254610faa565b6115c9828285611505565b600060209050601f8311600181146115fc57600084156115ea578287015190505b6115f48582611576565b86555061165c565b601f19841661160a866113e6565b60005b828110156116325784890151825560018201915060208501945060208101905061160d565b8683101561164f578489015161164b601f891682611558565b8355505b6001600288020188555050505b50505050505056fea264697066735822122091edb4a913a13900ae68c8192fddc2389f5394d45d7ad02ac66c5c1703f4788064736f6c63430008180033a2646970667358221220389ad746de4c968c620ef9a7c75657303c6695a48535c214e2a389a76732207464736f6c63430008180033",
    "linkReferences": {},
    "deployedLinkReferences": {}
}