{
  "_format": "hh-sol-artifact-1",
  "contractName": "Deployer",
  "sourceName": "contracts/Deployer.sol",
  "abi": [
    {
      "inputs": [],
      "stateMutability": "nonpayable",
      "type": "constructor"
    },
    {
      "inputs": [
        {
          "internalType": "address",
          "name": "_address",
          "type": "address"
        }
      ],
      "name": "addProvider",
      "outputs": [],
      "stateMutability": "nonpayable",
      "type": "function"
    },
    {
      "inputs": [
        {
          "internalType": "uint256",
          "name": "_startDay",
          "type": "uint256"
        },
        {
          "internalType": "int256",
          "name": "_lat",
          "type": "int256"
        },
        {
          "internalType": "int256",
          "name": "_long",
          "type": "int256"
        },
        {
          "internalType": "string",
          "name": "_target",
          "type": "string"
        },
        {
          "internalType": "uint256",
          "name": "_contentType",
          "type": "uint256"
        },
        {
          "internalType": "string",
          "name": "_contentMessage",
          "type": "string"
        }
      ],
      "name": "createProposal",
      "outputs": [
        {
          "internalType": "contract Proposal",
          "name": "",
          "type": "address"
        }
      ],
      "stateMutability": "nonpayable",
      "type": "function"
    },
    {
      "inputs": [],
      "name": "getProposals",
      "outputs": [
        {
          "internalType": "address[]",
          "name": "",
          "type": "address[]"
        }
      ],
      "stateMutability": "view",
      "type": "function"
    },
    {
      "inputs": [
        {
          "internalType": "address",
          "name": "_address",
          "type": "address"
        }
      ],
      "name": "isProvider",
      "outputs": [
        {
          "internalType": "bool",
          "name": "",
          "type": "bool"
        }
      ],
      "stateMutability": "view",
      "type": "function"
    },
    {
      "inputs": [],
      "name": "owner",
      "outputs": [
        {
          "internalType": "address",
          "name": "",
          "type": "address"
        }
      ],
      "stateMutability": "view",
      "type": "function"
    },
    {
      "inputs": [
        {
          "internalType": "uint256",
          "name": "",
          "type": "uint256"
        }
      ],
      "name": "proposals",
      "outputs": [
        {
          "internalType": "address",
          "name": "",
          "type": "address"
        }
      ],
      "stateMutability": "view",
      "type": "function"
    },
    {
      "inputs": [
        {
          "internalType": "address",
          "name": "",
          "type": "address"
        }
      ],
      "name": "providers",
      "outputs": [
        {
          "internalType": "bool",
          "name": "",
          "type": "bool"
        }
      ],
      "stateMutability": "view",
      "type": "function"
    }
  ],
  "bytecode": "0x608060405234801561001057600080fd5b50336000806101000a81548173ffffffffffffffffffffffffffffffffffffffff021916908373ffffffffffffffffffffffffffffffffffffffff160217905550615a13806100606000396000f3fe60806040523480156200001157600080fd5b5060043610620000885760003560e01c806362564c48116200006357806362564c4814620001195780636b074a07146200013b5780638da5cb5b1462000171578063b226f0cc14620001935762000088565b8063013cf08b146200008d5780630787bc2714620000c357806346e2577a14620000f9575b600080fd5b620000ab6004803603810190620000a5919062000508565b620001c9565b604051620000ba91906200057f565b60405180910390f35b620000e16004803603810190620000db9190620005cd565b62000209565b604051620000f091906200061c565b60405180910390f35b620001176004803603810190620001119190620005cd565b62000229565b005b62000123620002d9565b60405162000132919062000707565b60405180910390f35b620001596004803603810190620001539190620005cd565b62000369565b6040516200016891906200061c565b60405180910390f35b6200017b620003c6565b6040516200018a91906200057f565b60405180910390f35b620001b16004803603810190620001ab9190620008c8565b620003ea565b604051620001c0919062000a0d565b60405180910390f35b60018181548110620001da57600080fd5b906000526020600020016000915054906101000a900473ffffffffffffffffffffffffffffffffffffffff1681565b60026020528060005260406000206000915054906101000a900460ff1681565b60008054906101000a900473ffffffffffffffffffffffffffffffffffffffff1673ffffffffffffffffffffffffffffffffffffffff163373ffffffffffffffffffffffffffffffffffffffff1603620002d6576001600260008373ffffffffffffffffffffffffffffffffffffffff1673ffffffffffffffffffffffffffffffffffffffff16815260200190815260200160002060006101000a81548160ff0219169083151502179055505b50565b606060018054806020026020016040519081016040528092919081815260200182805480156200035f57602002820191906000526020600020905b8160009054906101000a900473ffffffffffffffffffffffffffffffffffffffff1673ffffffffffffffffffffffffffffffffffffffff168152602001906001019080831162000314575b5050505050905090565b600060011515600260008473ffffffffffffffffffffffffffffffffffffffff1673ffffffffffffffffffffffffffffffffffffffff16815260200190815260200160002060009054906101000a900460ff161515149050919050565b60008054906101000a900473ffffffffffffffffffffffffffffffffffffffff1681565b6000803090506000818989898989896040516200040790620004ab565b62000419979695949392919062000ad5565b604051809103906000f08015801562000436573d6000803e3d6000fd5b5090506001819080600181540180825580915050600190039060005260206000200160009091909190916101000a81548173ffffffffffffffffffffffffffffffffffffffff021916908373ffffffffffffffffffffffffffffffffffffffff16021790555080925050509695505050505050565b614e7d8062000b6183390190565b6000604051905090565b600080fd5b600080fd5b6000819050919050565b620004e281620004cd565b8114620004ee57600080fd5b50565b6000813590506200050281620004d7565b92915050565b600060208284031215620005215762000520620004c3565b5b60006200053184828501620004f1565b91505092915050565b600073ffffffffffffffffffffffffffffffffffffffff82169050919050565b600062000567826200053a565b9050919050565b62000579816200055a565b82525050565b60006020820190506200059660008301846200056e565b92915050565b620005a7816200055a565b8114620005b357600080fd5b50565b600081359050620005c7816200059c565b92915050565b600060208284031215620005e657620005e5620004c3565b5b6000620005f684828501620005b6565b91505092915050565b60008115159050919050565b6200061681620005ff565b82525050565b60006020820190506200063360008301846200060b565b92915050565b600081519050919050565b600082825260208201905092915050565b6000819050602082019050919050565b62000670816200055a565b82525050565b600062000684838362000665565b60208301905092915050565b6000602082019050919050565b6000620006aa8262000639565b620006b6818562000644565b9350620006c38362000655565b8060005b83811015620006fa578151620006de888262000676565b9750620006eb8362000690565b925050600181019050620006c7565b5085935050505092915050565b600060208201905081810360008301526200072381846200069d565b905092915050565b6000819050919050565b62000740816200072b565b81146200074c57600080fd5b50565b600081359050620007608162000735565b92915050565b600080fd5b600080fd5b6000601f19601f8301169050919050565b7f4e487b7100000000000000000000000000000000000000000000000000000000600052604160045260246000fd5b620007bb8262000770565b810181811067ffffffffffffffff82111715620007dd57620007dc62000781565b5b80604052505050565b6000620007f2620004b9565b9050620008008282620007b0565b919050565b600067ffffffffffffffff82111562000823576200082262000781565b5b6200082e8262000770565b9050602081019050919050565b82818337600083830152505050565b6000620008616200085b8462000805565b620007e6565b90508281526020810184848401111562000880576200087f6200076b565b5b6200088d8482856200083b565b509392505050565b600082601f830112620008ad57620008ac62000766565b5b8135620008bf8482602086016200084a565b91505092915050565b60008060008060008060c08789031215620008e857620008e7620004c3565b5b6000620008f889828a01620004f1565b96505060206200090b89828a016200074f565b95505060406200091e89828a016200074f565b945050606087013567ffffffffffffffff811115620009425762000941620004c8565b5b6200095089828a0162000895565b93505060806200096389828a01620004f1565b92505060a087013567ffffffffffffffff811115620009875762000986620004c8565b5b6200099589828a0162000895565b9150509295509295509295565b6000819050919050565b6000620009cd620009c7620009c1846200053a565b620009a2565b6200053a565b9050919050565b6000620009e182620009ac565b9050919050565b6000620009f582620009d4565b9050919050565b62000a0781620009e8565b82525050565b600060208201905062000a246000830184620009fc565b92915050565b62000a3581620004cd565b82525050565b62000a46816200072b565b82525050565b600081519050919050565b600082825260208201905092915050565b60005b8381101562000a8857808201518184015260208101905062000a6b565b60008484015250505050565b600062000aa18262000a4c565b62000aad818562000a57565b935062000abf81856020860162000a68565b62000aca8162000770565b840191505092915050565b600060e08201905062000aec600083018a6200056e565b62000afb602083018962000a2a565b62000b0a604083018862000a3b565b62000b19606083018762000a3b565b818103608083015262000b2d818662000a94565b905062000b3e60a083018562000a2a565b81810360c083015262000b52818462000a94565b90509897505050505050505056fe60806040523480156200001157600080fd5b5060405162004e7d38038062004e7d833981810160405281019062000037919062000de4565b60405180606001604052806039815260200162004e446039913962000062816200024060201b60201c565b5032600460006101000a81548173ffffffffffffffffffffffffffffffffffffffff021916908373ffffffffffffffffffffffffffffffffffffffff16021790555086600360006101000a81548173ffffffffffffffffffffffffffffffffffffffff021916908373ffffffffffffffffffffffffffffffffffffffff16021790555085600581905550846006819055508360078190555082600890816200010b919062001116565b5080600990816200011d919062001116565b5081600a819055506001600a540362000145576753444835ec580000600c8190555062000155565b670de0b6b3a7640000600c819055505b62278d00603c8060186005546200016d91906200122c565b6200017991906200122c565b6200018591906200122c565b4262000192919062001277565b6200019e9190620012b2565b600b81905550620001d130601054670de0b6b3a7640000604051806020016040528060008152506200025560201b60201c565b60106000815480929190620001e690620012ed565b919050555062000233600460009054906101000a900473ffffffffffffffffffffffffffffffffffffffff166010546001604051806020016040528060008152506200025560201b60201c565b50505050505050620016be565b806002908162000251919062001116565b5050565b600073ffffffffffffffffffffffffffffffffffffffff168473ffffffffffffffffffffffffffffffffffffffff1603620002ca5760006040517f57f447ce000000000000000000000000000000000000000000000000000000008152600401620002c191906200134b565b60405180910390fd5b600080620002df85856200030160201b60201c565b91509150620002f96000878484876200033160201b60201c565b505050505050565b60608060405191506001825283602083015260408201905060018152826020820152604081016040529250929050565b62000345858585856200040a60201b60201c565b600073ffffffffffffffffffffffffffffffffffffffff168473ffffffffffffffffffffffffffffffffffffffff1614620004035760006200038c620007d460201b60201c565b90506001845103620003ea576000620003b0600086620007dc60201b90919060201c565b90506000620003ca600086620007dc60201b90919060201c565b9050620003e2838989858589620007f060201b60201c565b505062000401565b62000400818787878787620009b360201b60201c565b5b505b5050505050565b80518251146200045757815181516040517f5b0599910000000000000000000000000000000000000000000000000000000081526004016200044e92919062001379565b60405180910390fd5b600062000469620007d460201b60201c565b905060005b8351811015620006855760006200048f8286620007dc60201b90919060201c565b90506000620004a88386620007dc60201b90919060201c565b9050600073ffffffffffffffffffffffffffffffffffffffff168873ffffffffffffffffffffffffffffffffffffffff1614620005d957600080600084815260200190815260200160002060008a73ffffffffffffffffffffffffffffffffffffffff1673ffffffffffffffffffffffffffffffffffffffff168152602001908152602001600020549050818110156200058157888183856040517f03dee4c5000000000000000000000000000000000000000000000000000000008152600401620005789493929190620013a6565b60405180910390fd5b81810360008085815260200190815260200160002060008b73ffffffffffffffffffffffffffffffffffffffff1673ffffffffffffffffffffffffffffffffffffffff16815260200190815260200160002081905550505b600073ffffffffffffffffffffffffffffffffffffffff168773ffffffffffffffffffffffffffffffffffffffff161462000677578060008084815260200190815260200160002060008973ffffffffffffffffffffffffffffffffffffffff1673ffffffffffffffffffffffffffffffffffffffff16815260200190815260200160002060008282546200066f919062001277565b925050819055505b50508060010190506200046e565b5060018351036200074c576000620006a8600085620007dc60201b90919060201c565b90506000620006c2600085620007dc60201b90919060201c565b90508573ffffffffffffffffffffffffffffffffffffffff168773ffffffffffffffffffffffffffffffffffffffff168473ffffffffffffffffffffffffffffffffffffffff167fc3d58168c5ae7397731d063d5bbf3d657854427343f4c083240f7aacaa2d0f6285856040516200073c92919062001379565b60405180910390a45050620007cd565b8373ffffffffffffffffffffffffffffffffffffffff168573ffffffffffffffffffffffffffffffffffffffff168273ffffffffffffffffffffffffffffffffffffffff167f4a39dc06d4c0dbc64b70af90fd698a233a518aa5d07e595d983b8c0526c8f7fb8686604051620007c4929190620014c1565b60405180910390a45b5050505050565b600033905090565b600060208202602084010151905092915050565b60008473ffffffffffffffffffffffffffffffffffffffff163b1115620009ab578373ffffffffffffffffffffffffffffffffffffffff1663f23a6e6187878686866040518663ffffffff1660e01b81526004016200085495949392919062001559565b6020604051808303816000875af19250505080156200089357506040513d601f19601f820116820180604052508101906200089091906200161a565b60015b6200091d573d8060008114620008c6576040519150601f19603f3d011682016040523d82523d6000602084013e620008cb565b606091505b5060008151036200091557846040517f57f447ce0000000000000000000000000000000000000000000000000000000081526004016200090c91906200134b565b60405180910390fd5b805181602001fd5b63f23a6e6160e01b7bffffffffffffffffffffffffffffffffffffffffffffffffffffffff1916817bffffffffffffffffffffffffffffffffffffffffffffffffffffffff191614620009a957846040517f57f447ce000000000000000000000000000000000000000000000000000000008152600401620009a091906200134b565b60405180910390fd5b505b505050505050565b60008473ffffffffffffffffffffffffffffffffffffffff163b111562000b6e578373ffffffffffffffffffffffffffffffffffffffff1663bc197c8187878686866040518663ffffffff1660e01b815260040162000a179594939291906200164c565b6020604051808303816000875af192505050801562000a5657506040513d601f19601f8201168201806040525081019062000a5391906200161a565b60015b62000ae0573d806000811462000a89576040519150601f19603f3d011682016040523d82523d6000602084013e62000a8e565b606091505b50600081510362000ad857846040517f57f447ce00000000000000000000000000000000000000000000000000000000815260040162000acf91906200134b565b60405180910390fd5b805181602001fd5b63bc197c8160e01b7bffffffffffffffffffffffffffffffffffffffffffffffffffffffff1916817bffffffffffffffffffffffffffffffffffffffffffffffffffffffff19161462000b6c57846040517f57f447ce00000000000000000000000000000000000000000000000000000000815260040162000b6391906200134b565b60405180910390fd5b505b505050505050565b6000604051905090565b600080fd5b600080fd5b600073ffffffffffffffffffffffffffffffffffffffff82169050919050565b600062000bb78262000b8a565b9050919050565b62000bc98162000baa565b811462000bd557600080fd5b50565b60008151905062000be98162000bbe565b92915050565b6000819050919050565b62000c048162000bef565b811462000c1057600080fd5b50565b60008151905062000c248162000bf9565b92915050565b6000819050919050565b62000c3f8162000c2a565b811462000c4b57600080fd5b50565b60008151905062000c5f8162000c34565b92915050565b600080fd5b600080fd5b6000601f19601f8301169050919050565b7f4e487b7100000000000000000000000000000000000000000000000000000000600052604160045260246000fd5b62000cba8262000c6f565b810181811067ffffffffffffffff8211171562000cdc5762000cdb62000c80565b5b80604052505050565b600062000cf162000b76565b905062000cff828262000caf565b919050565b600067ffffffffffffffff82111562000d225762000d2162000c80565b5b62000d2d8262000c6f565b9050602081019050919050565b60005b8381101562000d5a57808201518184015260208101905062000d3d565b60008484015250505050565b600062000d7d62000d778462000d04565b62000ce5565b90508281526020810184848401111562000d9c5762000d9b62000c6a565b5b62000da984828562000d3a565b509392505050565b600082601f83011262000dc95762000dc862000c65565b5b815162000ddb84826020860162000d66565b91505092915050565b600080600080600080600060e0888a03121562000e065762000e0562000b80565b5b600062000e168a828b0162000bd8565b975050602062000e298a828b0162000c13565b965050604062000e3c8a828b0162000c4e565b955050606062000e4f8a828b0162000c4e565b945050608088015167ffffffffffffffff81111562000e735762000e7262000b85565b5b62000e818a828b0162000db1565b93505060a062000e948a828b0162000c13565b92505060c088015167ffffffffffffffff81111562000eb85762000eb762000b85565b5b62000ec68a828b0162000db1565b91505092959891949750929550565b600081519050919050565b7f4e487b7100000000000000000000000000000000000000000000000000000000600052602260045260246000fd5b6000600282049050600182168062000f2857607f821691505b60208210810362000f3e5762000f3d62000ee0565b5b50919050565b60008190508160005260206000209050919050565b60006020601f8301049050919050565b600082821b905092915050565b60006008830262000fa87fffffffffffffffffffffffffffffffffffffffffffffffffffffffffffffffff8262000f69565b62000fb4868362000f69565b95508019841693508086168417925050509392505050565b6000819050919050565b600062000ff762000ff162000feb8462000bef565b62000fcc565b62000bef565b9050919050565b6000819050919050565b620010138362000fd6565b6200102b620010228262000ffe565b84845462000f76565b825550505050565b600090565b6200104262001033565b6200104f81848462001008565b505050565b5b8181101562001077576200106b60008262001038565b60018101905062001055565b5050565b601f821115620010c657620010908162000f44565b6200109b8462000f59565b81016020851015620010ab578190505b620010c3620010ba8562000f59565b83018262001054565b50505b505050565b600082821c905092915050565b6000620010eb60001984600802620010cb565b1980831691505092915050565b6000620011068383620010d8565b9150826002028217905092915050565b620011218262000ed5565b67ffffffffffffffff8111156200113d576200113c62000c80565b5b62001149825462000f0f565b620011568282856200107b565b600060209050601f8311600181146200118e576000841562001179578287015190505b620011858582620010f8565b865550620011f5565b601f1984166200119e8662000f44565b60005b82811015620011c857848901518255600182019150602085019450602081019050620011a1565b86831015620011e85784890151620011e4601f891682620010d8565b8355505b6001600288020188555050505b505050505050565b7f4e487b7100000000000000000000000000000000000000000000000000000000600052601160045260246000fd5b6000620012398262000bef565b9150620012468362000bef565b9250828202620012568162000bef565b9150828204841483151762001270576200126f620011fd565b5b5092915050565b6000620012848262000bef565b9150620012918362000bef565b9250828201905080821115620012ac57620012ab620011fd565b5b92915050565b6000620012bf8262000bef565b9150620012cc8362000bef565b9250828203905081811115620012e757620012e6620011fd565b5b92915050565b6000620012fa8262000bef565b91507fffffffffffffffffffffffffffffffffffffffffffffffffffffffffffffffff82036200132f576200132e620011fd565b5b600182019050919050565b620013458162000baa565b82525050565b60006020820190506200136260008301846200133a565b92915050565b620013738162000bef565b82525050565b600060408201905062001390600083018562001368565b6200139f602083018462001368565b9392505050565b6000608082019050620013bd60008301876200133a565b620013cc602083018662001368565b620013db604083018562001368565b620013ea606083018462001368565b95945050505050565b600081519050919050565b600082825260208201905092915050565b6000819050602082019050919050565b6200142a8162000bef565b82525050565b60006200143e83836200141f565b60208301905092915050565b6000602082019050919050565b60006200146482620013f3565b620014708185620013fe565b93506200147d836200140f565b8060005b83811015620014b457815162001498888262001430565b9750620014a5836200144a565b92505060018101905062001481565b5085935050505092915050565b60006040820190508181036000830152620014dd818562001457565b90508181036020830152620014f3818462001457565b90509392505050565b600081519050919050565b600082825260208201905092915050565b60006200152582620014fc565b62001531818562001507565b93506200154381856020860162000d3a565b6200154e8162000c6f565b840191505092915050565b600060a0820190506200157060008301886200133a565b6200157f60208301876200133a565b6200158e604083018662001368565b6200159d606083018562001368565b8181036080830152620015b1818462001518565b90509695505050505050565b60007fffffffff0000000000000000000000000000000000000000000000000000000082169050919050565b620015f481620015bd565b81146200160057600080fd5b50565b6000815190506200161481620015e9565b92915050565b60006020828403121562001633576200163262000b80565b5b6000620016438482850162001603565b91505092915050565b600060a0820190506200166360008301886200133a565b6200167260208301876200133a565b818103604083015262001686818662001457565b905081810360608301526200169c818562001457565b90508181036080830152620016b2818462001518565b90509695505050505050565b61377680620016ce6000396000f3fe6080604052600436106101ba5760003560e01c8063796b23bb116100ec578063d4b839921161008a578063e21f37ce11610064578063e21f37ce146105bb578063e985e9c5146105e6578063f242432a14610623578063f9c36fde1461064c576101c9565b8063d4b839921461055b578063d5f3948814610586578063d7bb99ba146105b1576101c9565b8063ae08ed5c116100c6578063ae08ed5c146104c5578063af3b19e5146104f0578063b126793b14610507578063d411eccb14610530576101c9565b8063796b23bb14610446578063a22cb46514610471578063a8e4fb901461049a576101c9565b806317d70f7c116101595780634e1273f4116101335780634e1273f41461039c57806355d576cc146103d95780635600f04f14610404578063590e1ae31461042f576101c9565b806317d70f7c1461031d5780632eb2c2d61461034857806336ebffca14610371576101c9565b806307bfce371161019557806307bfce3714610273578063085d48831461029e5780630e89341c146102c95780631249c58b14610306576101c9565b8062fdd58e146101ce57806301ffc9a71461020b5780630539272a14610248576101c9565b366101c9576101c7610677565b005b600080fd5b3480156101da57600080fd5b506101f560048036038101906101f091906121eb565b610740565b604051610202919061223a565b60405180910390f35b34801561021757600080fd5b50610232600480360381019061022d91906122ad565b61079a565b60405161023f91906122f5565b60405180910390f35b34801561025457600080fd5b5061025d61087c565b60405161026a919061223a565b60405180910390f35b34801561027f57600080fd5b50610288610882565b6040516102959190612329565b60405180910390f35b3480156102aa57600080fd5b506102b3610888565b6040516102c09190612353565b60405180910390f35b3480156102d557600080fd5b506102f060048036038101906102eb919061236e565b6108ae565b6040516102fd919061242b565b60405180910390f35b34801561031257600080fd5b5061031b610942565b005b34801561032957600080fd5b50610332610a98565b60405161033f919061223a565b60405180910390f35b34801561035457600080fd5b5061036f600480360381019061036a919061264a565b610a9e565b005b34801561037d57600080fd5b50610386610b46565b604051610393919061223a565b60405180910390f35b3480156103a857600080fd5b506103c360048036038101906103be91906127dc565b610b4c565b6040516103d09190612912565b60405180910390f35b3480156103e557600080fd5b506103ee610c55565b6040516103fb9190612329565b60405180910390f35b34801561041057600080fd5b50610419610c5b565b604051610426919061242b565b60405180910390f35b34801561043b57600080fd5b50610444610ce9565b005b34801561045257600080fd5b5061045b610f07565b604051610468919061223a565b60405180910390f35b34801561047d57600080fd5b5061049860048036038101906104939190612960565b610f0d565b005b3480156104a657600080fd5b506104af610f23565b6040516104bc9190612353565b60405180910390f35b3480156104d157600080fd5b506104da610f49565b6040516104e7919061223a565b60405180910390f35b3480156104fc57600080fd5b50610505610f50565b005b34801561051357600080fd5b5061052e60048036038101906105299190612a41565b6110cc565b005b34801561053c57600080fd5b50610545611221565b604051610552919061223a565b60405180910390f35b34801561056757600080fd5b50610570611227565b60405161057d919061242b565b60405180910390f35b34801561059257600080fd5b5061059b6112b5565b6040516105a89190612353565b60405180910390f35b6105b9610677565b005b3480156105c757600080fd5b506105d06112db565b6040516105dd919061242b565b60405180910390f35b3480156105f257600080fd5b5061060d60048036038101906106089190612a8a565b611369565b60405161061a91906122f5565b60405180910390f35b34801561062f57600080fd5b5061064a60048036038101906106459190612aca565b6113fd565b005b34801561065857600080fd5b506106616114a5565b60405161066e919061223a565b60405180910390f35b6000349050600c5481600e5461068d9190612b90565b11156106ce576040517f08c379a00000000000000000000000000000000000000000000000000000000081526004016106c590612c36565b60405180910390fd5b80600e60008282546106e09190612b90565b9250508190555080601160003373ffffffffffffffffffffffffffffffffffffffff1673ffffffffffffffffffffffffffffffffffffffff16815260200190815260200160002060008282546107369190612b90565b9250508190555050565b600080600083815260200190815260200160002060008473ffffffffffffffffffffffffffffffffffffffff1673ffffffffffffffffffffffffffffffffffffffff16815260200190815260200160002054905092915050565b60007fd9b67a26000000000000000000000000000000000000000000000000000000007bffffffffffffffffffffffffffffffffffffffffffffffffffffffff1916827bffffffffffffffffffffffffffffffffffffffffffffffffffffffff1916148061086557507f0e89341c000000000000000000000000000000000000000000000000000000007bffffffffffffffffffffffffffffffffffffffffffffffffffffffff1916827bffffffffffffffffffffffffffffffffffffffffffffffffffffffff1916145b806108755750610874826114ab565b5b9050919050565b60055481565b60075481565b600d60009054906101000a900473ffffffffffffffffffffffffffffffffffffffff1681565b6060600280546108bd90612c85565b80601f01602080910402602001604051908101604052809291908181526020018280546108e990612c85565b80156109365780601f1061090b57610100808354040283529160200191610936565b820191906000526020600020905b81548152906001019060200180831161091957829003601f168201915b50505050509050919050565b6000601160003373ffffffffffffffffffffffffffffffffffffffff1673ffffffffffffffffffffffffffffffffffffffff168152602001908152602001600020549050600081116109c9576040517f08c379a00000000000000000000000000000000000000000000000000000000081526004016109c090612d02565b60405180910390fd5b6000600f80546109d890612c85565b905003610a1a576040517f08c379a0000000000000000000000000000000000000000000000000000000008152600401610a1190612d6e565b60405180910390fd5b60106000815480929190610a2d90612d8e565b91905055506000601160003373ffffffffffffffffffffffffffffffffffffffff1673ffffffffffffffffffffffffffffffffffffffff16815260200190815260200160002081905550610a9533601054600160405180602001604052806000815250611515565b50565b60105481565b6000610aa86115ae565b90508073ffffffffffffffffffffffffffffffffffffffff168673ffffffffffffffffffffffffffffffffffffffff1614158015610aed5750610aeb8682611369565b155b15610b315780866040517fe237d922000000000000000000000000000000000000000000000000000000008152600401610b28929190612dd6565b60405180910390fd5b610b3e86868686866115b6565b505050505050565b600a5481565b60608151835114610b9857815183516040517f5b059991000000000000000000000000000000000000000000000000000000008152600401610b8f929190612dff565b60405180910390fd5b6000835167ffffffffffffffff811115610bb557610bb4612452565b5b604051908082528060200260200182016040528015610be35781602001602082028036833780820191505090505b50905060005b8451811015610c4a57610c20610c0882876116ae90919063ffffffff16565b610c1b83876116c290919063ffffffff16565b610740565b828281518110610c3357610c32612e28565b5b602002602001018181525050806001019050610be9565b508091505092915050565b60065481565b600f8054610c6890612c85565b80601f0160208091040260200160405190810160405280929190818152602001828054610c9490612c85565b8015610ce15780601f10610cb657610100808354040283529160200191610ce1565b820191906000526020600020905b815481529060010190602001808311610cc457829003601f168201915b505050505081565b6000601160003373ffffffffffffffffffffffffffffffffffffffff1673ffffffffffffffffffffffffffffffffffffffff168152602001908152602001600020549050600073ffffffffffffffffffffffffffffffffffffffff16600d60009054906101000a900473ffffffffffffffffffffffffffffffffffffffff1673ffffffffffffffffffffffffffffffffffffffff1614610dbe576040517f08c379a0000000000000000000000000000000000000000000000000000000008152600401610db590612ec9565b60405180910390fd5b60008111610e01576040517f08c379a0000000000000000000000000000000000000000000000000000000008152600401610df890612f35565b60405180910390fd5b600b544211610e45576040517f08c379a0000000000000000000000000000000000000000000000000000000008152600401610e3c90612fc7565b60405180910390fd5b6000601160003373ffffffffffffffffffffffffffffffffffffffff1673ffffffffffffffffffffffffffffffffffffffff1681526020019081526020016000208190555060003373ffffffffffffffffffffffffffffffffffffffff166108fc839081150290604051600060405180830381858888f19350505050905080610f03576040517f08c379a0000000000000000000000000000000000000000000000000000000008152600401610efa90613033565b60405180910390fd5b5050565b600b5481565b610f1f610f186115ae565b83836116d6565b5050565b600460009054906101000a900473ffffffffffffffffffffffffffffffffffffffff1681565b62278d0081565b600360009054906101000a900473ffffffffffffffffffffffffffffffffffffffff1673ffffffffffffffffffffffffffffffffffffffff16636b074a07336040518263ffffffff1660e01b8152600401610fab9190612353565b602060405180830381865afa158015610fc8573d6000803e3d6000fd5b505050506040513d601f19601f82011682018060405250810190610fec9190613068565b61102b576040517f08c379a000000000000000000000000000000000000000000000000000000000815260040161102290613107565b60405180910390fd5b60646062600c5461103c9190613127565b6110469190613198565b600e5411611089576040517f08c379a00000000000000000000000000000000000000000000000000000000081526004016110809061323b565b60405180910390fd5b33600d60006101000a81548173ffffffffffffffffffffffffffffffffffffffff021916908373ffffffffffffffffffffffffffffffffffffffff160217905550565b600d60009054906101000a900473ffffffffffffffffffffffffffffffffffffffff1673ffffffffffffffffffffffffffffffffffffffff163373ffffffffffffffffffffffffffffffffffffffff161461115c576040517f08c379a0000000000000000000000000000000000000000000000000000000008152600401611153906132cd565b60405180910390fd5b80600f908161116b9190613499565b5060003373ffffffffffffffffffffffffffffffffffffffff166108fc600c549081150290604051600060405180830381858888f193505050509050806111e7576040517f08c379a00000000000000000000000000000000000000000000000000000000081526004016111de90613033565b60405180910390fd5b601060008154809291906111fa90612d8e565b919050555061121d33601054600160405180602001604052806000815250611515565b5050565b600c5481565b6008805461123490612c85565b80601f016020809104026020016040519081016040528092919081815260200182805461126090612c85565b80156112ad5780601f10611282576101008083540402835291602001916112ad565b820191906000526020600020905b81548152906001019060200180831161129057829003601f168201915b505050505081565b600360009054906101000a900473ffffffffffffffffffffffffffffffffffffffff1681565b600980546112e890612c85565b80601f016020809104026020016040519081016040528092919081815260200182805461131490612c85565b80156113615780601f1061133657610100808354040283529160200191611361565b820191906000526020600020905b81548152906001019060200180831161134457829003601f168201915b505050505081565b6000600160008473ffffffffffffffffffffffffffffffffffffffff1673ffffffffffffffffffffffffffffffffffffffff16815260200190815260200160002060008373ffffffffffffffffffffffffffffffffffffffff1673ffffffffffffffffffffffffffffffffffffffff16815260200190815260200160002060009054906101000a900460ff16905092915050565b60006114076115ae565b90508073ffffffffffffffffffffffffffffffffffffffff168673ffffffffffffffffffffffffffffffffffffffff161415801561144c575061144a8682611369565b155b156114905780866040517fe237d922000000000000000000000000000000000000000000000000000000008152600401611487929190612dd6565b60405180910390fd5b61149d8686868686611846565b505050505050565b600e5481565b60007f01ffc9a7000000000000000000000000000000000000000000000000000000007bffffffffffffffffffffffffffffffffffffffffffffffffffffffff1916827bffffffffffffffffffffffffffffffffffffffffffffffffffffffff1916149050919050565b600073ffffffffffffffffffffffffffffffffffffffff168473ffffffffffffffffffffffffffffffffffffffff16036115875760006040517f57f447ce00000000000000000000000000000000000000000000000000000000815260040161157e9190612353565b60405180910390fd5b6000806115948585611951565b915091506115a6600087848487611981565b505050505050565b600033905090565b600073ffffffffffffffffffffffffffffffffffffffff168473ffffffffffffffffffffffffffffffffffffffff16036116285760006040517f57f447ce00000000000000000000000000000000000000000000000000000000815260040161161f9190612353565b60405180910390fd5b600073ffffffffffffffffffffffffffffffffffffffff168573ffffffffffffffffffffffffffffffffffffffff160361169a5760006040517f01a835140000000000000000000000000000000000000000000000000000000081526004016116919190612353565b60405180910390fd5b6116a78585858585611981565b5050505050565b600060208202602084010151905092915050565b600060208202602084010151905092915050565b600073ffffffffffffffffffffffffffffffffffffffff168273ffffffffffffffffffffffffffffffffffffffff16036117485760006040517fced3e10000000000000000000000000000000000000000000000000000000000815260040161173f9190612353565b60405180910390fd5b80600160008573ffffffffffffffffffffffffffffffffffffffff1673ffffffffffffffffffffffffffffffffffffffff16815260200190815260200160002060008473ffffffffffffffffffffffffffffffffffffffff1673ffffffffffffffffffffffffffffffffffffffff16815260200190815260200160002060006101000a81548160ff0219169083151502179055508173ffffffffffffffffffffffffffffffffffffffff168373ffffffffffffffffffffffffffffffffffffffff167f17307eab39ab6107e8899845ad3d59bd9653f200f220920489ca2b5937696c318360405161183991906122f5565b60405180910390a3505050565b600073ffffffffffffffffffffffffffffffffffffffff168473ffffffffffffffffffffffffffffffffffffffff16036118b85760006040517f57f447ce0000000000000000000000000000000000000000000000000000000081526004016118af9190612353565b60405180910390fd5b600073ffffffffffffffffffffffffffffffffffffffff168573ffffffffffffffffffffffffffffffffffffffff160361192a5760006040517f01a835140000000000000000000000000000000000000000000000000000000081526004016119219190612353565b60405180910390fd5b6000806119378585611951565b915091506119488787848487611981565b50505050505050565b60608060405191506001825283602083015260408201905060018152826020820152604081016040529250929050565b61198d85858585611a33565b600073ffffffffffffffffffffffffffffffffffffffff168473ffffffffffffffffffffffffffffffffffffffff1614611a2c5760006119cb6115ae565b90506001845103611a1b5760006119ec6000866116c290919063ffffffff16565b90506000611a046000866116c290919063ffffffff16565b9050611a14838989858589611ddb565b5050611a2a565b611a29818787878787611f8f565b5b505b5050505050565b8051825114611a7d57815181516040517f5b059991000000000000000000000000000000000000000000000000000000008152600401611a74929190612dff565b60405180910390fd5b6000611a876115ae565b905060005b8351811015611c96576000611aaa82866116c290919063ffffffff16565b90506000611ac183866116c290919063ffffffff16565b9050600073ffffffffffffffffffffffffffffffffffffffff168873ffffffffffffffffffffffffffffffffffffffff1614611bee57600080600084815260200190815260200160002060008a73ffffffffffffffffffffffffffffffffffffffff1673ffffffffffffffffffffffffffffffffffffffff16815260200190815260200160002054905081811015611b9657888183856040517f03dee4c5000000000000000000000000000000000000000000000000000000008152600401611b8d949392919061356b565b60405180910390fd5b81810360008085815260200190815260200160002060008b73ffffffffffffffffffffffffffffffffffffffff1673ffffffffffffffffffffffffffffffffffffffff16815260200190815260200160002081905550505b600073ffffffffffffffffffffffffffffffffffffffff168773ffffffffffffffffffffffffffffffffffffffff1614611c89578060008084815260200190815260200160002060008973ffffffffffffffffffffffffffffffffffffffff1673ffffffffffffffffffffffffffffffffffffffff1681526020019081526020016000206000828254611c819190612b90565b925050819055505b5050806001019050611a8c565b506001835103611d55576000611cb66000856116c290919063ffffffff16565b90506000611cce6000856116c290919063ffffffff16565b90508573ffffffffffffffffffffffffffffffffffffffff168773ffffffffffffffffffffffffffffffffffffffff168473ffffffffffffffffffffffffffffffffffffffff167fc3d58168c5ae7397731d063d5bbf3d657854427343f4c083240f7aacaa2d0f628585604051611d46929190612dff565b60405180910390a45050611dd4565b8373ffffffffffffffffffffffffffffffffffffffff168573ffffffffffffffffffffffffffffffffffffffff168273ffffffffffffffffffffffffffffffffffffffff167f4a39dc06d4c0dbc64b70af90fd698a233a518aa5d07e595d983b8c0526c8f7fb8686604051611dcb9291906135b0565b60405180910390a45b5050505050565b60008473ffffffffffffffffffffffffffffffffffffffff163b1115611f87578373ffffffffffffffffffffffffffffffffffffffff1663f23a6e6187878686866040518663ffffffff1660e01b8152600401611e3c95949392919061363c565b6020604051808303816000875af1925050508015611e7857506040513d601f19601f82011682018060405250810190611e7591906136ab565b60015b611efc573d8060008114611ea8576040519150601f19603f3d011682016040523d82523d6000602084013e611ead565b606091505b506000815103611ef457846040517f57f447ce000000000000000000000000000000000000000000000000000000008152600401611eeb9190612353565b60405180910390fd5b805181602001fd5b63f23a6e6160e01b7bffffffffffffffffffffffffffffffffffffffffffffffffffffffff1916817bffffffffffffffffffffffffffffffffffffffffffffffffffffffff191614611f8557846040517f57f447ce000000000000000000000000000000000000000000000000000000008152600401611f7c9190612353565b60405180910390fd5b505b505050505050565b60008473ffffffffffffffffffffffffffffffffffffffff163b111561213b578373ffffffffffffffffffffffffffffffffffffffff1663bc197c8187878686866040518663ffffffff1660e01b8152600401611ff09594939291906136d8565b6020604051808303816000875af192505050801561202c57506040513d601f19601f8201168201806040525081019061202991906136ab565b60015b6120b0573d806000811461205c576040519150601f19603f3d011682016040523d82523d6000602084013e612061565b606091505b5060008151036120a857846040517f57f447ce00000000000000000000000000000000000000000000000000000000815260040161209f9190612353565b60405180910390fd5b805181602001fd5b63bc197c8160e01b7bffffffffffffffffffffffffffffffffffffffffffffffffffffffff1916817bffffffffffffffffffffffffffffffffffffffffffffffffffffffff19161461213957846040517f57f447ce0000000000000000000000000000000000000000000000000000000081526004016121309190612353565b60405180910390fd5b505b505050505050565b6000604051905090565b600080fd5b600080fd5b600073ffffffffffffffffffffffffffffffffffffffff82169050919050565b600061218282612157565b9050919050565b61219281612177565b811461219d57600080fd5b50565b6000813590506121af81612189565b92915050565b6000819050919050565b6121c8816121b5565b81146121d357600080fd5b50565b6000813590506121e5816121bf565b92915050565b600080604083850312156122025761220161214d565b5b6000612210858286016121a0565b9250506020612221858286016121d6565b9150509250929050565b612234816121b5565b82525050565b600060208201905061224f600083018461222b565b92915050565b60007fffffffff0000000000000000000000000000000000000000000000000000000082169050919050565b61228a81612255565b811461229557600080fd5b50565b6000813590506122a781612281565b92915050565b6000602082840312156122c3576122c261214d565b5b60006122d184828501612298565b91505092915050565b60008115159050919050565b6122ef816122da565b82525050565b600060208201905061230a60008301846122e6565b92915050565b6000819050919050565b61232381612310565b82525050565b600060208201905061233e600083018461231a565b92915050565b61234d81612177565b82525050565b60006020820190506123686000830184612344565b92915050565b6000602082840312156123845761238361214d565b5b6000612392848285016121d6565b91505092915050565b600081519050919050565b600082825260208201905092915050565b60005b838110156123d55780820151818401526020810190506123ba565b60008484015250505050565b6000601f19601f8301169050919050565b60006123fd8261239b565b61240781856123a6565b93506124178185602086016123b7565b612420816123e1565b840191505092915050565b6000602082019050818103600083015261244581846123f2565b905092915050565b600080fd5b7f4e487b7100000000000000000000000000000000000000000000000000000000600052604160045260246000fd5b61248a826123e1565b810181811067ffffffffffffffff821117156124a9576124a8612452565b5b80604052505050565b60006124bc612143565b90506124c88282612481565b919050565b600067ffffffffffffffff8211156124e8576124e7612452565b5b602082029050602081019050919050565b600080fd5b600061251161250c846124cd565b6124b2565b90508083825260208201905060208402830185811115612534576125336124f9565b5b835b8181101561255d578061254988826121d6565b845260208401935050602081019050612536565b5050509392505050565b600082601f83011261257c5761257b61244d565b5b813561258c8482602086016124fe565b91505092915050565b600080fd5b600067ffffffffffffffff8211156125b5576125b4612452565b5b6125be826123e1565b9050602081019050919050565b82818337600083830152505050565b60006125ed6125e88461259a565b6124b2565b90508281526020810184848401111561260957612608612595565b5b6126148482856125cb565b509392505050565b600082601f8301126126315761263061244d565b5b81356126418482602086016125da565b91505092915050565b600080600080600060a086880312156126665761266561214d565b5b6000612674888289016121a0565b9550506020612685888289016121a0565b945050604086013567ffffffffffffffff8111156126a6576126a5612152565b5b6126b288828901612567565b935050606086013567ffffffffffffffff8111156126d3576126d2612152565b5b6126df88828901612567565b925050608086013567ffffffffffffffff811115612700576126ff612152565b5b61270c8882890161261c565b9150509295509295909350565b600067ffffffffffffffff82111561273457612733612452565b5b602082029050602081019050919050565b600061275861275384612719565b6124b2565b9050808382526020820190506020840283018581111561277b5761277a6124f9565b5b835b818110156127a4578061279088826121a0565b84526020840193505060208101905061277d565b5050509392505050565b600082601f8301126127c3576127c261244d565b5b81356127d3848260208601612745565b91505092915050565b600080604083850312156127f3576127f261214d565b5b600083013567ffffffffffffffff81111561281157612810612152565b5b61281d858286016127ae565b925050602083013567ffffffffffffffff81111561283e5761283d612152565b5b61284a85828601612567565b9150509250929050565b600081519050919050565b600082825260208201905092915050565b6000819050602082019050919050565b612889816121b5565b82525050565b600061289b8383612880565b60208301905092915050565b6000602082019050919050565b60006128bf82612854565b6128c9818561285f565b93506128d483612870565b8060005b838110156129055781516128ec888261288f565b97506128f7836128a7565b9250506001810190506128d8565b5085935050505092915050565b6000602082019050818103600083015261292c81846128b4565b905092915050565b61293d816122da565b811461294857600080fd5b50565b60008135905061295a81612934565b92915050565b600080604083850312156129775761297661214d565b5b6000612985858286016121a0565b92505060206129968582860161294b565b9150509250929050565b600067ffffffffffffffff8211156129bb576129ba612452565b5b6129c4826123e1565b9050602081019050919050565b60006129e46129df846129a0565b6124b2565b905082815260208101848484011115612a00576129ff612595565b5b612a0b8482856125cb565b509392505050565b600082601f830112612a2857612a2761244d565b5b8135612a388482602086016129d1565b91505092915050565b600060208284031215612a5757612a5661214d565b5b600082013567ffffffffffffffff811115612a7557612a74612152565b5b612a8184828501612a13565b91505092915050565b60008060408385031215612aa157612aa061214d565b5b6000612aaf858286016121a0565b9250506020612ac0858286016121a0565b9150509250929050565b600080600080600060a08688031215612ae657612ae561214d565b5b6000612af4888289016121a0565b9550506020612b05888289016121a0565b9450506040612b16888289016121d6565b9350506060612b27888289016121d6565b925050608086013567ffffffffffffffff811115612b4857612b47612152565b5b612b548882890161261c565b9150509295509295909350565b7f4e487b7100000000000000000000000000000000000000000000000000000000600052601160045260246000fd5b6000612b9b826121b5565b9150612ba6836121b5565b9250828201905080821115612bbe57612bbd612b61565b5b92915050565b7f63616e6e6f7420636f6e74726962757465206d6f7265207468616e207468652060008201527f66756e64696e6720746172676574000000000000000000000000000000000000602082015250565b6000612c20602e836123a6565b9150612c2b82612bc4565b604082019050919050565b60006020820190508181036000830152612c4f81612c13565b9050919050565b7f4e487b7100000000000000000000000000000000000000000000000000000000600052602260045260246000fd5b60006002820490506001821680612c9d57607f821691505b602082108103612cb057612caf612c56565b5b50919050565b7f5573657220646964206e6f7420636f6e74726962757465000000000000000000600082015250565b6000612cec6017836123a6565b9150612cf782612cb6565b602082019050919050565b60006020820190508181036000830152612d1b81612cdf565b9050919050565b7f50726f706f73616c206973206e6f7420636f6d706c6574650000000000000000600082015250565b6000612d586018836123a6565b9150612d6382612d22565b602082019050919050565b60006020820190508181036000830152612d8781612d4b565b9050919050565b6000612d99826121b5565b91507fffffffffffffffffffffffffffffffffffffffffffffffffffffffffffffffff8203612dcb57612dca612b61565b5b600182019050919050565b6000604082019050612deb6000830185612344565b612df86020830184612344565b9392505050565b6000604082019050612e14600083018561222b565b612e21602083018461222b565b9392505050565b7f4e487b7100000000000000000000000000000000000000000000000000000000600052603260045260246000fd5b7f50726f706f73616c2068617320616c7265616479206265656e2061636365707460008201527f6564000000000000000000000000000000000000000000000000000000000000602082015250565b6000612eb36022836123a6565b9150612ebe82612e57565b604082019050919050565b60006020820190508181036000830152612ee281612ea6565b9050919050565b7f4e6f2066756e647320746f20726566756e640000000000000000000000000000600082015250565b6000612f1f6012836123a6565b9150612f2a82612ee9565b602082019050919050565b60006020820190508181036000830152612f4e81612f12565b9050919050565b7f66756e64696e6720646561646c696e6520686173206e6f74206265656e20726560008201527f6163686564000000000000000000000000000000000000000000000000000000602082015250565b6000612fb16025836123a6565b9150612fbc82612f55565b604082019050919050565b60006020820190508181036000830152612fe081612fa4565b9050919050565b7f4661696c656420746f2073656e64204574686572000000000000000000000000600082015250565b600061301d6014836123a6565b915061302882612fe7565b602082019050919050565b6000602082019050818103600083015261304c81613010565b9050919050565b60008151905061306281612934565b92915050565b60006020828403121561307e5761307d61214d565b5b600061308c84828501613053565b91505092915050565b7f4f6e6c792070726f7669646572732063616e206163636570742070726f706f7360008201527f616c730000000000000000000000000000000000000000000000000000000000602082015250565b60006130f16023836123a6565b91506130fc82613095565b604082019050919050565b60006020820190508181036000830152613120816130e4565b9050919050565b6000613132826121b5565b915061313d836121b5565b925082820261314b816121b5565b9150828204841483151761316257613161612b61565b5b5092915050565b7f4e487b7100000000000000000000000000000000000000000000000000000000600052601260045260246000fd5b60006131a3826121b5565b91506131ae836121b5565b9250826131be576131bd613169565b5b828204905092915050565b7f70726f706f73616c20686173206e6f74206265656e2066756c6c792066756e6460008201527f6564000000000000000000000000000000000000000000000000000000000000602082015250565b60006132256022836123a6565b9150613230826131c9565b604082019050919050565b6000602082019050818103600083015261325481613218565b9050919050565b7f4f6e6c79207468652070726f76696465722063616e20636f6d706c657465207060008201527f726f706f73616c00000000000000000000000000000000000000000000000000602082015250565b60006132b76027836123a6565b91506132c28261325b565b604082019050919050565b600060208201905081810360008301526132e6816132aa565b9050919050565b60008190508160005260206000209050919050565b60006020601f8301049050919050565b600082821b905092915050565b60006008830261334f7fffffffffffffffffffffffffffffffffffffffffffffffffffffffffffffffff82613312565b6133598683613312565b95508019841693508086168417925050509392505050565b6000819050919050565b600061339661339161338c846121b5565b613371565b6121b5565b9050919050565b6000819050919050565b6133b08361337b565b6133c46133bc8261339d565b84845461331f565b825550505050565b600090565b6133d96133cc565b6133e48184846133a7565b505050565b5b81811015613408576133fd6000826133d1565b6001810190506133ea565b5050565b601f82111561344d5761341e816132ed565b61342784613302565b81016020851015613436578190505b61344a61344285613302565b8301826133e9565b50505b505050565b600082821c905092915050565b600061347060001984600802613452565b1980831691505092915050565b6000613489838361345f565b9150826002028217905092915050565b6134a28261239b565b67ffffffffffffffff8111156134bb576134ba612452565b5b6134c58254612c85565b6134d082828561340c565b600060209050601f83116001811461350357600084156134f1578287015190505b6134fb858261347d565b865550613563565b601f198416613511866132ed565b60005b8281101561353957848901518255600182019150602085019450602081019050613514565b868310156135565784890151613552601f89168261345f565b8355505b6001600288020188555050505b505050505050565b60006080820190506135806000830187612344565b61358d602083018661222b565b61359a604083018561222b565b6135a7606083018461222b565b95945050505050565b600060408201905081810360008301526135ca81856128b4565b905081810360208301526135de81846128b4565b90509392505050565b600081519050919050565b600082825260208201905092915050565b600061360e826135e7565b61361881856135f2565b93506136288185602086016123b7565b613631816123e1565b840191505092915050565b600060a0820190506136516000830188612344565b61365e6020830187612344565b61366b604083018661222b565b613678606083018561222b565b818103608083015261368a8184613603565b90509695505050505050565b6000815190506136a581612281565b92915050565b6000602082840312156136c1576136c061214d565b5b60006136cf84828501613696565b91505092915050565b600060a0820190506136ed6000830188612344565b6136fa6020830187612344565b818103604083015261370c81866128b4565b9050818103606083015261372081856128b4565b905081810360808301526137348184613603565b9050969550505050505056fea26469706673582212202dbcd4b1ff4ac3fd23a7a9f44447bb5ef77a03b8b3d1a2bdf569bea7bcf37a8664736f6c63430008180033697066733a2f2f516d514d576e48543154466b74697136586e796b4e6b7368616d57507964553370655732524b75514b63427a53322e706e67a2646970667358221220ef3d124ce02c3cfe6cd5ae4bf42d197b7f9866afd3a03ebdb57d722b7735dbe264736f6c63430008180033",
  "linkReferences": {},
  "deployedLinkReferences": {}
}