{
  "_format": "hh-sol-artifact-1",
  "contractName": "Deployer",
  "sourceName": "contracts/Deployer.sol",
  "abi": [
    {
      "inputs": [],
      "stateMutability": "nonpayable",
      "type": "constructor"
    },
    {
      "inputs": [
        {
          "internalType": "uint256",
          "name": "_startDay",
          "type": "uint256"
        },
        {
          "internalType": "uint256",
          "name": "_endDay",
          "type": "uint256"
        },
        {
          "internalType": "uint256",
          "name": "_lat",
          "type": "uint256"
        },
        {
          "internalType": "uint256",
          "name": "_long",
          "type": "uint256"
        },
        {
          "internalType": "string",
          "name": "_target",
          "type": "string"
        },
        {
          "internalType": "string",
          "name": "_contentType",
          "type": "string"
        },
        {
          "internalType": "string",
          "name": "_contentMessage",
          "type": "string"
        }
      ],
      "name": "CreateProposal",
      "outputs": [
        {
          "internalType": "contract Proposal",
          "name": "",
          "type": "address"
        }
      ],
      "stateMutability": "nonpayable",
      "type": "function"
    },
    {
      "inputs": [
        {
          "internalType": "address",
          "name": "_address",
          "type": "address"
        }
      ],
      "name": "addProvider",
      "outputs": [],
      "stateMutability": "nonpayable",
      "type": "function"
    },
    {
      "inputs": [],
      "name": "getProposals",
      "outputs": [
        {
          "internalType": "address[]",
          "name": "",
          "type": "address[]"
        }
      ],
      "stateMutability": "view",
      "type": "function"
    },
    {
      "inputs": [
        {
          "internalType": "address",
          "name": "_address",
          "type": "address"
        }
      ],
      "name": "isProvider",
      "outputs": [
        {
          "internalType": "bool",
          "name": "",
          "type": "bool"
        }
      ],
      "stateMutability": "view",
      "type": "function"
    },
    {
      "inputs": [],
      "name": "owner",
      "outputs": [
        {
          "internalType": "address",
          "name": "",
          "type": "address"
        }
      ],
      "stateMutability": "view",
      "type": "function"
    },
    {
      "inputs": [
        {
          "internalType": "uint256",
          "name": "",
          "type": "uint256"
        }
      ],
      "name": "proposals",
      "outputs": [
        {
          "internalType": "address",
          "name": "",
          "type": "address"
        }
      ],
      "stateMutability": "view",
      "type": "function"
    },
    {
      "inputs": [
        {
          "internalType": "address",
          "name": "",
          "type": "address"
        }
      ],
      "name": "providers",
      "outputs": [
        {
          "internalType": "bool",
          "name": "",
          "type": "bool"
        }
      ],
      "stateMutability": "view",
      "type": "function"
    }
  ],
  "bytecode": "0x608060405234801561001057600080fd5b50336000806101000a81548173ffffffffffffffffffffffffffffffffffffffff021916908373ffffffffffffffffffffffffffffffffffffffff160217905550615137806100606000396000f3fe60806040523480156200001157600080fd5b5060043610620000885760003560e01c806362564c48116200006357806362564c4814620001195780636b074a07146200013b57806385e5f4d414620001715780638da5cb5b14620001a75762000088565b8063013cf08b146200008d5780630787bc2714620000c357806346e2577a14620000f9575b600080fd5b620000ab6004803603810190620000a591906200050b565b620001c9565b604051620000ba919062000582565b60405180910390f35b620000e16004803603810190620000db9190620005d0565b62000209565b604051620000f091906200061f565b60405180910390f35b620001176004803603810190620001119190620005d0565b62000229565b005b62000123620002d9565b6040516200013291906200070a565b60405180910390f35b620001596004803603810190620001539190620005d0565b62000369565b6040516200016891906200061f565b60405180910390f35b6200018f600480360381019062000189919062000890565b620003c6565b6040516200019e919062000a0b565b60405180910390f35b620001b16200048a565b604051620001c0919062000582565b60405180910390f35b60018181548110620001da57600080fd5b906000526020600020016000915054906101000a900473ffffffffffffffffffffffffffffffffffffffff1681565b60026020528060005260406000206000915054906101000a900460ff1681565b60008054906101000a900473ffffffffffffffffffffffffffffffffffffffff1673ffffffffffffffffffffffffffffffffffffffff163373ffffffffffffffffffffffffffffffffffffffff1603620002d6576001600260008373ffffffffffffffffffffffffffffffffffffffff1673ffffffffffffffffffffffffffffffffffffffff16815260200190815260200160002060006101000a81548160ff0219169083151502179055505b50565b606060018054806020026020016040519081016040528092919081815260200182805480156200035f57602002820191906000526020600020905b8160009054906101000a900473ffffffffffffffffffffffffffffffffffffffff1673ffffffffffffffffffffffffffffffffffffffff168152602001906001019080831162000314575b5050505050905090565b600060011515600260008473ffffffffffffffffffffffffffffffffffffffff1673ffffffffffffffffffffffffffffffffffffffff16815260200190815260200160002060009054906101000a900460ff161515149050919050565b6000803090506000818a8a8a8a8a8a8a604051620003e490620004ae565b620003f798979695949392919062000ac2565b604051809103906000f08015801562000414573d6000803e3d6000fd5b5090506001819080600181540180825580915050600190039060005260206000200160009091909190916101000a81548173ffffffffffffffffffffffffffffffffffffffff021916908373ffffffffffffffffffffffffffffffffffffffff1602179055508092505050979650505050505050565b60008054906101000a900473ffffffffffffffffffffffffffffffffffffffff1681565b61459c8062000b6683390190565b6000604051905090565b600080fd5b600080fd5b6000819050919050565b620004e581620004d0565b8114620004f157600080fd5b50565b6000813590506200050581620004da565b92915050565b600060208284031215620005245762000523620004c6565b5b60006200053484828501620004f4565b91505092915050565b600073ffffffffffffffffffffffffffffffffffffffff82169050919050565b60006200056a826200053d565b9050919050565b6200057c816200055d565b82525050565b600060208201905062000599600083018462000571565b92915050565b620005aa816200055d565b8114620005b657600080fd5b50565b600081359050620005ca816200059f565b92915050565b600060208284031215620005e957620005e8620004c6565b5b6000620005f984828501620005b9565b91505092915050565b60008115159050919050565b620006198162000602565b82525050565b60006020820190506200063660008301846200060e565b92915050565b600081519050919050565b600082825260208201905092915050565b6000819050602082019050919050565b62000673816200055d565b82525050565b600062000687838362000668565b60208301905092915050565b6000602082019050919050565b6000620006ad826200063c565b620006b9818562000647565b9350620006c68362000658565b8060005b83811015620006fd578151620006e1888262000679565b9750620006ee8362000693565b925050600181019050620006ca565b5085935050505092915050565b60006020820190508181036000830152620007268184620006a0565b905092915050565b600080fd5b600080fd5b6000601f19601f8301169050919050565b7f4e487b7100000000000000000000000000000000000000000000000000000000600052604160045260246000fd5b620007838262000738565b810181811067ffffffffffffffff82111715620007a557620007a462000749565b5b80604052505050565b6000620007ba620004bc565b9050620007c8828262000778565b919050565b600067ffffffffffffffff821115620007eb57620007ea62000749565b5b620007f68262000738565b9050602081019050919050565b82818337600083830152505050565b6000620008296200082384620007cd565b620007ae565b90508281526020810184848401111562000848576200084762000733565b5b6200085584828562000803565b509392505050565b600082601f8301126200087557620008746200072e565b5b81356200088784826020860162000812565b91505092915050565b600080600080600080600060e0888a031215620008b257620008b1620004c6565b5b6000620008c28a828b01620004f4565b9750506020620008d58a828b01620004f4565b9650506040620008e88a828b01620004f4565b9550506060620008fb8a828b01620004f4565b945050608088013567ffffffffffffffff8111156200091f576200091e620004cb565b5b6200092d8a828b016200085d565b93505060a088013567ffffffffffffffff811115620009515762000950620004cb565b5b6200095f8a828b016200085d565b92505060c088013567ffffffffffffffff811115620009835762000982620004cb565b5b620009918a828b016200085d565b91505092959891949750929550565b6000819050919050565b6000620009cb620009c5620009bf846200053d565b620009a0565b6200053d565b9050919050565b6000620009df82620009aa565b9050919050565b6000620009f382620009d2565b9050919050565b62000a0581620009e6565b82525050565b600060208201905062000a226000830184620009fa565b92915050565b62000a3381620004d0565b82525050565b600081519050919050565b600082825260208201905092915050565b60005b8381101562000a7557808201518184015260208101905062000a58565b60008484015250505050565b600062000a8e8262000a39565b62000a9a818562000a44565b935062000aac81856020860162000a55565b62000ab78162000738565b840191505092915050565b60006101008201905062000ada600083018b62000571565b62000ae9602083018a62000a28565b62000af8604083018962000a28565b62000b07606083018862000a28565b62000b16608083018762000a28565b81810360a083015262000b2a818662000a81565b905081810360c083015262000b40818562000a81565b905081810360e083015262000b56818462000a81565b9050999850505050505050505056fe60806040523480156200001157600080fd5b506040516200459c3803806200459c833981810160405281019062000037919062000468565b6040518060400160405280600681526020017f42204865726400000000000000000000000000000000000000000000000000008152506040518060400160405280600481526020017f48455244000000000000000000000000000000000000000000000000000000008152508160009081620000b49190620007cf565b508060019081620000c69190620007cf565b50505087600660006101000a81548173ffffffffffffffffffffffffffffffffffffffff021916908373ffffffffffffffffffffffffffffffffffffffff16021790555086600781905550856008819055508460098190555083600a8190555082600b9081620001379190620007cf565b5080600c9081620001499190620007cf565b5081600d90816200015b9190620007cf565b506040516020016200016d9062000911565b60405160208183030381529060405280519060200120600d604051602001620001979190620009b7565b6040516020818303038152906040528051906020012003620001c8576753444835ec580000600f81905550620001d8565b670de0b6b3a7640000600f819055505b62278d00603c806018600754620001f09190620009ff565b620001fc9190620009ff565b620002089190620009ff565b4262000215919062000a4a565b62000221919062000a85565b600e81905550505050505050505062000ac0565b6000604051905090565b600080fd5b600080fd5b600073ffffffffffffffffffffffffffffffffffffffff82169050919050565b6000620002768262000249565b9050919050565b620002888162000269565b81146200029457600080fd5b50565b600081519050620002a8816200027d565b92915050565b6000819050919050565b620002c381620002ae565b8114620002cf57600080fd5b50565b600081519050620002e381620002b8565b92915050565b600080fd5b600080fd5b6000601f19601f8301169050919050565b7f4e487b7100000000000000000000000000000000000000000000000000000000600052604160045260246000fd5b6200033e82620002f3565b810181811067ffffffffffffffff8211171562000360576200035f62000304565b5b80604052505050565b60006200037562000235565b905062000383828262000333565b919050565b600067ffffffffffffffff821115620003a657620003a562000304565b5b620003b182620002f3565b9050602081019050919050565b60005b83811015620003de578082015181840152602081019050620003c1565b60008484015250505050565b600062000401620003fb8462000388565b62000369565b90508281526020810184848401111562000420576200041f620002ee565b5b6200042d848285620003be565b509392505050565b600082601f8301126200044d576200044c620002e9565b5b81516200045f848260208601620003ea565b91505092915050565b600080600080600080600080610100898b0312156200048c576200048b6200023f565b5b60006200049c8b828c0162000297565b9850506020620004af8b828c01620002d2565b9750506040620004c28b828c01620002d2565b9650506060620004d58b828c01620002d2565b9550506080620004e88b828c01620002d2565b94505060a089015167ffffffffffffffff8111156200050c576200050b62000244565b5b6200051a8b828c0162000435565b93505060c089015167ffffffffffffffff8111156200053e576200053d62000244565b5b6200054c8b828c0162000435565b92505060e089015167ffffffffffffffff81111562000570576200056f62000244565b5b6200057e8b828c0162000435565b9150509295985092959890939650565b600081519050919050565b7f4e487b7100000000000000000000000000000000000000000000000000000000600052602260045260246000fd5b60006002820490506001821680620005e157607f821691505b602082108103620005f757620005f662000599565b5b50919050565b60008190508160005260206000209050919050565b60006020601f8301049050919050565b600082821b905092915050565b600060088302620006617fffffffffffffffffffffffffffffffffffffffffffffffffffffffffffffffff8262000622565b6200066d868362000622565b95508019841693508086168417925050509392505050565b6000819050919050565b6000620006b0620006aa620006a484620002ae565b62000685565b620002ae565b9050919050565b6000819050919050565b620006cc836200068f565b620006e4620006db82620006b7565b8484546200062f565b825550505050565b600090565b620006fb620006ec565b62000708818484620006c1565b505050565b5b81811015620007305762000724600082620006f1565b6001810190506200070e565b5050565b601f8211156200077f576200074981620005fd565b620007548462000612565b8101602085101562000764578190505b6200077c620007738562000612565b8301826200070d565b50505b505050565b600082821c905092915050565b6000620007a46000198460080262000784565b1980831691505092915050565b6000620007bf838362000791565b9150826002028217905092915050565b620007da826200058e565b67ffffffffffffffff811115620007f657620007f562000304565b5b620008028254620005c8565b6200080f82828562000734565b600060209050601f83116001811462000847576000841562000832578287015190505b6200083e8582620007b1565b865550620008ae565b601f1984166200085786620005fd565b60005b8281101562000881578489015182556001820191506020850194506020810190506200085a565b86831015620008a157848901516200089d601f89168262000791565b8355505b6001600288020188555050505b505050505050565b600081905092915050565b7f536b7977726974696e6700000000000000000000000000000000000000000000600082015250565b6000620008f9600a83620008b6565b91506200090682620008c1565b600a82019050919050565b60006200091e82620008ea565b9150819050919050565b600081546200093781620005c8565b620009438186620008b6565b945060018216600081146200096157600181146200097757620009ae565b60ff1983168652811515820286019350620009ae565b6200098285620005fd565b60005b83811015620009a65781548189015260018201915060208101905062000985565b838801955050505b50505092915050565b6000620009c5828462000928565b915081905092915050565b7f4e487b7100000000000000000000000000000000000000000000000000000000600052601160045260246000fd5b600062000a0c82620002ae565b915062000a1983620002ae565b925082820262000a2981620002ae565b9150828204841483151762000a435762000a42620009d0565b5b5092915050565b600062000a5782620002ae565b915062000a6483620002ae565b925082820190508082111562000a7f5762000a7e620009d0565b5b92915050565b600062000a9282620002ae565b915062000a9f83620002ae565b925082820390508181111562000aba5762000ab9620009d0565b5b92915050565b613acc8062000ad06000396000f3fe6080604052600436106101fd5760003560e01c8063796b23bb1161010d578063c6bc5182116100a0578063d5f394881161006f578063d5f3948814610702578063d7bb99ba1461072d578063e21f37ce14610737578063e985e9c514610762578063f9c36fde1461079f5761020c565b8063c6bc518214610644578063c87b56dd1461066f578063d411eccb146106ac578063d4b83992146106d75761020c565b8063af3b19e5116100dc578063af3b19e5146105b0578063b126793b146105c7578063b7975709146105f0578063b88d4fde1461061b5761020c565b8063796b23bb1461050657806395d89b4114610531578063a22cb4651461055c578063ae08ed5c146105855761020c565b8063158626691161019057806355d576cc1161015f57806355d576cc1461041f5780635600f04f1461044a578063590e1ae3146104755780636352211e1461048c57806370a08231146104c95761020c565b8063158626691461037757806323b872dd146103a257806336ebffca146103cb57806342842e0e146103f65761020c565b8063081812fc116101cc578063081812fc146102cf578063085d48831461030c578063095ea7b3146103375780631249c58b146103605761020c565b806301ffc9a7146102115780630539272a1461024e57806306fdde031461027957806307bfce37146102a45761020c565b3661020c5761020a6107ca565b005b600080fd5b34801561021d57600080fd5b5061023860048036038101906102339190612796565b610893565b60405161024591906127de565b60405180910390f35b34801561025a57600080fd5b50610263610975565b6040516102709190612812565b60405180910390f35b34801561028557600080fd5b5061028e61097b565b60405161029b91906128bd565b60405180910390f35b3480156102b057600080fd5b506102b9610a0d565b6040516102c69190612812565b60405180910390f35b3480156102db57600080fd5b506102f660048036038101906102f1919061290b565b610a13565b6040516103039190612979565b60405180910390f35b34801561031857600080fd5b50610321610a2f565b60405161032e9190612979565b60405180910390f35b34801561034357600080fd5b5061035e600480360381019061035991906129c0565b610a55565b005b34801561036c57600080fd5b50610375610a6b565b005b34801561038357600080fd5b5061038c610baf565b6040516103999190612812565b60405180910390f35b3480156103ae57600080fd5b506103c960048036038101906103c49190612a00565b610bb5565b005b3480156103d757600080fd5b506103e0610cb7565b6040516103ed91906128bd565b60405180910390f35b34801561040257600080fd5b5061041d60048036038101906104189190612a00565b610d45565b005b34801561042b57600080fd5b50610434610d65565b6040516104419190612812565b60405180910390f35b34801561045657600080fd5b5061045f610d6b565b60405161046c91906128bd565b60405180910390f35b34801561048157600080fd5b5061048a610df9565b005b34801561049857600080fd5b506104b360048036038101906104ae919061290b565b611017565b6040516104c09190612979565b60405180910390f35b3480156104d557600080fd5b506104f060048036038101906104eb9190612a53565b611029565b6040516104fd9190612812565b60405180910390f35b34801561051257600080fd5b5061051b6110e3565b6040516105289190612812565b60405180910390f35b34801561053d57600080fd5b506105466110e9565b60405161055391906128bd565b60405180910390f35b34801561056857600080fd5b50610583600480360381019061057e9190612aac565b61117b565b005b34801561059157600080fd5b5061059a611191565b6040516105a79190612812565b60405180910390f35b3480156105bc57600080fd5b506105c5611198565b005b3480156105d357600080fd5b506105ee60048036038101906105e99190612c21565b611314565b005b3480156105fc57600080fd5b50610605611433565b6040516106129190612de4565b60405180910390f35b34801561062757600080fd5b50610642600480360381019061063d9190612ea7565b6116b4565b005b34801561065057600080fd5b506106596116d1565b6040516106669190612812565b60405180910390f35b34801561067b57600080fd5b506106966004803603810190610691919061290b565b6116d7565b6040516106a391906128bd565b60405180910390f35b3480156106b857600080fd5b506106c1611740565b6040516106ce9190612812565b60405180910390f35b3480156106e357600080fd5b506106ec611746565b6040516106f991906128bd565b60405180910390f35b34801561070e57600080fd5b506107176117d4565b6040516107249190612979565b60405180910390f35b6107356107ca565b005b34801561074357600080fd5b5061074c6117fa565b60405161075991906128bd565b60405180910390f35b34801561076e57600080fd5b5061078960048036038101906107849190612f2a565b611888565b60405161079691906127de565b60405180910390f35b3480156107ab57600080fd5b506107b461191c565b6040516107c19190612812565b60405180910390f35b6000349050600f54816011546107e09190612f99565b1115610821576040517f08c379a00000000000000000000000000000000000000000000000000000000081526004016108189061303f565b60405180910390fd5b80601160008282546108339190612f99565b9250508190555080601460003373ffffffffffffffffffffffffffffffffffffffff1673ffffffffffffffffffffffffffffffffffffffff16815260200190815260200160002060008282546108899190612f99565b9250508190555050565b60007f80ac58cd000000000000000000000000000000000000000000000000000000007bffffffffffffffffffffffffffffffffffffffffffffffffffffffff1916827bffffffffffffffffffffffffffffffffffffffffffffffffffffffff1916148061095e57507f5b5e139f000000000000000000000000000000000000000000000000000000007bffffffffffffffffffffffffffffffffffffffffffffffffffffffff1916827bffffffffffffffffffffffffffffffffffffffffffffffffffffffff1916145b8061096e575061096d82611922565b5b9050919050565b60075481565b60606000805461098a9061308e565b80601f01602080910402602001604051908101604052809291908181526020018280546109b69061308e565b8015610a035780601f106109d857610100808354040283529160200191610a03565b820191906000526020600020905b8154815290600101906020018083116109e657829003601f168201915b5050505050905090565b600a5481565b6000610a1e8261198c565b50610a2882611a14565b9050919050565b601060009054906101000a900473ffffffffffffffffffffffffffffffffffffffff1681565b610a678282610a62611a51565b611a59565b5050565b6000601460003373ffffffffffffffffffffffffffffffffffffffff1673ffffffffffffffffffffffffffffffffffffffff16815260200190815260200160002054905060008111610af2576040517f08c379a0000000000000000000000000000000000000000000000000000000008152600401610ae99061310b565b60405180910390fd5b600060128054610b019061308e565b905003610b43576040517f08c379a0000000000000000000000000000000000000000000000000000000008152600401610b3a90613177565b60405180910390fd5b60136000815480929190610b5690613197565b91905055506000601460003373ffffffffffffffffffffffffffffffffffffffff1673ffffffffffffffffffffffffffffffffffffffff16815260200190815260200160002081905550610bac33601354611a6b565b50565b60085481565b600073ffffffffffffffffffffffffffffffffffffffff168273ffffffffffffffffffffffffffffffffffffffff1603610c275760006040517f64a0ae92000000000000000000000000000000000000000000000000000000008152600401610c1e9190612979565b60405180910390fd5b6000610c3b8383610c36611a51565b611a89565b90508373ffffffffffffffffffffffffffffffffffffffff168173ffffffffffffffffffffffffffffffffffffffff1614610cb1578382826040517f64283d7b000000000000000000000000000000000000000000000000000000008152600401610ca8939291906131df565b60405180910390fd5b50505050565b600d8054610cc49061308e565b80601f0160208091040260200160405190810160405280929190818152602001828054610cf09061308e565b8015610d3d5780601f10610d1257610100808354040283529160200191610d3d565b820191906000526020600020905b815481529060010190602001808311610d2057829003601f168201915b505050505081565b610d60838383604051806020016040528060008152506116b4565b505050565b60095481565b60128054610d789061308e565b80601f0160208091040260200160405190810160405280929190818152602001828054610da49061308e565b8015610df15780601f10610dc657610100808354040283529160200191610df1565b820191906000526020600020905b815481529060010190602001808311610dd457829003601f168201915b505050505081565b6000601460003373ffffffffffffffffffffffffffffffffffffffff1673ffffffffffffffffffffffffffffffffffffffff168152602001908152602001600020549050600073ffffffffffffffffffffffffffffffffffffffff16601060009054906101000a900473ffffffffffffffffffffffffffffffffffffffff1673ffffffffffffffffffffffffffffffffffffffff1614610ece576040517f08c379a0000000000000000000000000000000000000000000000000000000008152600401610ec590613288565b60405180910390fd5b60008111610f11576040517f08c379a0000000000000000000000000000000000000000000000000000000008152600401610f08906132f4565b60405180910390fd5b600e544211610f55576040517f08c379a0000000000000000000000000000000000000000000000000000000008152600401610f4c90613386565b60405180910390fd5b6000601460003373ffffffffffffffffffffffffffffffffffffffff1673ffffffffffffffffffffffffffffffffffffffff1681526020019081526020016000208190555060003373ffffffffffffffffffffffffffffffffffffffff166108fc839081150290604051600060405180830381858888f19350505050905080611013576040517f08c379a000000000000000000000000000000000000000000000000000000000815260040161100a906133f2565b60405180910390fd5b5050565b60006110228261198c565b9050919050565b60008073ffffffffffffffffffffffffffffffffffffffff168273ffffffffffffffffffffffffffffffffffffffff160361109c5760006040517f89c62b640000000000000000000000000000000000000000000000000000000081526004016110939190612979565b60405180910390fd5b600360008373ffffffffffffffffffffffffffffffffffffffff1673ffffffffffffffffffffffffffffffffffffffff168152602001908152602001600020549050919050565b600e5481565b6060600180546110f89061308e565b80601f01602080910402602001604051908101604052809291908181526020018280546111249061308e565b80156111715780601f1061114657610100808354040283529160200191611171565b820191906000526020600020905b81548152906001019060200180831161115457829003601f168201915b5050505050905090565b61118d611186611a51565b8383611ca3565b5050565b62278d0081565b600660009054906101000a900473ffffffffffffffffffffffffffffffffffffffff1673ffffffffffffffffffffffffffffffffffffffff16636b074a07336040518263ffffffff1660e01b81526004016111f39190612979565b602060405180830381865afa158015611210573d6000803e3d6000fd5b505050506040513d601f19601f820116820180604052508101906112349190613427565b611273576040517f08c379a000000000000000000000000000000000000000000000000000000000815260040161126a906134c6565b60405180910390fd5b60646063600f5461128491906134e6565b61128e9190613557565b601154116112d1576040517f08c379a00000000000000000000000000000000000000000000000000000000081526004016112c8906135fa565b60405180910390fd5b33601060006101000a81548173ffffffffffffffffffffffffffffffffffffffff021916908373ffffffffffffffffffffffffffffffffffffffff160217905550565b601060009054906101000a900473ffffffffffffffffffffffffffffffffffffffff1673ffffffffffffffffffffffffffffffffffffffff163373ffffffffffffffffffffffffffffffffffffffff16146113a4576040517f08c379a000000000000000000000000000000000000000000000000000000000815260040161139b9061368c565b60405180910390fd5b80601290816113b39190613858565b5060003373ffffffffffffffffffffffffffffffffffffffff166108fc600f549081150290604051600060405180830381858888f1935050505090508061142f576040517f08c379a0000000000000000000000000000000000000000000000000000000008152600401611426906133f2565b60405180910390fd5b5050565b61143b61269d565b6000604051806101800160405280600660009054906101000a900473ffffffffffffffffffffffffffffffffffffffff1673ffffffffffffffffffffffffffffffffffffffff168152602001600754815260200160085481526020016009548152602001600a548152602001600b80546114b49061308e565b80601f01602080910402602001604051908101604052809291908181526020018280546114e09061308e565b801561152d5780601f106115025761010080835404028352916020019161152d565b820191906000526020600020905b81548152906001019060200180831161151057829003601f168201915b50505050508152602001600c80546115449061308e565b80601f01602080910402602001604051908101604052809291908181526020018280546115709061308e565b80156115bd5780601f10611592576101008083540402835291602001916115bd565b820191906000526020600020905b8154815290600101906020018083116115a057829003601f168201915b50505050508152602001600d80546115d49061308e565b80601f01602080910402602001604051908101604052809291908181526020018280546116009061308e565b801561164d5780601f106116225761010080835404028352916020019161164d565b820191906000526020600020905b81548152906001019060200180831161163057829003601f168201915b50505050508152602001600e548152602001600f548152602001601060009054906101000a900473ffffffffffffffffffffffffffffffffffffffff1673ffffffffffffffffffffffffffffffffffffffff16815260200160115481525090508091505090565b6116bf848484610bb5565b6116cb84848484611e12565b50505050565b60135481565b60606116e28261198c565b5060006116ed611fc9565b9050600081511161170d5760405180602001604052806000815250611738565b8061171784611fe0565b604051602001611728929190613966565b6040516020818303038152906040525b915050919050565b600f5481565b600b80546117539061308e565b80601f016020809104026020016040519081016040528092919081815260200182805461177f9061308e565b80156117cc5780601f106117a1576101008083540402835291602001916117cc565b820191906000526020600020905b8154815290600101906020018083116117af57829003601f168201915b505050505081565b600660009054906101000a900473ffffffffffffffffffffffffffffffffffffffff1681565b600c80546118079061308e565b80601f01602080910402602001604051908101604052809291908181526020018280546118339061308e565b80156118805780601f1061185557610100808354040283529160200191611880565b820191906000526020600020905b81548152906001019060200180831161186357829003601f168201915b505050505081565b6000600560008473ffffffffffffffffffffffffffffffffffffffff1673ffffffffffffffffffffffffffffffffffffffff16815260200190815260200160002060008373ffffffffffffffffffffffffffffffffffffffff1673ffffffffffffffffffffffffffffffffffffffff16815260200190815260200160002060009054906101000a900460ff16905092915050565b60115481565b60007f01ffc9a7000000000000000000000000000000000000000000000000000000007bffffffffffffffffffffffffffffffffffffffffffffffffffffffff1916827bffffffffffffffffffffffffffffffffffffffffffffffffffffffff1916149050919050565b600080611998836120ae565b9050600073ffffffffffffffffffffffffffffffffffffffff168173ffffffffffffffffffffffffffffffffffffffff1603611a0b57826040517f7e273289000000000000000000000000000000000000000000000000000000008152600401611a029190612812565b60405180910390fd5b80915050919050565b60006004600083815260200190815260200160002060009054906101000a900473ffffffffffffffffffffffffffffffffffffffff169050919050565b600033905090565b611a6683838360016120eb565b505050565b611a858282604051806020016040528060008152506122b0565b5050565b600080611a95846120ae565b9050600073ffffffffffffffffffffffffffffffffffffffff168373ffffffffffffffffffffffffffffffffffffffff1614611ad757611ad68184866122cc565b5b600073ffffffffffffffffffffffffffffffffffffffff168173ffffffffffffffffffffffffffffffffffffffff1614611b6857611b196000856000806120eb565b6001600360008373ffffffffffffffffffffffffffffffffffffffff1673ffffffffffffffffffffffffffffffffffffffff168152602001908152602001600020600082825403925050819055505b600073ffffffffffffffffffffffffffffffffffffffff168573ffffffffffffffffffffffffffffffffffffffff1614611beb576001600360008773ffffffffffffffffffffffffffffffffffffffff1673ffffffffffffffffffffffffffffffffffffffff168152602001908152602001600020600082825401925050819055505b846002600086815260200190815260200160002060006101000a81548173ffffffffffffffffffffffffffffffffffffffff021916908373ffffffffffffffffffffffffffffffffffffffff160217905550838573ffffffffffffffffffffffffffffffffffffffff168273ffffffffffffffffffffffffffffffffffffffff167fddf252ad1be2c89b69c2b068fc378daa952ba7f163c4a11628f55a4df523b3ef60405160405180910390a4809150509392505050565b600073ffffffffffffffffffffffffffffffffffffffff168273ffffffffffffffffffffffffffffffffffffffff1603611d1457816040517f5b08ba18000000000000000000000000000000000000000000000000000000008152600401611d0b9190612979565b60405180910390fd5b80600560008573ffffffffffffffffffffffffffffffffffffffff1673ffffffffffffffffffffffffffffffffffffffff16815260200190815260200160002060008473ffffffffffffffffffffffffffffffffffffffff1673ffffffffffffffffffffffffffffffffffffffff16815260200190815260200160002060006101000a81548160ff0219169083151502179055508173ffffffffffffffffffffffffffffffffffffffff168373ffffffffffffffffffffffffffffffffffffffff167f17307eab39ab6107e8899845ad3d59bd9653f200f220920489ca2b5937696c3183604051611e0591906127de565b60405180910390a3505050565b60008373ffffffffffffffffffffffffffffffffffffffff163b1115611fc3578273ffffffffffffffffffffffffffffffffffffffff1663150b7a02611e56611a51565b8685856040518563ffffffff1660e01b8152600401611e7894939291906139df565b6020604051808303816000875af1925050508015611eb457506040513d601f19601f82011682018060405250810190611eb19190613a40565b60015b611f38573d8060008114611ee4576040519150601f19603f3d011682016040523d82523d6000602084013e611ee9565b606091505b506000815103611f3057836040517f64a0ae92000000000000000000000000000000000000000000000000000000008152600401611f279190612979565b60405180910390fd5b805181602001fd5b63150b7a0260e01b7bffffffffffffffffffffffffffffffffffffffffffffffffffffffff1916817bffffffffffffffffffffffffffffffffffffffffffffffffffffffff191614611fc157836040517f64a0ae92000000000000000000000000000000000000000000000000000000008152600401611fb89190612979565b60405180910390fd5b505b50505050565b606060405180602001604052806000815250905090565b606060006001611fef84612390565b01905060008167ffffffffffffffff81111561200e5761200d612af6565b5b6040519080825280601f01601f1916602001820160405280156120405781602001600182028036833780820191505090505b509050600082602001820190505b6001156120a3578080600190039150507f3031323334353637383961626364656600000000000000000000000000000000600a86061a8153600a858161209757612096613528565b5b0494506000850361204e575b819350505050919050565b60006002600083815260200190815260200160002060009054906101000a900473ffffffffffffffffffffffffffffffffffffffff169050919050565b80806121245750600073ffffffffffffffffffffffffffffffffffffffff168273ffffffffffffffffffffffffffffffffffffffff1614155b156122585760006121348461198c565b9050600073ffffffffffffffffffffffffffffffffffffffff168373ffffffffffffffffffffffffffffffffffffffff161415801561219f57508273ffffffffffffffffffffffffffffffffffffffff168173ffffffffffffffffffffffffffffffffffffffff1614155b80156121b257506121b08184611888565b155b156121f457826040517fa9fbf51f0000000000000000000000000000000000000000000000000000000081526004016121eb9190612979565b60405180910390fd5b811561225657838573ffffffffffffffffffffffffffffffffffffffff168273ffffffffffffffffffffffffffffffffffffffff167f8c5be1e5ebec7d5bd14f71427d1e84f3dd0314c0f7b2291e5b200ac8c7c3b92560405160405180910390a45b505b836004600085815260200190815260200160002060006101000a81548173ffffffffffffffffffffffffffffffffffffffff021916908373ffffffffffffffffffffffffffffffffffffffff16021790555050505050565b6122ba83836124e3565b6122c76000848484611e12565b505050565b6122d78383836125dc565b61238b57600073ffffffffffffffffffffffffffffffffffffffff168373ffffffffffffffffffffffffffffffffffffffff160361234c57806040517f7e2732890000000000000000000000000000000000000000000000000000000081526004016123439190612812565b60405180910390fd5b81816040517f177e802f000000000000000000000000000000000000000000000000000000008152600401612382929190613a6d565b60405180910390fd5b505050565b600080600090507a184f03e93ff9f4daa797ed6e38ed64bf6a1f01000000000000000083106123ee577a184f03e93ff9f4daa797ed6e38ed64bf6a1f01000000000000000083816123e4576123e3613528565b5b0492506040810190505b6d04ee2d6d415b85acef8100000000831061242b576d04ee2d6d415b85acef8100000000838161242157612420613528565b5b0492506020810190505b662386f26fc10000831061245a57662386f26fc1000083816124505761244f613528565b5b0492506010810190505b6305f5e1008310612483576305f5e100838161247957612478613528565b5b0492506008810190505b61271083106124a857612710838161249e5761249d613528565b5b0492506004810190505b606483106124cb57606483816124c1576124c0613528565b5b0492506002810190505b600a83106124da576001810190505b80915050919050565b600073ffffffffffffffffffffffffffffffffffffffff168273ffffffffffffffffffffffffffffffffffffffff16036125555760006040517f64a0ae9200000000000000000000000000000000000000000000000000000000815260040161254c9190612979565b60405180910390fd5b600061256383836000611a89565b9050600073ffffffffffffffffffffffffffffffffffffffff168173ffffffffffffffffffffffffffffffffffffffff16146125d75760006040517f73c6ac6e0000000000000000000000000000000000000000000000000000000081526004016125ce9190612979565b60405180910390fd5b505050565b60008073ffffffffffffffffffffffffffffffffffffffff168373ffffffffffffffffffffffffffffffffffffffff161415801561269457508273ffffffffffffffffffffffffffffffffffffffff168473ffffffffffffffffffffffffffffffffffffffff16148061265557506126548484611888565b5b8061269357508273ffffffffffffffffffffffffffffffffffffffff1661267b83611a14565b73ffffffffffffffffffffffffffffffffffffffff16145b5b90509392505050565b604051806101800160405280600073ffffffffffffffffffffffffffffffffffffffff168152602001600081526020016000815260200160008152602001600081526020016060815260200160608152602001606081526020016000815260200160008152602001600073ffffffffffffffffffffffffffffffffffffffff168152602001600081525090565b6000604051905090565b600080fd5b600080fd5b60007fffffffff0000000000000000000000000000000000000000000000000000000082169050919050565b6127738161273e565b811461277e57600080fd5b50565b6000813590506127908161276a565b92915050565b6000602082840312156127ac576127ab612734565b5b60006127ba84828501612781565b91505092915050565b60008115159050919050565b6127d8816127c3565b82525050565b60006020820190506127f360008301846127cf565b92915050565b6000819050919050565b61280c816127f9565b82525050565b60006020820190506128276000830184612803565b92915050565b600081519050919050565b600082825260208201905092915050565b60005b8381101561286757808201518184015260208101905061284c565b60008484015250505050565b6000601f19601f8301169050919050565b600061288f8261282d565b6128998185612838565b93506128a9818560208601612849565b6128b281612873565b840191505092915050565b600060208201905081810360008301526128d78184612884565b905092915050565b6128e8816127f9565b81146128f357600080fd5b50565b600081359050612905816128df565b92915050565b60006020828403121561292157612920612734565b5b600061292f848285016128f6565b91505092915050565b600073ffffffffffffffffffffffffffffffffffffffff82169050919050565b600061296382612938565b9050919050565b61297381612958565b82525050565b600060208201905061298e600083018461296a565b92915050565b61299d81612958565b81146129a857600080fd5b50565b6000813590506129ba81612994565b92915050565b600080604083850312156129d7576129d6612734565b5b60006129e5858286016129ab565b92505060206129f6858286016128f6565b9150509250929050565b600080600060608486031215612a1957612a18612734565b5b6000612a27868287016129ab565b9350506020612a38868287016129ab565b9250506040612a49868287016128f6565b9150509250925092565b600060208284031215612a6957612a68612734565b5b6000612a77848285016129ab565b91505092915050565b612a89816127c3565b8114612a9457600080fd5b50565b600081359050612aa681612a80565b92915050565b60008060408385031215612ac357612ac2612734565b5b6000612ad1858286016129ab565b9250506020612ae285828601612a97565b9150509250929050565b600080fd5b600080fd5b7f4e487b7100000000000000000000000000000000000000000000000000000000600052604160045260246000fd5b612b2e82612873565b810181811067ffffffffffffffff82111715612b4d57612b4c612af6565b5b80604052505050565b6000612b6061272a565b9050612b6c8282612b25565b919050565b600067ffffffffffffffff821115612b8c57612b8b612af6565b5b612b9582612873565b9050602081019050919050565b82818337600083830152505050565b6000612bc4612bbf84612b71565b612b56565b905082815260208101848484011115612be057612bdf612af1565b5b612beb848285612ba2565b509392505050565b600082601f830112612c0857612c07612aec565b5b8135612c18848260208601612bb1565b91505092915050565b600060208284031215612c3757612c36612734565b5b600082013567ffffffffffffffff811115612c5557612c54612739565b5b612c6184828501612bf3565b91505092915050565b612c7381612958565b82525050565b612c82816127f9565b82525050565b600082825260208201905092915050565b6000612ca48261282d565b612cae8185612c88565b9350612cbe818560208601612849565b612cc781612873565b840191505092915050565b600061018083016000830151612ceb6000860182612c6a565b506020830151612cfe6020860182612c79565b506040830151612d116040860182612c79565b506060830151612d246060860182612c79565b506080830151612d376080860182612c79565b5060a083015184820360a0860152612d4f8282612c99565b91505060c083015184820360c0860152612d698282612c99565b91505060e083015184820360e0860152612d838282612c99565b915050610100830151612d9a610100860182612c79565b50610120830151612daf610120860182612c79565b50610140830151612dc4610140860182612c6a565b50610160830151612dd9610160860182612c79565b508091505092915050565b60006020820190508181036000830152612dfe8184612cd2565b905092915050565b600067ffffffffffffffff821115612e2157612e20612af6565b5b612e2a82612873565b9050602081019050919050565b6000612e4a612e4584612e06565b612b56565b905082815260208101848484011115612e6657612e65612af1565b5b612e71848285612ba2565b509392505050565b600082601f830112612e8e57612e8d612aec565b5b8135612e9e848260208601612e37565b91505092915050565b60008060008060808587031215612ec157612ec0612734565b5b6000612ecf878288016129ab565b9450506020612ee0878288016129ab565b9350506040612ef1878288016128f6565b925050606085013567ffffffffffffffff811115612f1257612f11612739565b5b612f1e87828801612e79565b91505092959194509250565b60008060408385031215612f4157612f40612734565b5b6000612f4f858286016129ab565b9250506020612f60858286016129ab565b9150509250929050565b7f4e487b7100000000000000000000000000000000000000000000000000000000600052601160045260246000fd5b6000612fa4826127f9565b9150612faf836127f9565b9250828201905080821115612fc757612fc6612f6a565b5b92915050565b7f63616e6e6f7420636f6e74726962757465206d6f7265207468616e207468652060008201527f66756e64696e6720746172676574000000000000000000000000000000000000602082015250565b6000613029602e83612838565b915061303482612fcd565b604082019050919050565b600060208201905081810360008301526130588161301c565b9050919050565b7f4e487b7100000000000000000000000000000000000000000000000000000000600052602260045260246000fd5b600060028204905060018216806130a657607f821691505b6020821081036130b9576130b861305f565b5b50919050565b7f5573657220646964206e6f7420636f6e74726962757465000000000000000000600082015250565b60006130f5601783612838565b9150613100826130bf565b602082019050919050565b60006020820190508181036000830152613124816130e8565b9050919050565b7f50726f706f73616c206973206e6f7420636f6d706c6574650000000000000000600082015250565b6000613161601883612838565b915061316c8261312b565b602082019050919050565b6000602082019050818103600083015261319081613154565b9050919050565b60006131a2826127f9565b91507fffffffffffffffffffffffffffffffffffffffffffffffffffffffffffffffff82036131d4576131d3612f6a565b5b600182019050919050565b60006060820190506131f4600083018661296a565b6132016020830185612803565b61320e604083018461296a565b949350505050565b7f50726f706f73616c2068617320616c7265616479206265656e2061636365707460008201527f6564000000000000000000000000000000000000000000000000000000000000602082015250565b6000613272602283612838565b915061327d82613216565b604082019050919050565b600060208201905081810360008301526132a181613265565b9050919050565b7f4e6f2066756e647320746f20726566756e640000000000000000000000000000600082015250565b60006132de601283612838565b91506132e9826132a8565b602082019050919050565b6000602082019050818103600083015261330d816132d1565b9050919050565b7f66756e64696e6720646561646c696e6520686173206e6f74206265656e20726560008201527f6163686564000000000000000000000000000000000000000000000000000000602082015250565b6000613370602583612838565b915061337b82613314565b604082019050919050565b6000602082019050818103600083015261339f81613363565b9050919050565b7f4661696c656420746f2073656e64204574686572000000000000000000000000600082015250565b60006133dc601483612838565b91506133e7826133a6565b602082019050919050565b6000602082019050818103600083015261340b816133cf565b9050919050565b60008151905061342181612a80565b92915050565b60006020828403121561343d5761343c612734565b5b600061344b84828501613412565b91505092915050565b7f4f6e6c792070726f7669646572732063616e206163636570742070726f706f7360008201527f616c730000000000000000000000000000000000000000000000000000000000602082015250565b60006134b0602383612838565b91506134bb82613454565b604082019050919050565b600060208201905081810360008301526134df816134a3565b9050919050565b60006134f1826127f9565b91506134fc836127f9565b925082820261350a816127f9565b9150828204841483151761352157613520612f6a565b5b5092915050565b7f4e487b7100000000000000000000000000000000000000000000000000000000600052601260045260246000fd5b6000613562826127f9565b915061356d836127f9565b92508261357d5761357c613528565b5b828204905092915050565b7f70726f706f73616c20686173206e6f74206265656e2066756c6c792066756e6460008201527f6564000000000000000000000000000000000000000000000000000000000000602082015250565b60006135e4602283612838565b91506135ef82613588565b604082019050919050565b60006020820190508181036000830152613613816135d7565b9050919050565b7f4f6e6c79207468652070726f76696465722063616e20636f6d706c657465207060008201527f726f706f73616c00000000000000000000000000000000000000000000000000602082015250565b6000613676602783612838565b91506136818261361a565b604082019050919050565b600060208201905081810360008301526136a581613669565b9050919050565b60008190508160005260206000209050919050565b60006020601f8301049050919050565b600082821b905092915050565b60006008830261370e7fffffffffffffffffffffffffffffffffffffffffffffffffffffffffffffffff826136d1565b61371886836136d1565b95508019841693508086168417925050509392505050565b6000819050919050565b600061375561375061374b846127f9565b613730565b6127f9565b9050919050565b6000819050919050565b61376f8361373a565b61378361377b8261375c565b8484546136de565b825550505050565b600090565b61379861378b565b6137a3818484613766565b505050565b5b818110156137c7576137bc600082613790565b6001810190506137a9565b5050565b601f82111561380c576137dd816136ac565b6137e6846136c1565b810160208510156137f5578190505b613809613801856136c1565b8301826137a8565b50505b505050565b600082821c905092915050565b600061382f60001984600802613811565b1980831691505092915050565b6000613848838361381e565b9150826002028217905092915050565b6138618261282d565b67ffffffffffffffff81111561387a57613879612af6565b5b613884825461308e565b61388f8282856137cb565b600060209050601f8311600181146138c257600084156138b0578287015190505b6138ba858261383c565b865550613922565b601f1984166138d0866136ac565b60005b828110156138f8578489015182556001820191506020850194506020810190506138d3565b868310156139155784890151613911601f89168261381e565b8355505b6001600288020188555050505b505050505050565b600081905092915050565b60006139408261282d565b61394a818561392a565b935061395a818560208601612849565b80840191505092915050565b60006139728285613935565b915061397e8284613935565b91508190509392505050565b600081519050919050565b600082825260208201905092915050565b60006139b18261398a565b6139bb8185613995565b93506139cb818560208601612849565b6139d481612873565b840191505092915050565b60006080820190506139f4600083018761296a565b613a01602083018661296a565b613a0e6040830185612803565b8181036060830152613a2081846139a6565b905095945050505050565b600081519050613a3a8161276a565b92915050565b600060208284031215613a5657613a55612734565b5b6000613a6484828501613a2b565b91505092915050565b6000604082019050613a82600083018561296a565b613a8f6020830184612803565b939250505056fea264697066735822122057b2c619a8d33053a2b1d0824ad95727f2b273dbf540f825ad5da6b42d187b3364736f6c63430008180033a26469706673582212205f6d59e5f6284558b1b641868a25c4a76149a4673b5a6aa0cb0d76cce8aa18d764736f6c63430008180033",
  "linkReferences": {},
  "deployedLinkReferences": {}
}