{
  "_format": "hh-sol-artifact-1",
  "contractName": "Deployer",
  "sourceName": "contracts/Deployer.sol",
  "abi": [
    {
      "inputs": [],
      "stateMutability": "nonpayable",
      "type": "constructor"
    },
    {
      "inputs": [
        {
          "internalType": "address",
          "name": "_address",
          "type": "address"
        }
      ],
      "name": "AddProvider",
      "outputs": [],
      "stateMutability": "nonpayable",
      "type": "function"
    },
    {
      "inputs": [
        {
          "internalType": "uint256",
          "name": "_startDay",
          "type": "uint256"
        },
        {
          "internalType": "uint256",
          "name": "_endDay",
          "type": "uint256"
        },
        {
          "internalType": "uint256",
          "name": "_lat",
          "type": "uint256"
        },
        {
          "internalType": "uint256",
          "name": "_long",
          "type": "uint256"
        },
        {
          "internalType": "string",
          "name": "_target",
          "type": "string"
        },
        {
          "internalType": "bool",
          "name": "_contentType",
          "type": "bool"
        },
        {
          "internalType": "string",
          "name": "_contentMessage",
          "type": "string"
        }
      ],
      "name": "CreateProposal",
      "outputs": [],
      "stateMutability": "nonpayable",
      "type": "function"
    },
    {
      "inputs": [
        {
          "internalType": "address",
          "name": "_address",
          "type": "address"
        }
      ],
      "name": "IsProvider",
      "outputs": [
        {
          "internalType": "bool",
          "name": "",
          "type": "bool"
        }
      ],
      "stateMutability": "view",
      "type": "function"
    },
    {
      "inputs": [],
      "name": "owner",
      "outputs": [
        {
          "internalType": "address",
          "name": "",
          "type": "address"
        }
      ],
      "stateMutability": "view",
      "type": "function"
    },
    {
      "inputs": [
        {
          "internalType": "uint256",
          "name": "",
          "type": "uint256"
        }
      ],
      "name": "proposals",
      "outputs": [
        {
          "internalType": "address",
          "name": "",
          "type": "address"
        }
      ],
      "stateMutability": "view",
      "type": "function"
    },
    {
      "inputs": [
        {
          "internalType": "address",
          "name": "",
          "type": "address"
        }
      ],
      "name": "providers",
      "outputs": [
        {
          "internalType": "bool",
          "name": "",
          "type": "bool"
        }
      ],
      "stateMutability": "view",
      "type": "function"
    }
  ],
  "bytecode": "0x608060405234801561001057600080fd5b50336000806101000a81548173ffffffffffffffffffffffffffffffffffffffff021916908373ffffffffffffffffffffffffffffffffffffffff1602179055506120ee806100606000396000f3fe60806040523480156200001157600080fd5b50600436106200006a5760003560e01c8063013cf08b146200006f5780630787bc2714620000a5578063635a554d14620000db57806385f9c74414620000fb5780638da5cb5b1462000131578063ed40f4701462000153575b600080fd5b6200008d60048036038101906200008791906200041f565b62000173565b6040516200009c919062000496565b60405180910390f35b620000c36004803603810190620000bd9190620004e4565b620001b3565b604051620000d2919062000533565b60405180910390f35b620000f96004803603810190620000f39190620004e4565b620001d3565b005b620001196004803603810190620001139190620004e4565b62000283565b60405162000128919062000533565b60405180910390f35b6200013b620002e0565b6040516200014a919062000496565b60405180910390f35b6200017160048036038101906200016b9190620006e3565b62000304565b005b600181815481106200018457600080fd5b906000526020600020016000915054906101000a900473ffffffffffffffffffffffffffffffffffffffff1681565b60026020528060005260406000206000915054906101000a900460ff1681565b60008054906101000a900473ffffffffffffffffffffffffffffffffffffffff1673ffffffffffffffffffffffffffffffffffffffff163373ffffffffffffffffffffffffffffffffffffffff160362000280576001600260008373ffffffffffffffffffffffffffffffffffffffff1673ffffffffffffffffffffffffffffffffffffffff16815260200190815260200160002060006101000a81548160ff0219169083151502179055505b50565b600060011515600260008473ffffffffffffffffffffffffffffffffffffffff1673ffffffffffffffffffffffffffffffffffffffff16815260200190815260200160002060009054906101000a900460ff161515149050919050565b60008054906101000a900473ffffffffffffffffffffffffffffffffffffffff1681565b6000309050600081898989898989896040516200032190620003c2565b620003349897969594939291906200086e565b604051809103906000f08015801562000351573d6000803e3d6000fd5b5090506001819080600181540180825580915050600190039060005260206000200160009091909190916101000a81548173ffffffffffffffffffffffffffffffffffffffff021916908373ffffffffffffffffffffffffffffffffffffffff160217905550505050505050505050565b6117ae806200090b83390190565b6000604051905090565b600080fd5b600080fd5b6000819050919050565b620003f981620003e4565b81146200040557600080fd5b50565b6000813590506200041981620003ee565b92915050565b600060208284031215620004385762000437620003da565b5b6000620004488482850162000408565b91505092915050565b600073ffffffffffffffffffffffffffffffffffffffff82169050919050565b60006200047e8262000451565b9050919050565b620004908162000471565b82525050565b6000602082019050620004ad600083018462000485565b92915050565b620004be8162000471565b8114620004ca57600080fd5b50565b600081359050620004de81620004b3565b92915050565b600060208284031215620004fd57620004fc620003da565b5b60006200050d84828501620004cd565b91505092915050565b60008115159050919050565b6200052d8162000516565b82525050565b60006020820190506200054a600083018462000522565b92915050565b600080fd5b600080fd5b6000601f19601f8301169050919050565b7f4e487b7100000000000000000000000000000000000000000000000000000000600052604160045260246000fd5b620005a5826200055a565b810181811067ffffffffffffffff82111715620005c757620005c66200056b565b5b80604052505050565b6000620005dc620003d0565b9050620005ea82826200059a565b919050565b600067ffffffffffffffff8211156200060d576200060c6200056b565b5b62000618826200055a565b9050602081019050919050565b82818337600083830152505050565b60006200064b6200064584620005ef565b620005d0565b9050828152602081018484840111156200066a576200066962000555565b5b6200067784828562000625565b509392505050565b600082601f83011262000697576200069662000550565b5b8135620006a984826020860162000634565b91505092915050565b620006bd8162000516565b8114620006c957600080fd5b50565b600081359050620006dd81620006b2565b92915050565b600080600080600080600060e0888a031215620007055762000704620003da565b5b6000620007158a828b0162000408565b9750506020620007288a828b0162000408565b96505060406200073b8a828b0162000408565b95505060606200074e8a828b0162000408565b945050608088013567ffffffffffffffff811115620007725762000771620003df565b5b620007808a828b016200067f565b93505060a0620007938a828b01620006cc565b92505060c088013567ffffffffffffffff811115620007b757620007b6620003df565b5b620007c58a828b016200067f565b91505092959891949750929550565b620007df81620003e4565b82525050565b600081519050919050565b600082825260208201905092915050565b60005b838110156200082157808201518184015260208101905062000804565b60008484015250505050565b60006200083a82620007e5565b620008468185620007f0565b93506200085881856020860162000801565b62000863816200055a565b840191505092915050565b60006101008201905062000886600083018b62000485565b62000895602083018a620007d4565b620008a46040830189620007d4565b620008b36060830188620007d4565b620008c26080830187620007d4565b81810360a0830152620008d681866200082d565b9050620008e760c083018562000522565b81810360e0830152620008fb81846200082d565b9050999850505050505050505056fe60806040523480156200001157600080fd5b50604051620017ae380380620017ae8339818101604052810190620000379190620003df565b876000806101000a81548173ffffffffffffffffffffffffffffffffffffffff021916908373ffffffffffffffffffffffffffffffffffffffff160217905550866001819055508560028190555084600381905550836004819055508260059081620000a4919062000727565b508060069081620000b6919062000727565b5081600760006101000a81548160ff02191690831515021790555060011515600760009054906101000a900460ff1615150362000102576753444835ec58000060098190555062000112565b670de0b6b3a76400006009819055505b62278d00603c8060186001546200012a91906200083d565b6200013691906200083d565b6200014291906200083d565b426200014f919062000888565b6200015b9190620008c3565b6008819055505050505050505050620008fe565b6000604051905090565b600080fd5b600080fd5b600073ffffffffffffffffffffffffffffffffffffffff82169050919050565b6000620001b08262000183565b9050919050565b620001c281620001a3565b8114620001ce57600080fd5b50565b600081519050620001e281620001b7565b92915050565b6000819050919050565b620001fd81620001e8565b81146200020957600080fd5b50565b6000815190506200021d81620001f2565b92915050565b600080fd5b600080fd5b6000601f19601f8301169050919050565b7f4e487b7100000000000000000000000000000000000000000000000000000000600052604160045260246000fd5b62000278826200022d565b810181811067ffffffffffffffff821117156200029a57620002996200023e565b5b80604052505050565b6000620002af6200016f565b9050620002bd82826200026d565b919050565b600067ffffffffffffffff821115620002e057620002df6200023e565b5b620002eb826200022d565b9050602081019050919050565b60005b8381101562000318578082015181840152602081019050620002fb565b60008484015250505050565b60006200033b6200033584620002c2565b620002a3565b9050828152602081018484840111156200035a576200035962000228565b5b62000367848285620002f8565b509392505050565b600082601f83011262000387576200038662000223565b5b81516200039984826020860162000324565b91505092915050565b60008115159050919050565b620003b981620003a2565b8114620003c557600080fd5b50565b600081519050620003d981620003ae565b92915050565b600080600080600080600080610100898b03121562000403576200040262000179565b5b6000620004138b828c01620001d1565b9850506020620004268b828c016200020c565b9750506040620004398b828c016200020c565b96505060606200044c8b828c016200020c565b95505060806200045f8b828c016200020c565b94505060a089015167ffffffffffffffff8111156200048357620004826200017e565b5b620004918b828c016200036f565b93505060c0620004a48b828c01620003c8565b92505060e089015167ffffffffffffffff811115620004c857620004c76200017e565b5b620004d68b828c016200036f565b9150509295985092959890939650565b600081519050919050565b7f4e487b7100000000000000000000000000000000000000000000000000000000600052602260045260246000fd5b600060028204905060018216806200053957607f821691505b6020821081036200054f576200054e620004f1565b5b50919050565b60008190508160005260206000209050919050565b60006020601f8301049050919050565b600082821b905092915050565b600060088302620005b97fffffffffffffffffffffffffffffffffffffffffffffffffffffffffffffffff826200057a565b620005c586836200057a565b95508019841693508086168417925050509392505050565b6000819050919050565b60006200060862000602620005fc84620001e8565b620005dd565b620001e8565b9050919050565b6000819050919050565b6200062483620005e7565b6200063c62000633826200060f565b84845462000587565b825550505050565b600090565b6200065362000644565b6200066081848462000619565b505050565b5b8181101562000688576200067c60008262000649565b60018101905062000666565b5050565b601f821115620006d757620006a18162000555565b620006ac846200056a565b81016020851015620006bc578190505b620006d4620006cb856200056a565b83018262000665565b50505b505050565b600082821c905092915050565b6000620006fc60001984600802620006dc565b1980831691505092915050565b6000620007178383620006e9565b9150826002028217905092915050565b6200073282620004e6565b67ffffffffffffffff8111156200074e576200074d6200023e565b5b6200075a825462000520565b620007678282856200068c565b600060209050601f8311600181146200079f57600084156200078a578287015190505b62000796858262000709565b86555062000806565b601f198416620007af8662000555565b60005b82811015620007d957848901518255600182019150602085019450602081019050620007b2565b86831015620007f95784890151620007f5601f891682620006e9565b8355505b6001600288020188555050505b505050505050565b7f4e487b7100000000000000000000000000000000000000000000000000000000600052601160045260246000fd5b60006200084a82620001e8565b91506200085783620001e8565b92508282026200086781620001e8565b915082820484148315176200088157620008806200080e565b5b5092915050565b60006200089582620001e8565b9150620008a283620001e8565b9250828201905080821115620008bd57620008bc6200080e565b5b92915050565b6000620008d082620001e8565b9150620008dd83620001e8565b9250828203905081811115620008f857620008f76200080e565b5b92915050565b610ea0806200090e6000396000f3fe6080604052600436106101025760003560e01c8063796b23bb11610095578063d4b8399211610064578063d4b83992146102f2578063d5f394881461031d578063d7bb99ba14610348578063e21f37ce14610352578063f9c36fde1461037d57610111565b8063796b23bb1461025a578063ae08ed5c14610285578063af3b19e5146102b0578063d411eccb146102c757610111565b806336ebffca116100d157806336ebffca146101c257806355d576cc146101ed5780635600f04f14610218578063590e1ae31461024357610111565b80630539272a1461011657806307bfce3714610141578063085d48831461016c578063158626691461019757610111565b366101115761010f6103a8565b005b600080fd5b34801561012257600080fd5b5061012b610471565b6040516101389190610928565b60405180910390f35b34801561014d57600080fd5b50610156610477565b6040516101639190610928565b60405180910390f35b34801561017857600080fd5b5061018161047d565b60405161018e9190610984565b60405180910390f35b3480156101a357600080fd5b506101ac6104a3565b6040516101b99190610928565b60405180910390f35b3480156101ce57600080fd5b506101d76104a9565b6040516101e491906109ba565b60405180910390f35b3480156101f957600080fd5b506102026104bc565b60405161020f9190610928565b60405180910390f35b34801561022457600080fd5b5061022d6104c2565b60405161023a9190610a65565b60405180910390f35b34801561024f57600080fd5b50610258610550565b005b34801561026657600080fd5b5061026f61076e565b60405161027c9190610928565b60405180910390f35b34801561029157600080fd5b5061029a610774565b6040516102a79190610928565b60405180910390f35b3480156102bc57600080fd5b506102c561077b565b005b3480156102d357600080fd5b506102dc6107c3565b6040516102e99190610928565b60405180910390f35b3480156102fe57600080fd5b506103076107c9565b6040516103149190610a65565b60405180910390f35b34801561032957600080fd5b50610332610857565b60405161033f9190610984565b60405180910390f35b6103506103a8565b005b34801561035e57600080fd5b5061036761087b565b6040516103749190610a65565b60405180910390f35b34801561038957600080fd5b50610392610909565b60405161039f9190610928565b60405180910390f35b600034905060095481600b546103be9190610ab6565b11156103ff576040517f08c379a00000000000000000000000000000000000000000000000000000000081526004016103f690610b5c565b60405180910390fd5b80600b60008282546104119190610ab6565b9250508190555080600d60003373ffffffffffffffffffffffffffffffffffffffff1673ffffffffffffffffffffffffffffffffffffffff16815260200190815260200160002060008282546104679190610ab6565b9250508190555050565b60015481565b60045481565b600a60009054906101000a900473ffffffffffffffffffffffffffffffffffffffff1681565b60025481565b600760009054906101000a900460ff1681565b60035481565b600c80546104cf90610bab565b80601f01602080910402602001604051908101604052809291908181526020018280546104fb90610bab565b80156105485780601f1061051d57610100808354040283529160200191610548565b820191906000526020600020905b81548152906001019060200180831161052b57829003601f168201915b505050505081565b6000600d60003373ffffffffffffffffffffffffffffffffffffffff1673ffffffffffffffffffffffffffffffffffffffff168152602001908152602001600020549050600073ffffffffffffffffffffffffffffffffffffffff16600a60009054906101000a900473ffffffffffffffffffffffffffffffffffffffff1673ffffffffffffffffffffffffffffffffffffffff1614610625576040517f08c379a000000000000000000000000000000000000000000000000000000000815260040161061c90610c4e565b60405180910390fd5b60008111610668576040517f08c379a000000000000000000000000000000000000000000000000000000000815260040161065f90610cba565b60405180910390fd5b60085442116106ac576040517f08c379a00000000000000000000000000000000000000000000000000000000081526004016106a390610d4c565b60405180910390fd5b6000600d60003373ffffffffffffffffffffffffffffffffffffffff1673ffffffffffffffffffffffffffffffffffffffff1681526020019081526020016000208190555060003373ffffffffffffffffffffffffffffffffffffffff166108fc839081150290604051600060405180830381858888f1935050505090508061076a576040517f08c379a000000000000000000000000000000000000000000000000000000000815260040161076190610db8565b60405180910390fd5b5050565b60085481565b62278d0081565b600954600b54146107c1576040517f08c379a00000000000000000000000000000000000000000000000000000000081526004016107b890610e4a565b60405180910390fd5b565b60095481565b600580546107d690610bab565b80601f016020809104026020016040519081016040528092919081815260200182805461080290610bab565b801561084f5780601f106108245761010080835404028352916020019161084f565b820191906000526020600020905b81548152906001019060200180831161083257829003601f168201915b505050505081565b60008054906101000a900473ffffffffffffffffffffffffffffffffffffffff1681565b6006805461088890610bab565b80601f01602080910402602001604051908101604052809291908181526020018280546108b490610bab565b80156109015780601f106108d657610100808354040283529160200191610901565b820191906000526020600020905b8154815290600101906020018083116108e457829003601f168201915b505050505081565b600b5481565b6000819050919050565b6109228161090f565b82525050565b600060208201905061093d6000830184610919565b92915050565b600073ffffffffffffffffffffffffffffffffffffffff82169050919050565b600061096e82610943565b9050919050565b61097e81610963565b82525050565b60006020820190506109996000830184610975565b92915050565b60008115159050919050565b6109b48161099f565b82525050565b60006020820190506109cf60008301846109ab565b92915050565b600081519050919050565b600082825260208201905092915050565b60005b83811015610a0f5780820151818401526020810190506109f4565b60008484015250505050565b6000601f19601f8301169050919050565b6000610a37826109d5565b610a4181856109e0565b9350610a518185602086016109f1565b610a5a81610a1b565b840191505092915050565b60006020820190508181036000830152610a7f8184610a2c565b905092915050565b7f4e487b7100000000000000000000000000000000000000000000000000000000600052601160045260246000fd5b6000610ac18261090f565b9150610acc8361090f565b9250828201905080821115610ae457610ae3610a87565b5b92915050565b7f63616e6e6f7420636f6e74726962757465206d6f7265207468616e207468652060008201527f66756e64696e6720746172676574000000000000000000000000000000000000602082015250565b6000610b46602e836109e0565b9150610b5182610aea565b604082019050919050565b60006020820190508181036000830152610b7581610b39565b9050919050565b7f4e487b7100000000000000000000000000000000000000000000000000000000600052602260045260246000fd5b60006002820490506001821680610bc357607f821691505b602082108103610bd657610bd5610b7c565b5b50919050565b7f50726f706f73616c2068617320616c7265616479206265656e2061636365707460008201527f6564000000000000000000000000000000000000000000000000000000000000602082015250565b6000610c386022836109e0565b9150610c4382610bdc565b604082019050919050565b60006020820190508181036000830152610c6781610c2b565b9050919050565b7f4e6f2066756e647320746f20726566756e640000000000000000000000000000600082015250565b6000610ca46012836109e0565b9150610caf82610c6e565b602082019050919050565b60006020820190508181036000830152610cd381610c97565b9050919050565b7f66756e64696e6720646561646c696e6520686173206e6f74206265656e20726560008201527f6163686564000000000000000000000000000000000000000000000000000000602082015250565b6000610d366025836109e0565b9150610d4182610cda565b604082019050919050565b60006020820190508181036000830152610d6581610d29565b9050919050565b7f4661696c656420746f2073656e64204574686572000000000000000000000000600082015250565b6000610da26014836109e0565b9150610dad82610d6c565b602082019050919050565b60006020820190508181036000830152610dd181610d95565b9050919050565b7f70726f706f73616c20686173206e6f74206265656e2066756c6c792066756e6460008201527f6564000000000000000000000000000000000000000000000000000000000000602082015250565b6000610e346022836109e0565b9150610e3f82610dd8565b604082019050919050565b60006020820190508181036000830152610e6381610e27565b905091905056fea2646970667358221220d3f5875b1aa4eca0ea432397cb2b4c8db317a03131a25e6dea46df99d1032f2764736f6c63430008180033a2646970667358221220f4624c1c66044de39a7770a25b034f62fe4f08e38e53e597b82c73d7a5de3dd964736f6c63430008180033",
  "linkReferences": {},
  "deployedLinkReferences": {}
}