{"contracts/Deployer.sol":{"Deployer":{"abi":[{"inputs":[],"stateMutability":"nonpayable","type":"constructor"},{"inputs":[{"internalType":"address","name":"_address","type":"address"}],"name":"addProvider","outputs":[],"stateMutability":"nonpayable","type":"function"},{"inputs":[{"internalType":"uint256","name":"_startDay","type":"uint256"},{"internalType":"int256","name":"_lat","type":"int256"},{"internalType":"int256","name":"_long","type":"int256"},{"internalType":"string","name":"_target","type":"string"},{"internalType":"uint256","name":"_contentType","type":"uint256"},{"internalType":"string","name":"_contentMessage","type":"string"}],"name":"createProposal","outputs":[{"internalType":"contract Proposal","name":"","type":"address"}],"stateMutability":"nonpayable","type":"function"},{"inputs":[],"name":"getProposals","outputs":[{"internalType":"address[]","name":"","type":"address[]"}],"stateMutability":"view","type":"function"},{"inputs":[{"internalType":"address","name":"_address","type":"address"}],"name":"isProvider","outputs":[{"internalType":"bool","name":"","type":"bool"}],"stateMutability":"view","type":"function"},{"inputs":[],"name":"owner","outputs":[{"internalType":"address","name":"","type":"address"}],"stateMutability":"view","type":"function"},{"inputs":[{"internalType":"uint256","name":"","type":"uint256"}],"name":"proposals","outputs":[{"internalType":"address","name":"","type":"address"}],"stateMutability":"view","type":"function"},{"inputs":[{"internalType":"address","name":"","type":"address"}],"name":"providers","outputs":[{"internalType":"bool","name":"","type":"bool"}],"stateMutability":"view","type":"function"}],"evm":{"bytecode":{"linkReferences":{},"object":"608060405234801561001057600080fd5b50336000806101000a81548173ffffffffffffffffffffffffffffffffffffffff021916908373ffffffffffffffffffffffffffffffffffffffff160217905550615a13806100606000396000f3fe60806040523480156200001157600080fd5b5060043610620000885760003560e01c806362564c48116200006357806362564c4814620001195780636b074a07146200013b5780638da5cb5b1462000171578063b226f0cc14620001935762000088565b8063013cf08b146200008d5780630787bc2714620000c357806346e2577a14620000f9575b600080fd5b620000ab6004803603810190620000a5919062000508565b620001c9565b604051620000ba91906200057f565b60405180910390f35b620000e16004803603810190620000db9190620005cd565b62000209565b604051620000f091906200061c565b60405180910390f35b620001176004803603810190620001119190620005cd565b62000229565b005b62000123620002d9565b60405162000132919062000707565b60405180910390f35b620001596004803603810190620001539190620005cd565b62000369565b6040516200016891906200061c565b60405180910390f35b6200017b620003c6565b6040516200018a91906200057f565b60405180910390f35b620001b16004803603810190620001ab9190620008c8565b620003ea565b604051620001c0919062000a0d565b60405180910390f35b60018181548110620001da57600080fd5b906000526020600020016000915054906101000a900473ffffffffffffffffffffffffffffffffffffffff1681565b60026020528060005260406000206000915054906101000a900460ff1681565b60008054906101000a900473ffffffffffffffffffffffffffffffffffffffff1673ffffffffffffffffffffffffffffffffffffffff163373ffffffffffffffffffffffffffffffffffffffff1603620002d6576001600260008373ffffffffffffffffffffffffffffffffffffffff1673ffffffffffffffffffffffffffffffffffffffff16815260200190815260200160002060006101000a81548160ff0219169083151502179055505b50565b606060018054806020026020016040519081016040528092919081815260200182805480156200035f57602002820191906000526020600020905b8160009054906101000a900473ffffffffffffffffffffffffffffffffffffffff1673ffffffffffffffffffffffffffffffffffffffff168152602001906001019080831162000314575b5050505050905090565b600060011515600260008473ffffffffffffffffffffffffffffffffffffffff1673ffffffffffffffffffffffffffffffffffffffff16815260200190815260200160002060009054906101000a900460ff161515149050919050565b60008054906101000a900473ffffffffffffffffffffffffffffffffffffffff1681565b6000803090506000818989898989896040516200040790620004ab565b62000419979695949392919062000ad5565b604051809103906000f08015801562000436573d6000803e3d6000fd5b5090506001819080600181540180825580915050600190039060005260206000200160009091909190916101000a81548173ffffffffffffffffffffffffffffffffffffffff021916908373ffffffffffffffffffffffffffffffffffffffff16021790555080925050509695505050505050565b614e7d8062000b6183390190565b6000604051905090565b600080fd5b600080fd5b6000819050919050565b620004e281620004cd565b8114620004ee57600080fd5b50565b6000813590506200050281620004d7565b92915050565b600060208284031215620005215762000520620004c3565b5b60006200053184828501620004f1565b91505092915050565b600073ffffffffffffffffffffffffffffffffffffffff82169050919050565b600062000567826200053a565b9050919050565b62000579816200055a565b82525050565b60006020820190506200059660008301846200056e565b92915050565b620005a7816200055a565b8114620005b357600080fd5b50565b600081359050620005c7816200059c565b92915050565b600060208284031215620005e657620005e5620004c3565b5b6000620005f684828501620005b6565b91505092915050565b60008115159050919050565b6200061681620005ff565b82525050565b60006020820190506200063360008301846200060b565b92915050565b600081519050919050565b600082825260208201905092915050565b6000819050602082019050919050565b62000670816200055a565b82525050565b600062000684838362000665565b60208301905092915050565b6000602082019050919050565b6000620006aa8262000639565b620006b6818562000644565b9350620006c38362000655565b8060005b83811015620006fa578151620006de888262000676565b9750620006eb8362000690565b925050600181019050620006c7565b5085935050505092915050565b600060208201905081810360008301526200072381846200069d565b905092915050565b6000819050919050565b62000740816200072b565b81146200074c57600080fd5b50565b600081359050620007608162000735565b92915050565b600080fd5b600080fd5b6000601f19601f8301169050919050565b7f4e487b7100000000000000000000000000000000000000000000000000000000600052604160045260246000fd5b620007bb8262000770565b810181811067ffffffffffffffff82111715620007dd57620007dc62000781565b5b80604052505050565b6000620007f2620004b9565b9050620008008282620007b0565b919050565b600067ffffffffffffffff82111562000823576200082262000781565b5b6200082e8262000770565b9050602081019050919050565b82818337600083830152505050565b6000620008616200085b8462000805565b620007e6565b90508281526020810184848401111562000880576200087f6200076b565b5b6200088d8482856200083b565b509392505050565b600082601f830112620008ad57620008ac62000766565b5b8135620008bf8482602086016200084a565b91505092915050565b60008060008060008060c08789031215620008e857620008e7620004c3565b5b6000620008f889828a01620004f1565b96505060206200090b89828a016200074f565b95505060406200091e89828a016200074f565b945050606087013567ffffffffffffffff811115620009425762000941620004c8565b5b6200095089828a0162000895565b93505060806200096389828a01620004f1565b92505060a087013567ffffffffffffffff811115620009875762000986620004c8565b5b6200099589828a0162000895565b9150509295509295509295565b6000819050919050565b6000620009cd620009c7620009c1846200053a565b620009a2565b6200053a565b9050919050565b6000620009e182620009ac565b9050919050565b6000620009f582620009d4565b9050919050565b62000a0781620009e8565b82525050565b600060208201905062000a246000830184620009fc565b92915050565b62000a3581620004cd565b82525050565b62000a46816200072b565b82525050565b600081519050919050565b600082825260208201905092915050565b60005b8381101562000a8857808201518184015260208101905062000a6b565b60008484015250505050565b600062000aa18262000a4c565b62000aad818562000a57565b935062000abf81856020860162000a68565b62000aca8162000770565b840191505092915050565b600060e08201905062000aec600083018a6200056e565b62000afb602083018962000a2a565b62000b0a604083018862000a3b565b62000b19606083018762000a3b565b818103608083015262000b2d818662000a94565b905062000b3e60a083018562000a2a565b81810360c083015262000b52818462000a94565b90509897505050505050505056fe60806040523480156200001157600080fd5b5060405162004e7d38038062004e7d833981810160405281019062000037919062000de4565b60405180606001604052806039815260200162004e446039913962000062816200024060201b60201c565b5032600460006101000a81548173ffffffffffffffffffffffffffffffffffffffff021916908373ffffffffffffffffffffffffffffffffffffffff16021790555086600360006101000a81548173ffffffffffffffffffffffffffffffffffffffff021916908373ffffffffffffffffffffffffffffffffffffffff16021790555085600581905550846006819055508360078190555082600890816200010b919062001116565b5080600990816200011d919062001116565b5081600a819055506001600a540362000145576753444835ec580000600c8190555062000155565b670de0b6b3a7640000600c819055505b62278d00603c8060186005546200016d91906200122c565b6200017991906200122c565b6200018591906200122c565b4262000192919062001277565b6200019e9190620012b2565b600b81905550620001d130601054670de0b6b3a7640000604051806020016040528060008152506200025560201b60201c565b60106000815480929190620001e690620012ed565b919050555062000233600460009054906101000a900473ffffffffffffffffffffffffffffffffffffffff166010546001604051806020016040528060008152506200025560201b60201c565b50505050505050620016be565b806002908162000251919062001116565b5050565b600073ffffffffffffffffffffffffffffffffffffffff168473ffffffffffffffffffffffffffffffffffffffff1603620002ca5760006040517f57f447ce000000000000000000000000000000000000000000000000000000008152600401620002c191906200134b565b60405180910390fd5b600080620002df85856200030160201b60201c565b91509150620002f96000878484876200033160201b60201c565b505050505050565b60608060405191506001825283602083015260408201905060018152826020820152604081016040529250929050565b62000345858585856200040a60201b60201c565b600073ffffffffffffffffffffffffffffffffffffffff168473ffffffffffffffffffffffffffffffffffffffff1614620004035760006200038c620007d460201b60201c565b90506001845103620003ea576000620003b0600086620007dc60201b90919060201c565b90506000620003ca600086620007dc60201b90919060201c565b9050620003e2838989858589620007f060201b60201c565b505062000401565b62000400818787878787620009b360201b60201c565b5b505b5050505050565b80518251146200045757815181516040517f5b0599910000000000000000000000000000000000000000000000000000000081526004016200044e92919062001379565b60405180910390fd5b600062000469620007d460201b60201c565b905060005b8351811015620006855760006200048f8286620007dc60201b90919060201c565b90506000620004a88386620007dc60201b90919060201c565b9050600073ffffffffffffffffffffffffffffffffffffffff168873ffffffffffffffffffffffffffffffffffffffff1614620005d957600080600084815260200190815260200160002060008a73ffffffffffffffffffffffffffffffffffffffff1673ffffffffffffffffffffffffffffffffffffffff168152602001908152602001600020549050818110156200058157888183856040517f03dee4c5000000000000000000000000000000000000000000000000000000008152600401620005789493929190620013a6565b60405180910390fd5b81810360008085815260200190815260200160002060008b73ffffffffffffffffffffffffffffffffffffffff1673ffffffffffffffffffffffffffffffffffffffff16815260200190815260200160002081905550505b600073ffffffffffffffffffffffffffffffffffffffff168773ffffffffffffffffffffffffffffffffffffffff161462000677578060008084815260200190815260200160002060008973ffffffffffffffffffffffffffffffffffffffff1673ffffffffffffffffffffffffffffffffffffffff16815260200190815260200160002060008282546200066f919062001277565b925050819055505b50508060010190506200046e565b5060018351036200074c576000620006a8600085620007dc60201b90919060201c565b90506000620006c2600085620007dc60201b90919060201c565b90508573ffffffffffffffffffffffffffffffffffffffff168773ffffffffffffffffffffffffffffffffffffffff168473ffffffffffffffffffffffffffffffffffffffff167fc3d58168c5ae7397731d063d5bbf3d657854427343f4c083240f7aacaa2d0f6285856040516200073c92919062001379565b60405180910390a45050620007cd565b8373ffffffffffffffffffffffffffffffffffffffff168573ffffffffffffffffffffffffffffffffffffffff168273ffffffffffffffffffffffffffffffffffffffff167f4a39dc06d4c0dbc64b70af90fd698a233a518aa5d07e595d983b8c0526c8f7fb8686604051620007c4929190620014c1565b60405180910390a45b5050505050565b600033905090565b600060208202602084010151905092915050565b60008473ffffffffffffffffffffffffffffffffffffffff163b1115620009ab578373ffffffffffffffffffffffffffffffffffffffff1663f23a6e6187878686866040518663ffffffff1660e01b81526004016200085495949392919062001559565b6020604051808303816000875af19250505080156200089357506040513d601f19601f820116820180604052508101906200089091906200161a565b60015b6200091d573d8060008114620008c6576040519150601f19603f3d011682016040523d82523d6000602084013e620008cb565b606091505b5060008151036200091557846040517f57f447ce0000000000000000000000000000000000000000000000000000000081526004016200090c91906200134b565b60405180910390fd5b805181602001fd5b63f23a6e6160e01b7bffffffffffffffffffffffffffffffffffffffffffffffffffffffff1916817bffffffffffffffffffffffffffffffffffffffffffffffffffffffff191614620009a957846040517f57f447ce000000000000000000000000000000000000000000000000000000008152600401620009a091906200134b565b60405180910390fd5b505b505050505050565b60008473ffffffffffffffffffffffffffffffffffffffff163b111562000b6e578373ffffffffffffffffffffffffffffffffffffffff1663bc197c8187878686866040518663ffffffff1660e01b815260040162000a179594939291906200164c565b6020604051808303816000875af192505050801562000a5657506040513d601f19601f8201168201806040525081019062000a5391906200161a565b60015b62000ae0573d806000811462000a89576040519150601f19603f3d011682016040523d82523d6000602084013e62000a8e565b606091505b50600081510362000ad857846040517f57f447ce00000000000000000000000000000000000000000000000000000000815260040162000acf91906200134b565b60405180910390fd5b805181602001fd5b63bc197c8160e01b7bffffffffffffffffffffffffffffffffffffffffffffffffffffffff1916817bffffffffffffffffffffffffffffffffffffffffffffffffffffffff19161462000b6c57846040517f57f447ce00000000000000000000000000000000000000000000000000000000815260040162000b6391906200134b565b60405180910390fd5b505b505050505050565b6000604051905090565b600080fd5b600080fd5b600073ffffffffffffffffffffffffffffffffffffffff82169050919050565b600062000bb78262000b8a565b9050919050565b62000bc98162000baa565b811462000bd557600080fd5b50565b60008151905062000be98162000bbe565b92915050565b6000819050919050565b62000c048162000bef565b811462000c1057600080fd5b50565b60008151905062000c248162000bf9565b92915050565b6000819050919050565b62000c3f8162000c2a565b811462000c4b57600080fd5b50565b60008151905062000c5f8162000c34565b92915050565b600080fd5b600080fd5b6000601f19601f8301169050919050565b7f4e487b7100000000000000000000000000000000000000000000000000000000600052604160045260246000fd5b62000cba8262000c6f565b810181811067ffffffffffffffff8211171562000cdc5762000cdb62000c80565b5b80604052505050565b600062000cf162000b76565b905062000cff828262000caf565b919050565b600067ffffffffffffffff82111562000d225762000d2162000c80565b5b62000d2d8262000c6f565b9050602081019050919050565b60005b8381101562000d5a57808201518184015260208101905062000d3d565b60008484015250505050565b600062000d7d62000d778462000d04565b62000ce5565b90508281526020810184848401111562000d9c5762000d9b62000c6a565b5b62000da984828562000d3a565b509392505050565b600082601f83011262000dc95762000dc862000c65565b5b815162000ddb84826020860162000d66565b91505092915050565b600080600080600080600060e0888a03121562000e065762000e0562000b80565b5b600062000e168a828b0162000bd8565b975050602062000e298a828b0162000c13565b965050604062000e3c8a828b0162000c4e565b955050606062000e4f8a828b0162000c4e565b945050608088015167ffffffffffffffff81111562000e735762000e7262000b85565b5b62000e818a828b0162000db1565b93505060a062000e948a828b0162000c13565b92505060c088015167ffffffffffffffff81111562000eb85762000eb762000b85565b5b62000ec68a828b0162000db1565b91505092959891949750929550565b600081519050919050565b7f4e487b7100000000000000000000000000000000000000000000000000000000600052602260045260246000fd5b6000600282049050600182168062000f2857607f821691505b60208210810362000f3e5762000f3d62000ee0565b5b50919050565b60008190508160005260206000209050919050565b60006020601f8301049050919050565b600082821b905092915050565b60006008830262000fa87fffffffffffffffffffffffffffffffffffffffffffffffffffffffffffffffff8262000f69565b62000fb4868362000f69565b95508019841693508086168417925050509392505050565b6000819050919050565b600062000ff762000ff162000feb8462000bef565b62000fcc565b62000bef565b9050919050565b6000819050919050565b620010138362000fd6565b6200102b620010228262000ffe565b84845462000f76565b825550505050565b600090565b6200104262001033565b6200104f81848462001008565b505050565b5b8181101562001077576200106b60008262001038565b60018101905062001055565b5050565b601f821115620010c657620010908162000f44565b6200109b8462000f59565b81016020851015620010ab578190505b620010c3620010ba8562000f59565b83018262001054565b50505b505050565b600082821c905092915050565b6000620010eb60001984600802620010cb565b1980831691505092915050565b6000620011068383620010d8565b9150826002028217905092915050565b620011218262000ed5565b67ffffffffffffffff8111156200113d576200113c62000c80565b5b62001149825462000f0f565b620011568282856200107b565b600060209050601f8311600181146200118e576000841562001179578287015190505b620011858582620010f8565b865550620011f5565b601f1984166200119e8662000f44565b60005b82811015620011c857848901518255600182019150602085019450602081019050620011a1565b86831015620011e85784890151620011e4601f891682620010d8565b8355505b6001600288020188555050505b505050505050565b7f4e487b7100000000000000000000000000000000000000000000000000000000600052601160045260246000fd5b6000620012398262000bef565b9150620012468362000bef565b9250828202620012568162000bef565b9150828204841483151762001270576200126f620011fd565b5b5092915050565b6000620012848262000bef565b9150620012918362000bef565b9250828201905080821115620012ac57620012ab620011fd565b5b92915050565b6000620012bf8262000bef565b9150620012cc8362000bef565b9250828203905081811115620012e757620012e6620011fd565b5b92915050565b6000620012fa8262000bef565b91507fffffffffffffffffffffffffffffffffffffffffffffffffffffffffffffffff82036200132f576200132e620011fd565b5b600182019050919050565b620013458162000baa565b82525050565b60006020820190506200136260008301846200133a565b92915050565b620013738162000bef565b82525050565b600060408201905062001390600083018562001368565b6200139f602083018462001368565b9392505050565b6000608082019050620013bd60008301876200133a565b620013cc602083018662001368565b620013db604083018562001368565b620013ea606083018462001368565b95945050505050565b600081519050919050565b600082825260208201905092915050565b6000819050602082019050919050565b6200142a8162000bef565b82525050565b60006200143e83836200141f565b60208301905092915050565b6000602082019050919050565b60006200146482620013f3565b620014708185620013fe565b93506200147d836200140f565b8060005b83811015620014b457815162001498888262001430565b9750620014a5836200144a565b92505060018101905062001481565b5085935050505092915050565b60006040820190508181036000830152620014dd818562001457565b90508181036020830152620014f3818462001457565b90509392505050565b600081519050919050565b600082825260208201905092915050565b60006200152582620014fc565b62001531818562001507565b93506200154381856020860162000d3a565b6200154e8162000c6f565b840191505092915050565b600060a0820190506200157060008301886200133a565b6200157f60208301876200133a565b6200158e604083018662001368565b6200159d606083018562001368565b8181036080830152620015b1818462001518565b90509695505050505050565b60007fffffffff0000000000000000000000000000000000000000000000000000000082169050919050565b620015f481620015bd565b81146200160057600080fd5b50565b6000815190506200161481620015e9565b92915050565b60006020828403121562001633576200163262000b80565b5b6000620016438482850162001603565b91505092915050565b600060a0820190506200166360008301886200133a565b6200167260208301876200133a565b818103604083015262001686818662001457565b905081810360608301526200169c818562001457565b90508181036080830152620016b2818462001518565b90509695505050505050565b61377680620016ce6000396000f3fe6080604052600436106101ba5760003560e01c8063796b23bb116100ec578063d4b839921161008a578063e21f37ce11610064578063e21f37ce146105bb578063e985e9c5146105e6578063f242432a14610623578063f9c36fde1461064c576101c9565b8063d4b839921461055b578063d5f3948814610586578063d7bb99ba146105b1576101c9565b8063ae08ed5c116100c6578063ae08ed5c146104c5578063af3b19e5146104f0578063b126793b14610507578063d411eccb14610530576101c9565b8063796b23bb14610446578063a22cb46514610471578063a8e4fb901461049a576101c9565b806317d70f7c116101595780634e1273f4116101335780634e1273f41461039c57806355d576cc146103d95780635600f04f14610404578063590e1ae31461042f576101c9565b806317d70f7c1461031d5780632eb2c2d61461034857806336ebffca14610371576101c9565b806307bfce371161019557806307bfce3714610273578063085d48831461029e5780630e89341c146102c95780631249c58b14610306576101c9565b8062fdd58e146101ce57806301ffc9a71461020b5780630539272a14610248576101c9565b366101c9576101c7610677565b005b600080fd5b3480156101da57600080fd5b506101f560048036038101906101f091906121eb565b610740565b604051610202919061223a565b60405180910390f35b34801561021757600080fd5b50610232600480360381019061022d91906122ad565b61079a565b60405161023f91906122f5565b60405180910390f35b34801561025457600080fd5b5061025d61087c565b60405161026a919061223a565b60405180910390f35b34801561027f57600080fd5b50610288610882565b6040516102959190612329565b60405180910390f35b3480156102aa57600080fd5b506102b3610888565b6040516102c09190612353565b60405180910390f35b3480156102d557600080fd5b506102f060048036038101906102eb919061236e565b6108ae565b6040516102fd919061242b565b60405180910390f35b34801561031257600080fd5b5061031b610942565b005b34801561032957600080fd5b50610332610a98565b60405161033f919061223a565b60405180910390f35b34801561035457600080fd5b5061036f600480360381019061036a919061264a565b610a9e565b005b34801561037d57600080fd5b50610386610b46565b604051610393919061223a565b60405180910390f35b3480156103a857600080fd5b506103c360048036038101906103be91906127dc565b610b4c565b6040516103d09190612912565b60405180910390f35b3480156103e557600080fd5b506103ee610c55565b6040516103fb9190612329565b60405180910390f35b34801561041057600080fd5b50610419610c5b565b604051610426919061242b565b60405180910390f35b34801561043b57600080fd5b50610444610ce9565b005b34801561045257600080fd5b5061045b610f07565b604051610468919061223a565b60405180910390f35b34801561047d57600080fd5b5061049860048036038101906104939190612960565b610f0d565b005b3480156104a657600080fd5b506104af610f23565b6040516104bc9190612353565b60405180910390f35b3480156104d157600080fd5b506104da610f49565b6040516104e7919061223a565b60405180910390f35b3480156104fc57600080fd5b50610505610f50565b005b34801561051357600080fd5b5061052e60048036038101906105299190612a41565b6110cc565b005b34801561053c57600080fd5b50610545611221565b604051610552919061223a565b60405180910390f35b34801561056757600080fd5b50610570611227565b60405161057d919061242b565b60405180910390f35b34801561059257600080fd5b5061059b6112b5565b6040516105a89190612353565b60405180910390f35b6105b9610677565b005b3480156105c757600080fd5b506105d06112db565b6040516105dd919061242b565b60405180910390f35b3480156105f257600080fd5b5061060d60048036038101906106089190612a8a565b611369565b60405161061a91906122f5565b60405180910390f35b34801561062f57600080fd5b5061064a60048036038101906106459190612aca565b6113fd565b005b34801561065857600080fd5b506106616114a5565b60405161066e919061223a565b60405180910390f35b6000349050600c5481600e5461068d9190612b90565b11156106ce576040517f08c379a00000000000000000000000000000000000000000000000000000000081526004016106c590612c36565b60405180910390fd5b80600e60008282546106e09190612b90565b9250508190555080601160003373ffffffffffffffffffffffffffffffffffffffff1673ffffffffffffffffffffffffffffffffffffffff16815260200190815260200160002060008282546107369190612b90565b9250508190555050565b600080600083815260200190815260200160002060008473ffffffffffffffffffffffffffffffffffffffff1673ffffffffffffffffffffffffffffffffffffffff16815260200190815260200160002054905092915050565b60007fd9b67a26000000000000000000000000000000000000000000000000000000007bffffffffffffffffffffffffffffffffffffffffffffffffffffffff1916827bffffffffffffffffffffffffffffffffffffffffffffffffffffffff1916148061086557507f0e89341c000000000000000000000000000000000000000000000000000000007bffffffffffffffffffffffffffffffffffffffffffffffffffffffff1916827bffffffffffffffffffffffffffffffffffffffffffffffffffffffff1916145b806108755750610874826114ab565b5b9050919050565b60055481565b60075481565b600d60009054906101000a900473ffffffffffffffffffffffffffffffffffffffff1681565b6060600280546108bd90612c85565b80601f01602080910402602001604051908101604052809291908181526020018280546108e990612c85565b80156109365780601f1061090b57610100808354040283529160200191610936565b820191906000526020600020905b81548152906001019060200180831161091957829003601f168201915b50505050509050919050565b6000601160003373ffffffffffffffffffffffffffffffffffffffff1673ffffffffffffffffffffffffffffffffffffffff168152602001908152602001600020549050600081116109c9576040517f08c379a00000000000000000000000000000000000000000000000000000000081526004016109c090612d02565b60405180910390fd5b6000600f80546109d890612c85565b905003610a1a576040517f08c379a0000000000000000000000000000000000000000000000000000000008152600401610a1190612d6e565b60405180910390fd5b60106000815480929190610a2d90612d8e565b91905055506000601160003373ffffffffffffffffffffffffffffffffffffffff1673ffffffffffffffffffffffffffffffffffffffff16815260200190815260200160002081905550610a9533601054600160405180602001604052806000815250611515565b50565b60105481565b6000610aa86115ae565b90508073ffffffffffffffffffffffffffffffffffffffff168673ffffffffffffffffffffffffffffffffffffffff1614158015610aed5750610aeb8682611369565b155b15610b315780866040517fe237d922000000000000000000000000000000000000000000000000000000008152600401610b28929190612dd6565b60405180910390fd5b610b3e86868686866115b6565b505050505050565b600a5481565b60608151835114610b9857815183516040517f5b059991000000000000000000000000000000000000000000000000000000008152600401610b8f929190612dff565b60405180910390fd5b6000835167ffffffffffffffff811115610bb557610bb4612452565b5b604051908082528060200260200182016040528015610be35781602001602082028036833780820191505090505b50905060005b8451811015610c4a57610c20610c0882876116ae90919063ffffffff16565b610c1b83876116c290919063ffffffff16565b610740565b828281518110610c3357610c32612e28565b5b602002602001018181525050806001019050610be9565b508091505092915050565b60065481565b600f8054610c6890612c85565b80601f0160208091040260200160405190810160405280929190818152602001828054610c9490612c85565b8015610ce15780601f10610cb657610100808354040283529160200191610ce1565b820191906000526020600020905b815481529060010190602001808311610cc457829003601f168201915b505050505081565b6000601160003373ffffffffffffffffffffffffffffffffffffffff1673ffffffffffffffffffffffffffffffffffffffff168152602001908152602001600020549050600073ffffffffffffffffffffffffffffffffffffffff16600d60009054906101000a900473ffffffffffffffffffffffffffffffffffffffff1673ffffffffffffffffffffffffffffffffffffffff1614610dbe576040517f08c379a0000000000000000000000000000000000000000000000000000000008152600401610db590612ec9565b60405180910390fd5b60008111610e01576040517f08c379a0000000000000000000000000000000000000000000000000000000008152600401610df890612f35565b60405180910390fd5b600b544211610e45576040517f08c379a0000000000000000000000000000000000000000000000000000000008152600401610e3c90612fc7565b60405180910390fd5b6000601160003373ffffffffffffffffffffffffffffffffffffffff1673ffffffffffffffffffffffffffffffffffffffff1681526020019081526020016000208190555060003373ffffffffffffffffffffffffffffffffffffffff166108fc839081150290604051600060405180830381858888f19350505050905080610f03576040517f08c379a0000000000000000000000000000000000000000000000000000000008152600401610efa90613033565b60405180910390fd5b5050565b600b5481565b610f1f610f186115ae565b83836116d6565b5050565b600460009054906101000a900473ffffffffffffffffffffffffffffffffffffffff1681565b62278d0081565b600360009054906101000a900473ffffffffffffffffffffffffffffffffffffffff1673ffffffffffffffffffffffffffffffffffffffff16636b074a07336040518263ffffffff1660e01b8152600401610fab9190612353565b602060405180830381865afa158015610fc8573d6000803e3d6000fd5b505050506040513d601f19601f82011682018060405250810190610fec9190613068565b61102b576040517f08c379a000000000000000000000000000000000000000000000000000000000815260040161102290613107565b60405180910390fd5b60646062600c5461103c9190613127565b6110469190613198565b600e5411611089576040517f08c379a00000000000000000000000000000000000000000000000000000000081526004016110809061323b565b60405180910390fd5b33600d60006101000a81548173ffffffffffffffffffffffffffffffffffffffff021916908373ffffffffffffffffffffffffffffffffffffffff160217905550565b600d60009054906101000a900473ffffffffffffffffffffffffffffffffffffffff1673ffffffffffffffffffffffffffffffffffffffff163373ffffffffffffffffffffffffffffffffffffffff161461115c576040517f08c379a0000000000000000000000000000000000000000000000000000000008152600401611153906132cd565b60405180910390fd5b80600f908161116b9190613499565b5060003373ffffffffffffffffffffffffffffffffffffffff166108fc600c549081150290604051600060405180830381858888f193505050509050806111e7576040517f08c379a00000000000000000000000000000000000000000000000000000000081526004016111de90613033565b60405180910390fd5b601060008154809291906111fa90612d8e565b919050555061121d33601054600160405180602001604052806000815250611515565b5050565b600c5481565b6008805461123490612c85565b80601f016020809104026020016040519081016040528092919081815260200182805461126090612c85565b80156112ad5780601f10611282576101008083540402835291602001916112ad565b820191906000526020600020905b81548152906001019060200180831161129057829003601f168201915b505050505081565b600360009054906101000a900473ffffffffffffffffffffffffffffffffffffffff1681565b600980546112e890612c85565b80601f016020809104026020016040519081016040528092919081815260200182805461131490612c85565b80156113615780601f1061133657610100808354040283529160200191611361565b820191906000526020600020905b81548152906001019060200180831161134457829003601f168201915b505050505081565b6000600160008473ffffffffffffffffffffffffffffffffffffffff1673ffffffffffffffffffffffffffffffffffffffff16815260200190815260200160002060008373ffffffffffffffffffffffffffffffffffffffff1673ffffffffffffffffffffffffffffffffffffffff16815260200190815260200160002060009054906101000a900460ff16905092915050565b60006114076115ae565b90508073ffffffffffffffffffffffffffffffffffffffff168673ffffffffffffffffffffffffffffffffffffffff161415801561144c575061144a8682611369565b155b156114905780866040517fe237d922000000000000000000000000000000000000000000000000000000008152600401611487929190612dd6565b60405180910390fd5b61149d8686868686611846565b505050505050565b600e5481565b60007f01ffc9a7000000000000000000000000000000000000000000000000000000007bffffffffffffffffffffffffffffffffffffffffffffffffffffffff1916827bffffffffffffffffffffffffffffffffffffffffffffffffffffffff1916149050919050565b600073ffffffffffffffffffffffffffffffffffffffff168473ffffffffffffffffffffffffffffffffffffffff16036115875760006040517f57f447ce00000000000000000000000000000000000000000000000000000000815260040161157e9190612353565b60405180910390fd5b6000806115948585611951565b915091506115a6600087848487611981565b505050505050565b600033905090565b600073ffffffffffffffffffffffffffffffffffffffff168473ffffffffffffffffffffffffffffffffffffffff16036116285760006040517f57f447ce00000000000000000000000000000000000000000000000000000000815260040161161f9190612353565b60405180910390fd5b600073ffffffffffffffffffffffffffffffffffffffff168573ffffffffffffffffffffffffffffffffffffffff160361169a5760006040517f01a835140000000000000000000000000000000000000000000000000000000081526004016116919190612353565b60405180910390fd5b6116a78585858585611981565b5050505050565b600060208202602084010151905092915050565b600060208202602084010151905092915050565b600073ffffffffffffffffffffffffffffffffffffffff168273ffffffffffffffffffffffffffffffffffffffff16036117485760006040517fced3e10000000000000000000000000000000000000000000000000000000000815260040161173f9190612353565b60405180910390fd5b80600160008573ffffffffffffffffffffffffffffffffffffffff1673ffffffffffffffffffffffffffffffffffffffff16815260200190815260200160002060008473ffffffffffffffffffffffffffffffffffffffff1673ffffffffffffffffffffffffffffffffffffffff16815260200190815260200160002060006101000a81548160ff0219169083151502179055508173ffffffffffffffffffffffffffffffffffffffff168373ffffffffffffffffffffffffffffffffffffffff167f17307eab39ab6107e8899845ad3d59bd9653f200f220920489ca2b5937696c318360405161183991906122f5565b60405180910390a3505050565b600073ffffffffffffffffffffffffffffffffffffffff168473ffffffffffffffffffffffffffffffffffffffff16036118b85760006040517f57f447ce0000000000000000000000000000000000000000000000000000000081526004016118af9190612353565b60405180910390fd5b600073ffffffffffffffffffffffffffffffffffffffff168573ffffffffffffffffffffffffffffffffffffffff160361192a5760006040517f01a835140000000000000000000000000000000000000000000000000000000081526004016119219190612353565b60405180910390fd5b6000806119378585611951565b915091506119488787848487611981565b50505050505050565b60608060405191506001825283602083015260408201905060018152826020820152604081016040529250929050565b61198d85858585611a33565b600073ffffffffffffffffffffffffffffffffffffffff168473ffffffffffffffffffffffffffffffffffffffff1614611a2c5760006119cb6115ae565b90506001845103611a1b5760006119ec6000866116c290919063ffffffff16565b90506000611a046000866116c290919063ffffffff16565b9050611a14838989858589611ddb565b5050611a2a565b611a29818787878787611f8f565b5b505b5050505050565b8051825114611a7d57815181516040517f5b059991000000000000000000000000000000000000000000000000000000008152600401611a74929190612dff565b60405180910390fd5b6000611a876115ae565b905060005b8351811015611c96576000611aaa82866116c290919063ffffffff16565b90506000611ac183866116c290919063ffffffff16565b9050600073ffffffffffffffffffffffffffffffffffffffff168873ffffffffffffffffffffffffffffffffffffffff1614611bee57600080600084815260200190815260200160002060008a73ffffffffffffffffffffffffffffffffffffffff1673ffffffffffffffffffffffffffffffffffffffff16815260200190815260200160002054905081811015611b9657888183856040517f03dee4c5000000000000000000000000000000000000000000000000000000008152600401611b8d949392919061356b565b60405180910390fd5b81810360008085815260200190815260200160002060008b73ffffffffffffffffffffffffffffffffffffffff1673ffffffffffffffffffffffffffffffffffffffff16815260200190815260200160002081905550505b600073ffffffffffffffffffffffffffffffffffffffff168773ffffffffffffffffffffffffffffffffffffffff1614611c89578060008084815260200190815260200160002060008973ffffffffffffffffffffffffffffffffffffffff1673ffffffffffffffffffffffffffffffffffffffff1681526020019081526020016000206000828254611c819190612b90565b925050819055505b5050806001019050611a8c565b506001835103611d55576000611cb66000856116c290919063ffffffff16565b90506000611cce6000856116c290919063ffffffff16565b90508573ffffffffffffffffffffffffffffffffffffffff168773ffffffffffffffffffffffffffffffffffffffff168473ffffffffffffffffffffffffffffffffffffffff167fc3d58168c5ae7397731d063d5bbf3d657854427343f4c083240f7aacaa2d0f628585604051611d46929190612dff565b60405180910390a45050611dd4565b8373ffffffffffffffffffffffffffffffffffffffff168573ffffffffffffffffffffffffffffffffffffffff168273ffffffffffffffffffffffffffffffffffffffff167f4a39dc06d4c0dbc64b70af90fd698a233a518aa5d07e595d983b8c0526c8f7fb8686604051611dcb9291906135b0565b60405180910390a45b5050505050565b60008473ffffffffffffffffffffffffffffffffffffffff163b1115611f87578373ffffffffffffffffffffffffffffffffffffffff1663f23a6e6187878686866040518663ffffffff1660e01b8152600401611e3c95949392919061363c565b6020604051808303816000875af1925050508015611e7857506040513d601f19601f82011682018060405250810190611e7591906136ab565b60015b611efc573d8060008114611ea8576040519150601f19603f3d011682016040523d82523d6000602084013e611ead565b606091505b506000815103611ef457846040517f57f447ce000000000000000000000000000000000000000000000000000000008152600401611eeb9190612353565b60405180910390fd5b805181602001fd5b63f23a6e6160e01b7bffffffffffffffffffffffffffffffffffffffffffffffffffffffff1916817bffffffffffffffffffffffffffffffffffffffffffffffffffffffff191614611f8557846040517f57f447ce000000000000000000000000000000000000000000000000000000008152600401611f7c9190612353565b60405180910390fd5b505b505050505050565b60008473ffffffffffffffffffffffffffffffffffffffff163b111561213b578373ffffffffffffffffffffffffffffffffffffffff1663bc197c8187878686866040518663ffffffff1660e01b8152600401611ff09594939291906136d8565b6020604051808303816000875af192505050801561202c57506040513d601f19601f8201168201806040525081019061202991906136ab565b60015b6120b0573d806000811461205c576040519150601f19603f3d011682016040523d82523d6000602084013e612061565b606091505b5060008151036120a857846040517f57f447ce00000000000000000000000000000000000000000000000000000000815260040161209f9190612353565b60405180910390fd5b805181602001fd5b63bc197c8160e01b7bffffffffffffffffffffffffffffffffffffffffffffffffffffffff1916817bffffffffffffffffffffffffffffffffffffffffffffffffffffffff19161461213957846040517f57f447ce0000000000000000000000000000000000000000000000000000000081526004016121309190612353565b60405180910390fd5b505b505050505050565b6000604051905090565b600080fd5b600080fd5b600073ffffffffffffffffffffffffffffffffffffffff82169050919050565b600061218282612157565b9050919050565b61219281612177565b811461219d57600080fd5b50565b6000813590506121af81612189565b92915050565b6000819050919050565b6121c8816121b5565b81146121d357600080fd5b50565b6000813590506121e5816121bf565b92915050565b600080604083850312156122025761220161214d565b5b6000612210858286016121a0565b9250506020612221858286016121d6565b9150509250929050565b612234816121b5565b82525050565b600060208201905061224f600083018461222b565b92915050565b60007fffffffff0000000000000000000000000000000000000000000000000000000082169050919050565b61228a81612255565b811461229557600080fd5b50565b6000813590506122a781612281565b92915050565b6000602082840312156122c3576122c261214d565b5b60006122d184828501612298565b91505092915050565b60008115159050919050565b6122ef816122da565b82525050565b600060208201905061230a60008301846122e6565b92915050565b6000819050919050565b61232381612310565b82525050565b600060208201905061233e600083018461231a565b92915050565b61234d81612177565b82525050565b60006020820190506123686000830184612344565b92915050565b6000602082840312156123845761238361214d565b5b6000612392848285016121d6565b91505092915050565b600081519050919050565b600082825260208201905092915050565b60005b838110156123d55780820151818401526020810190506123ba565b60008484015250505050565b6000601f19601f8301169050919050565b60006123fd8261239b565b61240781856123a6565b93506124178185602086016123b7565b612420816123e1565b840191505092915050565b6000602082019050818103600083015261244581846123f2565b905092915050565b600080fd5b7f4e487b7100000000000000000000000000000000000000000000000000000000600052604160045260246000fd5b61248a826123e1565b810181811067ffffffffffffffff821117156124a9576124a8612452565b5b80604052505050565b60006124bc612143565b90506124c88282612481565b919050565b600067ffffffffffffffff8211156124e8576124e7612452565b5b602082029050602081019050919050565b600080fd5b600061251161250c846124cd565b6124b2565b90508083825260208201905060208402830185811115612534576125336124f9565b5b835b8181101561255d578061254988826121d6565b845260208401935050602081019050612536565b5050509392505050565b600082601f83011261257c5761257b61244d565b5b813561258c8482602086016124fe565b91505092915050565b600080fd5b600067ffffffffffffffff8211156125b5576125b4612452565b5b6125be826123e1565b9050602081019050919050565b82818337600083830152505050565b60006125ed6125e88461259a565b6124b2565b90508281526020810184848401111561260957612608612595565b5b6126148482856125cb565b509392505050565b600082601f8301126126315761263061244d565b5b81356126418482602086016125da565b91505092915050565b600080600080600060a086880312156126665761266561214d565b5b6000612674888289016121a0565b9550506020612685888289016121a0565b945050604086013567ffffffffffffffff8111156126a6576126a5612152565b5b6126b288828901612567565b935050606086013567ffffffffffffffff8111156126d3576126d2612152565b5b6126df88828901612567565b925050608086013567ffffffffffffffff811115612700576126ff612152565b5b61270c8882890161261c565b9150509295509295909350565b600067ffffffffffffffff82111561273457612733612452565b5b602082029050602081019050919050565b600061275861275384612719565b6124b2565b9050808382526020820190506020840283018581111561277b5761277a6124f9565b5b835b818110156127a4578061279088826121a0565b84526020840193505060208101905061277d565b5050509392505050565b600082601f8301126127c3576127c261244d565b5b81356127d3848260208601612745565b91505092915050565b600080604083850312156127f3576127f261214d565b5b600083013567ffffffffffffffff81111561281157612810612152565b5b61281d858286016127ae565b925050602083013567ffffffffffffffff81111561283e5761283d612152565b5b61284a85828601612567565b9150509250929050565b600081519050919050565b600082825260208201905092915050565b6000819050602082019050919050565b612889816121b5565b82525050565b600061289b8383612880565b60208301905092915050565b6000602082019050919050565b60006128bf82612854565b6128c9818561285f565b93506128d483612870565b8060005b838110156129055781516128ec888261288f565b97506128f7836128a7565b9250506001810190506128d8565b5085935050505092915050565b6000602082019050818103600083015261292c81846128b4565b905092915050565b61293d816122da565b811461294857600080fd5b50565b60008135905061295a81612934565b92915050565b600080604083850312156129775761297661214d565b5b6000612985858286016121a0565b92505060206129968582860161294b565b9150509250929050565b600067ffffffffffffffff8211156129bb576129ba612452565b5b6129c4826123e1565b9050602081019050919050565b60006129e46129df846129a0565b6124b2565b905082815260208101848484011115612a00576129ff612595565b5b612a0b8482856125cb565b509392505050565b600082601f830112612a2857612a2761244d565b5b8135612a388482602086016129d1565b91505092915050565b600060208284031215612a5757612a5661214d565b5b600082013567ffffffffffffffff811115612a7557612a74612152565b5b612a8184828501612a13565b91505092915050565b60008060408385031215612aa157612aa061214d565b5b6000612aaf858286016121a0565b9250506020612ac0858286016121a0565b9150509250929050565b600080600080600060a08688031215612ae657612ae561214d565b5b6000612af4888289016121a0565b9550506020612b05888289016121a0565b9450506040612b16888289016121d6565b9350506060612b27888289016121d6565b925050608086013567ffffffffffffffff811115612b4857612b47612152565b5b612b548882890161261c565b9150509295509295909350565b7f4e487b7100000000000000000000000000000000000000000000000000000000600052601160045260246000fd5b6000612b9b826121b5565b9150612ba6836121b5565b9250828201905080821115612bbe57612bbd612b61565b5b92915050565b7f63616e6e6f7420636f6e74726962757465206d6f7265207468616e207468652060008201527f66756e64696e6720746172676574000000000000000000000000000000000000602082015250565b6000612c20602e836123a6565b9150612c2b82612bc4565b604082019050919050565b60006020820190508181036000830152612c4f81612c13565b9050919050565b7f4e487b7100000000000000000000000000000000000000000000000000000000600052602260045260246000fd5b60006002820490506001821680612c9d57607f821691505b602082108103612cb057612caf612c56565b5b50919050565b7f5573657220646964206e6f7420636f6e74726962757465000000000000000000600082015250565b6000612cec6017836123a6565b9150612cf782612cb6565b602082019050919050565b60006020820190508181036000830152612d1b81612cdf565b9050919050565b7f50726f706f73616c206973206e6f7420636f6d706c6574650000000000000000600082015250565b6000612d586018836123a6565b9150612d6382612d22565b602082019050919050565b60006020820190508181036000830152612d8781612d4b565b9050919050565b6000612d99826121b5565b91507fffffffffffffffffffffffffffffffffffffffffffffffffffffffffffffffff8203612dcb57612dca612b61565b5b600182019050919050565b6000604082019050612deb6000830185612344565b612df86020830184612344565b9392505050565b6000604082019050612e14600083018561222b565b612e21602083018461222b565b9392505050565b7f4e487b7100000000000000000000000000000000000000000000000000000000600052603260045260246000fd5b7f50726f706f73616c2068617320616c7265616479206265656e2061636365707460008201527f6564000000000000000000000000000000000000000000000000000000000000602082015250565b6000612eb36022836123a6565b9150612ebe82612e57565b604082019050919050565b60006020820190508181036000830152612ee281612ea6565b9050919050565b7f4e6f2066756e647320746f20726566756e640000000000000000000000000000600082015250565b6000612f1f6012836123a6565b9150612f2a82612ee9565b602082019050919050565b60006020820190508181036000830152612f4e81612f12565b9050919050565b7f66756e64696e6720646561646c696e6520686173206e6f74206265656e20726560008201527f6163686564000000000000000000000000000000000000000000000000000000602082015250565b6000612fb16025836123a6565b9150612fbc82612f55565b604082019050919050565b60006020820190508181036000830152612fe081612fa4565b9050919050565b7f4661696c656420746f2073656e64204574686572000000000000000000000000600082015250565b600061301d6014836123a6565b915061302882612fe7565b602082019050919050565b6000602082019050818103600083015261304c81613010565b9050919050565b60008151905061306281612934565b92915050565b60006020828403121561307e5761307d61214d565b5b600061308c84828501613053565b91505092915050565b7f4f6e6c792070726f7669646572732063616e206163636570742070726f706f7360008201527f616c730000000000000000000000000000000000000000000000000000000000602082015250565b60006130f16023836123a6565b91506130fc82613095565b604082019050919050565b60006020820190508181036000830152613120816130e4565b9050919050565b6000613132826121b5565b915061313d836121b5565b925082820261314b816121b5565b9150828204841483151761316257613161612b61565b5b5092915050565b7f4e487b7100000000000000000000000000000000000000000000000000000000600052601260045260246000fd5b60006131a3826121b5565b91506131ae836121b5565b9250826131be576131bd613169565b5b828204905092915050565b7f70726f706f73616c20686173206e6f74206265656e2066756c6c792066756e6460008201527f6564000000000000000000000000000000000000000000000000000000000000602082015250565b60006132256022836123a6565b9150613230826131c9565b604082019050919050565b6000602082019050818103600083015261325481613218565b9050919050565b7f4f6e6c79207468652070726f76696465722063616e20636f6d706c657465207060008201527f726f706f73616c00000000000000000000000000000000000000000000000000602082015250565b60006132b76027836123a6565b91506132c28261325b565b604082019050919050565b600060208201905081810360008301526132e6816132aa565b9050919050565b60008190508160005260206000209050919050565b60006020601f8301049050919050565b600082821b905092915050565b60006008830261334f7fffffffffffffffffffffffffffffffffffffffffffffffffffffffffffffffff82613312565b6133598683613312565b95508019841693508086168417925050509392505050565b6000819050919050565b600061339661339161338c846121b5565b613371565b6121b5565b9050919050565b6000819050919050565b6133b08361337b565b6133c46133bc8261339d565b84845461331f565b825550505050565b600090565b6133d96133cc565b6133e48184846133a7565b505050565b5b81811015613408576133fd6000826133d1565b6001810190506133ea565b5050565b601f82111561344d5761341e816132ed565b61342784613302565b81016020851015613436578190505b61344a61344285613302565b8301826133e9565b50505b505050565b600082821c905092915050565b600061347060001984600802613452565b1980831691505092915050565b6000613489838361345f565b9150826002028217905092915050565b6134a28261239b565b67ffffffffffffffff8111156134bb576134ba612452565b5b6134c58254612c85565b6134d082828561340c565b600060209050601f83116001811461350357600084156134f1578287015190505b6134fb858261347d565b865550613563565b601f198416613511866132ed565b60005b8281101561353957848901518255600182019150602085019450602081019050613514565b868310156135565784890151613552601f89168261345f565b8355505b6001600288020188555050505b505050505050565b60006080820190506135806000830187612344565b61358d602083018661222b565b61359a604083018561222b565b6135a7606083018461222b565b95945050505050565b600060408201905081810360008301526135ca81856128b4565b905081810360208301526135de81846128b4565b90509392505050565b600081519050919050565b600082825260208201905092915050565b600061360e826135e7565b61361881856135f2565b93506136288185602086016123b7565b613631816123e1565b840191505092915050565b600060a0820190506136516000830188612344565b61365e6020830187612344565b61366b604083018661222b565b613678606083018561222b565b818103608083015261368a8184613603565b90509695505050505050565b6000815190506136a581612281565b92915050565b6000602082840312156136c1576136c061214d565b5b60006136cf84828501613696565b91505092915050565b600060a0820190506136ed6000830188612344565b6136fa6020830187612344565b818103604083015261370c81866128b4565b9050818103606083015261372081856128b4565b905081810360808301526137348184613603565b9050969550505050505056fea26469706673582212202dbcd4b1ff4ac3fd23a7a9f44447bb5ef77a03b8b3d1a2bdf569bea7bcf37a8664736f6c63430008180033697066733a2f2f516d514d576e48543154466b74697136586e796b4e6b7368616d57507964553370655732524b75514b63427a53322e706e67a2646970667358221220ef3d124ce02c3cfe6cd5ae4bf42d197b7f9866afd3a03ebdb57d722b7735dbe264736f6c63430008180033","opcodes":"PUSH1 0x80 PUSH1 0x40 MSTORE CALLVALUE DUP1 ISZERO PUSH2 0x10 JUMPI PUSH1 0x0 DUP1 REVERT JUMPDEST POP CALLER PUSH1 0x0 DUP1 PUSH2 0x100 EXP DUP2 SLOAD DUP2 PUSH20 0xFFFFFFFFFFFFFFFFFFFFFFFFFFFFFFFFFFFFFFFF MUL NOT AND SWAP1 DUP4 PUSH20 0xFFFFFFFFFFFFFFFFFFFFFFFFFFFFFFFFFFFFFFFF AND MUL OR SWAP1 SSTORE POP PUSH2 0x5A13 DUP1 PUSH2 0x60 PUSH1 0x0 CODECOPY PUSH1 0x0 RETURN INVALID PUSH1 0x80 PUSH1 0x40 MSTORE CALLVALUE DUP1 ISZERO PUSH3 0x11 JUMPI PUSH1 0x0 DUP1 REVERT JUMPDEST POP PUSH1 0x4 CALLDATASIZE LT PUSH3 0x88 JUMPI PUSH1 0x0 CALLDATALOAD PUSH1 0xE0 SHR DUP1 PUSH4 0x62564C48 GT PUSH3 0x63 JUMPI DUP1 PUSH4 0x62564C48 EQ PUSH3 0x119 JUMPI DUP1 PUSH4 0x6B074A07 EQ PUSH3 0x13B JUMPI DUP1 PUSH4 0x8DA5CB5B EQ PUSH3 0x171 JUMPI DUP1 PUSH4 0xB226F0CC EQ PUSH3 0x193 JUMPI PUSH3 0x88 JUMP JUMPDEST DUP1 PUSH4 0x13CF08B EQ PUSH3 0x8D JUMPI DUP1 PUSH4 0x787BC27 EQ PUSH3 0xC3 JUMPI DUP1 PUSH4 0x46E2577A EQ PUSH3 0xF9 JUMPI JUMPDEST PUSH1 0x0 DUP1 REVERT JUMPDEST PUSH3 0xAB PUSH1 0x4 DUP1 CALLDATASIZE SUB DUP2 ADD SWAP1 PUSH3 0xA5 SWAP2 SWAP1 PUSH3 0x508 JUMP JUMPDEST PUSH3 0x1C9 JUMP JUMPDEST PUSH1 0x40 MLOAD PUSH3 0xBA SWAP2 SWAP1 PUSH3 0x57F JUMP JUMPDEST PUSH1 0x40 MLOAD DUP1 SWAP2 SUB SWAP1 RETURN JUMPDEST PUSH3 0xE1 PUSH1 0x4 DUP1 CALLDATASIZE SUB DUP2 ADD SWAP1 PUSH3 0xDB SWAP2 SWAP1 PUSH3 0x5CD JUMP JUMPDEST PUSH3 0x209 JUMP JUMPDEST PUSH1 0x40 MLOAD PUSH3 0xF0 SWAP2 SWAP1 PUSH3 0x61C JUMP JUMPDEST PUSH1 0x40 MLOAD DUP1 SWAP2 SUB SWAP1 RETURN JUMPDEST PUSH3 0x117 PUSH1 0x4 DUP1 CALLDATASIZE SUB DUP2 ADD SWAP1 PUSH3 0x111 SWAP2 SWAP1 PUSH3 0x5CD JUMP JUMPDEST PUSH3 0x229 JUMP JUMPDEST STOP JUMPDEST PUSH3 0x123 PUSH3 0x2D9 JUMP JUMPDEST PUSH1 0x40 MLOAD PUSH3 0x132 SWAP2 SWAP1 PUSH3 0x707 JUMP JUMPDEST PUSH1 0x40 MLOAD DUP1 SWAP2 SUB SWAP1 RETURN JUMPDEST PUSH3 0x159 PUSH1 0x4 DUP1 CALLDATASIZE SUB DUP2 ADD SWAP1 PUSH3 0x153 SWAP2 SWAP1 PUSH3 0x5CD JUMP JUMPDEST PUSH3 0x369 JUMP JUMPDEST PUSH1 0x40 MLOAD PUSH3 0x168 SWAP2 SWAP1 PUSH3 0x61C JUMP JUMPDEST PUSH1 0x40 MLOAD DUP1 SWAP2 SUB SWAP1 RETURN JUMPDEST PUSH3 0x17B PUSH3 0x3C6 JUMP JUMPDEST PUSH1 0x40 MLOAD PUSH3 0x18A SWAP2 SWAP1 PUSH3 0x57F JUMP JUMPDEST PUSH1 0x40 MLOAD DUP1 SWAP2 SUB SWAP1 RETURN JUMPDEST PUSH3 0x1B1 PUSH1 0x4 DUP1 CALLDATASIZE SUB DUP2 ADD SWAP1 PUSH3 0x1AB SWAP2 SWAP1 PUSH3 0x8C8 JUMP JUMPDEST PUSH3 0x3EA JUMP JUMPDEST PUSH1 0x40 MLOAD PUSH3 0x1C0 SWAP2 SWAP1 PUSH3 0xA0D JUMP JUMPDEST PUSH1 0x40 MLOAD DUP1 SWAP2 SUB SWAP1 RETURN JUMPDEST PUSH1 0x1 DUP2 DUP2 SLOAD DUP2 LT PUSH3 0x1DA JUMPI PUSH1 0x0 DUP1 REVERT JUMPDEST SWAP1 PUSH1 0x0 MSTORE PUSH1 0x20 PUSH1 0x0 KECCAK256 ADD PUSH1 0x0 SWAP2 POP SLOAD SWAP1 PUSH2 0x100 EXP SWAP1 DIV PUSH20 0xFFFFFFFFFFFFFFFFFFFFFFFFFFFFFFFFFFFFFFFF AND DUP2 JUMP JUMPDEST PUSH1 0x2 PUSH1 0x20 MSTORE DUP1 PUSH1 0x0 MSTORE PUSH1 0x40 PUSH1 0x0 KECCAK256 PUSH1 0x0 SWAP2 POP SLOAD SWAP1 PUSH2 0x100 EXP SWAP1 DIV PUSH1 0xFF AND DUP2 JUMP JUMPDEST PUSH1 0x0 DUP1 SLOAD SWAP1 PUSH2 0x100 EXP SWAP1 DIV PUSH20 0xFFFFFFFFFFFFFFFFFFFFFFFFFFFFFFFFFFFFFFFF AND PUSH20 0xFFFFFFFFFFFFFFFFFFFFFFFFFFFFFFFFFFFFFFFF AND CALLER PUSH20 0xFFFFFFFFFFFFFFFFFFFFFFFFFFFFFFFFFFFFFFFF AND SUB PUSH3 0x2D6 JUMPI PUSH1 0x1 PUSH1 0x2 PUSH1 0x0 DUP4 PUSH20 0xFFFFFFFFFFFFFFFFFFFFFFFFFFFFFFFFFFFFFFFF AND PUSH20 0xFFFFFFFFFFFFFFFFFFFFFFFFFFFFFFFFFFFFFFFF AND DUP2 MSTORE PUSH1 0x20 ADD SWAP1 DUP2 MSTORE PUSH1 0x20 ADD PUSH1 0x0 KECCAK256 PUSH1 0x0 PUSH2 0x100 EXP DUP2 SLOAD DUP2 PUSH1 0xFF MUL NOT AND SWAP1 DUP4 ISZERO ISZERO MUL OR SWAP1 SSTORE POP JUMPDEST POP JUMP JUMPDEST PUSH1 0x60 PUSH1 0x1 DUP1 SLOAD DUP1 PUSH1 0x20 MUL PUSH1 0x20 ADD PUSH1 0x40 MLOAD SWAP1 DUP2 ADD PUSH1 0x40 MSTORE DUP1 SWAP3 SWAP2 SWAP1 DUP2 DUP2 MSTORE PUSH1 0x20 ADD DUP3 DUP1 SLOAD DUP1 ISZERO PUSH3 0x35F JUMPI PUSH1 0x20 MUL DUP3 ADD SWAP2 SWAP1 PUSH1 0x0 MSTORE PUSH1 0x20 PUSH1 0x0 KECCAK256 SWAP1 JUMPDEST DUP2 PUSH1 0x0 SWAP1 SLOAD SWAP1 PUSH2 0x100 EXP SWAP1 DIV PUSH20 0xFFFFFFFFFFFFFFFFFFFFFFFFFFFFFFFFFFFFFFFF AND PUSH20 0xFFFFFFFFFFFFFFFFFFFFFFFFFFFFFFFFFFFFFFFF AND DUP2 MSTORE PUSH1 0x20 ADD SWAP1 PUSH1 0x1 ADD SWAP1 DUP1 DUP4 GT PUSH3 0x314 JUMPI JUMPDEST POP POP POP POP POP SWAP1 POP SWAP1 JUMP JUMPDEST PUSH1 0x0 PUSH1 0x1 ISZERO ISZERO PUSH1 0x2 PUSH1 0x0 DUP5 PUSH20 0xFFFFFFFFFFFFFFFFFFFFFFFFFFFFFFFFFFFFFFFF AND PUSH20 0xFFFFFFFFFFFFFFFFFFFFFFFFFFFFFFFFFFFFFFFF AND DUP2 MSTORE PUSH1 0x20 ADD SWAP1 DUP2 MSTORE PUSH1 0x20 ADD PUSH1 0x0 KECCAK256 PUSH1 0x0 SWAP1 SLOAD SWAP1 PUSH2 0x100 EXP SWAP1 DIV PUSH1 0xFF AND ISZERO ISZERO EQ SWAP1 POP SWAP2 SWAP1 POP JUMP JUMPDEST PUSH1 0x0 DUP1 SLOAD SWAP1 PUSH2 0x100 EXP SWAP1 DIV PUSH20 0xFFFFFFFFFFFFFFFFFFFFFFFFFFFFFFFFFFFFFFFF AND DUP2 JUMP JUMPDEST PUSH1 0x0 DUP1 ADDRESS SWAP1 POP PUSH1 0x0 DUP2 DUP10 DUP10 DUP10 DUP10 DUP10 DUP10 PUSH1 0x40 MLOAD PUSH3 0x407 SWAP1 PUSH3 0x4AB JUMP JUMPDEST PUSH3 0x419 SWAP8 SWAP7 SWAP6 SWAP5 SWAP4 SWAP3 SWAP2 SWAP1 PUSH3 0xAD5 JUMP JUMPDEST PUSH1 0x40 MLOAD DUP1 SWAP2 SUB SWAP1 PUSH1 0x0 CREATE DUP1 ISZERO DUP1 ISZERO PUSH3 0x436 JUMPI RETURNDATASIZE PUSH1 0x0 DUP1 RETURNDATACOPY RETURNDATASIZE PUSH1 0x0 REVERT JUMPDEST POP SWAP1 POP PUSH1 0x1 DUP2 SWAP1 DUP1 PUSH1 0x1 DUP2 SLOAD ADD DUP1 DUP3 SSTORE DUP1 SWAP2 POP POP PUSH1 0x1 SWAP1 SUB SWAP1 PUSH1 0x0 MSTORE PUSH1 0x20 PUSH1 0x0 KECCAK256 ADD PUSH1 0x0 SWAP1 SWAP2 SWAP1 SWAP2 SWAP1 SWAP2 PUSH2 0x100 EXP DUP2 SLOAD DUP2 PUSH20 0xFFFFFFFFFFFFFFFFFFFFFFFFFFFFFFFFFFFFFFFF MUL NOT AND SWAP1 DUP4 PUSH20 0xFFFFFFFFFFFFFFFFFFFFFFFFFFFFFFFFFFFFFFFF AND MUL OR SWAP1 SSTORE POP DUP1 SWAP3 POP POP POP SWAP7 SWAP6 POP POP POP POP POP POP JUMP JUMPDEST PUSH2 0x4E7D DUP1 PUSH3 0xB61 DUP4 CODECOPY ADD SWAP1 JUMP JUMPDEST PUSH1 0x0 PUSH1 0x40 MLOAD SWAP1 POP SWAP1 JUMP JUMPDEST PUSH1 0x0 DUP1 REVERT JUMPDEST PUSH1 0x0 DUP1 REVERT JUMPDEST PUSH1 0x0 DUP2 SWAP1 POP SWAP2 SWAP1 POP JUMP JUMPDEST PUSH3 0x4E2 DUP2 PUSH3 0x4CD JUMP JUMPDEST DUP2 EQ PUSH3 0x4EE JUMPI PUSH1 0x0 DUP1 REVERT JUMPDEST POP JUMP JUMPDEST PUSH1 0x0 DUP2 CALLDATALOAD SWAP1 POP PUSH3 0x502 DUP2 PUSH3 0x4D7 JUMP JUMPDEST SWAP3 SWAP2 POP POP JUMP JUMPDEST PUSH1 0x0 PUSH1 0x20 DUP3 DUP5 SUB SLT ISZERO PUSH3 0x521 JUMPI PUSH3 0x520 PUSH3 0x4C3 JUMP JUMPDEST JUMPDEST PUSH1 0x0 PUSH3 0x531 DUP5 DUP3 DUP6 ADD PUSH3 0x4F1 JUMP JUMPDEST SWAP2 POP POP SWAP3 SWAP2 POP POP JUMP JUMPDEST PUSH1 0x0 PUSH20 0xFFFFFFFFFFFFFFFFFFFFFFFFFFFFFFFFFFFFFFFF DUP3 AND SWAP1 POP SWAP2 SWAP1 POP JUMP JUMPDEST PUSH1 0x0 PUSH3 0x567 DUP3 PUSH3 0x53A JUMP JUMPDEST SWAP1 POP SWAP2 SWAP1 POP JUMP JUMPDEST PUSH3 0x579 DUP2 PUSH3 0x55A JUMP JUMPDEST DUP3 MSTORE POP POP JUMP JUMPDEST PUSH1 0x0 PUSH1 0x20 DUP3 ADD SWAP1 POP PUSH3 0x596 PUSH1 0x0 DUP4 ADD DUP5 PUSH3 0x56E JUMP JUMPDEST SWAP3 SWAP2 POP POP JUMP JUMPDEST PUSH3 0x5A7 DUP2 PUSH3 0x55A JUMP JUMPDEST DUP2 EQ PUSH3 0x5B3 JUMPI PUSH1 0x0 DUP1 REVERT JUMPDEST POP JUMP JUMPDEST PUSH1 0x0 DUP2 CALLDATALOAD SWAP1 POP PUSH3 0x5C7 DUP2 PUSH3 0x59C JUMP JUMPDEST SWAP3 SWAP2 POP POP JUMP JUMPDEST PUSH1 0x0 PUSH1 0x20 DUP3 DUP5 SUB SLT ISZERO PUSH3 0x5E6 JUMPI PUSH3 0x5E5 PUSH3 0x4C3 JUMP JUMPDEST JUMPDEST PUSH1 0x0 PUSH3 0x5F6 DUP5 DUP3 DUP6 ADD PUSH3 0x5B6 JUMP JUMPDEST SWAP2 POP POP SWAP3 SWAP2 POP POP JUMP JUMPDEST PUSH1 0x0 DUP2 ISZERO ISZERO SWAP1 POP SWAP2 SWAP1 POP JUMP JUMPDEST PUSH3 0x616 DUP2 PUSH3 0x5FF JUMP JUMPDEST DUP3 MSTORE POP POP JUMP JUMPDEST PUSH1 0x0 PUSH1 0x20 DUP3 ADD SWAP1 POP PUSH3 0x633 PUSH1 0x0 DUP4 ADD DUP5 PUSH3 0x60B JUMP JUMPDEST SWAP3 SWAP2 POP POP JUMP JUMPDEST PUSH1 0x0 DUP2 MLOAD SWAP1 POP SWAP2 SWAP1 POP JUMP JUMPDEST PUSH1 0x0 DUP3 DUP3 MSTORE PUSH1 0x20 DUP3 ADD SWAP1 POP SWAP3 SWAP2 POP POP JUMP JUMPDEST PUSH1 0x0 DUP2 SWAP1 POP PUSH1 0x20 DUP3 ADD SWAP1 POP SWAP2 SWAP1 POP JUMP JUMPDEST PUSH3 0x670 DUP2 PUSH3 0x55A JUMP JUMPDEST DUP3 MSTORE POP POP JUMP JUMPDEST PUSH1 0x0 PUSH3 0x684 DUP4 DUP4 PUSH3 0x665 JUMP JUMPDEST PUSH1 0x20 DUP4 ADD SWAP1 POP SWAP3 SWAP2 POP POP JUMP JUMPDEST PUSH1 0x0 PUSH1 0x20 DUP3 ADD SWAP1 POP SWAP2 SWAP1 POP JUMP JUMPDEST PUSH1 0x0 PUSH3 0x6AA DUP3 PUSH3 0x639 JUMP JUMPDEST PUSH3 0x6B6 DUP2 DUP6 PUSH3 0x644 JUMP JUMPDEST SWAP4 POP PUSH3 0x6C3 DUP4 PUSH3 0x655 JUMP JUMPDEST DUP1 PUSH1 0x0 JUMPDEST DUP4 DUP2 LT ISZERO PUSH3 0x6FA JUMPI DUP2 MLOAD PUSH3 0x6DE DUP9 DUP3 PUSH3 0x676 JUMP JUMPDEST SWAP8 POP PUSH3 0x6EB DUP4 PUSH3 0x690 JUMP JUMPDEST SWAP3 POP POP PUSH1 0x1 DUP2 ADD SWAP1 POP PUSH3 0x6C7 JUMP JUMPDEST POP DUP6 SWAP4 POP POP POP POP SWAP3 SWAP2 POP POP JUMP JUMPDEST PUSH1 0x0 PUSH1 0x20 DUP3 ADD SWAP1 POP DUP2 DUP2 SUB PUSH1 0x0 DUP4 ADD MSTORE PUSH3 0x723 DUP2 DUP5 PUSH3 0x69D JUMP JUMPDEST SWAP1 POP SWAP3 SWAP2 POP POP JUMP JUMPDEST PUSH1 0x0 DUP2 SWAP1 POP SWAP2 SWAP1 POP JUMP JUMPDEST PUSH3 0x740 DUP2 PUSH3 0x72B JUMP JUMPDEST DUP2 EQ PUSH3 0x74C JUMPI PUSH1 0x0 DUP1 REVERT JUMPDEST POP JUMP JUMPDEST PUSH1 0x0 DUP2 CALLDATALOAD SWAP1 POP PUSH3 0x760 DUP2 PUSH3 0x735 JUMP JUMPDEST SWAP3 SWAP2 POP POP JUMP JUMPDEST PUSH1 0x0 DUP1 REVERT JUMPDEST PUSH1 0x0 DUP1 REVERT JUMPDEST PUSH1 0x0 PUSH1 0x1F NOT PUSH1 0x1F DUP4 ADD AND SWAP1 POP SWAP2 SWAP1 POP JUMP JUMPDEST PUSH32 0x4E487B7100000000000000000000000000000000000000000000000000000000 PUSH1 0x0 MSTORE PUSH1 0x41 PUSH1 0x4 MSTORE PUSH1 0x24 PUSH1 0x0 REVERT JUMPDEST PUSH3 0x7BB DUP3 PUSH3 0x770 JUMP JUMPDEST DUP2 ADD DUP2 DUP2 LT PUSH8 0xFFFFFFFFFFFFFFFF DUP3 GT OR ISZERO PUSH3 0x7DD JUMPI PUSH3 0x7DC PUSH3 0x781 JUMP JUMPDEST JUMPDEST DUP1 PUSH1 0x40 MSTORE POP POP POP JUMP JUMPDEST PUSH1 0x0 PUSH3 0x7F2 PUSH3 0x4B9 JUMP JUMPDEST SWAP1 POP PUSH3 0x800 DUP3 DUP3 PUSH3 0x7B0 JUMP JUMPDEST SWAP2 SWAP1 POP JUMP JUMPDEST PUSH1 0x0 PUSH8 0xFFFFFFFFFFFFFFFF DUP3 GT ISZERO PUSH3 0x823 JUMPI PUSH3 0x822 PUSH3 0x781 JUMP JUMPDEST JUMPDEST PUSH3 0x82E DUP3 PUSH3 0x770 JUMP JUMPDEST SWAP1 POP PUSH1 0x20 DUP2 ADD SWAP1 POP SWAP2 SWAP1 POP JUMP JUMPDEST DUP3 DUP2 DUP4 CALLDATACOPY PUSH1 0x0 DUP4 DUP4 ADD MSTORE POP POP POP JUMP JUMPDEST PUSH1 0x0 PUSH3 0x861 PUSH3 0x85B DUP5 PUSH3 0x805 JUMP JUMPDEST PUSH3 0x7E6 JUMP JUMPDEST SWAP1 POP DUP3 DUP2 MSTORE PUSH1 0x20 DUP2 ADD DUP5 DUP5 DUP5 ADD GT ISZERO PUSH3 0x880 JUMPI PUSH3 0x87F PUSH3 0x76B JUMP JUMPDEST JUMPDEST PUSH3 0x88D DUP5 DUP3 DUP6 PUSH3 0x83B JUMP JUMPDEST POP SWAP4 SWAP3 POP POP POP JUMP JUMPDEST PUSH1 0x0 DUP3 PUSH1 0x1F DUP4 ADD SLT PUSH3 0x8AD JUMPI PUSH3 0x8AC PUSH3 0x766 JUMP JUMPDEST JUMPDEST DUP2 CALLDATALOAD PUSH3 0x8BF DUP5 DUP3 PUSH1 0x20 DUP7 ADD PUSH3 0x84A JUMP JUMPDEST SWAP2 POP POP SWAP3 SWAP2 POP POP JUMP JUMPDEST PUSH1 0x0 DUP1 PUSH1 0x0 DUP1 PUSH1 0x0 DUP1 PUSH1 0xC0 DUP8 DUP10 SUB SLT ISZERO PUSH3 0x8E8 JUMPI PUSH3 0x8E7 PUSH3 0x4C3 JUMP JUMPDEST JUMPDEST PUSH1 0x0 PUSH3 0x8F8 DUP10 DUP3 DUP11 ADD PUSH3 0x4F1 JUMP JUMPDEST SWAP7 POP POP PUSH1 0x20 PUSH3 0x90B DUP10 DUP3 DUP11 ADD PUSH3 0x74F JUMP JUMPDEST SWAP6 POP POP PUSH1 0x40 PUSH3 0x91E DUP10 DUP3 DUP11 ADD PUSH3 0x74F JUMP JUMPDEST SWAP5 POP POP PUSH1 0x60 DUP8 ADD CALLDATALOAD PUSH8 0xFFFFFFFFFFFFFFFF DUP2 GT ISZERO PUSH3 0x942 JUMPI PUSH3 0x941 PUSH3 0x4C8 JUMP JUMPDEST JUMPDEST PUSH3 0x950 DUP10 DUP3 DUP11 ADD PUSH3 0x895 JUMP JUMPDEST SWAP4 POP POP PUSH1 0x80 PUSH3 0x963 DUP10 DUP3 DUP11 ADD PUSH3 0x4F1 JUMP JUMPDEST SWAP3 POP POP PUSH1 0xA0 DUP8 ADD CALLDATALOAD PUSH8 0xFFFFFFFFFFFFFFFF DUP2 GT ISZERO PUSH3 0x987 JUMPI PUSH3 0x986 PUSH3 0x4C8 JUMP JUMPDEST JUMPDEST PUSH3 0x995 DUP10 DUP3 DUP11 ADD PUSH3 0x895 JUMP JUMPDEST SWAP2 POP POP SWAP3 SWAP6 POP SWAP3 SWAP6 POP SWAP3 SWAP6 JUMP JUMPDEST PUSH1 0x0 DUP2 SWAP1 POP SWAP2 SWAP1 POP JUMP JUMPDEST PUSH1 0x0 PUSH3 0x9CD PUSH3 0x9C7 PUSH3 0x9C1 DUP5 PUSH3 0x53A JUMP JUMPDEST PUSH3 0x9A2 JUMP JUMPDEST PUSH3 0x53A JUMP JUMPDEST SWAP1 POP SWAP2 SWAP1 POP JUMP JUMPDEST PUSH1 0x0 PUSH3 0x9E1 DUP3 PUSH3 0x9AC JUMP JUMPDEST SWAP1 POP SWAP2 SWAP1 POP JUMP JUMPDEST PUSH1 0x0 PUSH3 0x9F5 DUP3 PUSH3 0x9D4 JUMP JUMPDEST SWAP1 POP SWAP2 SWAP1 POP JUMP JUMPDEST PUSH3 0xA07 DUP2 PUSH3 0x9E8 JUMP JUMPDEST DUP3 MSTORE POP POP JUMP JUMPDEST PUSH1 0x0 PUSH1 0x20 DUP3 ADD SWAP1 POP PUSH3 0xA24 PUSH1 0x0 DUP4 ADD DUP5 PUSH3 0x9FC JUMP JUMPDEST SWAP3 SWAP2 POP POP JUMP JUMPDEST PUSH3 0xA35 DUP2 PUSH3 0x4CD JUMP JUMPDEST DUP3 MSTORE POP POP JUMP JUMPDEST PUSH3 0xA46 DUP2 PUSH3 0x72B JUMP JUMPDEST DUP3 MSTORE POP POP JUMP JUMPDEST PUSH1 0x0 DUP2 MLOAD SWAP1 POP SWAP2 SWAP1 POP JUMP JUMPDEST PUSH1 0x0 DUP3 DUP3 MSTORE PUSH1 0x20 DUP3 ADD SWAP1 POP SWAP3 SWAP2 POP POP JUMP JUMPDEST PUSH1 0x0 JUMPDEST DUP4 DUP2 LT ISZERO PUSH3 0xA88 JUMPI DUP1 DUP3 ADD MLOAD DUP2 DUP5 ADD MSTORE PUSH1 0x20 DUP2 ADD SWAP1 POP PUSH3 0xA6B JUMP JUMPDEST PUSH1 0x0 DUP5 DUP5 ADD MSTORE POP POP POP POP JUMP JUMPDEST PUSH1 0x0 PUSH3 0xAA1 DUP3 PUSH3 0xA4C JUMP JUMPDEST PUSH3 0xAAD DUP2 DUP6 PUSH3 0xA57 JUMP JUMPDEST SWAP4 POP PUSH3 0xABF DUP2 DUP6 PUSH1 0x20 DUP7 ADD PUSH3 0xA68 JUMP JUMPDEST PUSH3 0xACA DUP2 PUSH3 0x770 JUMP JUMPDEST DUP5 ADD SWAP2 POP POP SWAP3 SWAP2 POP POP JUMP JUMPDEST PUSH1 0x0 PUSH1 0xE0 DUP3 ADD SWAP1 POP PUSH3 0xAEC PUSH1 0x0 DUP4 ADD DUP11 PUSH3 0x56E JUMP JUMPDEST PUSH3 0xAFB PUSH1 0x20 DUP4 ADD DUP10 PUSH3 0xA2A JUMP JUMPDEST PUSH3 0xB0A PUSH1 0x40 DUP4 ADD DUP9 PUSH3 0xA3B JUMP JUMPDEST PUSH3 0xB19 PUSH1 0x60 DUP4 ADD DUP8 PUSH3 0xA3B JUMP JUMPDEST DUP2 DUP2 SUB PUSH1 0x80 DUP4 ADD MSTORE PUSH3 0xB2D DUP2 DUP7 PUSH3 0xA94 JUMP JUMPDEST SWAP1 POP PUSH3 0xB3E PUSH1 0xA0 DUP4 ADD DUP6 PUSH3 0xA2A JUMP JUMPDEST DUP2 DUP2 SUB PUSH1 0xC0 DUP4 ADD MSTORE PUSH3 0xB52 DUP2 DUP5 PUSH3 0xA94 JUMP JUMPDEST SWAP1 POP SWAP9 SWAP8 POP POP POP POP POP POP POP POP JUMP INVALID PUSH1 0x80 PUSH1 0x40 MSTORE CALLVALUE DUP1 ISZERO PUSH3 0x11 JUMPI PUSH1 0x0 DUP1 REVERT JUMPDEST POP PUSH1 0x40 MLOAD PUSH3 0x4E7D CODESIZE SUB DUP1 PUSH3 0x4E7D DUP4 CODECOPY DUP2 DUP2 ADD PUSH1 0x40 MSTORE DUP2 ADD SWAP1 PUSH3 0x37 SWAP2 SWAP1 PUSH3 0xDE4 JUMP JUMPDEST PUSH1 0x40 MLOAD DUP1 PUSH1 0x60 ADD PUSH1 0x40 MSTORE DUP1 PUSH1 0x39 DUP2 MSTORE PUSH1 0x20 ADD PUSH3 0x4E44 PUSH1 0x39 SWAP2 CODECOPY PUSH3 0x62 DUP2 PUSH3 0x240 PUSH1 0x20 SHL PUSH1 0x20 SHR JUMP JUMPDEST POP ORIGIN PUSH1 0x4 PUSH1 0x0 PUSH2 0x100 EXP DUP2 SLOAD DUP2 PUSH20 0xFFFFFFFFFFFFFFFFFFFFFFFFFFFFFFFFFFFFFFFF MUL NOT AND SWAP1 DUP4 PUSH20 0xFFFFFFFFFFFFFFFFFFFFFFFFFFFFFFFFFFFFFFFF AND MUL OR SWAP1 SSTORE POP DUP7 PUSH1 0x3 PUSH1 0x0 PUSH2 0x100 EXP DUP2 SLOAD DUP2 PUSH20 0xFFFFFFFFFFFFFFFFFFFFFFFFFFFFFFFFFFFFFFFF MUL NOT AND SWAP1 DUP4 PUSH20 0xFFFFFFFFFFFFFFFFFFFFFFFFFFFFFFFFFFFFFFFF AND MUL OR SWAP1 SSTORE POP DUP6 PUSH1 0x5 DUP2 SWAP1 SSTORE POP DUP5 PUSH1 0x6 DUP2 SWAP1 SSTORE POP DUP4 PUSH1 0x7 DUP2 SWAP1 SSTORE POP DUP3 PUSH1 0x8 SWAP1 DUP2 PUSH3 0x10B SWAP2 SWAP1 PUSH3 0x1116 JUMP JUMPDEST POP DUP1 PUSH1 0x9 SWAP1 DUP2 PUSH3 0x11D SWAP2 SWAP1 PUSH3 0x1116 JUMP JUMPDEST POP DUP2 PUSH1 0xA DUP2 SWAP1 SSTORE POP PUSH1 0x1 PUSH1 0xA SLOAD SUB PUSH3 0x145 JUMPI PUSH8 0x53444835EC580000 PUSH1 0xC DUP2 SWAP1 SSTORE POP PUSH3 0x155 JUMP JUMPDEST PUSH8 0xDE0B6B3A7640000 PUSH1 0xC DUP2 SWAP1 SSTORE POP JUMPDEST PUSH3 0x278D00 PUSH1 0x3C DUP1 PUSH1 0x18 PUSH1 0x5 SLOAD PUSH3 0x16D SWAP2 SWAP1 PUSH3 0x122C JUMP JUMPDEST PUSH3 0x179 SWAP2 SWAP1 PUSH3 0x122C JUMP JUMPDEST PUSH3 0x185 SWAP2 SWAP1 PUSH3 0x122C JUMP JUMPDEST TIMESTAMP PUSH3 0x192 SWAP2 SWAP1 PUSH3 0x1277 JUMP JUMPDEST PUSH3 0x19E SWAP2 SWAP1 PUSH3 0x12B2 JUMP JUMPDEST PUSH1 0xB DUP2 SWAP1 SSTORE POP PUSH3 0x1D1 ADDRESS PUSH1 0x10 SLOAD PUSH8 0xDE0B6B3A7640000 PUSH1 0x40 MLOAD DUP1 PUSH1 0x20 ADD PUSH1 0x40 MSTORE DUP1 PUSH1 0x0 DUP2 MSTORE POP PUSH3 0x255 PUSH1 0x20 SHL PUSH1 0x20 SHR JUMP JUMPDEST PUSH1 0x10 PUSH1 0x0 DUP2 SLOAD DUP1 SWAP3 SWAP2 SWAP1 PUSH3 0x1E6 SWAP1 PUSH3 0x12ED JUMP JUMPDEST SWAP2 SWAP1 POP SSTORE POP PUSH3 0x233 PUSH1 0x4 PUSH1 0x0 SWAP1 SLOAD SWAP1 PUSH2 0x100 EXP SWAP1 DIV PUSH20 0xFFFFFFFFFFFFFFFFFFFFFFFFFFFFFFFFFFFFFFFF AND PUSH1 0x10 SLOAD PUSH1 0x1 PUSH1 0x40 MLOAD DUP1 PUSH1 0x20 ADD PUSH1 0x40 MSTORE DUP1 PUSH1 0x0 DUP2 MSTORE POP PUSH3 0x255 PUSH1 0x20 SHL PUSH1 0x20 SHR JUMP JUMPDEST POP POP POP POP POP POP POP PUSH3 0x16BE JUMP JUMPDEST DUP1 PUSH1 0x2 SWAP1 DUP2 PUSH3 0x251 SWAP2 SWAP1 PUSH3 0x1116 JUMP JUMPDEST POP POP JUMP JUMPDEST PUSH1 0x0 PUSH20 0xFFFFFFFFFFFFFFFFFFFFFFFFFFFFFFFFFFFFFFFF AND DUP5 PUSH20 0xFFFFFFFFFFFFFFFFFFFFFFFFFFFFFFFFFFFFFFFF AND SUB PUSH3 0x2CA JUMPI PUSH1 0x0 PUSH1 0x40 MLOAD PUSH32 0x57F447CE00000000000000000000000000000000000000000000000000000000 DUP2 MSTORE PUSH1 0x4 ADD PUSH3 0x2C1 SWAP2 SWAP1 PUSH3 0x134B JUMP JUMPDEST PUSH1 0x40 MLOAD DUP1 SWAP2 SUB SWAP1 REVERT JUMPDEST PUSH1 0x0 DUP1 PUSH3 0x2DF DUP6 DUP6 PUSH3 0x301 PUSH1 0x20 SHL PUSH1 0x20 SHR JUMP JUMPDEST SWAP2 POP SWAP2 POP PUSH3 0x2F9 PUSH1 0x0 DUP8 DUP5 DUP5 DUP8 PUSH3 0x331 PUSH1 0x20 SHL PUSH1 0x20 SHR JUMP JUMPDEST POP POP POP POP POP POP JUMP JUMPDEST PUSH1 0x60 DUP1 PUSH1 0x40 MLOAD SWAP2 POP PUSH1 0x1 DUP3 MSTORE DUP4 PUSH1 0x20 DUP4 ADD MSTORE PUSH1 0x40 DUP3 ADD SWAP1 POP PUSH1 0x1 DUP2 MSTORE DUP3 PUSH1 0x20 DUP3 ADD MSTORE PUSH1 0x40 DUP2 ADD PUSH1 0x40 MSTORE SWAP3 POP SWAP3 SWAP1 POP JUMP JUMPDEST PUSH3 0x345 DUP6 DUP6 DUP6 DUP6 PUSH3 0x40A PUSH1 0x20 SHL PUSH1 0x20 SHR JUMP JUMPDEST PUSH1 0x0 PUSH20 0xFFFFFFFFFFFFFFFFFFFFFFFFFFFFFFFFFFFFFFFF AND DUP5 PUSH20 0xFFFFFFFFFFFFFFFFFFFFFFFFFFFFFFFFFFFFFFFF AND EQ PUSH3 0x403 JUMPI PUSH1 0x0 PUSH3 0x38C PUSH3 0x7D4 PUSH1 0x20 SHL PUSH1 0x20 SHR JUMP JUMPDEST SWAP1 POP PUSH1 0x1 DUP5 MLOAD SUB PUSH3 0x3EA JUMPI PUSH1 0x0 PUSH3 0x3B0 PUSH1 0x0 DUP7 PUSH3 0x7DC PUSH1 0x20 SHL SWAP1 SWAP2 SWAP1 PUSH1 0x20 SHR JUMP JUMPDEST SWAP1 POP PUSH1 0x0 PUSH3 0x3CA PUSH1 0x0 DUP7 PUSH3 0x7DC PUSH1 0x20 SHL SWAP1 SWAP2 SWAP1 PUSH1 0x20 SHR JUMP JUMPDEST SWAP1 POP PUSH3 0x3E2 DUP4 DUP10 DUP10 DUP6 DUP6 DUP10 PUSH3 0x7F0 PUSH1 0x20 SHL PUSH1 0x20 SHR JUMP JUMPDEST POP POP PUSH3 0x401 JUMP JUMPDEST PUSH3 0x400 DUP2 DUP8 DUP8 DUP8 DUP8 DUP8 PUSH3 0x9B3 PUSH1 0x20 SHL PUSH1 0x20 SHR JUMP JUMPDEST JUMPDEST POP JUMPDEST POP POP POP POP POP JUMP JUMPDEST DUP1 MLOAD DUP3 MLOAD EQ PUSH3 0x457 JUMPI DUP2 MLOAD DUP2 MLOAD PUSH1 0x40 MLOAD PUSH32 0x5B05999100000000000000000000000000000000000000000000000000000000 DUP2 MSTORE PUSH1 0x4 ADD PUSH3 0x44E SWAP3 SWAP2 SWAP1 PUSH3 0x1379 JUMP JUMPDEST PUSH1 0x40 MLOAD DUP1 SWAP2 SUB SWAP1 REVERT JUMPDEST PUSH1 0x0 PUSH3 0x469 PUSH3 0x7D4 PUSH1 0x20 SHL PUSH1 0x20 SHR JUMP JUMPDEST SWAP1 POP PUSH1 0x0 JUMPDEST DUP4 MLOAD DUP2 LT ISZERO PUSH3 0x685 JUMPI PUSH1 0x0 PUSH3 0x48F DUP3 DUP7 PUSH3 0x7DC PUSH1 0x20 SHL SWAP1 SWAP2 SWAP1 PUSH1 0x20 SHR JUMP JUMPDEST SWAP1 POP PUSH1 0x0 PUSH3 0x4A8 DUP4 DUP7 PUSH3 0x7DC PUSH1 0x20 SHL SWAP1 SWAP2 SWAP1 PUSH1 0x20 SHR JUMP JUMPDEST SWAP1 POP PUSH1 0x0 PUSH20 0xFFFFFFFFFFFFFFFFFFFFFFFFFFFFFFFFFFFFFFFF AND DUP9 PUSH20 0xFFFFFFFFFFFFFFFFFFFFFFFFFFFFFFFFFFFFFFFF AND EQ PUSH3 0x5D9 JUMPI PUSH1 0x0 DUP1 PUSH1 0x0 DUP5 DUP2 MSTORE PUSH1 0x20 ADD SWAP1 DUP2 MSTORE PUSH1 0x20 ADD PUSH1 0x0 KECCAK256 PUSH1 0x0 DUP11 PUSH20 0xFFFFFFFFFFFFFFFFFFFFFFFFFFFFFFFFFFFFFFFF AND PUSH20 0xFFFFFFFFFFFFFFFFFFFFFFFFFFFFFFFFFFFFFFFF AND DUP2 MSTORE PUSH1 0x20 ADD SWAP1 DUP2 MSTORE PUSH1 0x20 ADD PUSH1 0x0 KECCAK256 SLOAD SWAP1 POP DUP2 DUP2 LT ISZERO PUSH3 0x581 JUMPI DUP9 DUP2 DUP4 DUP6 PUSH1 0x40 MLOAD PUSH32 0x3DEE4C500000000000000000000000000000000000000000000000000000000 DUP2 MSTORE PUSH1 0x4 ADD PUSH3 0x578 SWAP5 SWAP4 SWAP3 SWAP2 SWAP1 PUSH3 0x13A6 JUMP JUMPDEST PUSH1 0x40 MLOAD DUP1 SWAP2 SUB SWAP1 REVERT JUMPDEST DUP2 DUP2 SUB PUSH1 0x0 DUP1 DUP6 DUP2 MSTORE PUSH1 0x20 ADD SWAP1 DUP2 MSTORE PUSH1 0x20 ADD PUSH1 0x0 KECCAK256 PUSH1 0x0 DUP12 PUSH20 0xFFFFFFFFFFFFFFFFFFFFFFFFFFFFFFFFFFFFFFFF AND PUSH20 0xFFFFFFFFFFFFFFFFFFFFFFFFFFFFFFFFFFFFFFFF AND DUP2 MSTORE PUSH1 0x20 ADD SWAP1 DUP2 MSTORE PUSH1 0x20 ADD PUSH1 0x0 KECCAK256 DUP2 SWAP1 SSTORE POP POP JUMPDEST PUSH1 0x0 PUSH20 0xFFFFFFFFFFFFFFFFFFFFFFFFFFFFFFFFFFFFFFFF AND DUP8 PUSH20 0xFFFFFFFFFFFFFFFFFFFFFFFFFFFFFFFFFFFFFFFF AND EQ PUSH3 0x677 JUMPI DUP1 PUSH1 0x0 DUP1 DUP5 DUP2 MSTORE PUSH1 0x20 ADD SWAP1 DUP2 MSTORE PUSH1 0x20 ADD PUSH1 0x0 KECCAK256 PUSH1 0x0 DUP10 PUSH20 0xFFFFFFFFFFFFFFFFFFFFFFFFFFFFFFFFFFFFFFFF AND PUSH20 0xFFFFFFFFFFFFFFFFFFFFFFFFFFFFFFFFFFFFFFFF AND DUP2 MSTORE PUSH1 0x20 ADD SWAP1 DUP2 MSTORE PUSH1 0x20 ADD PUSH1 0x0 KECCAK256 PUSH1 0x0 DUP3 DUP3 SLOAD PUSH3 0x66F SWAP2 SWAP1 PUSH3 0x1277 JUMP JUMPDEST SWAP3 POP POP DUP2 SWAP1 SSTORE POP JUMPDEST POP POP DUP1 PUSH1 0x1 ADD SWAP1 POP PUSH3 0x46E JUMP JUMPDEST POP PUSH1 0x1 DUP4 MLOAD SUB PUSH3 0x74C JUMPI PUSH1 0x0 PUSH3 0x6A8 PUSH1 0x0 DUP6 PUSH3 0x7DC PUSH1 0x20 SHL SWAP1 SWAP2 SWAP1 PUSH1 0x20 SHR JUMP JUMPDEST SWAP1 POP PUSH1 0x0 PUSH3 0x6C2 PUSH1 0x0 DUP6 PUSH3 0x7DC PUSH1 0x20 SHL SWAP1 SWAP2 SWAP1 PUSH1 0x20 SHR JUMP JUMPDEST SWAP1 POP DUP6 PUSH20 0xFFFFFFFFFFFFFFFFFFFFFFFFFFFFFFFFFFFFFFFF AND DUP8 PUSH20 0xFFFFFFFFFFFFFFFFFFFFFFFFFFFFFFFFFFFFFFFF AND DUP5 PUSH20 0xFFFFFFFFFFFFFFFFFFFFFFFFFFFFFFFFFFFFFFFF AND PUSH32 0xC3D58168C5AE7397731D063D5BBF3D657854427343F4C083240F7AACAA2D0F62 DUP6 DUP6 PUSH1 0x40 MLOAD PUSH3 0x73C SWAP3 SWAP2 SWAP1 PUSH3 0x1379 JUMP JUMPDEST PUSH1 0x40 MLOAD DUP1 SWAP2 SUB SWAP1 LOG4 POP POP PUSH3 0x7CD JUMP JUMPDEST DUP4 PUSH20 0xFFFFFFFFFFFFFFFFFFFFFFFFFFFFFFFFFFFFFFFF AND DUP6 PUSH20 0xFFFFFFFFFFFFFFFFFFFFFFFFFFFFFFFFFFFFFFFF AND DUP3 PUSH20 0xFFFFFFFFFFFFFFFFFFFFFFFFFFFFFFFFFFFFFFFF AND PUSH32 0x4A39DC06D4C0DBC64B70AF90FD698A233A518AA5D07E595D983B8C0526C8F7FB DUP7 DUP7 PUSH1 0x40 MLOAD PUSH3 0x7C4 SWAP3 SWAP2 SWAP1 PUSH3 0x14C1 JUMP JUMPDEST PUSH1 0x40 MLOAD DUP1 SWAP2 SUB SWAP1 LOG4 JUMPDEST POP POP POP POP POP JUMP JUMPDEST PUSH1 0x0 CALLER SWAP1 POP SWAP1 JUMP JUMPDEST PUSH1 0x0 PUSH1 0x20 DUP3 MUL PUSH1 0x20 DUP5 ADD ADD MLOAD SWAP1 POP SWAP3 SWAP2 POP POP JUMP JUMPDEST PUSH1 0x0 DUP5 PUSH20 0xFFFFFFFFFFFFFFFFFFFFFFFFFFFFFFFFFFFFFFFF AND EXTCODESIZE GT ISZERO PUSH3 0x9AB JUMPI DUP4 PUSH20 0xFFFFFFFFFFFFFFFFFFFFFFFFFFFFFFFFFFFFFFFF AND PUSH4 0xF23A6E61 DUP8 DUP8 DUP7 DUP7 DUP7 PUSH1 0x40 MLOAD DUP7 PUSH4 0xFFFFFFFF AND PUSH1 0xE0 SHL DUP2 MSTORE PUSH1 0x4 ADD PUSH3 0x854 SWAP6 SWAP5 SWAP4 SWAP3 SWAP2 SWAP1 PUSH3 0x1559 JUMP JUMPDEST PUSH1 0x20 PUSH1 0x40 MLOAD DUP1 DUP4 SUB DUP2 PUSH1 0x0 DUP8 GAS CALL SWAP3 POP POP POP DUP1 ISZERO PUSH3 0x893 JUMPI POP PUSH1 0x40 MLOAD RETURNDATASIZE PUSH1 0x1F NOT PUSH1 0x1F DUP3 ADD AND DUP3 ADD DUP1 PUSH1 0x40 MSTORE POP DUP2 ADD SWAP1 PUSH3 0x890 SWAP2 SWAP1 PUSH3 0x161A JUMP JUMPDEST PUSH1 0x1 JUMPDEST PUSH3 0x91D JUMPI RETURNDATASIZE DUP1 PUSH1 0x0 DUP2 EQ PUSH3 0x8C6 JUMPI PUSH1 0x40 MLOAD SWAP2 POP PUSH1 0x1F NOT PUSH1 0x3F RETURNDATASIZE ADD AND DUP3 ADD PUSH1 0x40 MSTORE RETURNDATASIZE DUP3 MSTORE RETURNDATASIZE PUSH1 0x0 PUSH1 0x20 DUP5 ADD RETURNDATACOPY PUSH3 0x8CB JUMP JUMPDEST PUSH1 0x60 SWAP2 POP JUMPDEST POP PUSH1 0x0 DUP2 MLOAD SUB PUSH3 0x915 JUMPI DUP5 PUSH1 0x40 MLOAD PUSH32 0x57F447CE00000000000000000000000000000000000000000000000000000000 DUP2 MSTORE PUSH1 0x4 ADD PUSH3 0x90C SWAP2 SWAP1 PUSH3 0x134B JUMP JUMPDEST PUSH1 0x40 MLOAD DUP1 SWAP2 SUB SWAP1 REVERT JUMPDEST DUP1 MLOAD DUP2 PUSH1 0x20 ADD REVERT JUMPDEST PUSH4 0xF23A6E61 PUSH1 0xE0 SHL PUSH28 0xFFFFFFFFFFFFFFFFFFFFFFFFFFFFFFFFFFFFFFFFFFFFFFFFFFFFFFFF NOT AND DUP2 PUSH28 0xFFFFFFFFFFFFFFFFFFFFFFFFFFFFFFFFFFFFFFFFFFFFFFFFFFFFFFFF NOT AND EQ PUSH3 0x9A9 JUMPI DUP5 PUSH1 0x40 MLOAD PUSH32 0x57F447CE00000000000000000000000000000000000000000000000000000000 DUP2 MSTORE PUSH1 0x4 ADD PUSH3 0x9A0 SWAP2 SWAP1 PUSH3 0x134B JUMP JUMPDEST PUSH1 0x40 MLOAD DUP1 SWAP2 SUB SWAP1 REVERT JUMPDEST POP JUMPDEST POP POP POP POP POP POP JUMP JUMPDEST PUSH1 0x0 DUP5 PUSH20 0xFFFFFFFFFFFFFFFFFFFFFFFFFFFFFFFFFFFFFFFF AND EXTCODESIZE GT ISZERO PUSH3 0xB6E JUMPI DUP4 PUSH20 0xFFFFFFFFFFFFFFFFFFFFFFFFFFFFFFFFFFFFFFFF AND PUSH4 0xBC197C81 DUP8 DUP8 DUP7 DUP7 DUP7 PUSH1 0x40 MLOAD DUP7 PUSH4 0xFFFFFFFF AND PUSH1 0xE0 SHL DUP2 MSTORE PUSH1 0x4 ADD PUSH3 0xA17 SWAP6 SWAP5 SWAP4 SWAP3 SWAP2 SWAP1 PUSH3 0x164C JUMP JUMPDEST PUSH1 0x20 PUSH1 0x40 MLOAD DUP1 DUP4 SUB DUP2 PUSH1 0x0 DUP8 GAS CALL SWAP3 POP POP POP DUP1 ISZERO PUSH3 0xA56 JUMPI POP PUSH1 0x40 MLOAD RETURNDATASIZE PUSH1 0x1F NOT PUSH1 0x1F DUP3 ADD AND DUP3 ADD DUP1 PUSH1 0x40 MSTORE POP DUP2 ADD SWAP1 PUSH3 0xA53 SWAP2 SWAP1 PUSH3 0x161A JUMP JUMPDEST PUSH1 0x1 JUMPDEST PUSH3 0xAE0 JUMPI RETURNDATASIZE DUP1 PUSH1 0x0 DUP2 EQ PUSH3 0xA89 JUMPI PUSH1 0x40 MLOAD SWAP2 POP PUSH1 0x1F NOT PUSH1 0x3F RETURNDATASIZE ADD AND DUP3 ADD PUSH1 0x40 MSTORE RETURNDATASIZE DUP3 MSTORE RETURNDATASIZE PUSH1 0x0 PUSH1 0x20 DUP5 ADD RETURNDATACOPY PUSH3 0xA8E JUMP JUMPDEST PUSH1 0x60 SWAP2 POP JUMPDEST POP PUSH1 0x0 DUP2 MLOAD SUB PUSH3 0xAD8 JUMPI DUP5 PUSH1 0x40 MLOAD PUSH32 0x57F447CE00000000000000000000000000000000000000000000000000000000 DUP2 MSTORE PUSH1 0x4 ADD PUSH3 0xACF SWAP2 SWAP1 PUSH3 0x134B JUMP JUMPDEST PUSH1 0x40 MLOAD DUP1 SWAP2 SUB SWAP1 REVERT JUMPDEST DUP1 MLOAD DUP2 PUSH1 0x20 ADD REVERT JUMPDEST PUSH4 0xBC197C81 PUSH1 0xE0 SHL PUSH28 0xFFFFFFFFFFFFFFFFFFFFFFFFFFFFFFFFFFFFFFFFFFFFFFFFFFFFFFFF NOT AND DUP2 PUSH28 0xFFFFFFFFFFFFFFFFFFFFFFFFFFFFFFFFFFFFFFFFFFFFFFFFFFFFFFFF NOT AND EQ PUSH3 0xB6C JUMPI DUP5 PUSH1 0x40 MLOAD PUSH32 0x57F447CE00000000000000000000000000000000000000000000000000000000 DUP2 MSTORE PUSH1 0x4 ADD PUSH3 0xB63 SWAP2 SWAP1 PUSH3 0x134B JUMP JUMPDEST PUSH1 0x40 MLOAD DUP1 SWAP2 SUB SWAP1 REVERT JUMPDEST POP JUMPDEST POP POP POP POP POP POP JUMP JUMPDEST PUSH1 0x0 PUSH1 0x40 MLOAD SWAP1 POP SWAP1 JUMP JUMPDEST PUSH1 0x0 DUP1 REVERT JUMPDEST PUSH1 0x0 DUP1 REVERT JUMPDEST PUSH1 0x0 PUSH20 0xFFFFFFFFFFFFFFFFFFFFFFFFFFFFFFFFFFFFFFFF DUP3 AND SWAP1 POP SWAP2 SWAP1 POP JUMP JUMPDEST PUSH1 0x0 PUSH3 0xBB7 DUP3 PUSH3 0xB8A JUMP JUMPDEST SWAP1 POP SWAP2 SWAP1 POP JUMP JUMPDEST PUSH3 0xBC9 DUP2 PUSH3 0xBAA JUMP JUMPDEST DUP2 EQ PUSH3 0xBD5 JUMPI PUSH1 0x0 DUP1 REVERT JUMPDEST POP JUMP JUMPDEST PUSH1 0x0 DUP2 MLOAD SWAP1 POP PUSH3 0xBE9 DUP2 PUSH3 0xBBE JUMP JUMPDEST SWAP3 SWAP2 POP POP JUMP JUMPDEST PUSH1 0x0 DUP2 SWAP1 POP SWAP2 SWAP1 POP JUMP JUMPDEST PUSH3 0xC04 DUP2 PUSH3 0xBEF JUMP JUMPDEST DUP2 EQ PUSH3 0xC10 JUMPI PUSH1 0x0 DUP1 REVERT JUMPDEST POP JUMP JUMPDEST PUSH1 0x0 DUP2 MLOAD SWAP1 POP PUSH3 0xC24 DUP2 PUSH3 0xBF9 JUMP JUMPDEST SWAP3 SWAP2 POP POP JUMP JUMPDEST PUSH1 0x0 DUP2 SWAP1 POP SWAP2 SWAP1 POP JUMP JUMPDEST PUSH3 0xC3F DUP2 PUSH3 0xC2A JUMP JUMPDEST DUP2 EQ PUSH3 0xC4B JUMPI PUSH1 0x0 DUP1 REVERT JUMPDEST POP JUMP JUMPDEST PUSH1 0x0 DUP2 MLOAD SWAP1 POP PUSH3 0xC5F DUP2 PUSH3 0xC34 JUMP JUMPDEST SWAP3 SWAP2 POP POP JUMP JUMPDEST PUSH1 0x0 DUP1 REVERT JUMPDEST PUSH1 0x0 DUP1 REVERT JUMPDEST PUSH1 0x0 PUSH1 0x1F NOT PUSH1 0x1F DUP4 ADD AND SWAP1 POP SWAP2 SWAP1 POP JUMP JUMPDEST PUSH32 0x4E487B7100000000000000000000000000000000000000000000000000000000 PUSH1 0x0 MSTORE PUSH1 0x41 PUSH1 0x4 MSTORE PUSH1 0x24 PUSH1 0x0 REVERT JUMPDEST PUSH3 0xCBA DUP3 PUSH3 0xC6F JUMP JUMPDEST DUP2 ADD DUP2 DUP2 LT PUSH8 0xFFFFFFFFFFFFFFFF DUP3 GT OR ISZERO PUSH3 0xCDC JUMPI PUSH3 0xCDB PUSH3 0xC80 JUMP JUMPDEST JUMPDEST DUP1 PUSH1 0x40 MSTORE POP POP POP JUMP JUMPDEST PUSH1 0x0 PUSH3 0xCF1 PUSH3 0xB76 JUMP JUMPDEST SWAP1 POP PUSH3 0xCFF DUP3 DUP3 PUSH3 0xCAF JUMP JUMPDEST SWAP2 SWAP1 POP JUMP JUMPDEST PUSH1 0x0 PUSH8 0xFFFFFFFFFFFFFFFF DUP3 GT ISZERO PUSH3 0xD22 JUMPI PUSH3 0xD21 PUSH3 0xC80 JUMP JUMPDEST JUMPDEST PUSH3 0xD2D DUP3 PUSH3 0xC6F JUMP JUMPDEST SWAP1 POP PUSH1 0x20 DUP2 ADD SWAP1 POP SWAP2 SWAP1 POP JUMP JUMPDEST PUSH1 0x0 JUMPDEST DUP4 DUP2 LT ISZERO PUSH3 0xD5A JUMPI DUP1 DUP3 ADD MLOAD DUP2 DUP5 ADD MSTORE PUSH1 0x20 DUP2 ADD SWAP1 POP PUSH3 0xD3D JUMP JUMPDEST PUSH1 0x0 DUP5 DUP5 ADD MSTORE POP POP POP POP JUMP JUMPDEST PUSH1 0x0 PUSH3 0xD7D PUSH3 0xD77 DUP5 PUSH3 0xD04 JUMP JUMPDEST PUSH3 0xCE5 JUMP JUMPDEST SWAP1 POP DUP3 DUP2 MSTORE PUSH1 0x20 DUP2 ADD DUP5 DUP5 DUP5 ADD GT ISZERO PUSH3 0xD9C JUMPI PUSH3 0xD9B PUSH3 0xC6A JUMP JUMPDEST JUMPDEST PUSH3 0xDA9 DUP5 DUP3 DUP6 PUSH3 0xD3A JUMP JUMPDEST POP SWAP4 SWAP3 POP POP POP JUMP JUMPDEST PUSH1 0x0 DUP3 PUSH1 0x1F DUP4 ADD SLT PUSH3 0xDC9 JUMPI PUSH3 0xDC8 PUSH3 0xC65 JUMP JUMPDEST JUMPDEST DUP2 MLOAD PUSH3 0xDDB DUP5 DUP3 PUSH1 0x20 DUP7 ADD PUSH3 0xD66 JUMP JUMPDEST SWAP2 POP POP SWAP3 SWAP2 POP POP JUMP JUMPDEST PUSH1 0x0 DUP1 PUSH1 0x0 DUP1 PUSH1 0x0 DUP1 PUSH1 0x0 PUSH1 0xE0 DUP9 DUP11 SUB SLT ISZERO PUSH3 0xE06 JUMPI PUSH3 0xE05 PUSH3 0xB80 JUMP JUMPDEST JUMPDEST PUSH1 0x0 PUSH3 0xE16 DUP11 DUP3 DUP12 ADD PUSH3 0xBD8 JUMP JUMPDEST SWAP8 POP POP PUSH1 0x20 PUSH3 0xE29 DUP11 DUP3 DUP12 ADD PUSH3 0xC13 JUMP JUMPDEST SWAP7 POP POP PUSH1 0x40 PUSH3 0xE3C DUP11 DUP3 DUP12 ADD PUSH3 0xC4E JUMP JUMPDEST SWAP6 POP POP PUSH1 0x60 PUSH3 0xE4F DUP11 DUP3 DUP12 ADD PUSH3 0xC4E JUMP JUMPDEST SWAP5 POP POP PUSH1 0x80 DUP9 ADD MLOAD PUSH8 0xFFFFFFFFFFFFFFFF DUP2 GT ISZERO PUSH3 0xE73 JUMPI PUSH3 0xE72 PUSH3 0xB85 JUMP JUMPDEST JUMPDEST PUSH3 0xE81 DUP11 DUP3 DUP12 ADD PUSH3 0xDB1 JUMP JUMPDEST SWAP4 POP POP PUSH1 0xA0 PUSH3 0xE94 DUP11 DUP3 DUP12 ADD PUSH3 0xC13 JUMP JUMPDEST SWAP3 POP POP PUSH1 0xC0 DUP9 ADD MLOAD PUSH8 0xFFFFFFFFFFFFFFFF DUP2 GT ISZERO PUSH3 0xEB8 JUMPI PUSH3 0xEB7 PUSH3 0xB85 JUMP JUMPDEST JUMPDEST PUSH3 0xEC6 DUP11 DUP3 DUP12 ADD PUSH3 0xDB1 JUMP JUMPDEST SWAP2 POP POP SWAP3 SWAP6 SWAP9 SWAP2 SWAP5 SWAP8 POP SWAP3 SWAP6 POP JUMP JUMPDEST PUSH1 0x0 DUP2 MLOAD SWAP1 POP SWAP2 SWAP1 POP JUMP JUMPDEST PUSH32 0x4E487B7100000000000000000000000000000000000000000000000000000000 PUSH1 0x0 MSTORE PUSH1 0x22 PUSH1 0x4 MSTORE PUSH1 0x24 PUSH1 0x0 REVERT JUMPDEST PUSH1 0x0 PUSH1 0x2 DUP3 DIV SWAP1 POP PUSH1 0x1 DUP3 AND DUP1 PUSH3 0xF28 JUMPI PUSH1 0x7F DUP3 AND SWAP2 POP JUMPDEST PUSH1 0x20 DUP3 LT DUP2 SUB PUSH3 0xF3E JUMPI PUSH3 0xF3D PUSH3 0xEE0 JUMP JUMPDEST JUMPDEST POP SWAP2 SWAP1 POP JUMP JUMPDEST PUSH1 0x0 DUP2 SWAP1 POP DUP2 PUSH1 0x0 MSTORE PUSH1 0x20 PUSH1 0x0 KECCAK256 SWAP1 POP SWAP2 SWAP1 POP JUMP JUMPDEST PUSH1 0x0 PUSH1 0x20 PUSH1 0x1F DUP4 ADD DIV SWAP1 POP SWAP2 SWAP1 POP JUMP JUMPDEST PUSH1 0x0 DUP3 DUP3 SHL SWAP1 POP SWAP3 SWAP2 POP POP JUMP JUMPDEST PUSH1 0x0 PUSH1 0x8 DUP4 MUL PUSH3 0xFA8 PUSH32 0xFFFFFFFFFFFFFFFFFFFFFFFFFFFFFFFFFFFFFFFFFFFFFFFFFFFFFFFFFFFFFFFF DUP3 PUSH3 0xF69 JUMP JUMPDEST PUSH3 0xFB4 DUP7 DUP4 PUSH3 0xF69 JUMP JUMPDEST SWAP6 POP DUP1 NOT DUP5 AND SWAP4 POP DUP1 DUP7 AND DUP5 OR SWAP3 POP POP POP SWAP4 SWAP3 POP POP POP JUMP JUMPDEST PUSH1 0x0 DUP2 SWAP1 POP SWAP2 SWAP1 POP JUMP JUMPDEST PUSH1 0x0 PUSH3 0xFF7 PUSH3 0xFF1 PUSH3 0xFEB DUP5 PUSH3 0xBEF JUMP JUMPDEST PUSH3 0xFCC JUMP JUMPDEST PUSH3 0xBEF JUMP JUMPDEST SWAP1 POP SWAP2 SWAP1 POP JUMP JUMPDEST PUSH1 0x0 DUP2 SWAP1 POP SWAP2 SWAP1 POP JUMP JUMPDEST PUSH3 0x1013 DUP4 PUSH3 0xFD6 JUMP JUMPDEST PUSH3 0x102B PUSH3 0x1022 DUP3 PUSH3 0xFFE JUMP JUMPDEST DUP5 DUP5 SLOAD PUSH3 0xF76 JUMP JUMPDEST DUP3 SSTORE POP POP POP POP JUMP JUMPDEST PUSH1 0x0 SWAP1 JUMP JUMPDEST PUSH3 0x1042 PUSH3 0x1033 JUMP JUMPDEST PUSH3 0x104F DUP2 DUP5 DUP5 PUSH3 0x1008 JUMP JUMPDEST POP POP POP JUMP JUMPDEST JUMPDEST DUP2 DUP2 LT ISZERO PUSH3 0x1077 JUMPI PUSH3 0x106B PUSH1 0x0 DUP3 PUSH3 0x1038 JUMP JUMPDEST PUSH1 0x1 DUP2 ADD SWAP1 POP PUSH3 0x1055 JUMP JUMPDEST POP POP JUMP JUMPDEST PUSH1 0x1F DUP3 GT ISZERO PUSH3 0x10C6 JUMPI PUSH3 0x1090 DUP2 PUSH3 0xF44 JUMP JUMPDEST PUSH3 0x109B DUP5 PUSH3 0xF59 JUMP JUMPDEST DUP2 ADD PUSH1 0x20 DUP6 LT ISZERO PUSH3 0x10AB JUMPI DUP2 SWAP1 POP JUMPDEST PUSH3 0x10C3 PUSH3 0x10BA DUP6 PUSH3 0xF59 JUMP JUMPDEST DUP4 ADD DUP3 PUSH3 0x1054 JUMP JUMPDEST POP POP JUMPDEST POP POP POP JUMP JUMPDEST PUSH1 0x0 DUP3 DUP3 SHR SWAP1 POP SWAP3 SWAP2 POP POP JUMP JUMPDEST PUSH1 0x0 PUSH3 0x10EB PUSH1 0x0 NOT DUP5 PUSH1 0x8 MUL PUSH3 0x10CB JUMP JUMPDEST NOT DUP1 DUP4 AND SWAP2 POP POP SWAP3 SWAP2 POP POP JUMP JUMPDEST PUSH1 0x0 PUSH3 0x1106 DUP4 DUP4 PUSH3 0x10D8 JUMP JUMPDEST SWAP2 POP DUP3 PUSH1 0x2 MUL DUP3 OR SWAP1 POP SWAP3 SWAP2 POP POP JUMP JUMPDEST PUSH3 0x1121 DUP3 PUSH3 0xED5 JUMP JUMPDEST PUSH8 0xFFFFFFFFFFFFFFFF DUP2 GT ISZERO PUSH3 0x113D JUMPI PUSH3 0x113C PUSH3 0xC80 JUMP JUMPDEST JUMPDEST PUSH3 0x1149 DUP3 SLOAD PUSH3 0xF0F JUMP JUMPDEST PUSH3 0x1156 DUP3 DUP3 DUP6 PUSH3 0x107B JUMP JUMPDEST PUSH1 0x0 PUSH1 0x20 SWAP1 POP PUSH1 0x1F DUP4 GT PUSH1 0x1 DUP2 EQ PUSH3 0x118E JUMPI PUSH1 0x0 DUP5 ISZERO PUSH3 0x1179 JUMPI DUP3 DUP8 ADD MLOAD SWAP1 POP JUMPDEST PUSH3 0x1185 DUP6 DUP3 PUSH3 0x10F8 JUMP JUMPDEST DUP7 SSTORE POP PUSH3 0x11F5 JUMP JUMPDEST PUSH1 0x1F NOT DUP5 AND PUSH3 0x119E DUP7 PUSH3 0xF44 JUMP JUMPDEST PUSH1 0x0 JUMPDEST DUP3 DUP2 LT ISZERO PUSH3 0x11C8 JUMPI DUP5 DUP10 ADD MLOAD DUP3 SSTORE PUSH1 0x1 DUP3 ADD SWAP2 POP PUSH1 0x20 DUP6 ADD SWAP5 POP PUSH1 0x20 DUP2 ADD SWAP1 POP PUSH3 0x11A1 JUMP JUMPDEST DUP7 DUP4 LT ISZERO PUSH3 0x11E8 JUMPI DUP5 DUP10 ADD MLOAD PUSH3 0x11E4 PUSH1 0x1F DUP10 AND DUP3 PUSH3 0x10D8 JUMP JUMPDEST DUP4 SSTORE POP JUMPDEST PUSH1 0x1 PUSH1 0x2 DUP9 MUL ADD DUP9 SSTORE POP POP POP JUMPDEST POP POP POP POP POP POP JUMP JUMPDEST PUSH32 0x4E487B7100000000000000000000000000000000000000000000000000000000 PUSH1 0x0 MSTORE PUSH1 0x11 PUSH1 0x4 MSTORE PUSH1 0x24 PUSH1 0x0 REVERT JUMPDEST PUSH1 0x0 PUSH3 0x1239 DUP3 PUSH3 0xBEF JUMP JUMPDEST SWAP2 POP PUSH3 0x1246 DUP4 PUSH3 0xBEF JUMP JUMPDEST SWAP3 POP DUP3 DUP3 MUL PUSH3 0x1256 DUP2 PUSH3 0xBEF JUMP JUMPDEST SWAP2 POP DUP3 DUP3 DIV DUP5 EQ DUP4 ISZERO OR PUSH3 0x1270 JUMPI PUSH3 0x126F PUSH3 0x11FD JUMP JUMPDEST JUMPDEST POP SWAP3 SWAP2 POP POP JUMP JUMPDEST PUSH1 0x0 PUSH3 0x1284 DUP3 PUSH3 0xBEF JUMP JUMPDEST SWAP2 POP PUSH3 0x1291 DUP4 PUSH3 0xBEF JUMP JUMPDEST SWAP3 POP DUP3 DUP3 ADD SWAP1 POP DUP1 DUP3 GT ISZERO PUSH3 0x12AC JUMPI PUSH3 0x12AB PUSH3 0x11FD JUMP JUMPDEST JUMPDEST SWAP3 SWAP2 POP POP JUMP JUMPDEST PUSH1 0x0 PUSH3 0x12BF DUP3 PUSH3 0xBEF JUMP JUMPDEST SWAP2 POP PUSH3 0x12CC DUP4 PUSH3 0xBEF JUMP JUMPDEST SWAP3 POP DUP3 DUP3 SUB SWAP1 POP DUP2 DUP2 GT ISZERO PUSH3 0x12E7 JUMPI PUSH3 0x12E6 PUSH3 0x11FD JUMP JUMPDEST JUMPDEST SWAP3 SWAP2 POP POP JUMP JUMPDEST PUSH1 0x0 PUSH3 0x12FA DUP3 PUSH3 0xBEF JUMP JUMPDEST SWAP2 POP PUSH32 0xFFFFFFFFFFFFFFFFFFFFFFFFFFFFFFFFFFFFFFFFFFFFFFFFFFFFFFFFFFFFFFFF DUP3 SUB PUSH3 0x132F JUMPI PUSH3 0x132E PUSH3 0x11FD JUMP JUMPDEST JUMPDEST PUSH1 0x1 DUP3 ADD SWAP1 POP SWAP2 SWAP1 POP JUMP JUMPDEST PUSH3 0x1345 DUP2 PUSH3 0xBAA JUMP JUMPDEST DUP3 MSTORE POP POP JUMP JUMPDEST PUSH1 0x0 PUSH1 0x20 DUP3 ADD SWAP1 POP PUSH3 0x1362 PUSH1 0x0 DUP4 ADD DUP5 PUSH3 0x133A JUMP JUMPDEST SWAP3 SWAP2 POP POP JUMP JUMPDEST PUSH3 0x1373 DUP2 PUSH3 0xBEF JUMP JUMPDEST DUP3 MSTORE POP POP JUMP JUMPDEST PUSH1 0x0 PUSH1 0x40 DUP3 ADD SWAP1 POP PUSH3 0x1390 PUSH1 0x0 DUP4 ADD DUP6 PUSH3 0x1368 JUMP JUMPDEST PUSH3 0x139F PUSH1 0x20 DUP4 ADD DUP5 PUSH3 0x1368 JUMP JUMPDEST SWAP4 SWAP3 POP POP POP JUMP JUMPDEST PUSH1 0x0 PUSH1 0x80 DUP3 ADD SWAP1 POP PUSH3 0x13BD PUSH1 0x0 DUP4 ADD DUP8 PUSH3 0x133A JUMP JUMPDEST PUSH3 0x13CC PUSH1 0x20 DUP4 ADD DUP7 PUSH3 0x1368 JUMP JUMPDEST PUSH3 0x13DB PUSH1 0x40 DUP4 ADD DUP6 PUSH3 0x1368 JUMP JUMPDEST PUSH3 0x13EA PUSH1 0x60 DUP4 ADD DUP5 PUSH3 0x1368 JUMP JUMPDEST SWAP6 SWAP5 POP POP POP POP POP JUMP JUMPDEST PUSH1 0x0 DUP2 MLOAD SWAP1 POP SWAP2 SWAP1 POP JUMP JUMPDEST PUSH1 0x0 DUP3 DUP3 MSTORE PUSH1 0x20 DUP3 ADD SWAP1 POP SWAP3 SWAP2 POP POP JUMP JUMPDEST PUSH1 0x0 DUP2 SWAP1 POP PUSH1 0x20 DUP3 ADD SWAP1 POP SWAP2 SWAP1 POP JUMP JUMPDEST PUSH3 0x142A DUP2 PUSH3 0xBEF JUMP JUMPDEST DUP3 MSTORE POP POP JUMP JUMPDEST PUSH1 0x0 PUSH3 0x143E DUP4 DUP4 PUSH3 0x141F JUMP JUMPDEST PUSH1 0x20 DUP4 ADD SWAP1 POP SWAP3 SWAP2 POP POP JUMP JUMPDEST PUSH1 0x0 PUSH1 0x20 DUP3 ADD SWAP1 POP SWAP2 SWAP1 POP JUMP JUMPDEST PUSH1 0x0 PUSH3 0x1464 DUP3 PUSH3 0x13F3 JUMP JUMPDEST PUSH3 0x1470 DUP2 DUP6 PUSH3 0x13FE JUMP JUMPDEST SWAP4 POP PUSH3 0x147D DUP4 PUSH3 0x140F JUMP JUMPDEST DUP1 PUSH1 0x0 JUMPDEST DUP4 DUP2 LT ISZERO PUSH3 0x14B4 JUMPI DUP2 MLOAD PUSH3 0x1498 DUP9 DUP3 PUSH3 0x1430 JUMP JUMPDEST SWAP8 POP PUSH3 0x14A5 DUP4 PUSH3 0x144A JUMP JUMPDEST SWAP3 POP POP PUSH1 0x1 DUP2 ADD SWAP1 POP PUSH3 0x1481 JUMP JUMPDEST POP DUP6 SWAP4 POP POP POP POP SWAP3 SWAP2 POP POP JUMP JUMPDEST PUSH1 0x0 PUSH1 0x40 DUP3 ADD SWAP1 POP DUP2 DUP2 SUB PUSH1 0x0 DUP4 ADD MSTORE PUSH3 0x14DD DUP2 DUP6 PUSH3 0x1457 JUMP JUMPDEST SWAP1 POP DUP2 DUP2 SUB PUSH1 0x20 DUP4 ADD MSTORE PUSH3 0x14F3 DUP2 DUP5 PUSH3 0x1457 JUMP JUMPDEST SWAP1 POP SWAP4 SWAP3 POP POP POP JUMP JUMPDEST PUSH1 0x0 DUP2 MLOAD SWAP1 POP SWAP2 SWAP1 POP JUMP JUMPDEST PUSH1 0x0 DUP3 DUP3 MSTORE PUSH1 0x20 DUP3 ADD SWAP1 POP SWAP3 SWAP2 POP POP JUMP JUMPDEST PUSH1 0x0 PUSH3 0x1525 DUP3 PUSH3 0x14FC JUMP JUMPDEST PUSH3 0x1531 DUP2 DUP6 PUSH3 0x1507 JUMP JUMPDEST SWAP4 POP PUSH3 0x1543 DUP2 DUP6 PUSH1 0x20 DUP7 ADD PUSH3 0xD3A JUMP JUMPDEST PUSH3 0x154E DUP2 PUSH3 0xC6F JUMP JUMPDEST DUP5 ADD SWAP2 POP POP SWAP3 SWAP2 POP POP JUMP JUMPDEST PUSH1 0x0 PUSH1 0xA0 DUP3 ADD SWAP1 POP PUSH3 0x1570 PUSH1 0x0 DUP4 ADD DUP9 PUSH3 0x133A JUMP JUMPDEST PUSH3 0x157F PUSH1 0x20 DUP4 ADD DUP8 PUSH3 0x133A JUMP JUMPDEST PUSH3 0x158E PUSH1 0x40 DUP4 ADD DUP7 PUSH3 0x1368 JUMP JUMPDEST PUSH3 0x159D PUSH1 0x60 DUP4 ADD DUP6 PUSH3 0x1368 JUMP JUMPDEST DUP2 DUP2 SUB PUSH1 0x80 DUP4 ADD MSTORE PUSH3 0x15B1 DUP2 DUP5 PUSH3 0x1518 JUMP JUMPDEST SWAP1 POP SWAP7 SWAP6 POP POP POP POP POP POP JUMP JUMPDEST PUSH1 0x0 PUSH32 0xFFFFFFFF00000000000000000000000000000000000000000000000000000000 DUP3 AND SWAP1 POP SWAP2 SWAP1 POP JUMP JUMPDEST PUSH3 0x15F4 DUP2 PUSH3 0x15BD JUMP JUMPDEST DUP2 EQ PUSH3 0x1600 JUMPI PUSH1 0x0 DUP1 REVERT JUMPDEST POP JUMP JUMPDEST PUSH1 0x0 DUP2 MLOAD SWAP1 POP PUSH3 0x1614 DUP2 PUSH3 0x15E9 JUMP JUMPDEST SWAP3 SWAP2 POP POP JUMP JUMPDEST PUSH1 0x0 PUSH1 0x20 DUP3 DUP5 SUB SLT ISZERO PUSH3 0x1633 JUMPI PUSH3 0x1632 PUSH3 0xB80 JUMP JUMPDEST JUMPDEST PUSH1 0x0 PUSH3 0x1643 DUP5 DUP3 DUP6 ADD PUSH3 0x1603 JUMP JUMPDEST SWAP2 POP POP SWAP3 SWAP2 POP POP JUMP JUMPDEST PUSH1 0x0 PUSH1 0xA0 DUP3 ADD SWAP1 POP PUSH3 0x1663 PUSH1 0x0 DUP4 ADD DUP9 PUSH3 0x133A JUMP JUMPDEST PUSH3 0x1672 PUSH1 0x20 DUP4 ADD DUP8 PUSH3 0x133A JUMP JUMPDEST DUP2 DUP2 SUB PUSH1 0x40 DUP4 ADD MSTORE PUSH3 0x1686 DUP2 DUP7 PUSH3 0x1457 JUMP JUMPDEST SWAP1 POP DUP2 DUP2 SUB PUSH1 0x60 DUP4 ADD MSTORE PUSH3 0x169C DUP2 DUP6 PUSH3 0x1457 JUMP JUMPDEST SWAP1 POP DUP2 DUP2 SUB PUSH1 0x80 DUP4 ADD MSTORE PUSH3 0x16B2 DUP2 DUP5 PUSH3 0x1518 JUMP JUMPDEST SWAP1 POP SWAP7 SWAP6 POP POP POP POP POP POP JUMP JUMPDEST PUSH2 0x3776 DUP1 PUSH3 0x16CE PUSH1 0x0 CODECOPY PUSH1 0x0 RETURN INVALID PUSH1 0x80 PUSH1 0x40 MSTORE PUSH1 0x4 CALLDATASIZE LT PUSH2 0x1BA JUMPI PUSH1 0x0 CALLDATALOAD PUSH1 0xE0 SHR DUP1 PUSH4 0x796B23BB GT PUSH2 0xEC JUMPI DUP1 PUSH4 0xD4B83992 GT PUSH2 0x8A JUMPI DUP1 PUSH4 0xE21F37CE GT PUSH2 0x64 JUMPI DUP1 PUSH4 0xE21F37CE EQ PUSH2 0x5BB JUMPI DUP1 PUSH4 0xE985E9C5 EQ PUSH2 0x5E6 JUMPI DUP1 PUSH4 0xF242432A EQ PUSH2 0x623 JUMPI DUP1 PUSH4 0xF9C36FDE EQ PUSH2 0x64C JUMPI PUSH2 0x1C9 JUMP JUMPDEST DUP1 PUSH4 0xD4B83992 EQ PUSH2 0x55B JUMPI DUP1 PUSH4 0xD5F39488 EQ PUSH2 0x586 JUMPI DUP1 PUSH4 0xD7BB99BA EQ PUSH2 0x5B1 JUMPI PUSH2 0x1C9 JUMP JUMPDEST DUP1 PUSH4 0xAE08ED5C GT PUSH2 0xC6 JUMPI DUP1 PUSH4 0xAE08ED5C EQ PUSH2 0x4C5 JUMPI DUP1 PUSH4 0xAF3B19E5 EQ PUSH2 0x4F0 JUMPI DUP1 PUSH4 0xB126793B EQ PUSH2 0x507 JUMPI DUP1 PUSH4 0xD411ECCB EQ PUSH2 0x530 JUMPI PUSH2 0x1C9 JUMP JUMPDEST DUP1 PUSH4 0x796B23BB EQ PUSH2 0x446 JUMPI DUP1 PUSH4 0xA22CB465 EQ PUSH2 0x471 JUMPI DUP1 PUSH4 0xA8E4FB90 EQ PUSH2 0x49A JUMPI PUSH2 0x1C9 JUMP JUMPDEST DUP1 PUSH4 0x17D70F7C GT PUSH2 0x159 JUMPI DUP1 PUSH4 0x4E1273F4 GT PUSH2 0x133 JUMPI DUP1 PUSH4 0x4E1273F4 EQ PUSH2 0x39C JUMPI DUP1 PUSH4 0x55D576CC EQ PUSH2 0x3D9 JUMPI DUP1 PUSH4 0x5600F04F EQ PUSH2 0x404 JUMPI DUP1 PUSH4 0x590E1AE3 EQ PUSH2 0x42F JUMPI PUSH2 0x1C9 JUMP JUMPDEST DUP1 PUSH4 0x17D70F7C EQ PUSH2 0x31D JUMPI DUP1 PUSH4 0x2EB2C2D6 EQ PUSH2 0x348 JUMPI DUP1 PUSH4 0x36EBFFCA EQ PUSH2 0x371 JUMPI PUSH2 0x1C9 JUMP JUMPDEST DUP1 PUSH4 0x7BFCE37 GT PUSH2 0x195 JUMPI DUP1 PUSH4 0x7BFCE37 EQ PUSH2 0x273 JUMPI DUP1 PUSH4 0x85D4883 EQ PUSH2 0x29E JUMPI DUP1 PUSH4 0xE89341C EQ PUSH2 0x2C9 JUMPI DUP1 PUSH4 0x1249C58B EQ PUSH2 0x306 JUMPI PUSH2 0x1C9 JUMP JUMPDEST DUP1 PUSH3 0xFDD58E EQ PUSH2 0x1CE JUMPI DUP1 PUSH4 0x1FFC9A7 EQ PUSH2 0x20B JUMPI DUP1 PUSH4 0x539272A EQ PUSH2 0x248 JUMPI PUSH2 0x1C9 JUMP JUMPDEST CALLDATASIZE PUSH2 0x1C9 JUMPI PUSH2 0x1C7 PUSH2 0x677 JUMP JUMPDEST STOP JUMPDEST PUSH1 0x0 DUP1 REVERT JUMPDEST CALLVALUE DUP1 ISZERO PUSH2 0x1DA JUMPI PUSH1 0x0 DUP1 REVERT JUMPDEST POP PUSH2 0x1F5 PUSH1 0x4 DUP1 CALLDATASIZE SUB DUP2 ADD SWAP1 PUSH2 0x1F0 SWAP2 SWAP1 PUSH2 0x21EB JUMP JUMPDEST PUSH2 0x740 JUMP JUMPDEST PUSH1 0x40 MLOAD PUSH2 0x202 SWAP2 SWAP1 PUSH2 0x223A JUMP JUMPDEST PUSH1 0x40 MLOAD DUP1 SWAP2 SUB SWAP1 RETURN JUMPDEST CALLVALUE DUP1 ISZERO PUSH2 0x217 JUMPI PUSH1 0x0 DUP1 REVERT JUMPDEST POP PUSH2 0x232 PUSH1 0x4 DUP1 CALLDATASIZE SUB DUP2 ADD SWAP1 PUSH2 0x22D SWAP2 SWAP1 PUSH2 0x22AD JUMP JUMPDEST PUSH2 0x79A JUMP JUMPDEST PUSH1 0x40 MLOAD PUSH2 0x23F SWAP2 SWAP1 PUSH2 0x22F5 JUMP JUMPDEST PUSH1 0x40 MLOAD DUP1 SWAP2 SUB SWAP1 RETURN JUMPDEST CALLVALUE DUP1 ISZERO PUSH2 0x254 JUMPI PUSH1 0x0 DUP1 REVERT JUMPDEST POP PUSH2 0x25D PUSH2 0x87C JUMP JUMPDEST PUSH1 0x40 MLOAD PUSH2 0x26A SWAP2 SWAP1 PUSH2 0x223A JUMP JUMPDEST PUSH1 0x40 MLOAD DUP1 SWAP2 SUB SWAP1 RETURN JUMPDEST CALLVALUE DUP1 ISZERO PUSH2 0x27F JUMPI PUSH1 0x0 DUP1 REVERT JUMPDEST POP PUSH2 0x288 PUSH2 0x882 JUMP JUMPDEST PUSH1 0x40 MLOAD PUSH2 0x295 SWAP2 SWAP1 PUSH2 0x2329 JUMP JUMPDEST PUSH1 0x40 MLOAD DUP1 SWAP2 SUB SWAP1 RETURN JUMPDEST CALLVALUE DUP1 ISZERO PUSH2 0x2AA JUMPI PUSH1 0x0 DUP1 REVERT JUMPDEST POP PUSH2 0x2B3 PUSH2 0x888 JUMP JUMPDEST PUSH1 0x40 MLOAD PUSH2 0x2C0 SWAP2 SWAP1 PUSH2 0x2353 JUMP JUMPDEST PUSH1 0x40 MLOAD DUP1 SWAP2 SUB SWAP1 RETURN JUMPDEST CALLVALUE DUP1 ISZERO PUSH2 0x2D5 JUMPI PUSH1 0x0 DUP1 REVERT JUMPDEST POP PUSH2 0x2F0 PUSH1 0x4 DUP1 CALLDATASIZE SUB DUP2 ADD SWAP1 PUSH2 0x2EB SWAP2 SWAP1 PUSH2 0x236E JUMP JUMPDEST PUSH2 0x8AE JUMP JUMPDEST PUSH1 0x40 MLOAD PUSH2 0x2FD SWAP2 SWAP1 PUSH2 0x242B JUMP JUMPDEST PUSH1 0x40 MLOAD DUP1 SWAP2 SUB SWAP1 RETURN JUMPDEST CALLVALUE DUP1 ISZERO PUSH2 0x312 JUMPI PUSH1 0x0 DUP1 REVERT JUMPDEST POP PUSH2 0x31B PUSH2 0x942 JUMP JUMPDEST STOP JUMPDEST CALLVALUE DUP1 ISZERO PUSH2 0x329 JUMPI PUSH1 0x0 DUP1 REVERT JUMPDEST POP PUSH2 0x332 PUSH2 0xA98 JUMP JUMPDEST PUSH1 0x40 MLOAD PUSH2 0x33F SWAP2 SWAP1 PUSH2 0x223A JUMP JUMPDEST PUSH1 0x40 MLOAD DUP1 SWAP2 SUB SWAP1 RETURN JUMPDEST CALLVALUE DUP1 ISZERO PUSH2 0x354 JUMPI PUSH1 0x0 DUP1 REVERT JUMPDEST POP PUSH2 0x36F PUSH1 0x4 DUP1 CALLDATASIZE SUB DUP2 ADD SWAP1 PUSH2 0x36A SWAP2 SWAP1 PUSH2 0x264A JUMP JUMPDEST PUSH2 0xA9E JUMP JUMPDEST STOP JUMPDEST CALLVALUE DUP1 ISZERO PUSH2 0x37D JUMPI PUSH1 0x0 DUP1 REVERT JUMPDEST POP PUSH2 0x386 PUSH2 0xB46 JUMP JUMPDEST PUSH1 0x40 MLOAD PUSH2 0x393 SWAP2 SWAP1 PUSH2 0x223A JUMP JUMPDEST PUSH1 0x40 MLOAD DUP1 SWAP2 SUB SWAP1 RETURN JUMPDEST CALLVALUE DUP1 ISZERO PUSH2 0x3A8 JUMPI PUSH1 0x0 DUP1 REVERT JUMPDEST POP PUSH2 0x3C3 PUSH1 0x4 DUP1 CALLDATASIZE SUB DUP2 ADD SWAP1 PUSH2 0x3BE SWAP2 SWAP1 PUSH2 0x27DC JUMP JUMPDEST PUSH2 0xB4C JUMP JUMPDEST PUSH1 0x40 MLOAD PUSH2 0x3D0 SWAP2 SWAP1 PUSH2 0x2912 JUMP JUMPDEST PUSH1 0x40 MLOAD DUP1 SWAP2 SUB SWAP1 RETURN JUMPDEST CALLVALUE DUP1 ISZERO PUSH2 0x3E5 JUMPI PUSH1 0x0 DUP1 REVERT JUMPDEST POP PUSH2 0x3EE PUSH2 0xC55 JUMP JUMPDEST PUSH1 0x40 MLOAD PUSH2 0x3FB SWAP2 SWAP1 PUSH2 0x2329 JUMP JUMPDEST PUSH1 0x40 MLOAD DUP1 SWAP2 SUB SWAP1 RETURN JUMPDEST CALLVALUE DUP1 ISZERO PUSH2 0x410 JUMPI PUSH1 0x0 DUP1 REVERT JUMPDEST POP PUSH2 0x419 PUSH2 0xC5B JUMP JUMPDEST PUSH1 0x40 MLOAD PUSH2 0x426 SWAP2 SWAP1 PUSH2 0x242B JUMP JUMPDEST PUSH1 0x40 MLOAD DUP1 SWAP2 SUB SWAP1 RETURN JUMPDEST CALLVALUE DUP1 ISZERO PUSH2 0x43B JUMPI PUSH1 0x0 DUP1 REVERT JUMPDEST POP PUSH2 0x444 PUSH2 0xCE9 JUMP JUMPDEST STOP JUMPDEST CALLVALUE DUP1 ISZERO PUSH2 0x452 JUMPI PUSH1 0x0 DUP1 REVERT JUMPDEST POP PUSH2 0x45B PUSH2 0xF07 JUMP JUMPDEST PUSH1 0x40 MLOAD PUSH2 0x468 SWAP2 SWAP1 PUSH2 0x223A JUMP JUMPDEST PUSH1 0x40 MLOAD DUP1 SWAP2 SUB SWAP1 RETURN JUMPDEST CALLVALUE DUP1 ISZERO PUSH2 0x47D JUMPI PUSH1 0x0 DUP1 REVERT JUMPDEST POP PUSH2 0x498 PUSH1 0x4 DUP1 CALLDATASIZE SUB DUP2 ADD SWAP1 PUSH2 0x493 SWAP2 SWAP1 PUSH2 0x2960 JUMP JUMPDEST PUSH2 0xF0D JUMP JUMPDEST STOP JUMPDEST CALLVALUE DUP1 ISZERO PUSH2 0x4A6 JUMPI PUSH1 0x0 DUP1 REVERT JUMPDEST POP PUSH2 0x4AF PUSH2 0xF23 JUMP JUMPDEST PUSH1 0x40 MLOAD PUSH2 0x4BC SWAP2 SWAP1 PUSH2 0x2353 JUMP JUMPDEST PUSH1 0x40 MLOAD DUP1 SWAP2 SUB SWAP1 RETURN JUMPDEST CALLVALUE DUP1 ISZERO PUSH2 0x4D1 JUMPI PUSH1 0x0 DUP1 REVERT JUMPDEST POP PUSH2 0x4DA PUSH2 0xF49 JUMP JUMPDEST PUSH1 0x40 MLOAD PUSH2 0x4E7 SWAP2 SWAP1 PUSH2 0x223A JUMP JUMPDEST PUSH1 0x40 MLOAD DUP1 SWAP2 SUB SWAP1 RETURN JUMPDEST CALLVALUE DUP1 ISZERO PUSH2 0x4FC JUMPI PUSH1 0x0 DUP1 REVERT JUMPDEST POP PUSH2 0x505 PUSH2 0xF50 JUMP JUMPDEST STOP JUMPDEST CALLVALUE DUP1 ISZERO PUSH2 0x513 JUMPI PUSH1 0x0 DUP1 REVERT JUMPDEST POP PUSH2 0x52E PUSH1 0x4 DUP1 CALLDATASIZE SUB DUP2 ADD SWAP1 PUSH2 0x529 SWAP2 SWAP1 PUSH2 0x2A41 JUMP JUMPDEST PUSH2 0x10CC JUMP JUMPDEST STOP JUMPDEST CALLVALUE DUP1 ISZERO PUSH2 0x53C JUMPI PUSH1 0x0 DUP1 REVERT JUMPDEST POP PUSH2 0x545 PUSH2 0x1221 JUMP JUMPDEST PUSH1 0x40 MLOAD PUSH2 0x552 SWAP2 SWAP1 PUSH2 0x223A JUMP JUMPDEST PUSH1 0x40 MLOAD DUP1 SWAP2 SUB SWAP1 RETURN JUMPDEST CALLVALUE DUP1 ISZERO PUSH2 0x567 JUMPI PUSH1 0x0 DUP1 REVERT JUMPDEST POP PUSH2 0x570 PUSH2 0x1227 JUMP JUMPDEST PUSH1 0x40 MLOAD PUSH2 0x57D SWAP2 SWAP1 PUSH2 0x242B JUMP JUMPDEST PUSH1 0x40 MLOAD DUP1 SWAP2 SUB SWAP1 RETURN JUMPDEST CALLVALUE DUP1 ISZERO PUSH2 0x592 JUMPI PUSH1 0x0 DUP1 REVERT JUMPDEST POP PUSH2 0x59B PUSH2 0x12B5 JUMP JUMPDEST PUSH1 0x40 MLOAD PUSH2 0x5A8 SWAP2 SWAP1 PUSH2 0x2353 JUMP JUMPDEST PUSH1 0x40 MLOAD DUP1 SWAP2 SUB SWAP1 RETURN JUMPDEST PUSH2 0x5B9 PUSH2 0x677 JUMP JUMPDEST STOP JUMPDEST CALLVALUE DUP1 ISZERO PUSH2 0x5C7 JUMPI PUSH1 0x0 DUP1 REVERT JUMPDEST POP PUSH2 0x5D0 PUSH2 0x12DB JUMP JUMPDEST PUSH1 0x40 MLOAD PUSH2 0x5DD SWAP2 SWAP1 PUSH2 0x242B JUMP JUMPDEST PUSH1 0x40 MLOAD DUP1 SWAP2 SUB SWAP1 RETURN JUMPDEST CALLVALUE DUP1 ISZERO PUSH2 0x5F2 JUMPI PUSH1 0x0 DUP1 REVERT JUMPDEST POP PUSH2 0x60D PUSH1 0x4 DUP1 CALLDATASIZE SUB DUP2 ADD SWAP1 PUSH2 0x608 SWAP2 SWAP1 PUSH2 0x2A8A JUMP JUMPDEST PUSH2 0x1369 JUMP JUMPDEST PUSH1 0x40 MLOAD PUSH2 0x61A SWAP2 SWAP1 PUSH2 0x22F5 JUMP JUMPDEST PUSH1 0x40 MLOAD DUP1 SWAP2 SUB SWAP1 RETURN JUMPDEST CALLVALUE DUP1 ISZERO PUSH2 0x62F JUMPI PUSH1 0x0 DUP1 REVERT JUMPDEST POP PUSH2 0x64A PUSH1 0x4 DUP1 CALLDATASIZE SUB DUP2 ADD SWAP1 PUSH2 0x645 SWAP2 SWAP1 PUSH2 0x2ACA JUMP JUMPDEST PUSH2 0x13FD JUMP JUMPDEST STOP JUMPDEST CALLVALUE DUP1 ISZERO PUSH2 0x658 JUMPI PUSH1 0x0 DUP1 REVERT JUMPDEST POP PUSH2 0x661 PUSH2 0x14A5 JUMP JUMPDEST PUSH1 0x40 MLOAD PUSH2 0x66E SWAP2 SWAP1 PUSH2 0x223A JUMP JUMPDEST PUSH1 0x40 MLOAD DUP1 SWAP2 SUB SWAP1 RETURN JUMPDEST PUSH1 0x0 CALLVALUE SWAP1 POP PUSH1 0xC SLOAD DUP2 PUSH1 0xE SLOAD PUSH2 0x68D SWAP2 SWAP1 PUSH2 0x2B90 JUMP JUMPDEST GT ISZERO PUSH2 0x6CE JUMPI PUSH1 0x40 MLOAD PUSH32 0x8C379A000000000000000000000000000000000000000000000000000000000 DUP2 MSTORE PUSH1 0x4 ADD PUSH2 0x6C5 SWAP1 PUSH2 0x2C36 JUMP JUMPDEST PUSH1 0x40 MLOAD DUP1 SWAP2 SUB SWAP1 REVERT JUMPDEST DUP1 PUSH1 0xE PUSH1 0x0 DUP3 DUP3 SLOAD PUSH2 0x6E0 SWAP2 SWAP1 PUSH2 0x2B90 JUMP JUMPDEST SWAP3 POP POP DUP2 SWAP1 SSTORE POP DUP1 PUSH1 0x11 PUSH1 0x0 CALLER PUSH20 0xFFFFFFFFFFFFFFFFFFFFFFFFFFFFFFFFFFFFFFFF AND PUSH20 0xFFFFFFFFFFFFFFFFFFFFFFFFFFFFFFFFFFFFFFFF AND DUP2 MSTORE PUSH1 0x20 ADD SWAP1 DUP2 MSTORE PUSH1 0x20 ADD PUSH1 0x0 KECCAK256 PUSH1 0x0 DUP3 DUP3 SLOAD PUSH2 0x736 SWAP2 SWAP1 PUSH2 0x2B90 JUMP JUMPDEST SWAP3 POP POP DUP2 SWAP1 SSTORE POP POP JUMP JUMPDEST PUSH1 0x0 DUP1 PUSH1 0x0 DUP4 DUP2 MSTORE PUSH1 0x20 ADD SWAP1 DUP2 MSTORE PUSH1 0x20 ADD PUSH1 0x0 KECCAK256 PUSH1 0x0 DUP5 PUSH20 0xFFFFFFFFFFFFFFFFFFFFFFFFFFFFFFFFFFFFFFFF AND PUSH20 0xFFFFFFFFFFFFFFFFFFFFFFFFFFFFFFFFFFFFFFFF AND DUP2 MSTORE PUSH1 0x20 ADD SWAP1 DUP2 MSTORE PUSH1 0x20 ADD PUSH1 0x0 KECCAK256 SLOAD SWAP1 POP SWAP3 SWAP2 POP POP JUMP JUMPDEST PUSH1 0x0 PUSH32 0xD9B67A2600000000000000000000000000000000000000000000000000000000 PUSH28 0xFFFFFFFFFFFFFFFFFFFFFFFFFFFFFFFFFFFFFFFFFFFFFFFFFFFFFFFF NOT AND DUP3 PUSH28 0xFFFFFFFFFFFFFFFFFFFFFFFFFFFFFFFFFFFFFFFFFFFFFFFFFFFFFFFF NOT AND EQ DUP1 PUSH2 0x865 JUMPI POP PUSH32 0xE89341C00000000000000000000000000000000000000000000000000000000 PUSH28 0xFFFFFFFFFFFFFFFFFFFFFFFFFFFFFFFFFFFFFFFFFFFFFFFFFFFFFFFF NOT AND DUP3 PUSH28 0xFFFFFFFFFFFFFFFFFFFFFFFFFFFFFFFFFFFFFFFFFFFFFFFFFFFFFFFF NOT AND EQ JUMPDEST DUP1 PUSH2 0x875 JUMPI POP PUSH2 0x874 DUP3 PUSH2 0x14AB JUMP JUMPDEST JUMPDEST SWAP1 POP SWAP2 SWAP1 POP JUMP JUMPDEST PUSH1 0x5 SLOAD DUP2 JUMP JUMPDEST PUSH1 0x7 SLOAD DUP2 JUMP JUMPDEST PUSH1 0xD PUSH1 0x0 SWAP1 SLOAD SWAP1 PUSH2 0x100 EXP SWAP1 DIV PUSH20 0xFFFFFFFFFFFFFFFFFFFFFFFFFFFFFFFFFFFFFFFF AND DUP2 JUMP JUMPDEST PUSH1 0x60 PUSH1 0x2 DUP1 SLOAD PUSH2 0x8BD SWAP1 PUSH2 0x2C85 JUMP JUMPDEST DUP1 PUSH1 0x1F ADD PUSH1 0x20 DUP1 SWAP2 DIV MUL PUSH1 0x20 ADD PUSH1 0x40 MLOAD SWAP1 DUP2 ADD PUSH1 0x40 MSTORE DUP1 SWAP3 SWAP2 SWAP1 DUP2 DUP2 MSTORE PUSH1 0x20 ADD DUP3 DUP1 SLOAD PUSH2 0x8E9 SWAP1 PUSH2 0x2C85 JUMP JUMPDEST DUP1 ISZERO PUSH2 0x936 JUMPI DUP1 PUSH1 0x1F LT PUSH2 0x90B JUMPI PUSH2 0x100 DUP1 DUP4 SLOAD DIV MUL DUP4 MSTORE SWAP2 PUSH1 0x20 ADD SWAP2 PUSH2 0x936 JUMP JUMPDEST DUP3 ADD SWAP2 SWAP1 PUSH1 0x0 MSTORE PUSH1 0x20 PUSH1 0x0 KECCAK256 SWAP1 JUMPDEST DUP2 SLOAD DUP2 MSTORE SWAP1 PUSH1 0x1 ADD SWAP1 PUSH1 0x20 ADD DUP1 DUP4 GT PUSH2 0x919 JUMPI DUP3 SWAP1 SUB PUSH1 0x1F AND DUP3 ADD SWAP2 JUMPDEST POP POP POP POP POP SWAP1 POP SWAP2 SWAP1 POP JUMP JUMPDEST PUSH1 0x0 PUSH1 0x11 PUSH1 0x0 CALLER PUSH20 0xFFFFFFFFFFFFFFFFFFFFFFFFFFFFFFFFFFFFFFFF AND PUSH20 0xFFFFFFFFFFFFFFFFFFFFFFFFFFFFFFFFFFFFFFFF AND DUP2 MSTORE PUSH1 0x20 ADD SWAP1 DUP2 MSTORE PUSH1 0x20 ADD PUSH1 0x0 KECCAK256 SLOAD SWAP1 POP PUSH1 0x0 DUP2 GT PUSH2 0x9C9 JUMPI PUSH1 0x40 MLOAD PUSH32 0x8C379A000000000000000000000000000000000000000000000000000000000 DUP2 MSTORE PUSH1 0x4 ADD PUSH2 0x9C0 SWAP1 PUSH2 0x2D02 JUMP JUMPDEST PUSH1 0x40 MLOAD DUP1 SWAP2 SUB SWAP1 REVERT JUMPDEST PUSH1 0x0 PUSH1 0xF DUP1 SLOAD PUSH2 0x9D8 SWAP1 PUSH2 0x2C85 JUMP JUMPDEST SWAP1 POP SUB PUSH2 0xA1A JUMPI PUSH1 0x40 MLOAD PUSH32 0x8C379A000000000000000000000000000000000000000000000000000000000 DUP2 MSTORE PUSH1 0x4 ADD PUSH2 0xA11 SWAP1 PUSH2 0x2D6E JUMP JUMPDEST PUSH1 0x40 MLOAD DUP1 SWAP2 SUB SWAP1 REVERT JUMPDEST PUSH1 0x10 PUSH1 0x0 DUP2 SLOAD DUP1 SWAP3 SWAP2 SWAP1 PUSH2 0xA2D SWAP1 PUSH2 0x2D8E JUMP JUMPDEST SWAP2 SWAP1 POP SSTORE POP PUSH1 0x0 PUSH1 0x11 PUSH1 0x0 CALLER PUSH20 0xFFFFFFFFFFFFFFFFFFFFFFFFFFFFFFFFFFFFFFFF AND PUSH20 0xFFFFFFFFFFFFFFFFFFFFFFFFFFFFFFFFFFFFFFFF AND DUP2 MSTORE PUSH1 0x20 ADD SWAP1 DUP2 MSTORE PUSH1 0x20 ADD PUSH1 0x0 KECCAK256 DUP2 SWAP1 SSTORE POP PUSH2 0xA95 CALLER PUSH1 0x10 SLOAD PUSH1 0x1 PUSH1 0x40 MLOAD DUP1 PUSH1 0x20 ADD PUSH1 0x40 MSTORE DUP1 PUSH1 0x0 DUP2 MSTORE POP PUSH2 0x1515 JUMP JUMPDEST POP JUMP JUMPDEST PUSH1 0x10 SLOAD DUP2 JUMP JUMPDEST PUSH1 0x0 PUSH2 0xAA8 PUSH2 0x15AE JUMP JUMPDEST SWAP1 POP DUP1 PUSH20 0xFFFFFFFFFFFFFFFFFFFFFFFFFFFFFFFFFFFFFFFF AND DUP7 PUSH20 0xFFFFFFFFFFFFFFFFFFFFFFFFFFFFFFFFFFFFFFFF AND EQ ISZERO DUP1 ISZERO PUSH2 0xAED JUMPI POP PUSH2 0xAEB DUP7 DUP3 PUSH2 0x1369 JUMP JUMPDEST ISZERO JUMPDEST ISZERO PUSH2 0xB31 JUMPI DUP1 DUP7 PUSH1 0x40 MLOAD PUSH32 0xE237D92200000000000000000000000000000000000000000000000000000000 DUP2 MSTORE PUSH1 0x4 ADD PUSH2 0xB28 SWAP3 SWAP2 SWAP1 PUSH2 0x2DD6 JUMP JUMPDEST PUSH1 0x40 MLOAD DUP1 SWAP2 SUB SWAP1 REVERT JUMPDEST PUSH2 0xB3E DUP7 DUP7 DUP7 DUP7 DUP7 PUSH2 0x15B6 JUMP JUMPDEST POP POP POP POP POP POP JUMP JUMPDEST PUSH1 0xA SLOAD DUP2 JUMP JUMPDEST PUSH1 0x60 DUP2 MLOAD DUP4 MLOAD EQ PUSH2 0xB98 JUMPI DUP2 MLOAD DUP4 MLOAD PUSH1 0x40 MLOAD PUSH32 0x5B05999100000000000000000000000000000000000000000000000000000000 DUP2 MSTORE PUSH1 0x4 ADD PUSH2 0xB8F SWAP3 SWAP2 SWAP1 PUSH2 0x2DFF JUMP JUMPDEST PUSH1 0x40 MLOAD DUP1 SWAP2 SUB SWAP1 REVERT JUMPDEST PUSH1 0x0 DUP4 MLOAD PUSH8 0xFFFFFFFFFFFFFFFF DUP2 GT ISZERO PUSH2 0xBB5 JUMPI PUSH2 0xBB4 PUSH2 0x2452 JUMP JUMPDEST JUMPDEST PUSH1 0x40 MLOAD SWAP1 DUP1 DUP3 MSTORE DUP1 PUSH1 0x20 MUL PUSH1 0x20 ADD DUP3 ADD PUSH1 0x40 MSTORE DUP1 ISZERO PUSH2 0xBE3 JUMPI DUP2 PUSH1 0x20 ADD PUSH1 0x20 DUP3 MUL DUP1 CALLDATASIZE DUP4 CALLDATACOPY DUP1 DUP3 ADD SWAP2 POP POP SWAP1 POP JUMPDEST POP SWAP1 POP PUSH1 0x0 JUMPDEST DUP5 MLOAD DUP2 LT ISZERO PUSH2 0xC4A JUMPI PUSH2 0xC20 PUSH2 0xC08 DUP3 DUP8 PUSH2 0x16AE SWAP1 SWAP2 SWAP1 PUSH4 0xFFFFFFFF AND JUMP JUMPDEST PUSH2 0xC1B DUP4 DUP8 PUSH2 0x16C2 SWAP1 SWAP2 SWAP1 PUSH4 0xFFFFFFFF AND JUMP JUMPDEST PUSH2 0x740 JUMP JUMPDEST DUP3 DUP3 DUP2 MLOAD DUP2 LT PUSH2 0xC33 JUMPI PUSH2 0xC32 PUSH2 0x2E28 JUMP JUMPDEST JUMPDEST PUSH1 0x20 MUL PUSH1 0x20 ADD ADD DUP2 DUP2 MSTORE POP POP DUP1 PUSH1 0x1 ADD SWAP1 POP PUSH2 0xBE9 JUMP JUMPDEST POP DUP1 SWAP2 POP POP SWAP3 SWAP2 POP POP JUMP JUMPDEST PUSH1 0x6 SLOAD DUP2 JUMP JUMPDEST PUSH1 0xF DUP1 SLOAD PUSH2 0xC68 SWAP1 PUSH2 0x2C85 JUMP JUMPDEST DUP1 PUSH1 0x1F ADD PUSH1 0x20 DUP1 SWAP2 DIV MUL PUSH1 0x20 ADD PUSH1 0x40 MLOAD SWAP1 DUP2 ADD PUSH1 0x40 MSTORE DUP1 SWAP3 SWAP2 SWAP1 DUP2 DUP2 MSTORE PUSH1 0x20 ADD DUP3 DUP1 SLOAD PUSH2 0xC94 SWAP1 PUSH2 0x2C85 JUMP JUMPDEST DUP1 ISZERO PUSH2 0xCE1 JUMPI DUP1 PUSH1 0x1F LT PUSH2 0xCB6 JUMPI PUSH2 0x100 DUP1 DUP4 SLOAD DIV MUL DUP4 MSTORE SWAP2 PUSH1 0x20 ADD SWAP2 PUSH2 0xCE1 JUMP JUMPDEST DUP3 ADD SWAP2 SWAP1 PUSH1 0x0 MSTORE PUSH1 0x20 PUSH1 0x0 KECCAK256 SWAP1 JUMPDEST DUP2 SLOAD DUP2 MSTORE SWAP1 PUSH1 0x1 ADD SWAP1 PUSH1 0x20 ADD DUP1 DUP4 GT PUSH2 0xCC4 JUMPI DUP3 SWAP1 SUB PUSH1 0x1F AND DUP3 ADD SWAP2 JUMPDEST POP POP POP POP POP DUP2 JUMP JUMPDEST PUSH1 0x0 PUSH1 0x11 PUSH1 0x0 CALLER PUSH20 0xFFFFFFFFFFFFFFFFFFFFFFFFFFFFFFFFFFFFFFFF AND PUSH20 0xFFFFFFFFFFFFFFFFFFFFFFFFFFFFFFFFFFFFFFFF AND DUP2 MSTORE PUSH1 0x20 ADD SWAP1 DUP2 MSTORE PUSH1 0x20 ADD PUSH1 0x0 KECCAK256 SLOAD SWAP1 POP PUSH1 0x0 PUSH20 0xFFFFFFFFFFFFFFFFFFFFFFFFFFFFFFFFFFFFFFFF AND PUSH1 0xD PUSH1 0x0 SWAP1 SLOAD SWAP1 PUSH2 0x100 EXP SWAP1 DIV PUSH20 0xFFFFFFFFFFFFFFFFFFFFFFFFFFFFFFFFFFFFFFFF AND PUSH20 0xFFFFFFFFFFFFFFFFFFFFFFFFFFFFFFFFFFFFFFFF AND EQ PUSH2 0xDBE JUMPI PUSH1 0x40 MLOAD PUSH32 0x8C379A000000000000000000000000000000000000000000000000000000000 DUP2 MSTORE PUSH1 0x4 ADD PUSH2 0xDB5 SWAP1 PUSH2 0x2EC9 JUMP JUMPDEST PUSH1 0x40 MLOAD DUP1 SWAP2 SUB SWAP1 REVERT JUMPDEST PUSH1 0x0 DUP2 GT PUSH2 0xE01 JUMPI PUSH1 0x40 MLOAD PUSH32 0x8C379A000000000000000000000000000000000000000000000000000000000 DUP2 MSTORE PUSH1 0x4 ADD PUSH2 0xDF8 SWAP1 PUSH2 0x2F35 JUMP JUMPDEST PUSH1 0x40 MLOAD DUP1 SWAP2 SUB SWAP1 REVERT JUMPDEST PUSH1 0xB SLOAD TIMESTAMP GT PUSH2 0xE45 JUMPI PUSH1 0x40 MLOAD PUSH32 0x8C379A000000000000000000000000000000000000000000000000000000000 DUP2 MSTORE PUSH1 0x4 ADD PUSH2 0xE3C SWAP1 PUSH2 0x2FC7 JUMP JUMPDEST PUSH1 0x40 MLOAD DUP1 SWAP2 SUB SWAP1 REVERT JUMPDEST PUSH1 0x0 PUSH1 0x11 PUSH1 0x0 CALLER PUSH20 0xFFFFFFFFFFFFFFFFFFFFFFFFFFFFFFFFFFFFFFFF AND PUSH20 0xFFFFFFFFFFFFFFFFFFFFFFFFFFFFFFFFFFFFFFFF AND DUP2 MSTORE PUSH1 0x20 ADD SWAP1 DUP2 MSTORE PUSH1 0x20 ADD PUSH1 0x0 KECCAK256 DUP2 SWAP1 SSTORE POP PUSH1 0x0 CALLER PUSH20 0xFFFFFFFFFFFFFFFFFFFFFFFFFFFFFFFFFFFFFFFF AND PUSH2 0x8FC DUP4 SWAP1 DUP2 ISZERO MUL SWAP1 PUSH1 0x40 MLOAD PUSH1 0x0 PUSH1 0x40 MLOAD DUP1 DUP4 SUB DUP2 DUP6 DUP9 DUP9 CALL SWAP4 POP POP POP POP SWAP1 POP DUP1 PUSH2 0xF03 JUMPI PUSH1 0x40 MLOAD PUSH32 0x8C379A000000000000000000000000000000000000000000000000000000000 DUP2 MSTORE PUSH1 0x4 ADD PUSH2 0xEFA SWAP1 PUSH2 0x3033 JUMP JUMPDEST PUSH1 0x40 MLOAD DUP1 SWAP2 SUB SWAP1 REVERT JUMPDEST POP POP JUMP JUMPDEST PUSH1 0xB SLOAD DUP2 JUMP JUMPDEST PUSH2 0xF1F PUSH2 0xF18 PUSH2 0x15AE JUMP JUMPDEST DUP4 DUP4 PUSH2 0x16D6 JUMP JUMPDEST POP POP JUMP JUMPDEST PUSH1 0x4 PUSH1 0x0 SWAP1 SLOAD SWAP1 PUSH2 0x100 EXP SWAP1 DIV PUSH20 0xFFFFFFFFFFFFFFFFFFFFFFFFFFFFFFFFFFFFFFFF AND DUP2 JUMP JUMPDEST PUSH3 0x278D00 DUP2 JUMP JUMPDEST PUSH1 0x3 PUSH1 0x0 SWAP1 SLOAD SWAP1 PUSH2 0x100 EXP SWAP1 DIV PUSH20 0xFFFFFFFFFFFFFFFFFFFFFFFFFFFFFFFFFFFFFFFF AND PUSH20 0xFFFFFFFFFFFFFFFFFFFFFFFFFFFFFFFFFFFFFFFF AND PUSH4 0x6B074A07 CALLER PUSH1 0x40 MLOAD DUP3 PUSH4 0xFFFFFFFF AND PUSH1 0xE0 SHL DUP2 MSTORE PUSH1 0x4 ADD PUSH2 0xFAB SWAP2 SWAP1 PUSH2 0x2353 JUMP JUMPDEST PUSH1 0x20 PUSH1 0x40 MLOAD DUP1 DUP4 SUB DUP2 DUP7 GAS STATICCALL ISZERO DUP1 ISZERO PUSH2 0xFC8 JUMPI RETURNDATASIZE PUSH1 0x0 DUP1 RETURNDATACOPY RETURNDATASIZE PUSH1 0x0 REVERT JUMPDEST POP POP POP POP PUSH1 0x40 MLOAD RETURNDATASIZE PUSH1 0x1F NOT PUSH1 0x1F DUP3 ADD AND DUP3 ADD DUP1 PUSH1 0x40 MSTORE POP DUP2 ADD SWAP1 PUSH2 0xFEC SWAP2 SWAP1 PUSH2 0x3068 JUMP JUMPDEST PUSH2 0x102B JUMPI PUSH1 0x40 MLOAD PUSH32 0x8C379A000000000000000000000000000000000000000000000000000000000 DUP2 MSTORE PUSH1 0x4 ADD PUSH2 0x1022 SWAP1 PUSH2 0x3107 JUMP JUMPDEST PUSH1 0x40 MLOAD DUP1 SWAP2 SUB SWAP1 REVERT JUMPDEST PUSH1 0x64 PUSH1 0x62 PUSH1 0xC SLOAD PUSH2 0x103C SWAP2 SWAP1 PUSH2 0x3127 JUMP JUMPDEST PUSH2 0x1046 SWAP2 SWAP1 PUSH2 0x3198 JUMP JUMPDEST PUSH1 0xE SLOAD GT PUSH2 0x1089 JUMPI PUSH1 0x40 MLOAD PUSH32 0x8C379A000000000000000000000000000000000000000000000000000000000 DUP2 MSTORE PUSH1 0x4 ADD PUSH2 0x1080 SWAP1 PUSH2 0x323B JUMP JUMPDEST PUSH1 0x40 MLOAD DUP1 SWAP2 SUB SWAP1 REVERT JUMPDEST CALLER PUSH1 0xD PUSH1 0x0 PUSH2 0x100 EXP DUP2 SLOAD DUP2 PUSH20 0xFFFFFFFFFFFFFFFFFFFFFFFFFFFFFFFFFFFFFFFF MUL NOT AND SWAP1 DUP4 PUSH20 0xFFFFFFFFFFFFFFFFFFFFFFFFFFFFFFFFFFFFFFFF AND MUL OR SWAP1 SSTORE POP JUMP JUMPDEST PUSH1 0xD PUSH1 0x0 SWAP1 SLOAD SWAP1 PUSH2 0x100 EXP SWAP1 DIV PUSH20 0xFFFFFFFFFFFFFFFFFFFFFFFFFFFFFFFFFFFFFFFF AND PUSH20 0xFFFFFFFFFFFFFFFFFFFFFFFFFFFFFFFFFFFFFFFF AND CALLER PUSH20 0xFFFFFFFFFFFFFFFFFFFFFFFFFFFFFFFFFFFFFFFF AND EQ PUSH2 0x115C JUMPI PUSH1 0x40 MLOAD PUSH32 0x8C379A000000000000000000000000000000000000000000000000000000000 DUP2 MSTORE PUSH1 0x4 ADD PUSH2 0x1153 SWAP1 PUSH2 0x32CD JUMP JUMPDEST PUSH1 0x40 MLOAD DUP1 SWAP2 SUB SWAP1 REVERT JUMPDEST DUP1 PUSH1 0xF SWAP1 DUP2 PUSH2 0x116B SWAP2 SWAP1 PUSH2 0x3499 JUMP JUMPDEST POP PUSH1 0x0 CALLER PUSH20 0xFFFFFFFFFFFFFFFFFFFFFFFFFFFFFFFFFFFFFFFF AND PUSH2 0x8FC PUSH1 0xC SLOAD SWAP1 DUP2 ISZERO MUL SWAP1 PUSH1 0x40 MLOAD PUSH1 0x0 PUSH1 0x40 MLOAD DUP1 DUP4 SUB DUP2 DUP6 DUP9 DUP9 CALL SWAP4 POP POP POP POP SWAP1 POP DUP1 PUSH2 0x11E7 JUMPI PUSH1 0x40 MLOAD PUSH32 0x8C379A000000000000000000000000000000000000000000000000000000000 DUP2 MSTORE PUSH1 0x4 ADD PUSH2 0x11DE SWAP1 PUSH2 0x3033 JUMP JUMPDEST PUSH1 0x40 MLOAD DUP1 SWAP2 SUB SWAP1 REVERT JUMPDEST PUSH1 0x10 PUSH1 0x0 DUP2 SLOAD DUP1 SWAP3 SWAP2 SWAP1 PUSH2 0x11FA SWAP1 PUSH2 0x2D8E JUMP JUMPDEST SWAP2 SWAP1 POP SSTORE POP PUSH2 0x121D CALLER PUSH1 0x10 SLOAD PUSH1 0x1 PUSH1 0x40 MLOAD DUP1 PUSH1 0x20 ADD PUSH1 0x40 MSTORE DUP1 PUSH1 0x0 DUP2 MSTORE POP PUSH2 0x1515 JUMP JUMPDEST POP POP JUMP JUMPDEST PUSH1 0xC SLOAD DUP2 JUMP JUMPDEST PUSH1 0x8 DUP1 SLOAD PUSH2 0x1234 SWAP1 PUSH2 0x2C85 JUMP JUMPDEST DUP1 PUSH1 0x1F ADD PUSH1 0x20 DUP1 SWAP2 DIV MUL PUSH1 0x20 ADD PUSH1 0x40 MLOAD SWAP1 DUP2 ADD PUSH1 0x40 MSTORE DUP1 SWAP3 SWAP2 SWAP1 DUP2 DUP2 MSTORE PUSH1 0x20 ADD DUP3 DUP1 SLOAD PUSH2 0x1260 SWAP1 PUSH2 0x2C85 JUMP JUMPDEST DUP1 ISZERO PUSH2 0x12AD JUMPI DUP1 PUSH1 0x1F LT PUSH2 0x1282 JUMPI PUSH2 0x100 DUP1 DUP4 SLOAD DIV MUL DUP4 MSTORE SWAP2 PUSH1 0x20 ADD SWAP2 PUSH2 0x12AD JUMP JUMPDEST DUP3 ADD SWAP2 SWAP1 PUSH1 0x0 MSTORE PUSH1 0x20 PUSH1 0x0 KECCAK256 SWAP1 JUMPDEST DUP2 SLOAD DUP2 MSTORE SWAP1 PUSH1 0x1 ADD SWAP1 PUSH1 0x20 ADD DUP1 DUP4 GT PUSH2 0x1290 JUMPI DUP3 SWAP1 SUB PUSH1 0x1F AND DUP3 ADD SWAP2 JUMPDEST POP POP POP POP POP DUP2 JUMP JUMPDEST PUSH1 0x3 PUSH1 0x0 SWAP1 SLOAD SWAP1 PUSH2 0x100 EXP SWAP1 DIV PUSH20 0xFFFFFFFFFFFFFFFFFFFFFFFFFFFFFFFFFFFFFFFF AND DUP2 JUMP JUMPDEST PUSH1 0x9 DUP1 SLOAD PUSH2 0x12E8 SWAP1 PUSH2 0x2C85 JUMP JUMPDEST DUP1 PUSH1 0x1F ADD PUSH1 0x20 DUP1 SWAP2 DIV MUL PUSH1 0x20 ADD PUSH1 0x40 MLOAD SWAP1 DUP2 ADD PUSH1 0x40 MSTORE DUP1 SWAP3 SWAP2 SWAP1 DUP2 DUP2 MSTORE PUSH1 0x20 ADD DUP3 DUP1 SLOAD PUSH2 0x1314 SWAP1 PUSH2 0x2C85 JUMP JUMPDEST DUP1 ISZERO PUSH2 0x1361 JUMPI DUP1 PUSH1 0x1F LT PUSH2 0x1336 JUMPI PUSH2 0x100 DUP1 DUP4 SLOAD DIV MUL DUP4 MSTORE SWAP2 PUSH1 0x20 ADD SWAP2 PUSH2 0x1361 JUMP JUMPDEST DUP3 ADD SWAP2 SWAP1 PUSH1 0x0 MSTORE PUSH1 0x20 PUSH1 0x0 KECCAK256 SWAP1 JUMPDEST DUP2 SLOAD DUP2 MSTORE SWAP1 PUSH1 0x1 ADD SWAP1 PUSH1 0x20 ADD DUP1 DUP4 GT PUSH2 0x1344 JUMPI DUP3 SWAP1 SUB PUSH1 0x1F AND DUP3 ADD SWAP2 JUMPDEST POP POP POP POP POP DUP2 JUMP JUMPDEST PUSH1 0x0 PUSH1 0x1 PUSH1 0x0 DUP5 PUSH20 0xFFFFFFFFFFFFFFFFFFFFFFFFFFFFFFFFFFFFFFFF AND PUSH20 0xFFFFFFFFFFFFFFFFFFFFFFFFFFFFFFFFFFFFFFFF AND DUP2 MSTORE PUSH1 0x20 ADD SWAP1 DUP2 MSTORE PUSH1 0x20 ADD PUSH1 0x0 KECCAK256 PUSH1 0x0 DUP4 PUSH20 0xFFFFFFFFFFFFFFFFFFFFFFFFFFFFFFFFFFFFFFFF AND PUSH20 0xFFFFFFFFFFFFFFFFFFFFFFFFFFFFFFFFFFFFFFFF AND DUP2 MSTORE PUSH1 0x20 ADD SWAP1 DUP2 MSTORE PUSH1 0x20 ADD PUSH1 0x0 KECCAK256 PUSH1 0x0 SWAP1 SLOAD SWAP1 PUSH2 0x100 EXP SWAP1 DIV PUSH1 0xFF AND SWAP1 POP SWAP3 SWAP2 POP POP JUMP JUMPDEST PUSH1 0x0 PUSH2 0x1407 PUSH2 0x15AE JUMP JUMPDEST SWAP1 POP DUP1 PUSH20 0xFFFFFFFFFFFFFFFFFFFFFFFFFFFFFFFFFFFFFFFF AND DUP7 PUSH20 0xFFFFFFFFFFFFFFFFFFFFFFFFFFFFFFFFFFFFFFFF AND EQ ISZERO DUP1 ISZERO PUSH2 0x144C JUMPI POP PUSH2 0x144A DUP7 DUP3 PUSH2 0x1369 JUMP JUMPDEST ISZERO JUMPDEST ISZERO PUSH2 0x1490 JUMPI DUP1 DUP7 PUSH1 0x40 MLOAD PUSH32 0xE237D92200000000000000000000000000000000000000000000000000000000 DUP2 MSTORE PUSH1 0x4 ADD PUSH2 0x1487 SWAP3 SWAP2 SWAP1 PUSH2 0x2DD6 JUMP JUMPDEST PUSH1 0x40 MLOAD DUP1 SWAP2 SUB SWAP1 REVERT JUMPDEST PUSH2 0x149D DUP7 DUP7 DUP7 DUP7 DUP7 PUSH2 0x1846 JUMP JUMPDEST POP POP POP POP POP POP JUMP JUMPDEST PUSH1 0xE SLOAD DUP2 JUMP JUMPDEST PUSH1 0x0 PUSH32 0x1FFC9A700000000000000000000000000000000000000000000000000000000 PUSH28 0xFFFFFFFFFFFFFFFFFFFFFFFFFFFFFFFFFFFFFFFFFFFFFFFFFFFFFFFF NOT AND DUP3 PUSH28 0xFFFFFFFFFFFFFFFFFFFFFFFFFFFFFFFFFFFFFFFFFFFFFFFFFFFFFFFF NOT AND EQ SWAP1 POP SWAP2 SWAP1 POP JUMP JUMPDEST PUSH1 0x0 PUSH20 0xFFFFFFFFFFFFFFFFFFFFFFFFFFFFFFFFFFFFFFFF AND DUP5 PUSH20 0xFFFFFFFFFFFFFFFFFFFFFFFFFFFFFFFFFFFFFFFF AND SUB PUSH2 0x1587 JUMPI PUSH1 0x0 PUSH1 0x40 MLOAD PUSH32 0x57F447CE00000000000000000000000000000000000000000000000000000000 DUP2 MSTORE PUSH1 0x4 ADD PUSH2 0x157E SWAP2 SWAP1 PUSH2 0x2353 JUMP JUMPDEST PUSH1 0x40 MLOAD DUP1 SWAP2 SUB SWAP1 REVERT JUMPDEST PUSH1 0x0 DUP1 PUSH2 0x1594 DUP6 DUP6 PUSH2 0x1951 JUMP JUMPDEST SWAP2 POP SWAP2 POP PUSH2 0x15A6 PUSH1 0x0 DUP8 DUP5 DUP5 DUP8 PUSH2 0x1981 JUMP JUMPDEST POP POP POP POP POP POP JUMP JUMPDEST PUSH1 0x0 CALLER SWAP1 POP SWAP1 JUMP JUMPDEST PUSH1 0x0 PUSH20 0xFFFFFFFFFFFFFFFFFFFFFFFFFFFFFFFFFFFFFFFF AND DUP5 PUSH20 0xFFFFFFFFFFFFFFFFFFFFFFFFFFFFFFFFFFFFFFFF AND SUB PUSH2 0x1628 JUMPI PUSH1 0x0 PUSH1 0x40 MLOAD PUSH32 0x57F447CE00000000000000000000000000000000000000000000000000000000 DUP2 MSTORE PUSH1 0x4 ADD PUSH2 0x161F SWAP2 SWAP1 PUSH2 0x2353 JUMP JUMPDEST PUSH1 0x40 MLOAD DUP1 SWAP2 SUB SWAP1 REVERT JUMPDEST PUSH1 0x0 PUSH20 0xFFFFFFFFFFFFFFFFFFFFFFFFFFFFFFFFFFFFFFFF AND DUP6 PUSH20 0xFFFFFFFFFFFFFFFFFFFFFFFFFFFFFFFFFFFFFFFF AND SUB PUSH2 0x169A JUMPI PUSH1 0x0 PUSH1 0x40 MLOAD PUSH32 0x1A8351400000000000000000000000000000000000000000000000000000000 DUP2 MSTORE PUSH1 0x4 ADD PUSH2 0x1691 SWAP2 SWAP1 PUSH2 0x2353 JUMP JUMPDEST PUSH1 0x40 MLOAD DUP1 SWAP2 SUB SWAP1 REVERT JUMPDEST PUSH2 0x16A7 DUP6 DUP6 DUP6 DUP6 DUP6 PUSH2 0x1981 JUMP JUMPDEST POP POP POP POP POP JUMP JUMPDEST PUSH1 0x0 PUSH1 0x20 DUP3 MUL PUSH1 0x20 DUP5 ADD ADD MLOAD SWAP1 POP SWAP3 SWAP2 POP POP JUMP JUMPDEST PUSH1 0x0 PUSH1 0x20 DUP3 MUL PUSH1 0x20 DUP5 ADD ADD MLOAD SWAP1 POP SWAP3 SWAP2 POP POP JUMP JUMPDEST PUSH1 0x0 PUSH20 0xFFFFFFFFFFFFFFFFFFFFFFFFFFFFFFFFFFFFFFFF AND DUP3 PUSH20 0xFFFFFFFFFFFFFFFFFFFFFFFFFFFFFFFFFFFFFFFF AND SUB PUSH2 0x1748 JUMPI PUSH1 0x0 PUSH1 0x40 MLOAD PUSH32 0xCED3E10000000000000000000000000000000000000000000000000000000000 DUP2 MSTORE PUSH1 0x4 ADD PUSH2 0x173F SWAP2 SWAP1 PUSH2 0x2353 JUMP JUMPDEST PUSH1 0x40 MLOAD DUP1 SWAP2 SUB SWAP1 REVERT JUMPDEST DUP1 PUSH1 0x1 PUSH1 0x0 DUP6 PUSH20 0xFFFFFFFFFFFFFFFFFFFFFFFFFFFFFFFFFFFFFFFF AND PUSH20 0xFFFFFFFFFFFFFFFFFFFFFFFFFFFFFFFFFFFFFFFF AND DUP2 MSTORE PUSH1 0x20 ADD SWAP1 DUP2 MSTORE PUSH1 0x20 ADD PUSH1 0x0 KECCAK256 PUSH1 0x0 DUP5 PUSH20 0xFFFFFFFFFFFFFFFFFFFFFFFFFFFFFFFFFFFFFFFF AND PUSH20 0xFFFFFFFFFFFFFFFFFFFFFFFFFFFFFFFFFFFFFFFF AND DUP2 MSTORE PUSH1 0x20 ADD SWAP1 DUP2 MSTORE PUSH1 0x20 ADD PUSH1 0x0 KECCAK256 PUSH1 0x0 PUSH2 0x100 EXP DUP2 SLOAD DUP2 PUSH1 0xFF MUL NOT AND SWAP1 DUP4 ISZERO ISZERO MUL OR SWAP1 SSTORE POP DUP2 PUSH20 0xFFFFFFFFFFFFFFFFFFFFFFFFFFFFFFFFFFFFFFFF AND DUP4 PUSH20 0xFFFFFFFFFFFFFFFFFFFFFFFFFFFFFFFFFFFFFFFF AND PUSH32 0x17307EAB39AB6107E8899845AD3D59BD9653F200F220920489CA2B5937696C31 DUP4 PUSH1 0x40 MLOAD PUSH2 0x1839 SWAP2 SWAP1 PUSH2 0x22F5 JUMP JUMPDEST PUSH1 0x40 MLOAD DUP1 SWAP2 SUB SWAP1 LOG3 POP POP POP JUMP JUMPDEST PUSH1 0x0 PUSH20 0xFFFFFFFFFFFFFFFFFFFFFFFFFFFFFFFFFFFFFFFF AND DUP5 PUSH20 0xFFFFFFFFFFFFFFFFFFFFFFFFFFFFFFFFFFFFFFFF AND SUB PUSH2 0x18B8 JUMPI PUSH1 0x0 PUSH1 0x40 MLOAD PUSH32 0x57F447CE00000000000000000000000000000000000000000000000000000000 DUP2 MSTORE PUSH1 0x4 ADD PUSH2 0x18AF SWAP2 SWAP1 PUSH2 0x2353 JUMP JUMPDEST PUSH1 0x40 MLOAD DUP1 SWAP2 SUB SWAP1 REVERT JUMPDEST PUSH1 0x0 PUSH20 0xFFFFFFFFFFFFFFFFFFFFFFFFFFFFFFFFFFFFFFFF AND DUP6 PUSH20 0xFFFFFFFFFFFFFFFFFFFFFFFFFFFFFFFFFFFFFFFF AND SUB PUSH2 0x192A JUMPI PUSH1 0x0 PUSH1 0x40 MLOAD PUSH32 0x1A8351400000000000000000000000000000000000000000000000000000000 DUP2 MSTORE PUSH1 0x4 ADD PUSH2 0x1921 SWAP2 SWAP1 PUSH2 0x2353 JUMP JUMPDEST PUSH1 0x40 MLOAD DUP1 SWAP2 SUB SWAP1 REVERT JUMPDEST PUSH1 0x0 DUP1 PUSH2 0x1937 DUP6 DUP6 PUSH2 0x1951 JUMP JUMPDEST SWAP2 POP SWAP2 POP PUSH2 0x1948 DUP8 DUP8 DUP5 DUP5 DUP8 PUSH2 0x1981 JUMP JUMPDEST POP POP POP POP POP POP POP JUMP JUMPDEST PUSH1 0x60 DUP1 PUSH1 0x40 MLOAD SWAP2 POP PUSH1 0x1 DUP3 MSTORE DUP4 PUSH1 0x20 DUP4 ADD MSTORE PUSH1 0x40 DUP3 ADD SWAP1 POP PUSH1 0x1 DUP2 MSTORE DUP3 PUSH1 0x20 DUP3 ADD MSTORE PUSH1 0x40 DUP2 ADD PUSH1 0x40 MSTORE SWAP3 POP SWAP3 SWAP1 POP JUMP JUMPDEST PUSH2 0x198D DUP6 DUP6 DUP6 DUP6 PUSH2 0x1A33 JUMP JUMPDEST PUSH1 0x0 PUSH20 0xFFFFFFFFFFFFFFFFFFFFFFFFFFFFFFFFFFFFFFFF AND DUP5 PUSH20 0xFFFFFFFFFFFFFFFFFFFFFFFFFFFFFFFFFFFFFFFF AND EQ PUSH2 0x1A2C JUMPI PUSH1 0x0 PUSH2 0x19CB PUSH2 0x15AE JUMP JUMPDEST SWAP1 POP PUSH1 0x1 DUP5 MLOAD SUB PUSH2 0x1A1B JUMPI PUSH1 0x0 PUSH2 0x19EC PUSH1 0x0 DUP7 PUSH2 0x16C2 SWAP1 SWAP2 SWAP1 PUSH4 0xFFFFFFFF AND JUMP JUMPDEST SWAP1 POP PUSH1 0x0 PUSH2 0x1A04 PUSH1 0x0 DUP7 PUSH2 0x16C2 SWAP1 SWAP2 SWAP1 PUSH4 0xFFFFFFFF AND JUMP JUMPDEST SWAP1 POP PUSH2 0x1A14 DUP4 DUP10 DUP10 DUP6 DUP6 DUP10 PUSH2 0x1DDB JUMP JUMPDEST POP POP PUSH2 0x1A2A JUMP JUMPDEST PUSH2 0x1A29 DUP2 DUP8 DUP8 DUP8 DUP8 DUP8 PUSH2 0x1F8F JUMP JUMPDEST JUMPDEST POP JUMPDEST POP POP POP POP POP JUMP JUMPDEST DUP1 MLOAD DUP3 MLOAD EQ PUSH2 0x1A7D JUMPI DUP2 MLOAD DUP2 MLOAD PUSH1 0x40 MLOAD PUSH32 0x5B05999100000000000000000000000000000000000000000000000000000000 DUP2 MSTORE PUSH1 0x4 ADD PUSH2 0x1A74 SWAP3 SWAP2 SWAP1 PUSH2 0x2DFF JUMP JUMPDEST PUSH1 0x40 MLOAD DUP1 SWAP2 SUB SWAP1 REVERT JUMPDEST PUSH1 0x0 PUSH2 0x1A87 PUSH2 0x15AE JUMP JUMPDEST SWAP1 POP PUSH1 0x0 JUMPDEST DUP4 MLOAD DUP2 LT ISZERO PUSH2 0x1C96 JUMPI PUSH1 0x0 PUSH2 0x1AAA DUP3 DUP7 PUSH2 0x16C2 SWAP1 SWAP2 SWAP1 PUSH4 0xFFFFFFFF AND JUMP JUMPDEST SWAP1 POP PUSH1 0x0 PUSH2 0x1AC1 DUP4 DUP7 PUSH2 0x16C2 SWAP1 SWAP2 SWAP1 PUSH4 0xFFFFFFFF AND JUMP JUMPDEST SWAP1 POP PUSH1 0x0 PUSH20 0xFFFFFFFFFFFFFFFFFFFFFFFFFFFFFFFFFFFFFFFF AND DUP9 PUSH20 0xFFFFFFFFFFFFFFFFFFFFFFFFFFFFFFFFFFFFFFFF AND EQ PUSH2 0x1BEE JUMPI PUSH1 0x0 DUP1 PUSH1 0x0 DUP5 DUP2 MSTORE PUSH1 0x20 ADD SWAP1 DUP2 MSTORE PUSH1 0x20 ADD PUSH1 0x0 KECCAK256 PUSH1 0x0 DUP11 PUSH20 0xFFFFFFFFFFFFFFFFFFFFFFFFFFFFFFFFFFFFFFFF AND PUSH20 0xFFFFFFFFFFFFFFFFFFFFFFFFFFFFFFFFFFFFFFFF AND DUP2 MSTORE PUSH1 0x20 ADD SWAP1 DUP2 MSTORE PUSH1 0x20 ADD PUSH1 0x0 KECCAK256 SLOAD SWAP1 POP DUP2 DUP2 LT ISZERO PUSH2 0x1B96 JUMPI DUP9 DUP2 DUP4 DUP6 PUSH1 0x40 MLOAD PUSH32 0x3DEE4C500000000000000000000000000000000000000000000000000000000 DUP2 MSTORE PUSH1 0x4 ADD PUSH2 0x1B8D SWAP5 SWAP4 SWAP3 SWAP2 SWAP1 PUSH2 0x356B JUMP JUMPDEST PUSH1 0x40 MLOAD DUP1 SWAP2 SUB SWAP1 REVERT JUMPDEST DUP2 DUP2 SUB PUSH1 0x0 DUP1 DUP6 DUP2 MSTORE PUSH1 0x20 ADD SWAP1 DUP2 MSTORE PUSH1 0x20 ADD PUSH1 0x0 KECCAK256 PUSH1 0x0 DUP12 PUSH20 0xFFFFFFFFFFFFFFFFFFFFFFFFFFFFFFFFFFFFFFFF AND PUSH20 0xFFFFFFFFFFFFFFFFFFFFFFFFFFFFFFFFFFFFFFFF AND DUP2 MSTORE PUSH1 0x20 ADD SWAP1 DUP2 MSTORE PUSH1 0x20 ADD PUSH1 0x0 KECCAK256 DUP2 SWAP1 SSTORE POP POP JUMPDEST PUSH1 0x0 PUSH20 0xFFFFFFFFFFFFFFFFFFFFFFFFFFFFFFFFFFFFFFFF AND DUP8 PUSH20 0xFFFFFFFFFFFFFFFFFFFFFFFFFFFFFFFFFFFFFFFF AND EQ PUSH2 0x1C89 JUMPI DUP1 PUSH1 0x0 DUP1 DUP5 DUP2 MSTORE PUSH1 0x20 ADD SWAP1 DUP2 MSTORE PUSH1 0x20 ADD PUSH1 0x0 KECCAK256 PUSH1 0x0 DUP10 PUSH20 0xFFFFFFFFFFFFFFFFFFFFFFFFFFFFFFFFFFFFFFFF AND PUSH20 0xFFFFFFFFFFFFFFFFFFFFFFFFFFFFFFFFFFFFFFFF AND DUP2 MSTORE PUSH1 0x20 ADD SWAP1 DUP2 MSTORE PUSH1 0x20 ADD PUSH1 0x0 KECCAK256 PUSH1 0x0 DUP3 DUP3 SLOAD PUSH2 0x1C81 SWAP2 SWAP1 PUSH2 0x2B90 JUMP JUMPDEST SWAP3 POP POP DUP2 SWAP1 SSTORE POP JUMPDEST POP POP DUP1 PUSH1 0x1 ADD SWAP1 POP PUSH2 0x1A8C JUMP JUMPDEST POP PUSH1 0x1 DUP4 MLOAD SUB PUSH2 0x1D55 JUMPI PUSH1 0x0 PUSH2 0x1CB6 PUSH1 0x0 DUP6 PUSH2 0x16C2 SWAP1 SWAP2 SWAP1 PUSH4 0xFFFFFFFF AND JUMP JUMPDEST SWAP1 POP PUSH1 0x0 PUSH2 0x1CCE PUSH1 0x0 DUP6 PUSH2 0x16C2 SWAP1 SWAP2 SWAP1 PUSH4 0xFFFFFFFF AND JUMP JUMPDEST SWAP1 POP DUP6 PUSH20 0xFFFFFFFFFFFFFFFFFFFFFFFFFFFFFFFFFFFFFFFF AND DUP8 PUSH20 0xFFFFFFFFFFFFFFFFFFFFFFFFFFFFFFFFFFFFFFFF AND DUP5 PUSH20 0xFFFFFFFFFFFFFFFFFFFFFFFFFFFFFFFFFFFFFFFF AND PUSH32 0xC3D58168C5AE7397731D063D5BBF3D657854427343F4C083240F7AACAA2D0F62 DUP6 DUP6 PUSH1 0x40 MLOAD PUSH2 0x1D46 SWAP3 SWAP2 SWAP1 PUSH2 0x2DFF JUMP JUMPDEST PUSH1 0x40 MLOAD DUP1 SWAP2 SUB SWAP1 LOG4 POP POP PUSH2 0x1DD4 JUMP JUMPDEST DUP4 PUSH20 0xFFFFFFFFFFFFFFFFFFFFFFFFFFFFFFFFFFFFFFFF AND DUP6 PUSH20 0xFFFFFFFFFFFFFFFFFFFFFFFFFFFFFFFFFFFFFFFF AND DUP3 PUSH20 0xFFFFFFFFFFFFFFFFFFFFFFFFFFFFFFFFFFFFFFFF AND PUSH32 0x4A39DC06D4C0DBC64B70AF90FD698A233A518AA5D07E595D983B8C0526C8F7FB DUP7 DUP7 PUSH1 0x40 MLOAD PUSH2 0x1DCB SWAP3 SWAP2 SWAP1 PUSH2 0x35B0 JUMP JUMPDEST PUSH1 0x40 MLOAD DUP1 SWAP2 SUB SWAP1 LOG4 JUMPDEST POP POP POP POP POP JUMP JUMPDEST PUSH1 0x0 DUP5 PUSH20 0xFFFFFFFFFFFFFFFFFFFFFFFFFFFFFFFFFFFFFFFF AND EXTCODESIZE GT ISZERO PUSH2 0x1F87 JUMPI DUP4 PUSH20 0xFFFFFFFFFFFFFFFFFFFFFFFFFFFFFFFFFFFFFFFF AND PUSH4 0xF23A6E61 DUP8 DUP8 DUP7 DUP7 DUP7 PUSH1 0x40 MLOAD DUP7 PUSH4 0xFFFFFFFF AND PUSH1 0xE0 SHL DUP2 MSTORE PUSH1 0x4 ADD PUSH2 0x1E3C SWAP6 SWAP5 SWAP4 SWAP3 SWAP2 SWAP1 PUSH2 0x363C JUMP JUMPDEST PUSH1 0x20 PUSH1 0x40 MLOAD DUP1 DUP4 SUB DUP2 PUSH1 0x0 DUP8 GAS CALL SWAP3 POP POP POP DUP1 ISZERO PUSH2 0x1E78 JUMPI POP PUSH1 0x40 MLOAD RETURNDATASIZE PUSH1 0x1F NOT PUSH1 0x1F DUP3 ADD AND DUP3 ADD DUP1 PUSH1 0x40 MSTORE POP DUP2 ADD SWAP1 PUSH2 0x1E75 SWAP2 SWAP1 PUSH2 0x36AB JUMP JUMPDEST PUSH1 0x1 JUMPDEST PUSH2 0x1EFC JUMPI RETURNDATASIZE DUP1 PUSH1 0x0 DUP2 EQ PUSH2 0x1EA8 JUMPI PUSH1 0x40 MLOAD SWAP2 POP PUSH1 0x1F NOT PUSH1 0x3F RETURNDATASIZE ADD AND DUP3 ADD PUSH1 0x40 MSTORE RETURNDATASIZE DUP3 MSTORE RETURNDATASIZE PUSH1 0x0 PUSH1 0x20 DUP5 ADD RETURNDATACOPY PUSH2 0x1EAD JUMP JUMPDEST PUSH1 0x60 SWAP2 POP JUMPDEST POP PUSH1 0x0 DUP2 MLOAD SUB PUSH2 0x1EF4 JUMPI DUP5 PUSH1 0x40 MLOAD PUSH32 0x57F447CE00000000000000000000000000000000000000000000000000000000 DUP2 MSTORE PUSH1 0x4 ADD PUSH2 0x1EEB SWAP2 SWAP1 PUSH2 0x2353 JUMP JUMPDEST PUSH1 0x40 MLOAD DUP1 SWAP2 SUB SWAP1 REVERT JUMPDEST DUP1 MLOAD DUP2 PUSH1 0x20 ADD REVERT JUMPDEST PUSH4 0xF23A6E61 PUSH1 0xE0 SHL PUSH28 0xFFFFFFFFFFFFFFFFFFFFFFFFFFFFFFFFFFFFFFFFFFFFFFFFFFFFFFFF NOT AND DUP2 PUSH28 0xFFFFFFFFFFFFFFFFFFFFFFFFFFFFFFFFFFFFFFFFFFFFFFFFFFFFFFFF NOT AND EQ PUSH2 0x1F85 JUMPI DUP5 PUSH1 0x40 MLOAD PUSH32 0x57F447CE00000000000000000000000000000000000000000000000000000000 DUP2 MSTORE PUSH1 0x4 ADD PUSH2 0x1F7C SWAP2 SWAP1 PUSH2 0x2353 JUMP JUMPDEST PUSH1 0x40 MLOAD DUP1 SWAP2 SUB SWAP1 REVERT JUMPDEST POP JUMPDEST POP POP POP POP POP POP JUMP JUMPDEST PUSH1 0x0 DUP5 PUSH20 0xFFFFFFFFFFFFFFFFFFFFFFFFFFFFFFFFFFFFFFFF AND EXTCODESIZE GT ISZERO PUSH2 0x213B JUMPI DUP4 PUSH20 0xFFFFFFFFFFFFFFFFFFFFFFFFFFFFFFFFFFFFFFFF AND PUSH4 0xBC197C81 DUP8 DUP8 DUP7 DUP7 DUP7 PUSH1 0x40 MLOAD DUP7 PUSH4 0xFFFFFFFF AND PUSH1 0xE0 SHL DUP2 MSTORE PUSH1 0x4 ADD PUSH2 0x1FF0 SWAP6 SWAP5 SWAP4 SWAP3 SWAP2 SWAP1 PUSH2 0x36D8 JUMP JUMPDEST PUSH1 0x20 PUSH1 0x40 MLOAD DUP1 DUP4 SUB DUP2 PUSH1 0x0 DUP8 GAS CALL SWAP3 POP POP POP DUP1 ISZERO PUSH2 0x202C JUMPI POP PUSH1 0x40 MLOAD RETURNDATASIZE PUSH1 0x1F NOT PUSH1 0x1F DUP3 ADD AND DUP3 ADD DUP1 PUSH1 0x40 MSTORE POP DUP2 ADD SWAP1 PUSH2 0x2029 SWAP2 SWAP1 PUSH2 0x36AB JUMP JUMPDEST PUSH1 0x1 JUMPDEST PUSH2 0x20B0 JUMPI RETURNDATASIZE DUP1 PUSH1 0x0 DUP2 EQ PUSH2 0x205C JUMPI PUSH1 0x40 MLOAD SWAP2 POP PUSH1 0x1F NOT PUSH1 0x3F RETURNDATASIZE ADD AND DUP3 ADD PUSH1 0x40 MSTORE RETURNDATASIZE DUP3 MSTORE RETURNDATASIZE PUSH1 0x0 PUSH1 0x20 DUP5 ADD RETURNDATACOPY PUSH2 0x2061 JUMP JUMPDEST PUSH1 0x60 SWAP2 POP JUMPDEST POP PUSH1 0x0 DUP2 MLOAD SUB PUSH2 0x20A8 JUMPI DUP5 PUSH1 0x40 MLOAD PUSH32 0x57F447CE00000000000000000000000000000000000000000000000000000000 DUP2 MSTORE PUSH1 0x4 ADD PUSH2 0x209F SWAP2 SWAP1 PUSH2 0x2353 JUMP JUMPDEST PUSH1 0x40 MLOAD DUP1 SWAP2 SUB SWAP1 REVERT JUMPDEST DUP1 MLOAD DUP2 PUSH1 0x20 ADD REVERT JUMPDEST PUSH4 0xBC197C81 PUSH1 0xE0 SHL PUSH28 0xFFFFFFFFFFFFFFFFFFFFFFFFFFFFFFFFFFFFFFFFFFFFFFFFFFFFFFFF NOT AND DUP2 PUSH28 0xFFFFFFFFFFFFFFFFFFFFFFFFFFFFFFFFFFFFFFFFFFFFFFFFFFFFFFFF NOT AND EQ PUSH2 0x2139 JUMPI DUP5 PUSH1 0x40 MLOAD PUSH32 0x57F447CE00000000000000000000000000000000000000000000000000000000 DUP2 MSTORE PUSH1 0x4 ADD PUSH2 0x2130 SWAP2 SWAP1 PUSH2 0x2353 JUMP JUMPDEST PUSH1 0x40 MLOAD DUP1 SWAP2 SUB SWAP1 REVERT JUMPDEST POP JUMPDEST POP POP POP POP POP POP JUMP JUMPDEST PUSH1 0x0 PUSH1 0x40 MLOAD SWAP1 POP SWAP1 JUMP JUMPDEST PUSH1 0x0 DUP1 REVERT JUMPDEST PUSH1 0x0 DUP1 REVERT JUMPDEST PUSH1 0x0 PUSH20 0xFFFFFFFFFFFFFFFFFFFFFFFFFFFFFFFFFFFFFFFF DUP3 AND SWAP1 POP SWAP2 SWAP1 POP JUMP JUMPDEST PUSH1 0x0 PUSH2 0x2182 DUP3 PUSH2 0x2157 JUMP JUMPDEST SWAP1 POP SWAP2 SWAP1 POP JUMP JUMPDEST PUSH2 0x2192 DUP2 PUSH2 0x2177 JUMP JUMPDEST DUP2 EQ PUSH2 0x219D JUMPI PUSH1 0x0 DUP1 REVERT JUMPDEST POP JUMP JUMPDEST PUSH1 0x0 DUP2 CALLDATALOAD SWAP1 POP PUSH2 0x21AF DUP2 PUSH2 0x2189 JUMP JUMPDEST SWAP3 SWAP2 POP POP JUMP JUMPDEST PUSH1 0x0 DUP2 SWAP1 POP SWAP2 SWAP1 POP JUMP JUMPDEST PUSH2 0x21C8 DUP2 PUSH2 0x21B5 JUMP JUMPDEST DUP2 EQ PUSH2 0x21D3 JUMPI PUSH1 0x0 DUP1 REVERT JUMPDEST POP JUMP JUMPDEST PUSH1 0x0 DUP2 CALLDATALOAD SWAP1 POP PUSH2 0x21E5 DUP2 PUSH2 0x21BF JUMP JUMPDEST SWAP3 SWAP2 POP POP JUMP JUMPDEST PUSH1 0x0 DUP1 PUSH1 0x40 DUP4 DUP6 SUB SLT ISZERO PUSH2 0x2202 JUMPI PUSH2 0x2201 PUSH2 0x214D JUMP JUMPDEST JUMPDEST PUSH1 0x0 PUSH2 0x2210 DUP6 DUP3 DUP7 ADD PUSH2 0x21A0 JUMP JUMPDEST SWAP3 POP POP PUSH1 0x20 PUSH2 0x2221 DUP6 DUP3 DUP7 ADD PUSH2 0x21D6 JUMP JUMPDEST SWAP2 POP POP SWAP3 POP SWAP3 SWAP1 POP JUMP JUMPDEST PUSH2 0x2234 DUP2 PUSH2 0x21B5 JUMP JUMPDEST DUP3 MSTORE POP POP JUMP JUMPDEST PUSH1 0x0 PUSH1 0x20 DUP3 ADD SWAP1 POP PUSH2 0x224F PUSH1 0x0 DUP4 ADD DUP5 PUSH2 0x222B JUMP JUMPDEST SWAP3 SWAP2 POP POP JUMP JUMPDEST PUSH1 0x0 PUSH32 0xFFFFFFFF00000000000000000000000000000000000000000000000000000000 DUP3 AND SWAP1 POP SWAP2 SWAP1 POP JUMP JUMPDEST PUSH2 0x228A DUP2 PUSH2 0x2255 JUMP JUMPDEST DUP2 EQ PUSH2 0x2295 JUMPI PUSH1 0x0 DUP1 REVERT JUMPDEST POP JUMP JUMPDEST PUSH1 0x0 DUP2 CALLDATALOAD SWAP1 POP PUSH2 0x22A7 DUP2 PUSH2 0x2281 JUMP JUMPDEST SWAP3 SWAP2 POP POP JUMP JUMPDEST PUSH1 0x0 PUSH1 0x20 DUP3 DUP5 SUB SLT ISZERO PUSH2 0x22C3 JUMPI PUSH2 0x22C2 PUSH2 0x214D JUMP JUMPDEST JUMPDEST PUSH1 0x0 PUSH2 0x22D1 DUP5 DUP3 DUP6 ADD PUSH2 0x2298 JUMP JUMPDEST SWAP2 POP POP SWAP3 SWAP2 POP POP JUMP JUMPDEST PUSH1 0x0 DUP2 ISZERO ISZERO SWAP1 POP SWAP2 SWAP1 POP JUMP JUMPDEST PUSH2 0x22EF DUP2 PUSH2 0x22DA JUMP JUMPDEST DUP3 MSTORE POP POP JUMP JUMPDEST PUSH1 0x0 PUSH1 0x20 DUP3 ADD SWAP1 POP PUSH2 0x230A PUSH1 0x0 DUP4 ADD DUP5 PUSH2 0x22E6 JUMP JUMPDEST SWAP3 SWAP2 POP POP JUMP JUMPDEST PUSH1 0x0 DUP2 SWAP1 POP SWAP2 SWAP1 POP JUMP JUMPDEST PUSH2 0x2323 DUP2 PUSH2 0x2310 JUMP JUMPDEST DUP3 MSTORE POP POP JUMP JUMPDEST PUSH1 0x0 PUSH1 0x20 DUP3 ADD SWAP1 POP PUSH2 0x233E PUSH1 0x0 DUP4 ADD DUP5 PUSH2 0x231A JUMP JUMPDEST SWAP3 SWAP2 POP POP JUMP JUMPDEST PUSH2 0x234D DUP2 PUSH2 0x2177 JUMP JUMPDEST DUP3 MSTORE POP POP JUMP JUMPDEST PUSH1 0x0 PUSH1 0x20 DUP3 ADD SWAP1 POP PUSH2 0x2368 PUSH1 0x0 DUP4 ADD DUP5 PUSH2 0x2344 JUMP JUMPDEST SWAP3 SWAP2 POP POP JUMP JUMPDEST PUSH1 0x0 PUSH1 0x20 DUP3 DUP5 SUB SLT ISZERO PUSH2 0x2384 JUMPI PUSH2 0x2383 PUSH2 0x214D JUMP JUMPDEST JUMPDEST PUSH1 0x0 PUSH2 0x2392 DUP5 DUP3 DUP6 ADD PUSH2 0x21D6 JUMP JUMPDEST SWAP2 POP POP SWAP3 SWAP2 POP POP JUMP JUMPDEST PUSH1 0x0 DUP2 MLOAD SWAP1 POP SWAP2 SWAP1 POP JUMP JUMPDEST PUSH1 0x0 DUP3 DUP3 MSTORE PUSH1 0x20 DUP3 ADD SWAP1 POP SWAP3 SWAP2 POP POP JUMP JUMPDEST PUSH1 0x0 JUMPDEST DUP4 DUP2 LT ISZERO PUSH2 0x23D5 JUMPI DUP1 DUP3 ADD MLOAD DUP2 DUP5 ADD MSTORE PUSH1 0x20 DUP2 ADD SWAP1 POP PUSH2 0x23BA JUMP JUMPDEST PUSH1 0x0 DUP5 DUP5 ADD MSTORE POP POP POP POP JUMP JUMPDEST PUSH1 0x0 PUSH1 0x1F NOT PUSH1 0x1F DUP4 ADD AND SWAP1 POP SWAP2 SWAP1 POP JUMP JUMPDEST PUSH1 0x0 PUSH2 0x23FD DUP3 PUSH2 0x239B JUMP JUMPDEST PUSH2 0x2407 DUP2 DUP6 PUSH2 0x23A6 JUMP JUMPDEST SWAP4 POP PUSH2 0x2417 DUP2 DUP6 PUSH1 0x20 DUP7 ADD PUSH2 0x23B7 JUMP JUMPDEST PUSH2 0x2420 DUP2 PUSH2 0x23E1 JUMP JUMPDEST DUP5 ADD SWAP2 POP POP SWAP3 SWAP2 POP POP JUMP JUMPDEST PUSH1 0x0 PUSH1 0x20 DUP3 ADD SWAP1 POP DUP2 DUP2 SUB PUSH1 0x0 DUP4 ADD MSTORE PUSH2 0x2445 DUP2 DUP5 PUSH2 0x23F2 JUMP JUMPDEST SWAP1 POP SWAP3 SWAP2 POP POP JUMP JUMPDEST PUSH1 0x0 DUP1 REVERT JUMPDEST PUSH32 0x4E487B7100000000000000000000000000000000000000000000000000000000 PUSH1 0x0 MSTORE PUSH1 0x41 PUSH1 0x4 MSTORE PUSH1 0x24 PUSH1 0x0 REVERT JUMPDEST PUSH2 0x248A DUP3 PUSH2 0x23E1 JUMP JUMPDEST DUP2 ADD DUP2 DUP2 LT PUSH8 0xFFFFFFFFFFFFFFFF DUP3 GT OR ISZERO PUSH2 0x24A9 JUMPI PUSH2 0x24A8 PUSH2 0x2452 JUMP JUMPDEST JUMPDEST DUP1 PUSH1 0x40 MSTORE POP POP POP JUMP JUMPDEST PUSH1 0x0 PUSH2 0x24BC PUSH2 0x2143 JUMP JUMPDEST SWAP1 POP PUSH2 0x24C8 DUP3 DUP3 PUSH2 0x2481 JUMP JUMPDEST SWAP2 SWAP1 POP JUMP JUMPDEST PUSH1 0x0 PUSH8 0xFFFFFFFFFFFFFFFF DUP3 GT ISZERO PUSH2 0x24E8 JUMPI PUSH2 0x24E7 PUSH2 0x2452 JUMP JUMPDEST JUMPDEST PUSH1 0x20 DUP3 MUL SWAP1 POP PUSH1 0x20 DUP2 ADD SWAP1 POP SWAP2 SWAP1 POP JUMP JUMPDEST PUSH1 0x0 DUP1 REVERT JUMPDEST PUSH1 0x0 PUSH2 0x2511 PUSH2 0x250C DUP5 PUSH2 0x24CD JUMP JUMPDEST PUSH2 0x24B2 JUMP JUMPDEST SWAP1 POP DUP1 DUP4 DUP3 MSTORE PUSH1 0x20 DUP3 ADD SWAP1 POP PUSH1 0x20 DUP5 MUL DUP4 ADD DUP6 DUP2 GT ISZERO PUSH2 0x2534 JUMPI PUSH2 0x2533 PUSH2 0x24F9 JUMP JUMPDEST JUMPDEST DUP4 JUMPDEST DUP2 DUP2 LT ISZERO PUSH2 0x255D JUMPI DUP1 PUSH2 0x2549 DUP9 DUP3 PUSH2 0x21D6 JUMP JUMPDEST DUP5 MSTORE PUSH1 0x20 DUP5 ADD SWAP4 POP POP PUSH1 0x20 DUP2 ADD SWAP1 POP PUSH2 0x2536 JUMP JUMPDEST POP POP POP SWAP4 SWAP3 POP POP POP JUMP JUMPDEST PUSH1 0x0 DUP3 PUSH1 0x1F DUP4 ADD SLT PUSH2 0x257C JUMPI PUSH2 0x257B PUSH2 0x244D JUMP JUMPDEST JUMPDEST DUP2 CALLDATALOAD PUSH2 0x258C DUP5 DUP3 PUSH1 0x20 DUP7 ADD PUSH2 0x24FE JUMP JUMPDEST SWAP2 POP POP SWAP3 SWAP2 POP POP JUMP JUMPDEST PUSH1 0x0 DUP1 REVERT JUMPDEST PUSH1 0x0 PUSH8 0xFFFFFFFFFFFFFFFF DUP3 GT ISZERO PUSH2 0x25B5 JUMPI PUSH2 0x25B4 PUSH2 0x2452 JUMP JUMPDEST JUMPDEST PUSH2 0x25BE DUP3 PUSH2 0x23E1 JUMP JUMPDEST SWAP1 POP PUSH1 0x20 DUP2 ADD SWAP1 POP SWAP2 SWAP1 POP JUMP JUMPDEST DUP3 DUP2 DUP4 CALLDATACOPY PUSH1 0x0 DUP4 DUP4 ADD MSTORE POP POP POP JUMP JUMPDEST PUSH1 0x0 PUSH2 0x25ED PUSH2 0x25E8 DUP5 PUSH2 0x259A JUMP JUMPDEST PUSH2 0x24B2 JUMP JUMPDEST SWAP1 POP DUP3 DUP2 MSTORE PUSH1 0x20 DUP2 ADD DUP5 DUP5 DUP5 ADD GT ISZERO PUSH2 0x2609 JUMPI PUSH2 0x2608 PUSH2 0x2595 JUMP JUMPDEST JUMPDEST PUSH2 0x2614 DUP5 DUP3 DUP6 PUSH2 0x25CB JUMP JUMPDEST POP SWAP4 SWAP3 POP POP POP JUMP JUMPDEST PUSH1 0x0 DUP3 PUSH1 0x1F DUP4 ADD SLT PUSH2 0x2631 JUMPI PUSH2 0x2630 PUSH2 0x244D JUMP JUMPDEST JUMPDEST DUP2 CALLDATALOAD PUSH2 0x2641 DUP5 DUP3 PUSH1 0x20 DUP7 ADD PUSH2 0x25DA JUMP JUMPDEST SWAP2 POP POP SWAP3 SWAP2 POP POP JUMP JUMPDEST PUSH1 0x0 DUP1 PUSH1 0x0 DUP1 PUSH1 0x0 PUSH1 0xA0 DUP7 DUP9 SUB SLT ISZERO PUSH2 0x2666 JUMPI PUSH2 0x2665 PUSH2 0x214D JUMP JUMPDEST JUMPDEST PUSH1 0x0 PUSH2 0x2674 DUP9 DUP3 DUP10 ADD PUSH2 0x21A0 JUMP JUMPDEST SWAP6 POP POP PUSH1 0x20 PUSH2 0x2685 DUP9 DUP3 DUP10 ADD PUSH2 0x21A0 JUMP JUMPDEST SWAP5 POP POP PUSH1 0x40 DUP7 ADD CALLDATALOAD PUSH8 0xFFFFFFFFFFFFFFFF DUP2 GT ISZERO PUSH2 0x26A6 JUMPI PUSH2 0x26A5 PUSH2 0x2152 JUMP JUMPDEST JUMPDEST PUSH2 0x26B2 DUP9 DUP3 DUP10 ADD PUSH2 0x2567 JUMP JUMPDEST SWAP4 POP POP PUSH1 0x60 DUP7 ADD CALLDATALOAD PUSH8 0xFFFFFFFFFFFFFFFF DUP2 GT ISZERO PUSH2 0x26D3 JUMPI PUSH2 0x26D2 PUSH2 0x2152 JUMP JUMPDEST JUMPDEST PUSH2 0x26DF DUP9 DUP3 DUP10 ADD PUSH2 0x2567 JUMP JUMPDEST SWAP3 POP POP PUSH1 0x80 DUP7 ADD CALLDATALOAD PUSH8 0xFFFFFFFFFFFFFFFF DUP2 GT ISZERO PUSH2 0x2700 JUMPI PUSH2 0x26FF PUSH2 0x2152 JUMP JUMPDEST JUMPDEST PUSH2 0x270C DUP9 DUP3 DUP10 ADD PUSH2 0x261C JUMP JUMPDEST SWAP2 POP POP SWAP3 SWAP6 POP SWAP3 SWAP6 SWAP1 SWAP4 POP JUMP JUMPDEST PUSH1 0x0 PUSH8 0xFFFFFFFFFFFFFFFF DUP3 GT ISZERO PUSH2 0x2734 JUMPI PUSH2 0x2733 PUSH2 0x2452 JUMP JUMPDEST JUMPDEST PUSH1 0x20 DUP3 MUL SWAP1 POP PUSH1 0x20 DUP2 ADD SWAP1 POP SWAP2 SWAP1 POP JUMP JUMPDEST PUSH1 0x0 PUSH2 0x2758 PUSH2 0x2753 DUP5 PUSH2 0x2719 JUMP JUMPDEST PUSH2 0x24B2 JUMP JUMPDEST SWAP1 POP DUP1 DUP4 DUP3 MSTORE PUSH1 0x20 DUP3 ADD SWAP1 POP PUSH1 0x20 DUP5 MUL DUP4 ADD DUP6 DUP2 GT ISZERO PUSH2 0x277B JUMPI PUSH2 0x277A PUSH2 0x24F9 JUMP JUMPDEST JUMPDEST DUP4 JUMPDEST DUP2 DUP2 LT ISZERO PUSH2 0x27A4 JUMPI DUP1 PUSH2 0x2790 DUP9 DUP3 PUSH2 0x21A0 JUMP JUMPDEST DUP5 MSTORE PUSH1 0x20 DUP5 ADD SWAP4 POP POP PUSH1 0x20 DUP2 ADD SWAP1 POP PUSH2 0x277D JUMP JUMPDEST POP POP POP SWAP4 SWAP3 POP POP POP JUMP JUMPDEST PUSH1 0x0 DUP3 PUSH1 0x1F DUP4 ADD SLT PUSH2 0x27C3 JUMPI PUSH2 0x27C2 PUSH2 0x244D JUMP JUMPDEST JUMPDEST DUP2 CALLDATALOAD PUSH2 0x27D3 DUP5 DUP3 PUSH1 0x20 DUP7 ADD PUSH2 0x2745 JUMP JUMPDEST SWAP2 POP POP SWAP3 SWAP2 POP POP JUMP JUMPDEST PUSH1 0x0 DUP1 PUSH1 0x40 DUP4 DUP6 SUB SLT ISZERO PUSH2 0x27F3 JUMPI PUSH2 0x27F2 PUSH2 0x214D JUMP JUMPDEST JUMPDEST PUSH1 0x0 DUP4 ADD CALLDATALOAD PUSH8 0xFFFFFFFFFFFFFFFF DUP2 GT ISZERO PUSH2 0x2811 JUMPI PUSH2 0x2810 PUSH2 0x2152 JUMP JUMPDEST JUMPDEST PUSH2 0x281D DUP6 DUP3 DUP7 ADD PUSH2 0x27AE JUMP JUMPDEST SWAP3 POP POP PUSH1 0x20 DUP4 ADD CALLDATALOAD PUSH8 0xFFFFFFFFFFFFFFFF DUP2 GT ISZERO PUSH2 0x283E JUMPI PUSH2 0x283D PUSH2 0x2152 JUMP JUMPDEST JUMPDEST PUSH2 0x284A DUP6 DUP3 DUP7 ADD PUSH2 0x2567 JUMP JUMPDEST SWAP2 POP POP SWAP3 POP SWAP3 SWAP1 POP JUMP JUMPDEST PUSH1 0x0 DUP2 MLOAD SWAP1 POP SWAP2 SWAP1 POP JUMP JUMPDEST PUSH1 0x0 DUP3 DUP3 MSTORE PUSH1 0x20 DUP3 ADD SWAP1 POP SWAP3 SWAP2 POP POP JUMP JUMPDEST PUSH1 0x0 DUP2 SWAP1 POP PUSH1 0x20 DUP3 ADD SWAP1 POP SWAP2 SWAP1 POP JUMP JUMPDEST PUSH2 0x2889 DUP2 PUSH2 0x21B5 JUMP JUMPDEST DUP3 MSTORE POP POP JUMP JUMPDEST PUSH1 0x0 PUSH2 0x289B DUP4 DUP4 PUSH2 0x2880 JUMP JUMPDEST PUSH1 0x20 DUP4 ADD SWAP1 POP SWAP3 SWAP2 POP POP JUMP JUMPDEST PUSH1 0x0 PUSH1 0x20 DUP3 ADD SWAP1 POP SWAP2 SWAP1 POP JUMP JUMPDEST PUSH1 0x0 PUSH2 0x28BF DUP3 PUSH2 0x2854 JUMP JUMPDEST PUSH2 0x28C9 DUP2 DUP6 PUSH2 0x285F JUMP JUMPDEST SWAP4 POP PUSH2 0x28D4 DUP4 PUSH2 0x2870 JUMP JUMPDEST DUP1 PUSH1 0x0 JUMPDEST DUP4 DUP2 LT ISZERO PUSH2 0x2905 JUMPI DUP2 MLOAD PUSH2 0x28EC DUP9 DUP3 PUSH2 0x288F JUMP JUMPDEST SWAP8 POP PUSH2 0x28F7 DUP4 PUSH2 0x28A7 JUMP JUMPDEST SWAP3 POP POP PUSH1 0x1 DUP2 ADD SWAP1 POP PUSH2 0x28D8 JUMP JUMPDEST POP DUP6 SWAP4 POP POP POP POP SWAP3 SWAP2 POP POP JUMP JUMPDEST PUSH1 0x0 PUSH1 0x20 DUP3 ADD SWAP1 POP DUP2 DUP2 SUB PUSH1 0x0 DUP4 ADD MSTORE PUSH2 0x292C DUP2 DUP5 PUSH2 0x28B4 JUMP JUMPDEST SWAP1 POP SWAP3 SWAP2 POP POP JUMP JUMPDEST PUSH2 0x293D DUP2 PUSH2 0x22DA JUMP JUMPDEST DUP2 EQ PUSH2 0x2948 JUMPI PUSH1 0x0 DUP1 REVERT JUMPDEST POP JUMP JUMPDEST PUSH1 0x0 DUP2 CALLDATALOAD SWAP1 POP PUSH2 0x295A DUP2 PUSH2 0x2934 JUMP JUMPDEST SWAP3 SWAP2 POP POP JUMP JUMPDEST PUSH1 0x0 DUP1 PUSH1 0x40 DUP4 DUP6 SUB SLT ISZERO PUSH2 0x2977 JUMPI PUSH2 0x2976 PUSH2 0x214D JUMP JUMPDEST JUMPDEST PUSH1 0x0 PUSH2 0x2985 DUP6 DUP3 DUP7 ADD PUSH2 0x21A0 JUMP JUMPDEST SWAP3 POP POP PUSH1 0x20 PUSH2 0x2996 DUP6 DUP3 DUP7 ADD PUSH2 0x294B JUMP JUMPDEST SWAP2 POP POP SWAP3 POP SWAP3 SWAP1 POP JUMP JUMPDEST PUSH1 0x0 PUSH8 0xFFFFFFFFFFFFFFFF DUP3 GT ISZERO PUSH2 0x29BB JUMPI PUSH2 0x29BA PUSH2 0x2452 JUMP JUMPDEST JUMPDEST PUSH2 0x29C4 DUP3 PUSH2 0x23E1 JUMP JUMPDEST SWAP1 POP PUSH1 0x20 DUP2 ADD SWAP1 POP SWAP2 SWAP1 POP JUMP JUMPDEST PUSH1 0x0 PUSH2 0x29E4 PUSH2 0x29DF DUP5 PUSH2 0x29A0 JUMP JUMPDEST PUSH2 0x24B2 JUMP JUMPDEST SWAP1 POP DUP3 DUP2 MSTORE PUSH1 0x20 DUP2 ADD DUP5 DUP5 DUP5 ADD GT ISZERO PUSH2 0x2A00 JUMPI PUSH2 0x29FF PUSH2 0x2595 JUMP JUMPDEST JUMPDEST PUSH2 0x2A0B DUP5 DUP3 DUP6 PUSH2 0x25CB JUMP JUMPDEST POP SWAP4 SWAP3 POP POP POP JUMP JUMPDEST PUSH1 0x0 DUP3 PUSH1 0x1F DUP4 ADD SLT PUSH2 0x2A28 JUMPI PUSH2 0x2A27 PUSH2 0x244D JUMP JUMPDEST JUMPDEST DUP2 CALLDATALOAD PUSH2 0x2A38 DUP5 DUP3 PUSH1 0x20 DUP7 ADD PUSH2 0x29D1 JUMP JUMPDEST SWAP2 POP POP SWAP3 SWAP2 POP POP JUMP JUMPDEST PUSH1 0x0 PUSH1 0x20 DUP3 DUP5 SUB SLT ISZERO PUSH2 0x2A57 JUMPI PUSH2 0x2A56 PUSH2 0x214D JUMP JUMPDEST JUMPDEST PUSH1 0x0 DUP3 ADD CALLDATALOAD PUSH8 0xFFFFFFFFFFFFFFFF DUP2 GT ISZERO PUSH2 0x2A75 JUMPI PUSH2 0x2A74 PUSH2 0x2152 JUMP JUMPDEST JUMPDEST PUSH2 0x2A81 DUP5 DUP3 DUP6 ADD PUSH2 0x2A13 JUMP JUMPDEST SWAP2 POP POP SWAP3 SWAP2 POP POP JUMP JUMPDEST PUSH1 0x0 DUP1 PUSH1 0x40 DUP4 DUP6 SUB SLT ISZERO PUSH2 0x2AA1 JUMPI PUSH2 0x2AA0 PUSH2 0x214D JUMP JUMPDEST JUMPDEST PUSH1 0x0 PUSH2 0x2AAF DUP6 DUP3 DUP7 ADD PUSH2 0x21A0 JUMP JUMPDEST SWAP3 POP POP PUSH1 0x20 PUSH2 0x2AC0 DUP6 DUP3 DUP7 ADD PUSH2 0x21A0 JUMP JUMPDEST SWAP2 POP POP SWAP3 POP SWAP3 SWAP1 POP JUMP JUMPDEST PUSH1 0x0 DUP1 PUSH1 0x0 DUP1 PUSH1 0x0 PUSH1 0xA0 DUP7 DUP9 SUB SLT ISZERO PUSH2 0x2AE6 JUMPI PUSH2 0x2AE5 PUSH2 0x214D JUMP JUMPDEST JUMPDEST PUSH1 0x0 PUSH2 0x2AF4 DUP9 DUP3 DUP10 ADD PUSH2 0x21A0 JUMP JUMPDEST SWAP6 POP POP PUSH1 0x20 PUSH2 0x2B05 DUP9 DUP3 DUP10 ADD PUSH2 0x21A0 JUMP JUMPDEST SWAP5 POP POP PUSH1 0x40 PUSH2 0x2B16 DUP9 DUP3 DUP10 ADD PUSH2 0x21D6 JUMP JUMPDEST SWAP4 POP POP PUSH1 0x60 PUSH2 0x2B27 DUP9 DUP3 DUP10 ADD PUSH2 0x21D6 JUMP JUMPDEST SWAP3 POP POP PUSH1 0x80 DUP7 ADD CALLDATALOAD PUSH8 0xFFFFFFFFFFFFFFFF DUP2 GT ISZERO PUSH2 0x2B48 JUMPI PUSH2 0x2B47 PUSH2 0x2152 JUMP JUMPDEST JUMPDEST PUSH2 0x2B54 DUP9 DUP3 DUP10 ADD PUSH2 0x261C JUMP JUMPDEST SWAP2 POP POP SWAP3 SWAP6 POP SWAP3 SWAP6 SWAP1 SWAP4 POP JUMP JUMPDEST PUSH32 0x4E487B7100000000000000000000000000000000000000000000000000000000 PUSH1 0x0 MSTORE PUSH1 0x11 PUSH1 0x4 MSTORE PUSH1 0x24 PUSH1 0x0 REVERT JUMPDEST PUSH1 0x0 PUSH2 0x2B9B DUP3 PUSH2 0x21B5 JUMP JUMPDEST SWAP2 POP PUSH2 0x2BA6 DUP4 PUSH2 0x21B5 JUMP JUMPDEST SWAP3 POP DUP3 DUP3 ADD SWAP1 POP DUP1 DUP3 GT ISZERO PUSH2 0x2BBE JUMPI PUSH2 0x2BBD PUSH2 0x2B61 JUMP JUMPDEST JUMPDEST SWAP3 SWAP2 POP POP JUMP JUMPDEST PUSH32 0x63616E6E6F7420636F6E74726962757465206D6F7265207468616E2074686520 PUSH1 0x0 DUP3 ADD MSTORE PUSH32 0x66756E64696E6720746172676574000000000000000000000000000000000000 PUSH1 0x20 DUP3 ADD MSTORE POP JUMP JUMPDEST PUSH1 0x0 PUSH2 0x2C20 PUSH1 0x2E DUP4 PUSH2 0x23A6 JUMP JUMPDEST SWAP2 POP PUSH2 0x2C2B DUP3 PUSH2 0x2BC4 JUMP JUMPDEST PUSH1 0x40 DUP3 ADD SWAP1 POP SWAP2 SWAP1 POP JUMP JUMPDEST PUSH1 0x0 PUSH1 0x20 DUP3 ADD SWAP1 POP DUP2 DUP2 SUB PUSH1 0x0 DUP4 ADD MSTORE PUSH2 0x2C4F DUP2 PUSH2 0x2C13 JUMP JUMPDEST SWAP1 POP SWAP2 SWAP1 POP JUMP JUMPDEST PUSH32 0x4E487B7100000000000000000000000000000000000000000000000000000000 PUSH1 0x0 MSTORE PUSH1 0x22 PUSH1 0x4 MSTORE PUSH1 0x24 PUSH1 0x0 REVERT JUMPDEST PUSH1 0x0 PUSH1 0x2 DUP3 DIV SWAP1 POP PUSH1 0x1 DUP3 AND DUP1 PUSH2 0x2C9D JUMPI PUSH1 0x7F DUP3 AND SWAP2 POP JUMPDEST PUSH1 0x20 DUP3 LT DUP2 SUB PUSH2 0x2CB0 JUMPI PUSH2 0x2CAF PUSH2 0x2C56 JUMP JUMPDEST JUMPDEST POP SWAP2 SWAP1 POP JUMP JUMPDEST PUSH32 0x5573657220646964206E6F7420636F6E74726962757465000000000000000000 PUSH1 0x0 DUP3 ADD MSTORE POP JUMP JUMPDEST PUSH1 0x0 PUSH2 0x2CEC PUSH1 0x17 DUP4 PUSH2 0x23A6 JUMP JUMPDEST SWAP2 POP PUSH2 0x2CF7 DUP3 PUSH2 0x2CB6 JUMP JUMPDEST PUSH1 0x20 DUP3 ADD SWAP1 POP SWAP2 SWAP1 POP JUMP JUMPDEST PUSH1 0x0 PUSH1 0x20 DUP3 ADD SWAP1 POP DUP2 DUP2 SUB PUSH1 0x0 DUP4 ADD MSTORE PUSH2 0x2D1B DUP2 PUSH2 0x2CDF JUMP JUMPDEST SWAP1 POP SWAP2 SWAP1 POP JUMP JUMPDEST PUSH32 0x50726F706F73616C206973206E6F7420636F6D706C6574650000000000000000 PUSH1 0x0 DUP3 ADD MSTORE POP JUMP JUMPDEST PUSH1 0x0 PUSH2 0x2D58 PUSH1 0x18 DUP4 PUSH2 0x23A6 JUMP JUMPDEST SWAP2 POP PUSH2 0x2D63 DUP3 PUSH2 0x2D22 JUMP JUMPDEST PUSH1 0x20 DUP3 ADD SWAP1 POP SWAP2 SWAP1 POP JUMP JUMPDEST PUSH1 0x0 PUSH1 0x20 DUP3 ADD SWAP1 POP DUP2 DUP2 SUB PUSH1 0x0 DUP4 ADD MSTORE PUSH2 0x2D87 DUP2 PUSH2 0x2D4B JUMP JUMPDEST SWAP1 POP SWAP2 SWAP1 POP JUMP JUMPDEST PUSH1 0x0 PUSH2 0x2D99 DUP3 PUSH2 0x21B5 JUMP JUMPDEST SWAP2 POP PUSH32 0xFFFFFFFFFFFFFFFFFFFFFFFFFFFFFFFFFFFFFFFFFFFFFFFFFFFFFFFFFFFFFFFF DUP3 SUB PUSH2 0x2DCB JUMPI PUSH2 0x2DCA PUSH2 0x2B61 JUMP JUMPDEST JUMPDEST PUSH1 0x1 DUP3 ADD SWAP1 POP SWAP2 SWAP1 POP JUMP JUMPDEST PUSH1 0x0 PUSH1 0x40 DUP3 ADD SWAP1 POP PUSH2 0x2DEB PUSH1 0x0 DUP4 ADD DUP6 PUSH2 0x2344 JUMP JUMPDEST PUSH2 0x2DF8 PUSH1 0x20 DUP4 ADD DUP5 PUSH2 0x2344 JUMP JUMPDEST SWAP4 SWAP3 POP POP POP JUMP JUMPDEST PUSH1 0x0 PUSH1 0x40 DUP3 ADD SWAP1 POP PUSH2 0x2E14 PUSH1 0x0 DUP4 ADD DUP6 PUSH2 0x222B JUMP JUMPDEST PUSH2 0x2E21 PUSH1 0x20 DUP4 ADD DUP5 PUSH2 0x222B JUMP JUMPDEST SWAP4 SWAP3 POP POP POP JUMP JUMPDEST PUSH32 0x4E487B7100000000000000000000000000000000000000000000000000000000 PUSH1 0x0 MSTORE PUSH1 0x32 PUSH1 0x4 MSTORE PUSH1 0x24 PUSH1 0x0 REVERT JUMPDEST PUSH32 0x50726F706F73616C2068617320616C7265616479206265656E20616363657074 PUSH1 0x0 DUP3 ADD MSTORE PUSH32 0x6564000000000000000000000000000000000000000000000000000000000000 PUSH1 0x20 DUP3 ADD MSTORE POP JUMP JUMPDEST PUSH1 0x0 PUSH2 0x2EB3 PUSH1 0x22 DUP4 PUSH2 0x23A6 JUMP JUMPDEST SWAP2 POP PUSH2 0x2EBE DUP3 PUSH2 0x2E57 JUMP JUMPDEST PUSH1 0x40 DUP3 ADD SWAP1 POP SWAP2 SWAP1 POP JUMP JUMPDEST PUSH1 0x0 PUSH1 0x20 DUP3 ADD SWAP1 POP DUP2 DUP2 SUB PUSH1 0x0 DUP4 ADD MSTORE PUSH2 0x2EE2 DUP2 PUSH2 0x2EA6 JUMP JUMPDEST SWAP1 POP SWAP2 SWAP1 POP JUMP JUMPDEST PUSH32 0x4E6F2066756E647320746F20726566756E640000000000000000000000000000 PUSH1 0x0 DUP3 ADD MSTORE POP JUMP JUMPDEST PUSH1 0x0 PUSH2 0x2F1F PUSH1 0x12 DUP4 PUSH2 0x23A6 JUMP JUMPDEST SWAP2 POP PUSH2 0x2F2A DUP3 PUSH2 0x2EE9 JUMP JUMPDEST PUSH1 0x20 DUP3 ADD SWAP1 POP SWAP2 SWAP1 POP JUMP JUMPDEST PUSH1 0x0 PUSH1 0x20 DUP3 ADD SWAP1 POP DUP2 DUP2 SUB PUSH1 0x0 DUP4 ADD MSTORE PUSH2 0x2F4E DUP2 PUSH2 0x2F12 JUMP JUMPDEST SWAP1 POP SWAP2 SWAP1 POP JUMP JUMPDEST PUSH32 0x66756E64696E6720646561646C696E6520686173206E6F74206265656E207265 PUSH1 0x0 DUP3 ADD MSTORE PUSH32 0x6163686564000000000000000000000000000000000000000000000000000000 PUSH1 0x20 DUP3 ADD MSTORE POP JUMP JUMPDEST PUSH1 0x0 PUSH2 0x2FB1 PUSH1 0x25 DUP4 PUSH2 0x23A6 JUMP JUMPDEST SWAP2 POP PUSH2 0x2FBC DUP3 PUSH2 0x2F55 JUMP JUMPDEST PUSH1 0x40 DUP3 ADD SWAP1 POP SWAP2 SWAP1 POP JUMP JUMPDEST PUSH1 0x0 PUSH1 0x20 DUP3 ADD SWAP1 POP DUP2 DUP2 SUB PUSH1 0x0 DUP4 ADD MSTORE PUSH2 0x2FE0 DUP2 PUSH2 0x2FA4 JUMP JUMPDEST SWAP1 POP SWAP2 SWAP1 POP JUMP JUMPDEST PUSH32 0x4661696C656420746F2073656E64204574686572000000000000000000000000 PUSH1 0x0 DUP3 ADD MSTORE POP JUMP JUMPDEST PUSH1 0x0 PUSH2 0x301D PUSH1 0x14 DUP4 PUSH2 0x23A6 JUMP JUMPDEST SWAP2 POP PUSH2 0x3028 DUP3 PUSH2 0x2FE7 JUMP JUMPDEST PUSH1 0x20 DUP3 ADD SWAP1 POP SWAP2 SWAP1 POP JUMP JUMPDEST PUSH1 0x0 PUSH1 0x20 DUP3 ADD SWAP1 POP DUP2 DUP2 SUB PUSH1 0x0 DUP4 ADD MSTORE PUSH2 0x304C DUP2 PUSH2 0x3010 JUMP JUMPDEST SWAP1 POP SWAP2 SWAP1 POP JUMP JUMPDEST PUSH1 0x0 DUP2 MLOAD SWAP1 POP PUSH2 0x3062 DUP2 PUSH2 0x2934 JUMP JUMPDEST SWAP3 SWAP2 POP POP JUMP JUMPDEST PUSH1 0x0 PUSH1 0x20 DUP3 DUP5 SUB SLT ISZERO PUSH2 0x307E JUMPI PUSH2 0x307D PUSH2 0x214D JUMP JUMPDEST JUMPDEST PUSH1 0x0 PUSH2 0x308C DUP5 DUP3 DUP6 ADD PUSH2 0x3053 JUMP JUMPDEST SWAP2 POP POP SWAP3 SWAP2 POP POP JUMP JUMPDEST PUSH32 0x4F6E6C792070726F7669646572732063616E206163636570742070726F706F73 PUSH1 0x0 DUP3 ADD MSTORE PUSH32 0x616C730000000000000000000000000000000000000000000000000000000000 PUSH1 0x20 DUP3 ADD MSTORE POP JUMP JUMPDEST PUSH1 0x0 PUSH2 0x30F1 PUSH1 0x23 DUP4 PUSH2 0x23A6 JUMP JUMPDEST SWAP2 POP PUSH2 0x30FC DUP3 PUSH2 0x3095 JUMP JUMPDEST PUSH1 0x40 DUP3 ADD SWAP1 POP SWAP2 SWAP1 POP JUMP JUMPDEST PUSH1 0x0 PUSH1 0x20 DUP3 ADD SWAP1 POP DUP2 DUP2 SUB PUSH1 0x0 DUP4 ADD MSTORE PUSH2 0x3120 DUP2 PUSH2 0x30E4 JUMP JUMPDEST SWAP1 POP SWAP2 SWAP1 POP JUMP JUMPDEST PUSH1 0x0 PUSH2 0x3132 DUP3 PUSH2 0x21B5 JUMP JUMPDEST SWAP2 POP PUSH2 0x313D DUP4 PUSH2 0x21B5 JUMP JUMPDEST SWAP3 POP DUP3 DUP3 MUL PUSH2 0x314B DUP2 PUSH2 0x21B5 JUMP JUMPDEST SWAP2 POP DUP3 DUP3 DIV DUP5 EQ DUP4 ISZERO OR PUSH2 0x3162 JUMPI PUSH2 0x3161 PUSH2 0x2B61 JUMP JUMPDEST JUMPDEST POP SWAP3 SWAP2 POP POP JUMP JUMPDEST PUSH32 0x4E487B7100000000000000000000000000000000000000000000000000000000 PUSH1 0x0 MSTORE PUSH1 0x12 PUSH1 0x4 MSTORE PUSH1 0x24 PUSH1 0x0 REVERT JUMPDEST PUSH1 0x0 PUSH2 0x31A3 DUP3 PUSH2 0x21B5 JUMP JUMPDEST SWAP2 POP PUSH2 0x31AE DUP4 PUSH2 0x21B5 JUMP JUMPDEST SWAP3 POP DUP3 PUSH2 0x31BE JUMPI PUSH2 0x31BD PUSH2 0x3169 JUMP JUMPDEST JUMPDEST DUP3 DUP3 DIV SWAP1 POP SWAP3 SWAP2 POP POP JUMP JUMPDEST PUSH32 0x70726F706F73616C20686173206E6F74206265656E2066756C6C792066756E64 PUSH1 0x0 DUP3 ADD MSTORE PUSH32 0x6564000000000000000000000000000000000000000000000000000000000000 PUSH1 0x20 DUP3 ADD MSTORE POP JUMP JUMPDEST PUSH1 0x0 PUSH2 0x3225 PUSH1 0x22 DUP4 PUSH2 0x23A6 JUMP JUMPDEST SWAP2 POP PUSH2 0x3230 DUP3 PUSH2 0x31C9 JUMP JUMPDEST PUSH1 0x40 DUP3 ADD SWAP1 POP SWAP2 SWAP1 POP JUMP JUMPDEST PUSH1 0x0 PUSH1 0x20 DUP3 ADD SWAP1 POP DUP2 DUP2 SUB PUSH1 0x0 DUP4 ADD MSTORE PUSH2 0x3254 DUP2 PUSH2 0x3218 JUMP JUMPDEST SWAP1 POP SWAP2 SWAP1 POP JUMP JUMPDEST PUSH32 0x4F6E6C79207468652070726F76696465722063616E20636F6D706C6574652070 PUSH1 0x0 DUP3 ADD MSTORE PUSH32 0x726F706F73616C00000000000000000000000000000000000000000000000000 PUSH1 0x20 DUP3 ADD MSTORE POP JUMP JUMPDEST PUSH1 0x0 PUSH2 0x32B7 PUSH1 0x27 DUP4 PUSH2 0x23A6 JUMP JUMPDEST SWAP2 POP PUSH2 0x32C2 DUP3 PUSH2 0x325B JUMP JUMPDEST PUSH1 0x40 DUP3 ADD SWAP1 POP SWAP2 SWAP1 POP JUMP JUMPDEST PUSH1 0x0 PUSH1 0x20 DUP3 ADD SWAP1 POP DUP2 DUP2 SUB PUSH1 0x0 DUP4 ADD MSTORE PUSH2 0x32E6 DUP2 PUSH2 0x32AA JUMP JUMPDEST SWAP1 POP SWAP2 SWAP1 POP JUMP JUMPDEST PUSH1 0x0 DUP2 SWAP1 POP DUP2 PUSH1 0x0 MSTORE PUSH1 0x20 PUSH1 0x0 KECCAK256 SWAP1 POP SWAP2 SWAP1 POP JUMP JUMPDEST PUSH1 0x0 PUSH1 0x20 PUSH1 0x1F DUP4 ADD DIV SWAP1 POP SWAP2 SWAP1 POP JUMP JUMPDEST PUSH1 0x0 DUP3 DUP3 SHL SWAP1 POP SWAP3 SWAP2 POP POP JUMP JUMPDEST PUSH1 0x0 PUSH1 0x8 DUP4 MUL PUSH2 0x334F PUSH32 0xFFFFFFFFFFFFFFFFFFFFFFFFFFFFFFFFFFFFFFFFFFFFFFFFFFFFFFFFFFFFFFFF DUP3 PUSH2 0x3312 JUMP JUMPDEST PUSH2 0x3359 DUP7 DUP4 PUSH2 0x3312 JUMP JUMPDEST SWAP6 POP DUP1 NOT DUP5 AND SWAP4 POP DUP1 DUP7 AND DUP5 OR SWAP3 POP POP POP SWAP4 SWAP3 POP POP POP JUMP JUMPDEST PUSH1 0x0 DUP2 SWAP1 POP SWAP2 SWAP1 POP JUMP JUMPDEST PUSH1 0x0 PUSH2 0x3396 PUSH2 0x3391 PUSH2 0x338C DUP5 PUSH2 0x21B5 JUMP JUMPDEST PUSH2 0x3371 JUMP JUMPDEST PUSH2 0x21B5 JUMP JUMPDEST SWAP1 POP SWAP2 SWAP1 POP JUMP JUMPDEST PUSH1 0x0 DUP2 SWAP1 POP SWAP2 SWAP1 POP JUMP JUMPDEST PUSH2 0x33B0 DUP4 PUSH2 0x337B JUMP JUMPDEST PUSH2 0x33C4 PUSH2 0x33BC DUP3 PUSH2 0x339D JUMP JUMPDEST DUP5 DUP5 SLOAD PUSH2 0x331F JUMP JUMPDEST DUP3 SSTORE POP POP POP POP JUMP JUMPDEST PUSH1 0x0 SWAP1 JUMP JUMPDEST PUSH2 0x33D9 PUSH2 0x33CC JUMP JUMPDEST PUSH2 0x33E4 DUP2 DUP5 DUP5 PUSH2 0x33A7 JUMP JUMPDEST POP POP POP JUMP JUMPDEST JUMPDEST DUP2 DUP2 LT ISZERO PUSH2 0x3408 JUMPI PUSH2 0x33FD PUSH1 0x0 DUP3 PUSH2 0x33D1 JUMP JUMPDEST PUSH1 0x1 DUP2 ADD SWAP1 POP PUSH2 0x33EA JUMP JUMPDEST POP POP JUMP JUMPDEST PUSH1 0x1F DUP3 GT ISZERO PUSH2 0x344D JUMPI PUSH2 0x341E DUP2 PUSH2 0x32ED JUMP JUMPDEST PUSH2 0x3427 DUP5 PUSH2 0x3302 JUMP JUMPDEST DUP2 ADD PUSH1 0x20 DUP6 LT ISZERO PUSH2 0x3436 JUMPI DUP2 SWAP1 POP JUMPDEST PUSH2 0x344A PUSH2 0x3442 DUP6 PUSH2 0x3302 JUMP JUMPDEST DUP4 ADD DUP3 PUSH2 0x33E9 JUMP JUMPDEST POP POP JUMPDEST POP POP POP JUMP JUMPDEST PUSH1 0x0 DUP3 DUP3 SHR SWAP1 POP SWAP3 SWAP2 POP POP JUMP JUMPDEST PUSH1 0x0 PUSH2 0x3470 PUSH1 0x0 NOT DUP5 PUSH1 0x8 MUL PUSH2 0x3452 JUMP JUMPDEST NOT DUP1 DUP4 AND SWAP2 POP POP SWAP3 SWAP2 POP POP JUMP JUMPDEST PUSH1 0x0 PUSH2 0x3489 DUP4 DUP4 PUSH2 0x345F JUMP JUMPDEST SWAP2 POP DUP3 PUSH1 0x2 MUL DUP3 OR SWAP1 POP SWAP3 SWAP2 POP POP JUMP JUMPDEST PUSH2 0x34A2 DUP3 PUSH2 0x239B JUMP JUMPDEST PUSH8 0xFFFFFFFFFFFFFFFF DUP2 GT ISZERO PUSH2 0x34BB JUMPI PUSH2 0x34BA PUSH2 0x2452 JUMP JUMPDEST JUMPDEST PUSH2 0x34C5 DUP3 SLOAD PUSH2 0x2C85 JUMP JUMPDEST PUSH2 0x34D0 DUP3 DUP3 DUP6 PUSH2 0x340C JUMP JUMPDEST PUSH1 0x0 PUSH1 0x20 SWAP1 POP PUSH1 0x1F DUP4 GT PUSH1 0x1 DUP2 EQ PUSH2 0x3503 JUMPI PUSH1 0x0 DUP5 ISZERO PUSH2 0x34F1 JUMPI DUP3 DUP8 ADD MLOAD SWAP1 POP JUMPDEST PUSH2 0x34FB DUP6 DUP3 PUSH2 0x347D JUMP JUMPDEST DUP7 SSTORE POP PUSH2 0x3563 JUMP JUMPDEST PUSH1 0x1F NOT DUP5 AND PUSH2 0x3511 DUP7 PUSH2 0x32ED JUMP JUMPDEST PUSH1 0x0 JUMPDEST DUP3 DUP2 LT ISZERO PUSH2 0x3539 JUMPI DUP5 DUP10 ADD MLOAD DUP3 SSTORE PUSH1 0x1 DUP3 ADD SWAP2 POP PUSH1 0x20 DUP6 ADD SWAP5 POP PUSH1 0x20 DUP2 ADD SWAP1 POP PUSH2 0x3514 JUMP JUMPDEST DUP7 DUP4 LT ISZERO PUSH2 0x3556 JUMPI DUP5 DUP10 ADD MLOAD PUSH2 0x3552 PUSH1 0x1F DUP10 AND DUP3 PUSH2 0x345F JUMP JUMPDEST DUP4 SSTORE POP JUMPDEST PUSH1 0x1 PUSH1 0x2 DUP9 MUL ADD DUP9 SSTORE POP POP POP JUMPDEST POP POP POP POP POP POP JUMP JUMPDEST PUSH1 0x0 PUSH1 0x80 DUP3 ADD SWAP1 POP PUSH2 0x3580 PUSH1 0x0 DUP4 ADD DUP8 PUSH2 0x2344 JUMP JUMPDEST PUSH2 0x358D PUSH1 0x20 DUP4 ADD DUP7 PUSH2 0x222B JUMP JUMPDEST PUSH2 0x359A PUSH1 0x40 DUP4 ADD DUP6 PUSH2 0x222B JUMP JUMPDEST PUSH2 0x35A7 PUSH1 0x60 DUP4 ADD DUP5 PUSH2 0x222B JUMP JUMPDEST SWAP6 SWAP5 POP POP POP POP POP JUMP JUMPDEST PUSH1 0x0 PUSH1 0x40 DUP3 ADD SWAP1 POP DUP2 DUP2 SUB PUSH1 0x0 DUP4 ADD MSTORE PUSH2 0x35CA DUP2 DUP6 PUSH2 0x28B4 JUMP JUMPDEST SWAP1 POP DUP2 DUP2 SUB PUSH1 0x20 DUP4 ADD MSTORE PUSH2 0x35DE DUP2 DUP5 PUSH2 0x28B4 JUMP JUMPDEST SWAP1 POP SWAP4 SWAP3 POP POP POP JUMP JUMPDEST PUSH1 0x0 DUP2 MLOAD SWAP1 POP SWAP2 SWAP1 POP JUMP JUMPDEST PUSH1 0x0 DUP3 DUP3 MSTORE PUSH1 0x20 DUP3 ADD SWAP1 POP SWAP3 SWAP2 POP POP JUMP JUMPDEST PUSH1 0x0 PUSH2 0x360E DUP3 PUSH2 0x35E7 JUMP JUMPDEST PUSH2 0x3618 DUP2 DUP6 PUSH2 0x35F2 JUMP JUMPDEST SWAP4 POP PUSH2 0x3628 DUP2 DUP6 PUSH1 0x20 DUP7 ADD PUSH2 0x23B7 JUMP JUMPDEST PUSH2 0x3631 DUP2 PUSH2 0x23E1 JUMP JUMPDEST DUP5 ADD SWAP2 POP POP SWAP3 SWAP2 POP POP JUMP JUMPDEST PUSH1 0x0 PUSH1 0xA0 DUP3 ADD SWAP1 POP PUSH2 0x3651 PUSH1 0x0 DUP4 ADD DUP9 PUSH2 0x2344 JUMP JUMPDEST PUSH2 0x365E PUSH1 0x20 DUP4 ADD DUP8 PUSH2 0x2344 JUMP JUMPDEST PUSH2 0x366B PUSH1 0x40 DUP4 ADD DUP7 PUSH2 0x222B JUMP JUMPDEST PUSH2 0x3678 PUSH1 0x60 DUP4 ADD DUP6 PUSH2 0x222B JUMP JUMPDEST DUP2 DUP2 SUB PUSH1 0x80 DUP4 ADD MSTORE PUSH2 0x368A DUP2 DUP5 PUSH2 0x3603 JUMP JUMPDEST SWAP1 POP SWAP7 SWAP6 POP POP POP POP POP POP JUMP JUMPDEST PUSH1 0x0 DUP2 MLOAD SWAP1 POP PUSH2 0x36A5 DUP2 PUSH2 0x2281 JUMP JUMPDEST SWAP3 SWAP2 POP POP JUMP JUMPDEST PUSH1 0x0 PUSH1 0x20 DUP3 DUP5 SUB SLT ISZERO PUSH2 0x36C1 JUMPI PUSH2 0x36C0 PUSH2 0x214D JUMP JUMPDEST JUMPDEST PUSH1 0x0 PUSH2 0x36CF DUP5 DUP3 DUP6 ADD PUSH2 0x3696 JUMP JUMPDEST SWAP2 POP POP SWAP3 SWAP2 POP POP JUMP JUMPDEST PUSH1 0x0 PUSH1 0xA0 DUP3 ADD SWAP1 POP PUSH2 0x36ED PUSH1 0x0 DUP4 ADD DUP9 PUSH2 0x2344 JUMP JUMPDEST PUSH2 0x36FA PUSH1 0x20 DUP4 ADD DUP8 PUSH2 0x2344 JUMP JUMPDEST DUP2 DUP2 SUB PUSH1 0x40 DUP4 ADD MSTORE PUSH2 0x370C DUP2 DUP7 PUSH2 0x28B4 JUMP JUMPDEST SWAP1 POP DUP2 DUP2 SUB PUSH1 0x60 DUP4 ADD MSTORE PUSH2 0x3720 DUP2 DUP6 PUSH2 0x28B4 JUMP JUMPDEST SWAP1 POP DUP2 DUP2 SUB PUSH1 0x80 DUP4 ADD MSTORE PUSH2 0x3734 DUP2 DUP5 PUSH2 0x3603 JUMP JUMPDEST SWAP1 POP SWAP7 SWAP6 POP POP POP POP POP POP JUMP INVALID LOG2 PUSH5 0x6970667358 0x22 SLT KECCAK256 0x2D 0xBC 0xD4 0xB1 SELFDESTRUCT BLOBBASEFEE 0xC3 REVERT 0x23 0xA7 0xA9 DELEGATECALL PREVRANDAO SELFBALANCE 0xBB MCOPY 0xF7 PUSH27 0x3B8B3D1A2BDF569BEA7BCF37A8664736F6C634300081800336970 PUSH7 0x733A2F2F516D51 0x4D JUMPI PUSH15 0x48543154466B74697136586E796B4E PUSH12 0x7368616D5750796455337065 JUMPI ORIGIN MSTORE 0x4B PUSH22 0x514B63427A53322E706E67A2646970667358221220EF RETURNDATASIZE SLT 0x4C 0xE0 0x2C EXTCODECOPY INVALID PUSH13 0xD5AE4BF42D197B7F9866AFD3A0 RETURNDATACOPY 0xBD 0xB5 PUSH30 0x722B7735DBE264736F6C6343000818003300000000000000000000000000 "},"methodIdentifiers":{"addProvider(address)":"46e2577a","createProposal(uint256,int256,int256,string,uint256,string)":"b226f0cc","getProposals()":"62564c48","isProvider(address)":"6b074a07","owner()":"8da5cb5b","proposals(uint256)":"013cf08b","providers(address)":"0787bc27"}}}}}